{
  "contracts/NestDrive.sol": {
    "NestDrive": {
      "abi": [
        {
          "inputs": [],
          "stateMutability": "nonpayable",
          "type": "constructor"
        },
        {
          "anonymous": false,
          "inputs": [
            {
              "indexed": false,
              "internalType": "address",
              "name": "adder",
              "type": "address"
            },
            {
              "indexed": false,
              "internalType": "address",
              "name": "newMod",
              "type": "address"
            }
          ],
          "name": "AssignMod",
          "type": "event"
        },
        {
          "anonymous": false,
          "inputs": [
            {
              "indexed": false,
              "internalType": "uint256",
              "name": "fileId",
              "type": "uint256"
            },
            {
              "indexed": false,
              "internalType": "string",
              "name": "fileHash",
              "type": "string"
            },
            {
              "indexed": false,
              "internalType": "string",
              "name": "fileSize",
              "type": "string"
            },
            {
              "indexed": false,
              "internalType": "string",
              "name": "fileType",
              "type": "string"
            },
            {
              "indexed": false,
              "internalType": "string",
              "name": "fileName",
              "type": "string"
            },
            {
              "indexed": false,
              "internalType": "string",
              "name": "fileDescription",
              "type": "string"
            },
            {
              "indexed": false,
              "internalType": "uint256",
              "name": "uploadTime",
              "type": "uint256"
            },
            {
              "indexed": false,
              "internalType": "address",
              "name": "uploader",
              "type": "address"
            },
            {
              "indexed": false,
              "internalType": "bool",
              "name": "isPublic",
              "type": "bool"
            }
          ],
          "name": "FileUploaded",
          "type": "event"
        },
        {
          "anonymous": false,
          "inputs": [
            {
              "indexed": false,
              "internalType": "address",
              "name": "account",
              "type": "address"
            }
          ],
          "name": "Paused",
          "type": "event"
        },
        {
          "anonymous": false,
          "inputs": [
            {
              "indexed": false,
              "internalType": "address",
              "name": "remover",
              "type": "address"
            },
            {
              "indexed": false,
              "internalType": "address",
              "name": "newMod",
              "type": "address"
            }
          ],
          "name": "RemoveMod",
          "type": "event"
        },
        {
          "anonymous": false,
          "inputs": [
            {
              "indexed": false,
              "internalType": "address",
              "name": "account",
              "type": "address"
            }
          ],
          "name": "Unpaused",
          "type": "event"
        },
        {
          "inputs": [
            {
              "internalType": "uint256",
              "name": "",
              "type": "uint256"
            }
          ],
          "name": "Allfiles",
          "outputs": [
            {
              "internalType": "uint256",
              "name": "fileId",
              "type": "uint256"
            },
            {
              "internalType": "string",
              "name": "fileHash",
              "type": "string"
            },
            {
              "internalType": "string",
              "name": "fileSize",
              "type": "string"
            },
            {
              "internalType": "string",
              "name": "fileType",
              "type": "string"
            },
            {
              "internalType": "string",
              "name": "fileName",
              "type": "string"
            },
            {
              "internalType": "string",
              "name": "fileDescription",
              "type": "string"
            },
            {
              "internalType": "uint256",
              "name": "uploadTime",
              "type": "uint256"
            },
            {
              "internalType": "address",
              "name": "uploader",
              "type": "address"
            },
            {
              "internalType": "bool",
              "name": "isPublic",
              "type": "bool"
            }
          ],
          "stateMutability": "view",
          "type": "function"
        },
        {
          "inputs": [
            {
              "internalType": "address",
              "name": "_addr",
              "type": "address"
            }
          ],
          "name": "addToBlackList",
          "outputs": [
            {
              "internalType": "bool",
              "name": "",
              "type": "bool"
            }
          ],
          "stateMutability": "nonpayable",
          "type": "function"
        },
        {
          "inputs": [
            {
              "internalType": "address",
              "name": "_newMod",
              "type": "address"
            }
          ],
          "name": "assignMod",
          "outputs": [],
          "stateMutability": "nonpayable",
          "type": "function"
        },
        {
          "inputs": [
            {
              "internalType": "address",
              "name": "",
              "type": "address"
            }
          ],
          "name": "blackListedAddresses",
          "outputs": [
            {
              "internalType": "bool",
              "name": "",
              "type": "bool"
            }
          ],
          "stateMutability": "view",
          "type": "function"
        },
        {
          "inputs": [
            {
              "internalType": "uint256",
              "name": "fileId",
              "type": "uint256"
            }
          ],
          "name": "clearReportedFiles",
          "outputs": [],
          "stateMutability": "nonpayable",
          "type": "function"
        },
        {
          "inputs": [],
          "name": "fetchPublicFiles",
          "outputs": [
            {
              "components": [
                {
                  "internalType": "uint256",
                  "name": "fileId",
                  "type": "uint256"
                },
                {
                  "internalType": "string",
                  "name": "fileHash",
                  "type": "string"
                },
                {
                  "internalType": "string",
                  "name": "fileSize",
                  "type": "string"
                },
                {
                  "internalType": "string",
                  "name": "fileType",
                  "type": "string"
                },
                {
                  "internalType": "string",
                  "name": "fileName",
                  "type": "string"
                },
                {
                  "internalType": "string",
                  "name": "fileDescription",
                  "type": "string"
                },
                {
                  "internalType": "uint256",
                  "name": "uploadTime",
                  "type": "uint256"
                },
                {
                  "internalType": "address",
                  "name": "uploader",
                  "type": "address"
                },
                {
                  "internalType": "bool",
                  "name": "isPublic",
                  "type": "bool"
                }
              ],
              "internalType": "struct NestDrive.File[]",
              "name": "",
              "type": "tuple[]"
            }
          ],
          "stateMutability": "view",
          "type": "function"
        },
        {
          "inputs": [],
          "name": "fetchUserFiles",
          "outputs": [
            {
              "components": [
                {
                  "internalType": "uint256",
                  "name": "fileId",
                  "type": "uint256"
                },
                {
                  "internalType": "string",
                  "name": "fileHash",
                  "type": "string"
                },
                {
                  "internalType": "string",
                  "name": "fileSize",
                  "type": "string"
                },
                {
                  "internalType": "string",
                  "name": "fileType",
                  "type": "string"
                },
                {
                  "internalType": "string",
                  "name": "fileName",
                  "type": "string"
                },
                {
                  "internalType": "string",
                  "name": "fileDescription",
                  "type": "string"
                },
                {
                  "internalType": "uint256",
                  "name": "uploadTime",
                  "type": "uint256"
                },
                {
                  "internalType": "address",
                  "name": "uploader",
                  "type": "address"
                },
                {
                  "internalType": "bool",
                  "name": "isPublic",
                  "type": "bool"
                }
              ],
              "internalType": "struct NestDrive.File[]",
              "name": "",
              "type": "tuple[]"
            }
          ],
          "stateMutability": "view",
          "type": "function"
        },
        {
          "inputs": [
            {
              "internalType": "uint256",
              "name": "fileId",
              "type": "uint256"
            }
          ],
          "name": "makeFilePrivate",
          "outputs": [],
          "stateMutability": "nonpayable",
          "type": "function"
        },
        {
          "inputs": [
            {
              "internalType": "uint256",
              "name": "fileId",
              "type": "uint256"
            }
          ],
          "name": "makeFilePublic",
          "outputs": [],
          "stateMutability": "nonpayable",
          "type": "function"
        },
        {
          "inputs": [
            {
              "internalType": "address",
              "name": "",
              "type": "address"
            }
          ],
          "name": "moderator",
          "outputs": [
            {
              "internalType": "bool",
              "name": "",
              "type": "bool"
            }
          ],
          "stateMutability": "view",
          "type": "function"
        },
        {
          "inputs": [],
          "name": "pause",
          "outputs": [],
          "stateMutability": "nonpayable",
          "type": "function"
        },
        {
          "inputs": [],
          "name": "paused",
          "outputs": [
            {
              "internalType": "bool",
              "name": "",
              "type": "bool"
            }
          ],
          "stateMutability": "view",
          "type": "function"
        },
        {
          "inputs": [
            {
              "internalType": "address",
              "name": "_addr",
              "type": "address"
            }
          ],
          "name": "removeFromBlackList",
          "outputs": [
            {
              "internalType": "bool",
              "name": "",
              "type": "bool"
            }
          ],
          "stateMutability": "nonpayable",
          "type": "function"
        },
        {
          "inputs": [
            {
              "internalType": "address",
              "name": "_mod",
              "type": "address"
            }
          ],
          "name": "removeMod",
          "outputs": [],
          "stateMutability": "nonpayable",
          "type": "function"
        },
        {
          "inputs": [
            {
              "internalType": "uint256",
              "name": "fileId",
              "type": "uint256"
            }
          ],
          "name": "report",
          "outputs": [],
          "stateMutability": "nonpayable",
          "type": "function"
        },
        {
          "inputs": [
            {
              "internalType": "uint256",
              "name": "",
              "type": "uint256"
            }
          ],
          "name": "reportedFiles",
          "outputs": [
            {
              "internalType": "uint256",
              "name": "",
              "type": "uint256"
            }
          ],
          "stateMutability": "view",
          "type": "function"
        },
        {
          "inputs": [],
          "name": "unpause",
          "outputs": [],
          "stateMutability": "nonpayable",
          "type": "function"
        },
        {
          "inputs": [
            {
              "internalType": "string",
              "name": "_fileHash",
              "type": "string"
            },
            {
              "internalType": "string",
              "name": "_fileSize",
              "type": "string"
            },
            {
              "internalType": "string",
              "name": "_fileType",
              "type": "string"
            },
            {
              "internalType": "string",
              "name": "_fileName",
              "type": "string"
            },
            {
              "internalType": "string",
              "name": "_fileDescription",
              "type": "string"
            },
            {
              "internalType": "bool",
              "name": "_isPublic",
              "type": "bool"
            }
          ],
          "name": "uploadFile",
          "outputs": [],
          "stateMutability": "nonpayable",
          "type": "function"
        }
      ],
      "evm": {
        "bytecode": {
          "linkReferences": {},
          "object": "60806040523480156200001157600080fd5b5060008060006101000a81548160ff021916908315150217905550620000607fc79a7738862afd2956079d6885e6932143957da7824bbad1692b86f6a3e78b2860001b6200012660201b60201c565b620000947f794429c93ae9ceb6cb6bb7e158fdebd1df10a5c1d30d7fc293fc12ca3e89010360001b6200012660201b60201c565b620000c87fbc6653f3e5a95aaed7991adb6625b0a33a2c17f7b6c4097bb5f9f8bdbbd4b81260001b6200012660201b60201c565b6001600360003373ffffffffffffffffffffffffffffffffffffffff1673ffffffffffffffffffffffffffffffffffffffff16815260200190815260200160002060006101000a81548160ff02191690831515021790555062000129565b50565b61574d80620001396000396000f3fe608060405234801561001057600080fd5b50600436106101155760003560e01c8063969b1cdb116100a2578063a8b23dbc11610071578063a8b23dbc146102be578063b1bed4f5146102dc578063b27e237c1461030c578063d13d9e9c14610328578063f54dc7571461034457610115565b8063969b1cdb1461021e578063972a92b91461023a5780639a66b923146102725780639b5690741461028e57610115565b80634637de3c116100e95780634637de3c1461018e5780634a49ac4c146101aa5780635c975abb146101da57806382d0ed2e146101f85780638456cb591461021457610115565b8062e17ba01461011a57806331d1f185146101365780633f4ba83a14610154578063417c73a71461015e575b600080fd5b610134600480360381019061012f9190614bb3565b610374565b005b61013e6106ba565b60405161014b9190614e87565b60405180910390f35b61015c6113dd565b005b61017860048036038101906101739190614ed5565b61165f565b6040516101859190614f11565b60405180910390f35b6101a860048036038101906101a39190614ed5565b611992565b005b6101c460048036038101906101bf9190614ed5565b611d3e565b6040516101d19190614f11565b60405180910390f35b6101e2612071565b6040516101ef9190614f11565b60405180910390f35b610212600480360381019061020d9190614bb3565b612087565b005b61021c61252a565b005b61023860048036038101906102339190614bb3565b6127ac565b005b610254600480360381019061024f9190614bb3565b61285c565b60405161026999989796959493929190614f94565b60405180910390f35b61028c60048036038101906102879190614bb3565b612b7f565b005b6102a860048036038101906102a39190614bb3565b612fce565b6040516102b59190615044565b60405180910390f35b6102c6612ff2565b6040516102d39190614e87565b60405180910390f35b6102f660048036038101906102f19190614ed5565b613af1565b6040516103039190614f11565b60405180910390f35b61032660048036038101906103219190614ed5565b613b11565b005b610342600480360381019061033d91906151c0565b613ebd565b005b61035e60048036038101906103599190614ed5565b6148af565b60405161036b9190614f11565b60405180910390f35b336103a17fa5bb85a5119ca86e9e3af02de1ef2a585180966b3160162a8b02cf88e513b66560001b6148cf565b6103cd7f4798711d4b0931d93995d2f59f0416b64a23679f6d50f9aa44ebe1f2a9b103b760001b6148cf565b6103f97f4cf96d3db4ff9e59fd4f0786ed78723169369eaf8c64998117140bbcb895f94860001b6148cf565b6000600360008373ffffffffffffffffffffffffffffffffffffffff1673ffffffffffffffffffffffffffffffffffffffff16815260200190815260200160002060009054906101000a900460ff1690506104767f652b750775c89bf16905fb12f13344373bcf93ad9620c84d6b3b99ffef423ea760001b6148cf565b6104a27fa9066c4d38ff22af42f93efb3e5d2ae17235ce3108403b10e35c72b91be299e560001b6148cf565b6104ce7f34b640ba749012c70e8e7eda1c0bde9f5f1bf8c55483f5a21ba13026a115599f60001b6148cf565b8061050e576040517f08c379a000000000000000000000000000000000000000000000000000000000815260040161050590615325565b60405180910390fd5b61053a7fc8391c996bc9a496f4f2fe86858dd4531eed9019015e78eb14c1618113798da460001b6148cf565b6105667f9157b2054990cc122e198aa955191ad43fcc962bdacbe5ceb561c27538727b2060001b6148cf565b6105927fa9bec7d1daff10e5762e6b78d137ae1da4107ed8d3d3c94215f21ff9388d5c9860001b6148cf565b6105be7fff4d02835b35176ba8b674463b8f62862c39805a7a7315453ea3a7c3637e742b60001b6148cf565b6105ea7f2507df39e13437dadd22f09e9de29fc3d9864d0a910ffcc4373b011494ca67fd60001b6148cf565b60006004600085815260200190815260200160002060070160146101000a81548160ff0219169083151502179055506106457f020a27f391ae2099526980054d25f4ea033867d76f8d0fe76492de39771a7c8960001b6148cf565b6106717ff48abee25b15695fa1078a78c6e5f1b3d8d8a5c241b21499640f6401ff0b916e60001b6148cf565b61067b60026148d2565b6106a77ff45f2f6228a62358851b0e61b037b67bf18af4afb58dcb1479b31a6230151c4360001b6148cf565b600660006106b59190614a41565b505050565b60606106c4612071565b15610704576040517f08c379a00000000000000000000000000000000000000000000000000000000081526004016106fb90615391565b60405180910390fd5b6107307f937a41745cdcc963e4aeaa9c56528d06c3ba1e629726f59e8841a14a3630196460001b6148cf565b61075c7f871e5c489caf1df2f4102c9a1beace4295d3833e9f26fbfb0dd04c7d6714f59260001b6148cf565b6107887fa1fa760dd71dc291007df0adc4ec92c8d1658ed9b5e548fe2d405577ccdff76060001b6148cf565b6107b47fa98e1d32cff3c1a7b3a7424816e61fc0bf4cef092c08cf1f8d8d012b368b4a4560001b6148cf565b60001515600560003373ffffffffffffffffffffffffffffffffffffffff1673ffffffffffffffffffffffffffffffffffffffff16815260200190815260200160002060009054906101000a900460ff16151514610847576040517f08c379a000000000000000000000000000000000000000000000000000000000815260040161083e90615423565b60405180910390fd5b6108737f2abff1ce909803e5c4f1660028bef60fa268fa7a41d426a38805a1508fd2eb7460001b6148cf565b61089f7ffe7ff8e42f34670341436bf522ce31cef6c13146c85e33be37a17087498912ae60001b6148cf565b6108cb7f57390d9af238e3a6ed3644a38063427f37ca8fc486db7f72e3fe2acb8c7506fd60001b6148cf565b6108f77f65a6e3fe3114e640edbdb4dbe948ce2bf71c57a0d5d3ba8a43a959fa80920e1a60001b6148cf565b6109237fd1c2b8c927bf83aa397233e9b6cbab409f3577d89821d379a21640e2280b299860001b6148cf565b600061092f60016148e8565b905061095d7f813c7c839fdb3f5bf670cd70e028b3bc8614ab33a92d8de061ad8f8a5709324b60001b6148cf565b6109897fd091fd4f336c639768a50db3126c1d5416b1e327bb1dbdaec684d2514fa0f08660001b6148cf565b60006109b77f97fac4966bc6b949aeab748da2e9fd76eb08fe58a415867bef6813035713597260001b6148cf565b6109e37fdd2b0fb0269924ffc260cdc9c7f07efde8078849e9c650ecc0573f0725c941ae60001b6148cf565b6000610a117f63be2255b9ff62632458747d28a7b0a2e2ccd2fb0f9f821cd20f6d0954fa134f60001b6148cf565b610a3d7f46570a5d2aa13cf6a12126c7cd202ab6a581087cdc684dbf7c5cd18a5ac6fd2c60001b6148cf565b60005b83811015610bee57610a747f6d9ea1913c6e63a152c81614a09aafa847159b7fb3f3d7853f70874a09da78d860001b6148cf565b610aa07f355faf35687343d762b74ac74a507591a6505ef01a2af91e2b957b11aae8f17b60001b6148cf565b3373ffffffffffffffffffffffffffffffffffffffff1660046000600184610ac89190615472565b815260200190815260200160002060070160009054906101000a900473ffffffffffffffffffffffffffffffffffffffff1673ffffffffffffffffffffffffffffffffffffffff161415610bae57610b427fc79754e3bb7f824c8c79a26182f7be57e359d7a06b40ceda52081047fbdca98760001b6148cf565b610b6e7fa1ea889348bbd45944aec7624468efedb20f8d8e6c0d0157113d7f6e0272bbe560001b6148cf565b610b9a7f22c1ea61c3aee0e91aab5ef22a8ef1885b5117ae06b1e6dc457ced0b92ae194760001b6148cf565b600183610ba79190615472565b9250610bdb565b610bda7f216783361edc04dc21e314643db1298d20299b9256fd3461b983c43873bf0a5260001b6148cf565b5b8080610be6906154c8565b915050610a40565b50610c1b7f29aafabf0c41b0fdfca228009933d6b2d9418120d9328e07be587e290a82c8c260001b6148cf565b610c477fb095b63820e1461fd1ce8c5bd0e24191bcb3eb3f7313600a65e2c748392814fd60001b6148cf565b60008267ffffffffffffffff811115610c6357610c62615069565b5b604051908082528060200260200182016040528015610c9c57816020015b610c89614a62565b815260200190600190039081610c815790505b509050610ccb7f427c3fc0e158a528fac0e2000f33c311f51d7aa217f7fd488d5074ca73ae2a3660001b6148cf565b610cf77f6b1ef92c8248ec90b597d14998da9482c5c2eb408fa4d71bfceb43bad25c210360001b6148cf565b60005b8481101561137a57610d2e7f18f32c4c64136d9d239ef288f437f443d67a4757be1735e188863b84dc16260260001b6148cf565b610d5a7f84ef35eaab8e78fc87d743d7228db48143e26105e21555791b616f05b260d00560001b6148cf565b3373ffffffffffffffffffffffffffffffffffffffff1660046000600184610d829190615472565b815260200190815260200160002060070160009054906101000a900473ffffffffffffffffffffffffffffffffffffffff1673ffffffffffffffffffffffffffffffffffffffff16141561133a57610dfc7f1940b8dcf67b57a71fe8eb43969adf3e6aa7e96810858fa82c4ffd8aa0178c9360001b6148cf565b610e287fb617325e836d8f2abb62ad84246ae2b34eed85866e5ccdf6060ea9a45b01483660001b6148cf565b610e547fe20ee470a9797f306b52c48cfb5a8f5a816447e1d025b29f78c84874fac01e9360001b6148cf565b600060046000600184610e679190615472565b8152602001908152602001600020600001549050610ea77f914649de753635d96df8f6840e1060167bf06e18df8ff1b1f89ac04a54ad7de160001b6148cf565b610ed37fd8fe27c0d8fbc24b355c23a5c3578cd5e5f34af889175ed60cd67514cb8df19e60001b6148cf565b6000600460008381526020019081526020016000209050610f167fb56da8d3abab7baf076a17dab5bb4a32dae195143b33a7b79bc64241e8c4ebb160001b6148cf565b610f427f2e4f296708fd099c4cf78f9619eb1725bf1b212ece1285a8419fc10cd59b888960001b6148cf565b806040518061012001604052908160008201548152602001600182018054610f6990615540565b80601f0160208091040260200160405190810160405280929190818152602001828054610f9590615540565b8015610fe25780601f10610fb757610100808354040283529160200191610fe2565b820191906000526020600020905b815481529060010190602001808311610fc557829003601f168201915b50505050508152602001600282018054610ffb90615540565b80601f016020809104026020016040519081016040528092919081815260200182805461102790615540565b80156110745780601f1061104957610100808354040283529160200191611074565b820191906000526020600020905b81548152906001019060200180831161105757829003601f168201915b5050505050815260200160038201805461108d90615540565b80601f01602080910402602001604051908101604052809291908181526020018280546110b990615540565b80156111065780601f106110db57610100808354040283529160200191611106565b820191906000526020600020905b8154815290600101906020018083116110e957829003601f168201915b5050505050815260200160048201805461111f90615540565b80601f016020809104026020016040519081016040528092919081815260200182805461114b90615540565b80156111985780601f1061116d57610100808354040283529160200191611198565b820191906000526020600020905b81548152906001019060200180831161117b57829003601f168201915b505050505081526020016005820180546111b190615540565b80601f01602080910402602001604051908101604052809291908181526020018280546111dd90615540565b801561122a5780601f106111ff5761010080835404028352916020019161122a565b820191906000526020600020905b81548152906001019060200180831161120d57829003601f168201915b50505050508152602001600682015481526020016007820160009054906101000a900473ffffffffffffffffffffffffffffffffffffffff1673ffffffffffffffffffffffffffffffffffffffff1673ffffffffffffffffffffffffffffffffffffffff1681526020016007820160149054906101000a900460ff1615151515815250508486815181106112c1576112c0615572565b5b60200260200101819052506112f87f72b8528fae6320c6df81d793684ac8c2ab61b96f7dfcf893d2b73b93a462b2de60001b6148cf565b6113247f7b01011344049133ed427277e21a0bcff85cb73460dc0a20841889c55e4fef7960001b6148cf565b6001856113319190615472565b94505050611367565b6113667f59cb72882a9d07d7ece1403ccc426f904f01ef1bfa687681aa54a3c43260fc5e60001b6148cf565b5b8080611372906154c8565b915050610cfa565b506113a77fdccd5d753e1a3691c31fb13cee8880fa895153054ec1191eda8885299f57fad360001b6148cf565b6113d37f711d914f57bf1e5ee110223315cb9828ee6506cccade55d2d403fc61dcbb5dea60001b6148cf565b8094505050505090565b3361140a7fa5bb85a5119ca86e9e3af02de1ef2a585180966b3160162a8b02cf88e513b66560001b6148cf565b6114367f4798711d4b0931d93995d2f59f0416b64a23679f6d50f9aa44ebe1f2a9b103b760001b6148cf565b6114627f4cf96d3db4ff9e59fd4f0786ed78723169369eaf8c64998117140bbcb895f94860001b6148cf565b6000600360008373ffffffffffffffffffffffffffffffffffffffff1673ffffffffffffffffffffffffffffffffffffffff16815260200190815260200160002060009054906101000a900460ff1690506114df7f652b750775c89bf16905fb12f13344373bcf93ad9620c84d6b3b99ffef423ea760001b6148cf565b61150b7fa9066c4d38ff22af42f93efb3e5d2ae17235ce3108403b10e35c72b91be299e560001b6148cf565b6115377f34b640ba749012c70e8e7eda1c0bde9f5f1bf8c55483f5a21ba13026a115599f60001b6148cf565b80611577576040517f08c379a000000000000000000000000000000000000000000000000000000000815260040161156e90615325565b60405180910390fd5b6115a37fc8391c996bc9a496f4f2fe86858dd4531eed9019015e78eb14c1618113798da460001b6148cf565b6115cf7f9157b2054990cc122e198aa955191ad43fcc962bdacbe5ceb561c27538727b2060001b6148cf565b6115fb7fb1ec65587eb13fcb4efadb889a324a13da1cbe3416e4f95e6a149d954ddb54c960001b6148cf565b6116277f757a3d084da2ba595b68c7526463c20e46e8ba0a131e7e32c0c2e94fb3bcd5ba60001b6148cf565b6116537f14c2985b0bfc98b37d58603221260305d6a654e06bb570c09402088e25bbceda60001b6148cf565b61165b6148f6565b5050565b60003361168e7fa5bb85a5119ca86e9e3af02de1ef2a585180966b3160162a8b02cf88e513b66560001b6148cf565b6116ba7f4798711d4b0931d93995d2f59f0416b64a23679f6d50f9aa44ebe1f2a9b103b760001b6148cf565b6116e67f4cf96d3db4ff9e59fd4f0786ed78723169369eaf8c64998117140bbcb895f94860001b6148cf565b6000600360008373ffffffffffffffffffffffffffffffffffffffff1673ffffffffffffffffffffffffffffffffffffffff16815260200190815260200160002060009054906101000a900460ff1690506117637f652b750775c89bf16905fb12f13344373bcf93ad9620c84d6b3b99ffef423ea760001b6148cf565b61178f7fa9066c4d38ff22af42f93efb3e5d2ae17235ce3108403b10e35c72b91be299e560001b6148cf565b6117bb7f34b640ba749012c70e8e7eda1c0bde9f5f1bf8c55483f5a21ba13026a115599f60001b6148cf565b806117fb576040517f08c379a00000000000000000000000000000000000000000000000000000000081526004016117f290615325565b60405180910390fd5b6118277fc8391c996bc9a496f4f2fe86858dd4531eed9019015e78eb14c1618113798da460001b6148cf565b6118537f9157b2054990cc122e198aa955191ad43fcc962bdacbe5ceb561c27538727b2060001b6148cf565b61187f7fb8ed80d75dacb2637363d180cddfd592e6e9fd0f1b921a38ecd287948496cdc160001b6148cf565b6118ab7fb2eaf8d14a7b5fa0a91e783008b2899040db61d6f60a63354354fedf41cef1f060001b6148cf565b6118d77fa71861a84ef8debfdad47ad68c4ecc3d0388be2ba20c4493e1722d3a12ca5c0260001b6148cf565b6001600560008673ffffffffffffffffffffffffffffffffffffffff1673ffffffffffffffffffffffffffffffffffffffff16815260200190815260200160002060006101000a81548160ff02191690831515021790555061195b7f274ebf921ab4fc73df9c08d1220569c99db8e72c31904652759e3eab3d367ac460001b6148cf565b6119877f42c23a7a1ee83a7953d19bce44d891081eedf2bc5f106bfff66607b1a063af0f60001b6148cf565b600192505050919050565b61199a612071565b156119da576040517f08c379a00000000000000000000000000000000000000000000000000000000081526004016119d190615391565b60405180910390fd5b33611a077fa5bb85a5119ca86e9e3af02de1ef2a585180966b3160162a8b02cf88e513b66560001b6148cf565b611a337f4798711d4b0931d93995d2f59f0416b64a23679f6d50f9aa44ebe1f2a9b103b760001b6148cf565b611a5f7f4cf96d3db4ff9e59fd4f0786ed78723169369eaf8c64998117140bbcb895f94860001b6148cf565b6000600360008373ffffffffffffffffffffffffffffffffffffffff1673ffffffffffffffffffffffffffffffffffffffff16815260200190815260200160002060009054906101000a900460ff169050611adc7f652b750775c89bf16905fb12f13344373bcf93ad9620c84d6b3b99ffef423ea760001b6148cf565b611b087fa9066c4d38ff22af42f93efb3e5d2ae17235ce3108403b10e35c72b91be299e560001b6148cf565b611b347f34b640ba749012c70e8e7eda1c0bde9f5f1bf8c55483f5a21ba13026a115599f60001b6148cf565b80611b74576040517f08c379a0000000000000000000000000000000000000000000000000000000008152600401611b6b90615325565b60405180910390fd5b611ba07fc8391c996bc9a496f4f2fe86858dd4531eed9019015e78eb14c1618113798da460001b6148cf565b611bcc7f9157b2054990cc122e198aa955191ad43fcc962bdacbe5ceb561c27538727b2060001b6148cf565b611bf87fadf1732f50d52e7490ac9685eac831c3c324acde0f76e845d26b3e74b933940960001b6148cf565b611c247f19327d1114e91c5287ad12d609e3fc40510d844ec3e2f23bd6a2c14fefe021ba60001b6148cf565b611c507f0d35449d5beed9813f0ccf81c13ed5d38b6cfa8e54808946601ab5c2b959f20860001b6148cf565b6000600360008573ffffffffffffffffffffffffffffffffffffffff1673ffffffffffffffffffffffffffffffffffffffff16815260200190815260200160002060006101000a81548160ff021916908315150217905550611cd47fc237b2d92643183ca0717f1ce3fe44e5e579a5cbe72a5bd25b2bc867422aceb960001b6148cf565b611d007f9df9b0e12b6f9d106dd83756cd497ba4ab940ee161d0ffa92179d73122234d8b60001b6148cf565b7f21e8741435b5373014087a70641e17e7139c8f3ecffbc070c83ca921e5f06ab53384604051611d319291906155a1565b60405180910390a1505050565b600033611d6d7fa5bb85a5119ca86e9e3af02de1ef2a585180966b3160162a8b02cf88e513b66560001b6148cf565b611d997f4798711d4b0931d93995d2f59f0416b64a23679f6d50f9aa44ebe1f2a9b103b760001b6148cf565b611dc57f4cf96d3db4ff9e59fd4f0786ed78723169369eaf8c64998117140bbcb895f94860001b6148cf565b6000600360008373ffffffffffffffffffffffffffffffffffffffff1673ffffffffffffffffffffffffffffffffffffffff16815260200190815260200160002060009054906101000a900460ff169050611e427f652b750775c89bf16905fb12f13344373bcf93ad9620c84d6b3b99ffef423ea760001b6148cf565b611e6e7fa9066c4d38ff22af42f93efb3e5d2ae17235ce3108403b10e35c72b91be299e560001b6148cf565b611e9a7f34b640ba749012c70e8e7eda1c0bde9f5f1bf8c55483f5a21ba13026a115599f60001b6148cf565b80611eda576040517f08c379a0000000000000000000000000000000000000000000000000000000008152600401611ed190615325565b60405180910390fd5b611f067fc8391c996bc9a496f4f2fe86858dd4531eed9019015e78eb14c1618113798da460001b6148cf565b611f327f9157b2054990cc122e198aa955191ad43fcc962bdacbe5ceb561c27538727b2060001b6148cf565b611f5e7f8d8bea3c65bca62e78a81ac5d37091670ae637d37736045932fb9739b21c9dc160001b6148cf565b611f8a7faf2bb3d4e7fa6d39a593ca560dbd8554caece7344977687e32ba10b5003513a460001b6148cf565b611fb67f291269a2ffb4e1d3d23e420236c3cec8c7c5bb03fda6c0527f22425e3320f3c660001b6148cf565b6000600560008673ffffffffffffffffffffffffffffffffffffffff1673ffffffffffffffffffffffffffffffffffffffff16815260200190815260200160002060006101000a81548160ff02191690831515021790555061203a7f55f10ff814687444cc7ce4cdc467f799452b99af1a690a596c59080a5c6900f860001b6148cf565b6120667fb19a1c7a6bcdf2c29ac823fb40b81b22993796d720a7a5184e08cce4ed53d3ae60001b6148cf565b600192505050919050565b60008060009054906101000a900460ff16905090565b61208f612071565b156120cf576040517f08c379a00000000000000000000000000000000000000000000000000000000081526004016120c690615391565b60405180910390fd5b6120fb7f937a41745cdcc963e4aeaa9c56528d06c3ba1e629726f59e8841a14a3630196460001b6148cf565b6121277f871e5c489caf1df2f4102c9a1beace4295d3833e9f26fbfb0dd04c7d6714f59260001b6148cf565b6121537fa1fa760dd71dc291007df0adc4ec92c8d1658ed9b5e548fe2d405577ccdff76060001b6148cf565b61217f7fa98e1d32cff3c1a7b3a7424816e61fc0bf4cef092c08cf1f8d8d012b368b4a4560001b6148cf565b60001515600560003373ffffffffffffffffffffffffffffffffffffffff1673ffffffffffffffffffffffffffffffffffffffff16815260200190815260200160002060009054906101000a900460ff16151514612212576040517f08c379a000000000000000000000000000000000000000000000000000000000815260040161220990615423565b60405180910390fd5b61223e7f2abff1ce909803e5c4f1660028bef60fa268fa7a41d426a38805a1508fd2eb7460001b6148cf565b61226a7ffe7ff8e42f34670341436bf522ce31cef6c13146c85e33be37a17087498912ae60001b6148cf565b6122967fc8395aaea5632f16234ea7f231dcd26b223e32fda2f204185c4d128ef37fb56760001b6148cf565b6122c27fcc4de5b203c31a376da31e488dbf7af6e83e6123d0bdbf1de6cd9872625600a660001b6148cf565b6122ee7f18354d62c15d11dbb36a56f5d3bfc9248b267fe1d6c35ce87ba64eb240d7519360001b6148cf565b61231a7f3bfd5514c87cfa97f1f14bed571c185bcf510acac67cff29719e48d44a0fa4fa60001b6148cf565b3373ffffffffffffffffffffffffffffffffffffffff166004600083815260200190815260200160002060070160009054906101000a900473ffffffffffffffffffffffffffffffffffffffff1673ffffffffffffffffffffffffffffffffffffffff1614806123d35750600360003373ffffffffffffffffffffffffffffffffffffffff1673ffffffffffffffffffffffffffffffffffffffff16815260200190815260200160002060009054906101000a900460ff165b612412576040517f08c379a00000000000000000000000000000000000000000000000000000000081526004016124099061563c565b60405180910390fd5b61243e7f58c461e6295a1a79d5c8590639add87cf6ab1bb4cee3b2bc547efcfd434ccedb60001b6148cf565b61246a7ff0dc5de74b18d44e42746b7a13010b13fadd73da25ebc4a41d4f74bee68c98e060001b6148cf565b6124967fa9170ccfc290fb983981fa1c8365ef817c10bd177467f71672d4e08ef4e4cc7060001b6148cf565b60006004600083815260200190815260200160002060070160146101000a81548160ff0219169083151502179055506124f17fedcf4f878f86037ecdd5aa00d018b9129d90f18862940cf3e99955166ab64d7360001b6148cf565b61251d7fdfebe2c75f2dfccfefc3fd9743afc15e938f530ddcd409c93c3751af5b3da65760001b6148cf565b61252760026148d2565b50565b336125577fa5bb85a5119ca86e9e3af02de1ef2a585180966b3160162a8b02cf88e513b66560001b6148cf565b6125837f4798711d4b0931d93995d2f59f0416b64a23679f6d50f9aa44ebe1f2a9b103b760001b6148cf565b6125af7f4cf96d3db4ff9e59fd4f0786ed78723169369eaf8c64998117140bbcb895f94860001b6148cf565b6000600360008373ffffffffffffffffffffffffffffffffffffffff1673ffffffffffffffffffffffffffffffffffffffff16815260200190815260200160002060009054906101000a900460ff16905061262c7f652b750775c89bf16905fb12f13344373bcf93ad9620c84d6b3b99ffef423ea760001b6148cf565b6126587fa9066c4d38ff22af42f93efb3e5d2ae17235ce3108403b10e35c72b91be299e560001b6148cf565b6126847f34b640ba749012c70e8e7eda1c0bde9f5f1bf8c55483f5a21ba13026a115599f60001b6148cf565b806126c4576040517f08c379a00000000000000000000000000000000000000000000000000000000081526004016126bb90615325565b60405180910390fd5b6126f07fc8391c996bc9a496f4f2fe86858dd4531eed9019015e78eb14c1618113798da460001b6148cf565b61271c7f9157b2054990cc122e198aa955191ad43fcc962bdacbe5ceb561c27538727b2060001b6148cf565b6127487fea813bad3c6b5daa8cdd67e72a3117d1178926a935fef1f0c002bfa44b59d6e460001b6148cf565b6127747fadd742d39c444ee1ed7e6d208f0847a5b8d7019ce8c36ff68838cea615fba70160001b6148cf565b6127a07f24aab32b66bb770424c117cc240e15da3a12162fa890e15754f668aec75c1e5b60001b6148cf565b6127a8614997565b5050565b6127d87fc9c3a60a2916e2bfe9494d55c53c0aa1b9270acab95dd2ac446d03489d409b9b60001b6148cf565b6128047f63a6dcac0163bb721234a457f944359e230cb9917afd65c572fe9c780fb15b8b60001b6148cf565b6128307fe25b869bf53050be77f160ab9353119cd78bbb7451dda037b26122d7cb179b8c60001b6148cf565b600681908060018154018082558091505060019003906000526020600020016000909190919091505550565b600460205280600052604060002060009150905080600001549080600101805461288590615540565b80601f01602080910402602001604051908101604052809291908181526020018280546128b190615540565b80156128fe5780601f106128d3576101008083540402835291602001916128fe565b820191906000526020600020905b8154815290600101906020018083116128e157829003601f168201915b50505050509080600201805461291390615540565b80601f016020809104026020016040519081016040528092919081815260200182805461293f90615540565b801561298c5780601f106129615761010080835404028352916020019161298c565b820191906000526020600020905b81548152906001019060200180831161296f57829003601f168201915b5050505050908060030180546129a190615540565b80601f01602080910402602001604051908101604052809291908181526020018280546129cd90615540565b8015612a1a5780601f106129ef57610100808354040283529160200191612a1a565b820191906000526020600020905b8154815290600101906020018083116129fd57829003601f168201915b505050505090806004018054612a2f90615540565b80601f0160208091040260200160405190810160405280929190818152602001828054612a5b90615540565b8015612aa85780601f10612a7d57610100808354040283529160200191612aa8565b820191906000526020600020905b815481529060010190602001808311612a8b57829003601f168201915b505050505090806005018054612abd90615540565b80601f0160208091040260200160405190810160405280929190818152602001828054612ae990615540565b8015612b365780601f10612b0b57610100808354040283529160200191612b36565b820191906000526020600020905b815481529060010190602001808311612b1957829003601f168201915b5050505050908060060154908060070160009054906101000a900473ffffffffffffffffffffffffffffffffffffffff16908060070160149054906101000a900460ff16905089565b612b87612071565b15612bc7576040517f08c379a0000000000000000000000000000000000000000000000000000000008152600401612bbe90615391565b60405180910390fd5b612bf37f937a41745cdcc963e4aeaa9c56528d06c3ba1e629726f59e8841a14a3630196460001b6148cf565b612c1f7f871e5c489caf1df2f4102c9a1beace4295d3833e9f26fbfb0dd04c7d6714f59260001b6148cf565b612c4b7fa1fa760dd71dc291007df0adc4ec92c8d1658ed9b5e548fe2d405577ccdff76060001b6148cf565b612c777fa98e1d32cff3c1a7b3a7424816e61fc0bf4cef092c08cf1f8d8d012b368b4a4560001b6148cf565b60001515600560003373ffffffffffffffffffffffffffffffffffffffff1673ffffffffffffffffffffffffffffffffffffffff16815260200190815260200160002060009054906101000a900460ff16151514612d0a576040517f08c379a0000000000000000000000000000000000000000000000000000000008152600401612d0190615423565b60405180910390fd5b612d367f2abff1ce909803e5c4f1660028bef60fa268fa7a41d426a38805a1508fd2eb7460001b6148cf565b612d627ffe7ff8e42f34670341436bf522ce31cef6c13146c85e33be37a17087498912ae60001b6148cf565b612d8e7f61a4770079a2e4484875aa3087a0d1133857d135edc73ef5713246f85438222360001b6148cf565b612dba7f57f1d9b4f2a4559db761af4fa55b520b4b0b72019f8ee3f8cae222cb6dd946a260001b6148cf565b612de67f5e68642c1b1bcf84cfe9ed5379271a05e17731bf616fa46389c3fffd8533332d60001b6148cf565b612e127fffabc0229ce7df722160080b1838bddc0c36e35e463c0b8a3efdde03a44416d260001b6148cf565b3373ffffffffffffffffffffffffffffffffffffffff166004600083815260200190815260200160002060070160009054906101000a900473ffffffffffffffffffffffffffffffffffffffff1673ffffffffffffffffffffffffffffffffffffffff1614612eb6576040517f08c379a0000000000000000000000000000000000000000000000000000000008152600401612ead9061563c565b60405180910390fd5b612ee27ffee959c32706a16f36dc2a091e007b9a1b1f8e64f806fa352e563fc891b721b260001b6148cf565b612f0e7faae6a8b75f21bd0d435ab028d16edb7199e142e40ba29795f6cce37c02a3d55660001b6148cf565b612f3a7f3e4a44f95c3f37d10521b4bff4af77171e0b79d742c121bece589bae5e33b09360001b6148cf565b60016004600083815260200190815260200160002060070160146101000a81548160ff021916908315150217905550612f957fd64029600be10f1e3eae4372c57a427e728ddbd86738fd5b4ee4d74e0a36aba760001b6148cf565b612fc17f75fd59f26ce867a43cba347dc1a0929a9cee2451072b4fe4b73287daaaea1b0b60001b6148cf565b612fcb60016148d2565b50565b60068181548110612fde57600080fd5b906000526020600020016000915090505481565b6060612ffc612071565b1561303c576040517f08c379a000000000000000000000000000000000000000000000000000000000815260040161303390615391565b60405180910390fd5b6130687f937a41745cdcc963e4aeaa9c56528d06c3ba1e629726f59e8841a14a3630196460001b6148cf565b6130947f871e5c489caf1df2f4102c9a1beace4295d3833e9f26fbfb0dd04c7d6714f59260001b6148cf565b6130c07fa1fa760dd71dc291007df0adc4ec92c8d1658ed9b5e548fe2d405577ccdff76060001b6148cf565b6130ec7fa98e1d32cff3c1a7b3a7424816e61fc0bf4cef092c08cf1f8d8d012b368b4a4560001b6148cf565b60001515600560003373ffffffffffffffffffffffffffffffffffffffff1673ffffffffffffffffffffffffffffffffffffffff16815260200190815260200160002060009054906101000a900460ff1615151461317f576040517f08c379a000000000000000000000000000000000000000000000000000000000815260040161317690615423565b60405180910390fd5b6131ab7f2abff1ce909803e5c4f1660028bef60fa268fa7a41d426a38805a1508fd2eb7460001b6148cf565b6131d77ffe7ff8e42f34670341436bf522ce31cef6c13146c85e33be37a17087498912ae60001b6148cf565b6132037f9a478400b981f07eeb94d6268892ac76e7f0224c2942d086e0887c9c48d1dafe60001b6148cf565b61322f7fad4f96bf48b67818670e194b7d704ec726af15f31ea78dfd20d63a7d51e96e7960001b6148cf565b61325b7f5893e1456b083682c5f454402e084c376279c22c249408776ee2cdeba9c98b8160001b6148cf565b600061326760016148e8565b90506132957f8fc9cf3fc1806967a65a66b437f8ca471bd9d467e04a2f7ff04f04717778873260001b6148cf565b6132c17fe8ba2e6a81a1d2d6671ecf404eaff1d5156f522feb892784cf9ebf74ecb8bfd160001b6148cf565b60006132cd60026148e8565b6132d760016148e8565b6132e1919061565c565b905061330f7f10e56c6be087b765c8eb567f00fddb7c91257141fb42d451724d20517c5eb62760001b6148cf565b61333b7fba4cf05b2d4b9b4f852ba5d4cb7eeac2eaddcac5c168797801a98b1e73bf2c4760001b6148cf565b60006133697f51ad48418baad8ffb28c34fa0c36af82af4a6aaaad4d28bdcd095a50e541242f60001b6148cf565b6133957f8ef59b19eb4395314a9c2abf4daa4715a3804db7a002f40abb0a5a741a210a0960001b6148cf565b60008267ffffffffffffffff8111156133b1576133b0615069565b5b6040519080825280602002602001820160405280156133ea57816020015b6133d7614a62565b8152602001906001900390816133cf5790505b5090506134197f0d5679a10e1df545938a262ba2935e402023bda7c624fdac8adcd3df08f2ac2a60001b6148cf565b6134457f6b7c341f94f1eba3dc668533c19aff22f79ff81f3fde9df0ac1a2dbc6bcf192b60001b6148cf565b60005b84811015613a8e5761347c7f37c1d19e5d4139fb377f8efa06f44fc5c9c48d522df5ebbeb05b1e1283722aed60001b6148cf565b6134a87f9e264266fc85840237d9aa33810450658494b0b2929eef2b2380a46b0dd5c71360001b6148cf565b60011515600460006001846134bd9190615472565b815260200190815260200160002060070160149054906101000a900460ff1615151415613a4e576135107f61cb970250b1259ff7895fc80f9bd8e2db1796a177a0bf8e2aeb8a117241b72c60001b6148cf565b61353c7fa4814b16aaa1569e0805affdcddbef234ced031b3c02909d7fe6787e08abf0fe60001b6148cf565b6135687f1c15233e502aeca8357251f66ef233018691f37005980ff0b42d526dc03d775b60001b6148cf565b60006004600060018461357b9190615472565b81526020019081526020016000206000015490506135bb7fe7d96fda8fd87afdbf9c7eaec86b29c8fbab36ce3ffe80c1fcdf841611fa174260001b6148cf565b6135e77f48e266a3cac21039bdeb1b916cd852af5f644a15b5231ef841f1f3eee5048f3a60001b6148cf565b600060046000838152602001908152602001600020905061362a7f606f7ff12faa21e427487493d9e5c85cc9f2244da0cc209c8f635440ce86e4e160001b6148cf565b6136567fd670cc6df52c0c309a0a3f029d0063117dd81902dacdf1a651069117bd44a0d260001b6148cf565b80604051806101200160405290816000820154815260200160018201805461367d90615540565b80601f01602080910402602001604051908101604052809291908181526020018280546136a990615540565b80156136f65780601f106136cb576101008083540402835291602001916136f6565b820191906000526020600020905b8154815290600101906020018083116136d957829003601f168201915b5050505050815260200160028201805461370f90615540565b80601f016020809104026020016040519081016040528092919081815260200182805461373b90615540565b80156137885780601f1061375d57610100808354040283529160200191613788565b820191906000526020600020905b81548152906001019060200180831161376b57829003601f168201915b505050505081526020016003820180546137a190615540565b80601f01602080910402602001604051908101604052809291908181526020018280546137cd90615540565b801561381a5780601f106137ef5761010080835404028352916020019161381a565b820191906000526020600020905b8154815290600101906020018083116137fd57829003601f168201915b5050505050815260200160048201805461383390615540565b80601f016020809104026020016040519081016040528092919081815260200182805461385f90615540565b80156138ac5780601f10613881576101008083540402835291602001916138ac565b820191906000526020600020905b81548152906001019060200180831161388f57829003601f168201915b505050505081526020016005820180546138c590615540565b80601f01602080910402602001604051908101604052809291908181526020018280546138f190615540565b801561393e5780601f106139135761010080835404028352916020019161393e565b820191906000526020600020905b81548152906001019060200180831161392157829003601f168201915b50505050508152602001600682015481526020016007820160009054906101000a900473ffffffffffffffffffffffffffffffffffffffff1673ffffffffffffffffffffffffffffffffffffffff1673ffffffffffffffffffffffffffffffffffffffff1681526020016007820160149054906101000a900460ff1615151515815250508486815181106139d5576139d4615572565b5b6020026020010181905250613a0c7fea34be4f3b03a41a626baba4c6f87a59c45929c205bc22bd8cd0ff48a3b9639360001b6148cf565b613a387f7dc32079e4b8c27ef982af5619bcf82521511362ea7986c17c4d8a4b2fa14d4a60001b6148cf565b600185613a459190615472565b94505050613a7b565b613a7a7f8da63c565b63de6e6c5fcf276c98d63070dc0495243247683e17a9c6705f794560001b6148cf565b5b8080613a86906154c8565b915050613448565b50613abb7fe19dc9af81006bf61fa53f41c8b5a996cd7e40ef81fcfec51fd2dc87a1c0638160001b6148cf565b613ae77f95ca205a5b4063a87265a81c995a02510943cea7676b076d04adc7f6d067336e60001b6148cf565b8094505050505090565b60036020528060005260406000206000915054906101000a900460ff1681565b613b19612071565b15613b59576040517f08c379a0000000000000000000000000000000000000000000000000000000008152600401613b5090615391565b60405180910390fd5b33613b867fa5bb85a5119ca86e9e3af02de1ef2a585180966b3160162a8b02cf88e513b66560001b6148cf565b613bb27f4798711d4b0931d93995d2f59f0416b64a23679f6d50f9aa44ebe1f2a9b103b760001b6148cf565b613bde7f4cf96d3db4ff9e59fd4f0786ed78723169369eaf8c64998117140bbcb895f94860001b6148cf565b6000600360008373ffffffffffffffffffffffffffffffffffffffff1673ffffffffffffffffffffffffffffffffffffffff16815260200190815260200160002060009054906101000a900460ff169050613c5b7f652b750775c89bf16905fb12f13344373bcf93ad9620c84d6b3b99ffef423ea760001b6148cf565b613c877fa9066c4d38ff22af42f93efb3e5d2ae17235ce3108403b10e35c72b91be299e560001b6148cf565b613cb37f34b640ba749012c70e8e7eda1c0bde9f5f1bf8c55483f5a21ba13026a115599f60001b6148cf565b80613cf3576040517f08c379a0000000000000000000000000000000000000000000000000000000008152600401613cea90615325565b60405180910390fd5b613d1f7fc8391c996bc9a496f4f2fe86858dd4531eed9019015e78eb14c1618113798da460001b6148cf565b613d4b7f9157b2054990cc122e198aa955191ad43fcc962bdacbe5ceb561c27538727b2060001b6148cf565b613d777f6e156c6d02c417b2dd5c738cdc1fca4c2fa42b79fbff42d744639cc298e8188c60001b6148cf565b613da37f65701e6d0a692534f3b6916c7a19185e2e35861487f124fe80b5a96e4a46364960001b6148cf565b613dcf7fa2680ca14c711da805454fadba8425f6ac1afb752f631e84cd5b9d48be48817160001b6148cf565b6001600360008573ffffffffffffffffffffffffffffffffffffffff1673ffffffffffffffffffffffffffffffffffffffff16815260200190815260200160002060006101000a81548160ff021916908315150217905550613e537f0de3d7fe5c033bbbc1313d20fbba221e374dda08705141244d3bb2c9e7135cc760001b6148cf565b613e7f7f4c82012c282f95dd09f9ae7b8925126aac7b33f3b22ba5be0eccf89df6e1938e60001b6148cf565b7fb5dd25a9cfca5e08f42d8aa38af875754ee83968a096a48442d6af229d64de653384604051613eb09291906155a1565b60405180910390a1505050565b613ec5612071565b15613f05576040517f08c379a0000000000000000000000000000000000000000000000000000000008152600401613efc90615391565b60405180910390fd5b613f317f937a41745cdcc963e4aeaa9c56528d06c3ba1e629726f59e8841a14a3630196460001b6148cf565b613f5d7f871e5c489caf1df2f4102c9a1beace4295d3833e9f26fbfb0dd04c7d6714f59260001b6148cf565b613f897fa1fa760dd71dc291007df0adc4ec92c8d1658ed9b5e548fe2d405577ccdff76060001b6148cf565b613fb57fa98e1d32cff3c1a7b3a7424816e61fc0bf4cef092c08cf1f8d8d012b368b4a4560001b6148cf565b60001515600560003373ffffffffffffffffffffffffffffffffffffffff1673ffffffffffffffffffffffffffffffffffffffff16815260200190815260200160002060009054906101000a900460ff16151514614048576040517f08c379a000000000000000000000000000000000000000000000000000000000815260040161403f90615423565b60405180910390fd5b6140747f2abff1ce909803e5c4f1660028bef60fa268fa7a41d426a38805a1508fd2eb7460001b6148cf565b6140a07ffe7ff8e42f34670341436bf522ce31cef6c13146c85e33be37a17087498912ae60001b6148cf565b6140cc7fceb37f9c5c59f2ac0291ec5ad35c940dd658ae8577245ad60efdfcddfe8f214a60001b6148cf565b6140f87ff01314edd9e9b9a79ed3bf297eb8b286bddef8e7929dbe572cd99f069fb7625660001b6148cf565b6141247f5554dbfd386c0e9cbe23dafac484d99176d6d345dbf67b10028f68d0696ed78860001b6148cf565b6141507f10dfe6cf3ba881d0fea5a75cce2da3fc398cbc0375bb1f4985d54c90bb9bb0a360001b6148cf565b600086511161415e57600080fd5b61418a7f7a00e27dd062e815c0da178689580648c54a22059c10fafc59cecd279107111660001b6148cf565b6141b67fdcb9cbfb36201bc22d81ad26f18a29cde25f7bf7831fb8c4796d1d61c08758c760001b6148cf565b6141e27f6a48a8542343b264007340e2041735606f5ee053a5cbfe58976cb0db92693eab60001b6148cf565b61420e7f1b10a91ba76293736f9a08f0fb0026006bd6b2aa0cb8c42a5ddd18f12f7e623360001b6148cf565b600084511161421c57600080fd5b6142487f4a31445efc35d09810dbe90fd3de10bb9567eae131cd7ab09b46dabdd309b7e160001b6148cf565b6142747fc5d56a775cb309e7f193b174981183939e0261cf1775d9fffd02eb07e5e36b7360001b6148cf565b6142a07fbb3780db46ed461c1b2c71229df9c175e561ee8242f1e5f5036ecce952fdcd2060001b6148cf565b6142cc7fd04fb45a0fa8dfac6d0aa6bd148db70b06713d7ac863a0d4bfa94d9bc0aeafed60001b6148cf565b60008251116142da57600080fd5b6143067f43c27c21360083da65a8a0407d3432c541aae9f28288e8225135f20018d8b39660001b6148cf565b6143327f7f462317f261a93ee365115aa80cb5390eed2658f8a66d8f7166e92bcc1a6d4860001b6148cf565b61435e7fea013835e3a52a36632c255c7730c435feac135d7e1e808f2123c411d88efe0f60001b6148cf565b61438a7f4b5f96322dddc5cf6dcac4246a9bb1ffc1864da4941607ce7f76e350d8ab1b1960001b6148cf565b600083511161439857600080fd5b6143c47f2ffd6d882c60012d6b622313faf60da089f7be2146d7fbbf719b2e018096e44460001b6148cf565b6143f07ff0abdc9ed00a6a3b0d1e370f2414e928de07b0a5414d1ff6dd096b8e33d3145f60001b6148cf565b61441c7f685057f088523c796200e63b18474edd3c918cbe3938a87b3e54365978e8098860001b6148cf565b6144487f1d457fdd0fbd4df3f5ce4dc565d4a6abc2618d927426fbb9d6a078923679d1f960001b6148cf565b600073ffffffffffffffffffffffffffffffffffffffff163373ffffffffffffffffffffffffffffffffffffffff16141561448257600080fd5b6144ae7fa1888d164ba5c963985e426c894e97d71e83086b73a527d43aee4931de902dbf60001b6148cf565b6144da7f91f6944943cb3ae465448a4d17b0c6a0c2c0802788057fa92401d426b8d4724160001b6148cf565b6145067f362acaf3094395faae7ffcdc915c4e60392876399ad6df9860f3b4ec0bdda6a460001b6148cf565b6145327f13dc9c2e62cbc59e716c2b21be936e14eab197c07c9383ab219607e36390d15060001b6148cf565b600085511161454057600080fd5b61456c7f0e6cdbd7a85f2d50334ff8df5d461c933936f02495b9124a4fc662d8b830662360001b6148cf565b6145987fee3a90e51f79145dff695993bab9c1b2d7a8ab63ce342c401472885cbe2e313e60001b6148cf565b6145c47f4fd61f26df616e3b806a97b843e9f286d881bfaee9fdcc224808569f5e9c938160001b6148cf565b6145ce60016148d2565b6145fa7fb12abf75e93539a65be66d6b5cb485d7e8d3500ed7b9f69f927e2a2ee1b62a5a60001b6148cf565b6146267f197b1790e572a95fb006802cb75f15387553d8c274daef543e142d3668e468b160001b6148cf565b600061463260016148e8565b90506146607f2d018a55f1c3e15f6d73612142a72d6833008136c1f1b6b05c8ab2c334455a0660001b6148cf565b61468c7fa72e326ce3fc53a30a5bdc92fee8d3bfbb657ca5cfc6d6601df64f3acf1eea3160001b6148cf565b6040518061012001604052808281526020018881526020018781526020018681526020018581526020018481526020014281526020013373ffffffffffffffffffffffffffffffffffffffff1681526020018315158152506004600083815260200190815260200160002060008201518160000155602082015181600101908051906020019061471d929190614ac6565b50604082015181600201908051906020019061473a929190614ac6565b506060820151816003019080519060200190614757929190614ac6565b506080820151816004019080519060200190614774929190614ac6565b5060a0820151816005019080519060200190614791929190614ac6565b5060c0820151816006015560e08201518160070160006101000a81548173ffffffffffffffffffffffffffffffffffffffff021916908373ffffffffffffffffffffffffffffffffffffffff1602179055506101008201518160070160146101000a81548160ff0219169083151502179055509050506148337f23283805cd5af2d253eac30ce7c0eff6a54e3dd1c78230d2953d51a5e4e400c460001b6148cf565b61485f7f530a1aa7de9627c6b9e53c94e101eccb958937ce231017c62cb376e673a4d85160001b6148cf565b7f15685dbf79e7181ae33d4610b737556e08e88cd73cd97d994292e1699d09d0f381888888888842338a60405161489e99989796959493929190614f94565b60405180910390a150505050505050565b60056020528060005260406000206000915054906101000a900460ff1681565b50565b6001816000016000828254019250508190555050565b600081600001549050919050565b6148fe612071565b61493d576040517f08c379a0000000000000000000000000000000000000000000000000000000008152600401614934906156dc565b60405180910390fd5b60008060006101000a81548160ff0219169083151502179055507f5db9ee0a495bf2e6ff9c91a7834c1ba4fdd244a5e8aa4e537bd38aeae4b073aa614980614a39565b60405161498d91906156fc565b60405180910390a1565b61499f612071565b156149df576040517f08c379a00000000000000000000000000000000000000000000000000000000081526004016149d690615391565b60405180910390fd5b60016000806101000a81548160ff0219169083151502179055507f62e78cea01bee320cd4e420270b5ea74000d11b0c9f74754ebdbfc544b05a258614a22614a39565b604051614a2f91906156fc565b60405180910390a1565b600033905090565b5080546000825590600052602060002090810190614a5f9190614b4c565b50565b60405180610120016040528060008152602001606081526020016060815260200160608152602001606081526020016060815260200160008152602001600073ffffffffffffffffffffffffffffffffffffffff1681526020016000151581525090565b828054614ad290615540565b90600052602060002090601f016020900481019282614af45760008555614b3b565b82601f10614b0d57805160ff1916838001178555614b3b565b82800160010185558215614b3b579182015b82811115614b3a578251825591602001919060010190614b1f565b5b509050614b489190614b4c565b5090565b5b80821115614b65576000816000905550600101614b4d565b5090565b6000604051905090565b600080fd5b600080fd5b6000819050919050565b614b9081614b7d565b8114614b9b57600080fd5b50565b600081359050614bad81614b87565b92915050565b600060208284031215614bc957614bc8614b73565b5b6000614bd784828501614b9e565b91505092915050565b600081519050919050565b600082825260208201905092915050565b6000819050602082019050919050565b614c1581614b7d565b82525050565b600081519050919050565b600082825260208201905092915050565b60005b83811015614c55578082015181840152602081019050614c3a565b83811115614c64576000848401525b50505050565b6000601f19601f8301169050919050565b6000614c8682614c1b565b614c908185614c26565b9350614ca0818560208601614c37565b614ca981614c6a565b840191505092915050565b600073ffffffffffffffffffffffffffffffffffffffff82169050919050565b6000614cdf82614cb4565b9050919050565b614cef81614cd4565b82525050565b60008115159050919050565b614d0a81614cf5565b82525050565b600061012083016000830151614d296000860182614c0c565b5060208301518482036020860152614d418282614c7b565b91505060408301518482036040860152614d5b8282614c7b565b91505060608301518482036060860152614d758282614c7b565b91505060808301518482036080860152614d8f8282614c7b565b91505060a083015184820360a0860152614da98282614c7b565b91505060c0830151614dbe60c0860182614c0c565b5060e0830151614dd160e0860182614ce6565b50610100830151614de6610100860182614d01565b508091505092915050565b6000614dfd8383614d10565b905092915050565b6000602082019050919050565b6000614e1d82614be0565b614e278185614beb565b935083602082028501614e3985614bfc565b8060005b85811015614e755784840389528151614e568582614df1565b9450614e6183614e05565b925060208a01995050600181019050614e3d565b50829750879550505050505092915050565b60006020820190508181036000830152614ea18184614e12565b905092915050565b614eb281614cd4565b8114614ebd57600080fd5b50565b600081359050614ecf81614ea9565b92915050565b600060208284031215614eeb57614eea614b73565b5b6000614ef984828501614ec0565b91505092915050565b614f0b81614cf5565b82525050565b6000602082019050614f266000830184614f02565b92915050565b614f3581614b7d565b82525050565b600082825260208201905092915050565b6000614f5782614c1b565b614f618185614f3b565b9350614f71818560208601614c37565b614f7a81614c6a565b840191505092915050565b614f8e81614cd4565b82525050565b600061012082019050614faa600083018c614f2c565b8181036020830152614fbc818b614f4c565b90508181036040830152614fd0818a614f4c565b90508181036060830152614fe48189614f4c565b90508181036080830152614ff88188614f4c565b905081810360a083015261500c8187614f4c565b905061501b60c0830186614f2c565b61502860e0830185614f85565b615036610100830184614f02565b9a9950505050505050505050565b60006020820190506150596000830184614f2c565b92915050565b600080fd5b600080fd5b7f4e487b7100000000000000000000000000000000000000000000000000000000600052604160045260246000fd5b6150a182614c6a565b810181811067ffffffffffffffff821117156150c0576150bf615069565b5b80604052505050565b60006150d3614b69565b90506150df8282615098565b919050565b600067ffffffffffffffff8211156150ff576150fe615069565b5b61510882614c6a565b9050602081019050919050565b82818337600083830152505050565b6000615137615132846150e4565b6150c9565b90508281526020810184848401111561515357615152615064565b5b61515e848285615115565b509392505050565b600082601f83011261517b5761517a61505f565b5b813561518b848260208601615124565b91505092915050565b61519d81614cf5565b81146151a857600080fd5b50565b6000813590506151ba81615194565b92915050565b60008060008060008060c087890312156151dd576151dc614b73565b5b600087013567ffffffffffffffff8111156151fb576151fa614b78565b5b61520789828a01615166565b965050602087013567ffffffffffffffff81111561522857615227614b78565b5b61523489828a01615166565b955050604087013567ffffffffffffffff81111561525557615254614b78565b5b61526189828a01615166565b945050606087013567ffffffffffffffff81111561528257615281614b78565b5b61528e89828a01615166565b935050608087013567ffffffffffffffff8111156152af576152ae614b78565b5b6152bb89828a01615166565b92505060a06152cc89828a016151ab565b9150509295509295509295565b7f4f6e6c79204d6f64657261746f72732048617665204163636573732100000000600082015250565b600061530f601c83614f3b565b915061531a826152d9565b602082019050919050565b6000602082019050818103600083015261533e81615302565b9050919050565b7f5061757361626c653a2070617573656400000000000000000000000000000000600082015250565b600061537b601083614f3b565b915061538682615345565b602082019050919050565b600060208201905081810360008301526153aa8161536e565b9050919050565b7f416464726573732069732063757272656e746c7920426c61636b6c697374656460008201527f2e2e000000000000000000000000000000000000000000000000000000000000602082015250565b600061540d602283614f3b565b9150615418826153b1565b604082019050919050565b6000602082019050818103600083015261543c81615400565b9050919050565b7f4e487b7100000000000000000000000000000000000000000000000000000000600052601160045260246000fd5b600061547d82614b7d565b915061548883614b7d565b9250827fffffffffffffffffffffffffffffffffffffffffffffffffffffffffffffffff038211156154bd576154bc615443565b5b828201905092915050565b60006154d382614b7d565b91507fffffffffffffffffffffffffffffffffffffffffffffffffffffffffffffffff82141561550657615505615443565b5b600182019050919050565b7f4e487b7100000000000000000000000000000000000000000000000000000000600052602260045260246000fd5b6000600282049050600182168061555857607f821691505b6020821081141561556c5761556b615511565b5b50919050565b7f4e487b7100000000000000000000000000000000000000000000000000000000600052603260045260246000fd5b60006040820190506155b66000830185614f85565b6155c36020830184614f85565b9392505050565b7f796f752063616e206f6e6c79206d616e6970756c61746520796f7572206f776e60008201527f2066696c65000000000000000000000000000000000000000000000000000000602082015250565b6000615626602583614f3b565b9150615631826155ca565b604082019050919050565b6000602082019050818103600083015261565581615619565b9050919050565b600061566782614b7d565b915061567283614b7d565b92508282101561568557615684615443565b5b828203905092915050565b7f5061757361626c653a206e6f7420706175736564000000000000000000000000600082015250565b60006156c6601483614f3b565b91506156d182615690565b602082019050919050565b600060208201905081810360008301526156f5816156b9565b9050919050565b60006020820190506157116000830184614f85565b9291505056fea2646970667358221220f35f66fef4876091cfae8d663c63c0f263ffe716cb210795db3a8b6edd6045d464736f6c634300080a0033",
          "opcodes": "PUSH1 0x80 PUSH1 0x40 MSTORE CALLVALUE DUP1 ISZERO PUSH3 0x11 JUMPI PUSH1 0x0 DUP1 REVERT JUMPDEST POP PUSH1 0x0 DUP1 PUSH1 0x0 PUSH2 0x100 EXP DUP2 SLOAD DUP2 PUSH1 0xFF MUL NOT AND SWAP1 DUP4 ISZERO ISZERO MUL OR SWAP1 SSTORE POP PUSH3 0x60 PUSH32 0xC79A7738862AFD2956079D6885E6932143957DA7824BBAD1692B86F6A3E78B28 PUSH1 0x0 SHL PUSH3 0x126 PUSH1 0x20 SHL PUSH1 0x20 SHR JUMP JUMPDEST PUSH3 0x94 PUSH32 0x794429C93AE9CEB6CB6BB7E158FDEBD1DF10A5C1D30D7FC293FC12CA3E890103 PUSH1 0x0 SHL PUSH3 0x126 PUSH1 0x20 SHL PUSH1 0x20 SHR JUMP JUMPDEST PUSH3 0xC8 PUSH32 0xBC6653F3E5A95AAED7991ADB6625B0A33A2C17F7B6C4097BB5F9F8BDBBD4B812 PUSH1 0x0 SHL PUSH3 0x126 PUSH1 0x20 SHL PUSH1 0x20 SHR JUMP JUMPDEST PUSH1 0x1 PUSH1 0x3 PUSH1 0x0 CALLER PUSH20 0xFFFFFFFFFFFFFFFFFFFFFFFFFFFFFFFFFFFFFFFF AND PUSH20 0xFFFFFFFFFFFFFFFFFFFFFFFFFFFFFFFFFFFFFFFF AND DUP2 MSTORE PUSH1 0x20 ADD SWAP1 DUP2 MSTORE PUSH1 0x20 ADD PUSH1 0x0 KECCAK256 PUSH1 0x0 PUSH2 0x100 EXP DUP2 SLOAD DUP2 PUSH1 0xFF MUL NOT AND SWAP1 DUP4 ISZERO ISZERO MUL OR SWAP1 SSTORE POP PUSH3 0x129 JUMP JUMPDEST POP JUMP JUMPDEST PUSH2 0x574D DUP1 PUSH3 0x139 PUSH1 0x0 CODECOPY PUSH1 0x0 RETURN INVALID PUSH1 0x80 PUSH1 0x40 MSTORE CALLVALUE DUP1 ISZERO PUSH2 0x10 JUMPI PUSH1 0x0 DUP1 REVERT JUMPDEST POP PUSH1 0x4 CALLDATASIZE LT PUSH2 0x115 JUMPI PUSH1 0x0 CALLDATALOAD PUSH1 0xE0 SHR DUP1 PUSH4 0x969B1CDB GT PUSH2 0xA2 JUMPI DUP1 PUSH4 0xA8B23DBC GT PUSH2 0x71 JUMPI DUP1 PUSH4 0xA8B23DBC EQ PUSH2 0x2BE JUMPI DUP1 PUSH4 0xB1BED4F5 EQ PUSH2 0x2DC JUMPI DUP1 PUSH4 0xB27E237C EQ PUSH2 0x30C JUMPI DUP1 PUSH4 0xD13D9E9C EQ PUSH2 0x328 JUMPI DUP1 PUSH4 0xF54DC757 EQ PUSH2 0x344 JUMPI PUSH2 0x115 JUMP JUMPDEST DUP1 PUSH4 0x969B1CDB EQ PUSH2 0x21E JUMPI DUP1 PUSH4 0x972A92B9 EQ PUSH2 0x23A JUMPI DUP1 PUSH4 0x9A66B923 EQ PUSH2 0x272 JUMPI DUP1 PUSH4 0x9B569074 EQ PUSH2 0x28E JUMPI PUSH2 0x115 JUMP JUMPDEST DUP1 PUSH4 0x4637DE3C GT PUSH2 0xE9 JUMPI DUP1 PUSH4 0x4637DE3C EQ PUSH2 0x18E JUMPI DUP1 PUSH4 0x4A49AC4C EQ PUSH2 0x1AA JUMPI DUP1 PUSH4 0x5C975ABB EQ PUSH2 0x1DA JUMPI DUP1 PUSH4 0x82D0ED2E EQ PUSH2 0x1F8 JUMPI DUP1 PUSH4 0x8456CB59 EQ PUSH2 0x214 JUMPI PUSH2 0x115 JUMP JUMPDEST DUP1 PUSH3 0xE17BA0 EQ PUSH2 0x11A JUMPI DUP1 PUSH4 0x31D1F185 EQ PUSH2 0x136 JUMPI DUP1 PUSH4 0x3F4BA83A EQ PUSH2 0x154 JUMPI DUP1 PUSH4 0x417C73A7 EQ PUSH2 0x15E JUMPI JUMPDEST PUSH1 0x0 DUP1 REVERT JUMPDEST PUSH2 0x134 PUSH1 0x4 DUP1 CALLDATASIZE SUB DUP2 ADD SWAP1 PUSH2 0x12F SWAP2 SWAP1 PUSH2 0x4BB3 JUMP JUMPDEST PUSH2 0x374 JUMP JUMPDEST STOP JUMPDEST PUSH2 0x13E PUSH2 0x6BA JUMP JUMPDEST PUSH1 0x40 MLOAD PUSH2 0x14B SWAP2 SWAP1 PUSH2 0x4E87 JUMP JUMPDEST PUSH1 0x40 MLOAD DUP1 SWAP2 SUB SWAP1 RETURN JUMPDEST PUSH2 0x15C PUSH2 0x13DD JUMP JUMPDEST STOP JUMPDEST PUSH2 0x178 PUSH1 0x4 DUP1 CALLDATASIZE SUB DUP2 ADD SWAP1 PUSH2 0x173 SWAP2 SWAP1 PUSH2 0x4ED5 JUMP JUMPDEST PUSH2 0x165F JUMP JUMPDEST PUSH1 0x40 MLOAD PUSH2 0x185 SWAP2 SWAP1 PUSH2 0x4F11 JUMP JUMPDEST PUSH1 0x40 MLOAD DUP1 SWAP2 SUB SWAP1 RETURN JUMPDEST PUSH2 0x1A8 PUSH1 0x4 DUP1 CALLDATASIZE SUB DUP2 ADD SWAP1 PUSH2 0x1A3 SWAP2 SWAP1 PUSH2 0x4ED5 JUMP JUMPDEST PUSH2 0x1992 JUMP JUMPDEST STOP JUMPDEST PUSH2 0x1C4 PUSH1 0x4 DUP1 CALLDATASIZE SUB DUP2 ADD SWAP1 PUSH2 0x1BF SWAP2 SWAP1 PUSH2 0x4ED5 JUMP JUMPDEST PUSH2 0x1D3E JUMP JUMPDEST PUSH1 0x40 MLOAD PUSH2 0x1D1 SWAP2 SWAP1 PUSH2 0x4F11 JUMP JUMPDEST PUSH1 0x40 MLOAD DUP1 SWAP2 SUB SWAP1 RETURN JUMPDEST PUSH2 0x1E2 PUSH2 0x2071 JUMP JUMPDEST PUSH1 0x40 MLOAD PUSH2 0x1EF SWAP2 SWAP1 PUSH2 0x4F11 JUMP JUMPDEST PUSH1 0x40 MLOAD DUP1 SWAP2 SUB SWAP1 RETURN JUMPDEST PUSH2 0x212 PUSH1 0x4 DUP1 CALLDATASIZE SUB DUP2 ADD SWAP1 PUSH2 0x20D SWAP2 SWAP1 PUSH2 0x4BB3 JUMP JUMPDEST PUSH2 0x2087 JUMP JUMPDEST STOP JUMPDEST PUSH2 0x21C PUSH2 0x252A JUMP JUMPDEST STOP JUMPDEST PUSH2 0x238 PUSH1 0x4 DUP1 CALLDATASIZE SUB DUP2 ADD SWAP1 PUSH2 0x233 SWAP2 SWAP1 PUSH2 0x4BB3 JUMP JUMPDEST PUSH2 0x27AC JUMP JUMPDEST STOP JUMPDEST PUSH2 0x254 PUSH1 0x4 DUP1 CALLDATASIZE SUB DUP2 ADD SWAP1 PUSH2 0x24F SWAP2 SWAP1 PUSH2 0x4BB3 JUMP JUMPDEST PUSH2 0x285C JUMP JUMPDEST PUSH1 0x40 MLOAD PUSH2 0x269 SWAP10 SWAP9 SWAP8 SWAP7 SWAP6 SWAP5 SWAP4 SWAP3 SWAP2 SWAP1 PUSH2 0x4F94 JUMP JUMPDEST PUSH1 0x40 MLOAD DUP1 SWAP2 SUB SWAP1 RETURN JUMPDEST PUSH2 0x28C PUSH1 0x4 DUP1 CALLDATASIZE SUB DUP2 ADD SWAP1 PUSH2 0x287 SWAP2 SWAP1 PUSH2 0x4BB3 JUMP JUMPDEST PUSH2 0x2B7F JUMP JUMPDEST STOP JUMPDEST PUSH2 0x2A8 PUSH1 0x4 DUP1 CALLDATASIZE SUB DUP2 ADD SWAP1 PUSH2 0x2A3 SWAP2 SWAP1 PUSH2 0x4BB3 JUMP JUMPDEST PUSH2 0x2FCE JUMP JUMPDEST PUSH1 0x40 MLOAD PUSH2 0x2B5 SWAP2 SWAP1 PUSH2 0x5044 JUMP JUMPDEST PUSH1 0x40 MLOAD DUP1 SWAP2 SUB SWAP1 RETURN JUMPDEST PUSH2 0x2C6 PUSH2 0x2FF2 JUMP JUMPDEST PUSH1 0x40 MLOAD PUSH2 0x2D3 SWAP2 SWAP1 PUSH2 0x4E87 JUMP JUMPDEST PUSH1 0x40 MLOAD DUP1 SWAP2 SUB SWAP1 RETURN JUMPDEST PUSH2 0x2F6 PUSH1 0x4 DUP1 CALLDATASIZE SUB DUP2 ADD SWAP1 PUSH2 0x2F1 SWAP2 SWAP1 PUSH2 0x4ED5 JUMP JUMPDEST PUSH2 0x3AF1 JUMP JUMPDEST PUSH1 0x40 MLOAD PUSH2 0x303 SWAP2 SWAP1 PUSH2 0x4F11 JUMP JUMPDEST PUSH1 0x40 MLOAD DUP1 SWAP2 SUB SWAP1 RETURN JUMPDEST PUSH2 0x326 PUSH1 0x4 DUP1 CALLDATASIZE SUB DUP2 ADD SWAP1 PUSH2 0x321 SWAP2 SWAP1 PUSH2 0x4ED5 JUMP JUMPDEST PUSH2 0x3B11 JUMP JUMPDEST STOP JUMPDEST PUSH2 0x342 PUSH1 0x4 DUP1 CALLDATASIZE SUB DUP2 ADD SWAP1 PUSH2 0x33D SWAP2 SWAP1 PUSH2 0x51C0 JUMP JUMPDEST PUSH2 0x3EBD JUMP JUMPDEST STOP JUMPDEST PUSH2 0x35E PUSH1 0x4 DUP1 CALLDATASIZE SUB DUP2 ADD SWAP1 PUSH2 0x359 SWAP2 SWAP1 PUSH2 0x4ED5 JUMP JUMPDEST PUSH2 0x48AF JUMP JUMPDEST PUSH1 0x40 MLOAD PUSH2 0x36B SWAP2 SWAP1 PUSH2 0x4F11 JUMP JUMPDEST PUSH1 0x40 MLOAD DUP1 SWAP2 SUB SWAP1 RETURN JUMPDEST CALLER PUSH2 0x3A1 PUSH32 0xA5BB85A5119CA86E9E3AF02DE1EF2A585180966B3160162A8B02CF88E513B665 PUSH1 0x0 SHL PUSH2 0x48CF JUMP JUMPDEST PUSH2 0x3CD PUSH32 0x4798711D4B0931D93995D2F59F0416B64A23679F6D50F9AA44EBE1F2A9B103B7 PUSH1 0x0 SHL PUSH2 0x48CF JUMP JUMPDEST PUSH2 0x3F9 PUSH32 0x4CF96D3DB4FF9E59FD4F0786ED78723169369EAF8C64998117140BBCB895F948 PUSH1 0x0 SHL PUSH2 0x48CF JUMP JUMPDEST PUSH1 0x0 PUSH1 0x3 PUSH1 0x0 DUP4 PUSH20 0xFFFFFFFFFFFFFFFFFFFFFFFFFFFFFFFFFFFFFFFF AND PUSH20 0xFFFFFFFFFFFFFFFFFFFFFFFFFFFFFFFFFFFFFFFF AND DUP2 MSTORE PUSH1 0x20 ADD SWAP1 DUP2 MSTORE PUSH1 0x20 ADD PUSH1 0x0 KECCAK256 PUSH1 0x0 SWAP1 SLOAD SWAP1 PUSH2 0x100 EXP SWAP1 DIV PUSH1 0xFF AND SWAP1 POP PUSH2 0x476 PUSH32 0x652B750775C89BF16905FB12F13344373BCF93AD9620C84D6B3B99FFEF423EA7 PUSH1 0x0 SHL PUSH2 0x48CF JUMP JUMPDEST PUSH2 0x4A2 PUSH32 0xA9066C4D38FF22AF42F93EFB3E5D2AE17235CE3108403B10E35C72B91BE299E5 PUSH1 0x0 SHL PUSH2 0x48CF JUMP JUMPDEST PUSH2 0x4CE PUSH32 0x34B640BA749012C70E8E7EDA1C0BDE9F5F1BF8C55483F5A21BA13026A115599F PUSH1 0x0 SHL PUSH2 0x48CF JUMP JUMPDEST DUP1 PUSH2 0x50E JUMPI PUSH1 0x40 MLOAD PUSH32 0x8C379A000000000000000000000000000000000000000000000000000000000 DUP2 MSTORE PUSH1 0x4 ADD PUSH2 0x505 SWAP1 PUSH2 0x5325 JUMP JUMPDEST PUSH1 0x40 MLOAD DUP1 SWAP2 SUB SWAP1 REVERT JUMPDEST PUSH2 0x53A PUSH32 0xC8391C996BC9A496F4F2FE86858DD4531EED9019015E78EB14C1618113798DA4 PUSH1 0x0 SHL PUSH2 0x48CF JUMP JUMPDEST PUSH2 0x566 PUSH32 0x9157B2054990CC122E198AA955191AD43FCC962BDACBE5CEB561C27538727B20 PUSH1 0x0 SHL PUSH2 0x48CF JUMP JUMPDEST PUSH2 0x592 PUSH32 0xA9BEC7D1DAFF10E5762E6B78D137AE1DA4107ED8D3D3C94215F21FF9388D5C98 PUSH1 0x0 SHL PUSH2 0x48CF JUMP JUMPDEST PUSH2 0x5BE PUSH32 0xFF4D02835B35176BA8B674463B8F62862C39805A7A7315453EA3A7C3637E742B PUSH1 0x0 SHL PUSH2 0x48CF JUMP JUMPDEST PUSH2 0x5EA PUSH32 0x2507DF39E13437DADD22F09E9DE29FC3D9864D0A910FFCC4373B011494CA67FD PUSH1 0x0 SHL PUSH2 0x48CF JUMP JUMPDEST PUSH1 0x0 PUSH1 0x4 PUSH1 0x0 DUP6 DUP2 MSTORE PUSH1 0x20 ADD SWAP1 DUP2 MSTORE PUSH1 0x20 ADD PUSH1 0x0 KECCAK256 PUSH1 0x7 ADD PUSH1 0x14 PUSH2 0x100 EXP DUP2 SLOAD DUP2 PUSH1 0xFF MUL NOT AND SWAP1 DUP4 ISZERO ISZERO MUL OR SWAP1 SSTORE POP PUSH2 0x645 PUSH32 0x20A27F391AE2099526980054D25F4EA033867D76F8D0FE76492DE39771A7C89 PUSH1 0x0 SHL PUSH2 0x48CF JUMP JUMPDEST PUSH2 0x671 PUSH32 0xF48ABEE25B15695FA1078A78C6E5F1B3D8D8A5C241B21499640F6401FF0B916E PUSH1 0x0 SHL PUSH2 0x48CF JUMP JUMPDEST PUSH2 0x67B PUSH1 0x2 PUSH2 0x48D2 JUMP JUMPDEST PUSH2 0x6A7 PUSH32 0xF45F2F6228A62358851B0E61B037B67BF18AF4AFB58DCB1479B31A6230151C43 PUSH1 0x0 SHL PUSH2 0x48CF JUMP JUMPDEST PUSH1 0x6 PUSH1 0x0 PUSH2 0x6B5 SWAP2 SWAP1 PUSH2 0x4A41 JUMP JUMPDEST POP POP POP JUMP JUMPDEST PUSH1 0x60 PUSH2 0x6C4 PUSH2 0x2071 JUMP JUMPDEST ISZERO PUSH2 0x704 JUMPI PUSH1 0x40 MLOAD PUSH32 0x8C379A000000000000000000000000000000000000000000000000000000000 DUP2 MSTORE PUSH1 0x4 ADD PUSH2 0x6FB SWAP1 PUSH2 0x5391 JUMP JUMPDEST PUSH1 0x40 MLOAD DUP1 SWAP2 SUB SWAP1 REVERT JUMPDEST PUSH2 0x730 PUSH32 0x937A41745CDCC963E4AEAA9C56528D06C3BA1E629726F59E8841A14A36301964 PUSH1 0x0 SHL PUSH2 0x48CF JUMP JUMPDEST PUSH2 0x75C PUSH32 0x871E5C489CAF1DF2F4102C9A1BEACE4295D3833E9F26FBFB0DD04C7D6714F592 PUSH1 0x0 SHL PUSH2 0x48CF JUMP JUMPDEST PUSH2 0x788 PUSH32 0xA1FA760DD71DC291007DF0ADC4EC92C8D1658ED9B5E548FE2D405577CCDFF760 PUSH1 0x0 SHL PUSH2 0x48CF JUMP JUMPDEST PUSH2 0x7B4 PUSH32 0xA98E1D32CFF3C1A7B3A7424816E61FC0BF4CEF092C08CF1F8D8D012B368B4A45 PUSH1 0x0 SHL PUSH2 0x48CF JUMP JUMPDEST PUSH1 0x0 ISZERO ISZERO PUSH1 0x5 PUSH1 0x0 CALLER PUSH20 0xFFFFFFFFFFFFFFFFFFFFFFFFFFFFFFFFFFFFFFFF AND PUSH20 0xFFFFFFFFFFFFFFFFFFFFFFFFFFFFFFFFFFFFFFFF AND DUP2 MSTORE PUSH1 0x20 ADD SWAP1 DUP2 MSTORE PUSH1 0x20 ADD PUSH1 0x0 KECCAK256 PUSH1 0x0 SWAP1 SLOAD SWAP1 PUSH2 0x100 EXP SWAP1 DIV PUSH1 0xFF AND ISZERO ISZERO EQ PUSH2 0x847 JUMPI PUSH1 0x40 MLOAD PUSH32 0x8C379A000000000000000000000000000000000000000000000000000000000 DUP2 MSTORE PUSH1 0x4 ADD PUSH2 0x83E SWAP1 PUSH2 0x5423 JUMP JUMPDEST PUSH1 0x40 MLOAD DUP1 SWAP2 SUB SWAP1 REVERT JUMPDEST PUSH2 0x873 PUSH32 0x2ABFF1CE909803E5C4F1660028BEF60FA268FA7A41D426A38805A1508FD2EB74 PUSH1 0x0 SHL PUSH2 0x48CF JUMP JUMPDEST PUSH2 0x89F PUSH32 0xFE7FF8E42F34670341436BF522CE31CEF6C13146C85E33BE37A17087498912AE PUSH1 0x0 SHL PUSH2 0x48CF JUMP JUMPDEST PUSH2 0x8CB PUSH32 0x57390D9AF238E3A6ED3644A38063427F37CA8FC486DB7F72E3FE2ACB8C7506FD PUSH1 0x0 SHL PUSH2 0x48CF JUMP JUMPDEST PUSH2 0x8F7 PUSH32 0x65A6E3FE3114E640EDBDB4DBE948CE2BF71C57A0D5D3BA8A43A959FA80920E1A PUSH1 0x0 SHL PUSH2 0x48CF JUMP JUMPDEST PUSH2 0x923 PUSH32 0xD1C2B8C927BF83AA397233E9B6CBAB409F3577D89821D379A21640E2280B2998 PUSH1 0x0 SHL PUSH2 0x48CF JUMP JUMPDEST PUSH1 0x0 PUSH2 0x92F PUSH1 0x1 PUSH2 0x48E8 JUMP JUMPDEST SWAP1 POP PUSH2 0x95D PUSH32 0x813C7C839FDB3F5BF670CD70E028B3BC8614AB33A92D8DE061AD8F8A5709324B PUSH1 0x0 SHL PUSH2 0x48CF JUMP JUMPDEST PUSH2 0x989 PUSH32 0xD091FD4F336C639768A50DB3126C1D5416B1E327BB1DBDAEC684D2514FA0F086 PUSH1 0x0 SHL PUSH2 0x48CF JUMP JUMPDEST PUSH1 0x0 PUSH2 0x9B7 PUSH32 0x97FAC4966BC6B949AEAB748DA2E9FD76EB08FE58A415867BEF68130357135972 PUSH1 0x0 SHL PUSH2 0x48CF JUMP JUMPDEST PUSH2 0x9E3 PUSH32 0xDD2B0FB0269924FFC260CDC9C7F07EFDE8078849E9C650ECC0573F0725C941AE PUSH1 0x0 SHL PUSH2 0x48CF JUMP JUMPDEST PUSH1 0x0 PUSH2 0xA11 PUSH32 0x63BE2255B9FF62632458747D28A7B0A2E2CCD2FB0F9F821CD20F6D0954FA134F PUSH1 0x0 SHL PUSH2 0x48CF JUMP JUMPDEST PUSH2 0xA3D PUSH32 0x46570A5D2AA13CF6A12126C7CD202AB6A581087CDC684DBF7C5CD18A5AC6FD2C PUSH1 0x0 SHL PUSH2 0x48CF JUMP JUMPDEST PUSH1 0x0 JUMPDEST DUP4 DUP2 LT ISZERO PUSH2 0xBEE JUMPI PUSH2 0xA74 PUSH32 0x6D9EA1913C6E63A152C81614A09AAFA847159B7FB3F3D7853F70874A09DA78D8 PUSH1 0x0 SHL PUSH2 0x48CF JUMP JUMPDEST PUSH2 0xAA0 PUSH32 0x355FAF35687343D762B74AC74A507591A6505EF01A2AF91E2B957B11AAE8F17B PUSH1 0x0 SHL PUSH2 0x48CF JUMP JUMPDEST CALLER PUSH20 0xFFFFFFFFFFFFFFFFFFFFFFFFFFFFFFFFFFFFFFFF AND PUSH1 0x4 PUSH1 0x0 PUSH1 0x1 DUP5 PUSH2 0xAC8 SWAP2 SWAP1 PUSH2 0x5472 JUMP JUMPDEST DUP2 MSTORE PUSH1 0x20 ADD SWAP1 DUP2 MSTORE PUSH1 0x20 ADD PUSH1 0x0 KECCAK256 PUSH1 0x7 ADD PUSH1 0x0 SWAP1 SLOAD SWAP1 PUSH2 0x100 EXP SWAP1 DIV PUSH20 0xFFFFFFFFFFFFFFFFFFFFFFFFFFFFFFFFFFFFFFFF AND PUSH20 0xFFFFFFFFFFFFFFFFFFFFFFFFFFFFFFFFFFFFFFFF AND EQ ISZERO PUSH2 0xBAE JUMPI PUSH2 0xB42 PUSH32 0xC79754E3BB7F824C8C79A26182F7BE57E359D7A06B40CEDA52081047FBDCA987 PUSH1 0x0 SHL PUSH2 0x48CF JUMP JUMPDEST PUSH2 0xB6E PUSH32 0xA1EA889348BBD45944AEC7624468EFEDB20F8D8E6C0D0157113D7F6E0272BBE5 PUSH1 0x0 SHL PUSH2 0x48CF JUMP JUMPDEST PUSH2 0xB9A PUSH32 0x22C1EA61C3AEE0E91AAB5EF22A8EF1885B5117AE06B1E6DC457CED0B92AE1947 PUSH1 0x0 SHL PUSH2 0x48CF JUMP JUMPDEST PUSH1 0x1 DUP4 PUSH2 0xBA7 SWAP2 SWAP1 PUSH2 0x5472 JUMP JUMPDEST SWAP3 POP PUSH2 0xBDB JUMP JUMPDEST PUSH2 0xBDA PUSH32 0x216783361EDC04DC21E314643DB1298D20299B9256FD3461B983C43873BF0A52 PUSH1 0x0 SHL PUSH2 0x48CF JUMP JUMPDEST JUMPDEST DUP1 DUP1 PUSH2 0xBE6 SWAP1 PUSH2 0x54C8 JUMP JUMPDEST SWAP2 POP POP PUSH2 0xA40 JUMP JUMPDEST POP PUSH2 0xC1B PUSH32 0x29AAFABF0C41B0FDFCA228009933D6B2D9418120D9328E07BE587E290A82C8C2 PUSH1 0x0 SHL PUSH2 0x48CF JUMP JUMPDEST PUSH2 0xC47 PUSH32 0xB095B63820E1461FD1CE8C5BD0E24191BCB3EB3F7313600A65E2C748392814FD PUSH1 0x0 SHL PUSH2 0x48CF JUMP JUMPDEST PUSH1 0x0 DUP3 PUSH8 0xFFFFFFFFFFFFFFFF DUP2 GT ISZERO PUSH2 0xC63 JUMPI PUSH2 0xC62 PUSH2 0x5069 JUMP JUMPDEST JUMPDEST PUSH1 0x40 MLOAD SWAP1 DUP1 DUP3 MSTORE DUP1 PUSH1 0x20 MUL PUSH1 0x20 ADD DUP3 ADD PUSH1 0x40 MSTORE DUP1 ISZERO PUSH2 0xC9C JUMPI DUP2 PUSH1 0x20 ADD JUMPDEST PUSH2 0xC89 PUSH2 0x4A62 JUMP JUMPDEST DUP2 MSTORE PUSH1 0x20 ADD SWAP1 PUSH1 0x1 SWAP1 SUB SWAP1 DUP2 PUSH2 0xC81 JUMPI SWAP1 POP JUMPDEST POP SWAP1 POP PUSH2 0xCCB PUSH32 0x427C3FC0E158A528FAC0E2000F33C311F51D7AA217F7FD488D5074CA73AE2A36 PUSH1 0x0 SHL PUSH2 0x48CF JUMP JUMPDEST PUSH2 0xCF7 PUSH32 0x6B1EF92C8248EC90B597D14998DA9482C5C2EB408FA4D71BFCEB43BAD25C2103 PUSH1 0x0 SHL PUSH2 0x48CF JUMP JUMPDEST PUSH1 0x0 JUMPDEST DUP5 DUP2 LT ISZERO PUSH2 0x137A JUMPI PUSH2 0xD2E PUSH32 0x18F32C4C64136D9D239EF288F437F443D67A4757BE1735E188863B84DC162602 PUSH1 0x0 SHL PUSH2 0x48CF JUMP JUMPDEST PUSH2 0xD5A PUSH32 0x84EF35EAAB8E78FC87D743D7228DB48143E26105E21555791B616F05B260D005 PUSH1 0x0 SHL PUSH2 0x48CF JUMP JUMPDEST CALLER PUSH20 0xFFFFFFFFFFFFFFFFFFFFFFFFFFFFFFFFFFFFFFFF AND PUSH1 0x4 PUSH1 0x0 PUSH1 0x1 DUP5 PUSH2 0xD82 SWAP2 SWAP1 PUSH2 0x5472 JUMP JUMPDEST DUP2 MSTORE PUSH1 0x20 ADD SWAP1 DUP2 MSTORE PUSH1 0x20 ADD PUSH1 0x0 KECCAK256 PUSH1 0x7 ADD PUSH1 0x0 SWAP1 SLOAD SWAP1 PUSH2 0x100 EXP SWAP1 DIV PUSH20 0xFFFFFFFFFFFFFFFFFFFFFFFFFFFFFFFFFFFFFFFF AND PUSH20 0xFFFFFFFFFFFFFFFFFFFFFFFFFFFFFFFFFFFFFFFF AND EQ ISZERO PUSH2 0x133A JUMPI PUSH2 0xDFC PUSH32 0x1940B8DCF67B57A71FE8EB43969ADF3E6AA7E96810858FA82C4FFD8AA0178C93 PUSH1 0x0 SHL PUSH2 0x48CF JUMP JUMPDEST PUSH2 0xE28 PUSH32 0xB617325E836D8F2ABB62AD84246AE2B34EED85866E5CCDF6060EA9A45B014836 PUSH1 0x0 SHL PUSH2 0x48CF JUMP JUMPDEST PUSH2 0xE54 PUSH32 0xE20EE470A9797F306B52C48CFB5A8F5A816447E1D025B29F78C84874FAC01E93 PUSH1 0x0 SHL PUSH2 0x48CF JUMP JUMPDEST PUSH1 0x0 PUSH1 0x4 PUSH1 0x0 PUSH1 0x1 DUP5 PUSH2 0xE67 SWAP2 SWAP1 PUSH2 0x5472 JUMP JUMPDEST DUP2 MSTORE PUSH1 0x20 ADD SWAP1 DUP2 MSTORE PUSH1 0x20 ADD PUSH1 0x0 KECCAK256 PUSH1 0x0 ADD SLOAD SWAP1 POP PUSH2 0xEA7 PUSH32 0x914649DE753635D96DF8F6840E1060167BF06E18DF8FF1B1F89AC04A54AD7DE1 PUSH1 0x0 SHL PUSH2 0x48CF JUMP JUMPDEST PUSH2 0xED3 PUSH32 0xD8FE27C0D8FBC24B355C23A5C3578CD5E5F34AF889175ED60CD67514CB8DF19E PUSH1 0x0 SHL PUSH2 0x48CF JUMP JUMPDEST PUSH1 0x0 PUSH1 0x4 PUSH1 0x0 DUP4 DUP2 MSTORE PUSH1 0x20 ADD SWAP1 DUP2 MSTORE PUSH1 0x20 ADD PUSH1 0x0 KECCAK256 SWAP1 POP PUSH2 0xF16 PUSH32 0xB56DA8D3ABAB7BAF076A17DAB5BB4A32DAE195143B33A7B79BC64241E8C4EBB1 PUSH1 0x0 SHL PUSH2 0x48CF JUMP JUMPDEST PUSH2 0xF42 PUSH32 0x2E4F296708FD099C4CF78F9619EB1725BF1B212ECE1285A8419FC10CD59B8889 PUSH1 0x0 SHL PUSH2 0x48CF JUMP JUMPDEST DUP1 PUSH1 0x40 MLOAD DUP1 PUSH2 0x120 ADD PUSH1 0x40 MSTORE SWAP1 DUP2 PUSH1 0x0 DUP3 ADD SLOAD DUP2 MSTORE PUSH1 0x20 ADD PUSH1 0x1 DUP3 ADD DUP1 SLOAD PUSH2 0xF69 SWAP1 PUSH2 0x5540 JUMP JUMPDEST DUP1 PUSH1 0x1F ADD PUSH1 0x20 DUP1 SWAP2 DIV MUL PUSH1 0x20 ADD PUSH1 0x40 MLOAD SWAP1 DUP2 ADD PUSH1 0x40 MSTORE DUP1 SWAP3 SWAP2 SWAP1 DUP2 DUP2 MSTORE PUSH1 0x20 ADD DUP3 DUP1 SLOAD PUSH2 0xF95 SWAP1 PUSH2 0x5540 JUMP JUMPDEST DUP1 ISZERO PUSH2 0xFE2 JUMPI DUP1 PUSH1 0x1F LT PUSH2 0xFB7 JUMPI PUSH2 0x100 DUP1 DUP4 SLOAD DIV MUL DUP4 MSTORE SWAP2 PUSH1 0x20 ADD SWAP2 PUSH2 0xFE2 JUMP JUMPDEST DUP3 ADD SWAP2 SWAP1 PUSH1 0x0 MSTORE PUSH1 0x20 PUSH1 0x0 KECCAK256 SWAP1 JUMPDEST DUP2 SLOAD DUP2 MSTORE SWAP1 PUSH1 0x1 ADD SWAP1 PUSH1 0x20 ADD DUP1 DUP4 GT PUSH2 0xFC5 JUMPI DUP3 SWAP1 SUB PUSH1 0x1F AND DUP3 ADD SWAP2 JUMPDEST POP POP POP POP POP DUP2 MSTORE PUSH1 0x20 ADD PUSH1 0x2 DUP3 ADD DUP1 SLOAD PUSH2 0xFFB SWAP1 PUSH2 0x5540 JUMP JUMPDEST DUP1 PUSH1 0x1F ADD PUSH1 0x20 DUP1 SWAP2 DIV MUL PUSH1 0x20 ADD PUSH1 0x40 MLOAD SWAP1 DUP2 ADD PUSH1 0x40 MSTORE DUP1 SWAP3 SWAP2 SWAP1 DUP2 DUP2 MSTORE PUSH1 0x20 ADD DUP3 DUP1 SLOAD PUSH2 0x1027 SWAP1 PUSH2 0x5540 JUMP JUMPDEST DUP1 ISZERO PUSH2 0x1074 JUMPI DUP1 PUSH1 0x1F LT PUSH2 0x1049 JUMPI PUSH2 0x100 DUP1 DUP4 SLOAD DIV MUL DUP4 MSTORE SWAP2 PUSH1 0x20 ADD SWAP2 PUSH2 0x1074 JUMP JUMPDEST DUP3 ADD SWAP2 SWAP1 PUSH1 0x0 MSTORE PUSH1 0x20 PUSH1 0x0 KECCAK256 SWAP1 JUMPDEST DUP2 SLOAD DUP2 MSTORE SWAP1 PUSH1 0x1 ADD SWAP1 PUSH1 0x20 ADD DUP1 DUP4 GT PUSH2 0x1057 JUMPI DUP3 SWAP1 SUB PUSH1 0x1F AND DUP3 ADD SWAP2 JUMPDEST POP POP POP POP POP DUP2 MSTORE PUSH1 0x20 ADD PUSH1 0x3 DUP3 ADD DUP1 SLOAD PUSH2 0x108D SWAP1 PUSH2 0x5540 JUMP JUMPDEST DUP1 PUSH1 0x1F ADD PUSH1 0x20 DUP1 SWAP2 DIV MUL PUSH1 0x20 ADD PUSH1 0x40 MLOAD SWAP1 DUP2 ADD PUSH1 0x40 MSTORE DUP1 SWAP3 SWAP2 SWAP1 DUP2 DUP2 MSTORE PUSH1 0x20 ADD DUP3 DUP1 SLOAD PUSH2 0x10B9 SWAP1 PUSH2 0x5540 JUMP JUMPDEST DUP1 ISZERO PUSH2 0x1106 JUMPI DUP1 PUSH1 0x1F LT PUSH2 0x10DB JUMPI PUSH2 0x100 DUP1 DUP4 SLOAD DIV MUL DUP4 MSTORE SWAP2 PUSH1 0x20 ADD SWAP2 PUSH2 0x1106 JUMP JUMPDEST DUP3 ADD SWAP2 SWAP1 PUSH1 0x0 MSTORE PUSH1 0x20 PUSH1 0x0 KECCAK256 SWAP1 JUMPDEST DUP2 SLOAD DUP2 MSTORE SWAP1 PUSH1 0x1 ADD SWAP1 PUSH1 0x20 ADD DUP1 DUP4 GT PUSH2 0x10E9 JUMPI DUP3 SWAP1 SUB PUSH1 0x1F AND DUP3 ADD SWAP2 JUMPDEST POP POP POP POP POP DUP2 MSTORE PUSH1 0x20 ADD PUSH1 0x4 DUP3 ADD DUP1 SLOAD PUSH2 0x111F SWAP1 PUSH2 0x5540 JUMP JUMPDEST DUP1 PUSH1 0x1F ADD PUSH1 0x20 DUP1 SWAP2 DIV MUL PUSH1 0x20 ADD PUSH1 0x40 MLOAD SWAP1 DUP2 ADD PUSH1 0x40 MSTORE DUP1 SWAP3 SWAP2 SWAP1 DUP2 DUP2 MSTORE PUSH1 0x20 ADD DUP3 DUP1 SLOAD PUSH2 0x114B SWAP1 PUSH2 0x5540 JUMP JUMPDEST DUP1 ISZERO PUSH2 0x1198 JUMPI DUP1 PUSH1 0x1F LT PUSH2 0x116D JUMPI PUSH2 0x100 DUP1 DUP4 SLOAD DIV MUL DUP4 MSTORE SWAP2 PUSH1 0x20 ADD SWAP2 PUSH2 0x1198 JUMP JUMPDEST DUP3 ADD SWAP2 SWAP1 PUSH1 0x0 MSTORE PUSH1 0x20 PUSH1 0x0 KECCAK256 SWAP1 JUMPDEST DUP2 SLOAD DUP2 MSTORE SWAP1 PUSH1 0x1 ADD SWAP1 PUSH1 0x20 ADD DUP1 DUP4 GT PUSH2 0x117B JUMPI DUP3 SWAP1 SUB PUSH1 0x1F AND DUP3 ADD SWAP2 JUMPDEST POP POP POP POP POP DUP2 MSTORE PUSH1 0x20 ADD PUSH1 0x5 DUP3 ADD DUP1 SLOAD PUSH2 0x11B1 SWAP1 PUSH2 0x5540 JUMP JUMPDEST DUP1 PUSH1 0x1F ADD PUSH1 0x20 DUP1 SWAP2 DIV MUL PUSH1 0x20 ADD PUSH1 0x40 MLOAD SWAP1 DUP2 ADD PUSH1 0x40 MSTORE DUP1 SWAP3 SWAP2 SWAP1 DUP2 DUP2 MSTORE PUSH1 0x20 ADD DUP3 DUP1 SLOAD PUSH2 0x11DD SWAP1 PUSH2 0x5540 JUMP JUMPDEST DUP1 ISZERO PUSH2 0x122A JUMPI DUP1 PUSH1 0x1F LT PUSH2 0x11FF JUMPI PUSH2 0x100 DUP1 DUP4 SLOAD DIV MUL DUP4 MSTORE SWAP2 PUSH1 0x20 ADD SWAP2 PUSH2 0x122A JUMP JUMPDEST DUP3 ADD SWAP2 SWAP1 PUSH1 0x0 MSTORE PUSH1 0x20 PUSH1 0x0 KECCAK256 SWAP1 JUMPDEST DUP2 SLOAD DUP2 MSTORE SWAP1 PUSH1 0x1 ADD SWAP1 PUSH1 0x20 ADD DUP1 DUP4 GT PUSH2 0x120D JUMPI DUP3 SWAP1 SUB PUSH1 0x1F AND DUP3 ADD SWAP2 JUMPDEST POP POP POP POP POP DUP2 MSTORE PUSH1 0x20 ADD PUSH1 0x6 DUP3 ADD SLOAD DUP2 MSTORE PUSH1 0x20 ADD PUSH1 0x7 DUP3 ADD PUSH1 0x0 SWAP1 SLOAD SWAP1 PUSH2 0x100 EXP SWAP1 DIV PUSH20 0xFFFFFFFFFFFFFFFFFFFFFFFFFFFFFFFFFFFFFFFF AND PUSH20 0xFFFFFFFFFFFFFFFFFFFFFFFFFFFFFFFFFFFFFFFF AND PUSH20 0xFFFFFFFFFFFFFFFFFFFFFFFFFFFFFFFFFFFFFFFF AND DUP2 MSTORE PUSH1 0x20 ADD PUSH1 0x7 DUP3 ADD PUSH1 0x14 SWAP1 SLOAD SWAP1 PUSH2 0x100 EXP SWAP1 DIV PUSH1 0xFF AND ISZERO ISZERO ISZERO ISZERO DUP2 MSTORE POP POP DUP5 DUP7 DUP2 MLOAD DUP2 LT PUSH2 0x12C1 JUMPI PUSH2 0x12C0 PUSH2 0x5572 JUMP JUMPDEST JUMPDEST PUSH1 0x20 MUL PUSH1 0x20 ADD ADD DUP2 SWAP1 MSTORE POP PUSH2 0x12F8 PUSH32 0x72B8528FAE6320C6DF81D793684AC8C2AB61B96F7DFCF893D2B73B93A462B2DE PUSH1 0x0 SHL PUSH2 0x48CF JUMP JUMPDEST PUSH2 0x1324 PUSH32 0x7B01011344049133ED427277E21A0BCFF85CB73460DC0A20841889C55E4FEF79 PUSH1 0x0 SHL PUSH2 0x48CF JUMP JUMPDEST PUSH1 0x1 DUP6 PUSH2 0x1331 SWAP2 SWAP1 PUSH2 0x5472 JUMP JUMPDEST SWAP5 POP POP POP PUSH2 0x1367 JUMP JUMPDEST PUSH2 0x1366 PUSH32 0x59CB72882A9D07D7ECE1403CCC426F904F01EF1BFA687681AA54A3C43260FC5E PUSH1 0x0 SHL PUSH2 0x48CF JUMP JUMPDEST JUMPDEST DUP1 DUP1 PUSH2 0x1372 SWAP1 PUSH2 0x54C8 JUMP JUMPDEST SWAP2 POP POP PUSH2 0xCFA JUMP JUMPDEST POP PUSH2 0x13A7 PUSH32 0xDCCD5D753E1A3691C31FB13CEE8880FA895153054EC1191EDA8885299F57FAD3 PUSH1 0x0 SHL PUSH2 0x48CF JUMP JUMPDEST PUSH2 0x13D3 PUSH32 0x711D914F57BF1E5EE110223315CB9828EE6506CCCADE55D2D403FC61DCBB5DEA PUSH1 0x0 SHL PUSH2 0x48CF JUMP JUMPDEST DUP1 SWAP5 POP POP POP POP POP SWAP1 JUMP JUMPDEST CALLER PUSH2 0x140A PUSH32 0xA5BB85A5119CA86E9E3AF02DE1EF2A585180966B3160162A8B02CF88E513B665 PUSH1 0x0 SHL PUSH2 0x48CF JUMP JUMPDEST PUSH2 0x1436 PUSH32 0x4798711D4B0931D93995D2F59F0416B64A23679F6D50F9AA44EBE1F2A9B103B7 PUSH1 0x0 SHL PUSH2 0x48CF JUMP JUMPDEST PUSH2 0x1462 PUSH32 0x4CF96D3DB4FF9E59FD4F0786ED78723169369EAF8C64998117140BBCB895F948 PUSH1 0x0 SHL PUSH2 0x48CF JUMP JUMPDEST PUSH1 0x0 PUSH1 0x3 PUSH1 0x0 DUP4 PUSH20 0xFFFFFFFFFFFFFFFFFFFFFFFFFFFFFFFFFFFFFFFF AND PUSH20 0xFFFFFFFFFFFFFFFFFFFFFFFFFFFFFFFFFFFFFFFF AND DUP2 MSTORE PUSH1 0x20 ADD SWAP1 DUP2 MSTORE PUSH1 0x20 ADD PUSH1 0x0 KECCAK256 PUSH1 0x0 SWAP1 SLOAD SWAP1 PUSH2 0x100 EXP SWAP1 DIV PUSH1 0xFF AND SWAP1 POP PUSH2 0x14DF PUSH32 0x652B750775C89BF16905FB12F13344373BCF93AD9620C84D6B3B99FFEF423EA7 PUSH1 0x0 SHL PUSH2 0x48CF JUMP JUMPDEST PUSH2 0x150B PUSH32 0xA9066C4D38FF22AF42F93EFB3E5D2AE17235CE3108403B10E35C72B91BE299E5 PUSH1 0x0 SHL PUSH2 0x48CF JUMP JUMPDEST PUSH2 0x1537 PUSH32 0x34B640BA749012C70E8E7EDA1C0BDE9F5F1BF8C55483F5A21BA13026A115599F PUSH1 0x0 SHL PUSH2 0x48CF JUMP JUMPDEST DUP1 PUSH2 0x1577 JUMPI PUSH1 0x40 MLOAD PUSH32 0x8C379A000000000000000000000000000000000000000000000000000000000 DUP2 MSTORE PUSH1 0x4 ADD PUSH2 0x156E SWAP1 PUSH2 0x5325 JUMP JUMPDEST PUSH1 0x40 MLOAD DUP1 SWAP2 SUB SWAP1 REVERT JUMPDEST PUSH2 0x15A3 PUSH32 0xC8391C996BC9A496F4F2FE86858DD4531EED9019015E78EB14C1618113798DA4 PUSH1 0x0 SHL PUSH2 0x48CF JUMP JUMPDEST PUSH2 0x15CF PUSH32 0x9157B2054990CC122E198AA955191AD43FCC962BDACBE5CEB561C27538727B20 PUSH1 0x0 SHL PUSH2 0x48CF JUMP JUMPDEST PUSH2 0x15FB PUSH32 0xB1EC65587EB13FCB4EFADB889A324A13DA1CBE3416E4F95E6A149D954DDB54C9 PUSH1 0x0 SHL PUSH2 0x48CF JUMP JUMPDEST PUSH2 0x1627 PUSH32 0x757A3D084DA2BA595B68C7526463C20E46E8BA0A131E7E32C0C2E94FB3BCD5BA PUSH1 0x0 SHL PUSH2 0x48CF JUMP JUMPDEST PUSH2 0x1653 PUSH32 0x14C2985B0BFC98B37D58603221260305D6A654E06BB570C09402088E25BBCEDA PUSH1 0x0 SHL PUSH2 0x48CF JUMP JUMPDEST PUSH2 0x165B PUSH2 0x48F6 JUMP JUMPDEST POP POP JUMP JUMPDEST PUSH1 0x0 CALLER PUSH2 0x168E PUSH32 0xA5BB85A5119CA86E9E3AF02DE1EF2A585180966B3160162A8B02CF88E513B665 PUSH1 0x0 SHL PUSH2 0x48CF JUMP JUMPDEST PUSH2 0x16BA PUSH32 0x4798711D4B0931D93995D2F59F0416B64A23679F6D50F9AA44EBE1F2A9B103B7 PUSH1 0x0 SHL PUSH2 0x48CF JUMP JUMPDEST PUSH2 0x16E6 PUSH32 0x4CF96D3DB4FF9E59FD4F0786ED78723169369EAF8C64998117140BBCB895F948 PUSH1 0x0 SHL PUSH2 0x48CF JUMP JUMPDEST PUSH1 0x0 PUSH1 0x3 PUSH1 0x0 DUP4 PUSH20 0xFFFFFFFFFFFFFFFFFFFFFFFFFFFFFFFFFFFFFFFF AND PUSH20 0xFFFFFFFFFFFFFFFFFFFFFFFFFFFFFFFFFFFFFFFF AND DUP2 MSTORE PUSH1 0x20 ADD SWAP1 DUP2 MSTORE PUSH1 0x20 ADD PUSH1 0x0 KECCAK256 PUSH1 0x0 SWAP1 SLOAD SWAP1 PUSH2 0x100 EXP SWAP1 DIV PUSH1 0xFF AND SWAP1 POP PUSH2 0x1763 PUSH32 0x652B750775C89BF16905FB12F13344373BCF93AD9620C84D6B3B99FFEF423EA7 PUSH1 0x0 SHL PUSH2 0x48CF JUMP JUMPDEST PUSH2 0x178F PUSH32 0xA9066C4D38FF22AF42F93EFB3E5D2AE17235CE3108403B10E35C72B91BE299E5 PUSH1 0x0 SHL PUSH2 0x48CF JUMP JUMPDEST PUSH2 0x17BB PUSH32 0x34B640BA749012C70E8E7EDA1C0BDE9F5F1BF8C55483F5A21BA13026A115599F PUSH1 0x0 SHL PUSH2 0x48CF JUMP JUMPDEST DUP1 PUSH2 0x17FB JUMPI PUSH1 0x40 MLOAD PUSH32 0x8C379A000000000000000000000000000000000000000000000000000000000 DUP2 MSTORE PUSH1 0x4 ADD PUSH2 0x17F2 SWAP1 PUSH2 0x5325 JUMP JUMPDEST PUSH1 0x40 MLOAD DUP1 SWAP2 SUB SWAP1 REVERT JUMPDEST PUSH2 0x1827 PUSH32 0xC8391C996BC9A496F4F2FE86858DD4531EED9019015E78EB14C1618113798DA4 PUSH1 0x0 SHL PUSH2 0x48CF JUMP JUMPDEST PUSH2 0x1853 PUSH32 0x9157B2054990CC122E198AA955191AD43FCC962BDACBE5CEB561C27538727B20 PUSH1 0x0 SHL PUSH2 0x48CF JUMP JUMPDEST PUSH2 0x187F PUSH32 0xB8ED80D75DACB2637363D180CDDFD592E6E9FD0F1B921A38ECD287948496CDC1 PUSH1 0x0 SHL PUSH2 0x48CF JUMP JUMPDEST PUSH2 0x18AB PUSH32 0xB2EAF8D14A7B5FA0A91E783008B2899040DB61D6F60A63354354FEDF41CEF1F0 PUSH1 0x0 SHL PUSH2 0x48CF JUMP JUMPDEST PUSH2 0x18D7 PUSH32 0xA71861A84EF8DEBFDAD47AD68C4ECC3D0388BE2BA20C4493E1722D3A12CA5C02 PUSH1 0x0 SHL PUSH2 0x48CF JUMP JUMPDEST PUSH1 0x1 PUSH1 0x5 PUSH1 0x0 DUP7 PUSH20 0xFFFFFFFFFFFFFFFFFFFFFFFFFFFFFFFFFFFFFFFF AND PUSH20 0xFFFFFFFFFFFFFFFFFFFFFFFFFFFFFFFFFFFFFFFF AND DUP2 MSTORE PUSH1 0x20 ADD SWAP1 DUP2 MSTORE PUSH1 0x20 ADD PUSH1 0x0 KECCAK256 PUSH1 0x0 PUSH2 0x100 EXP DUP2 SLOAD DUP2 PUSH1 0xFF MUL NOT AND SWAP1 DUP4 ISZERO ISZERO MUL OR SWAP1 SSTORE POP PUSH2 0x195B PUSH32 0x274EBF921AB4FC73DF9C08D1220569C99DB8E72C31904652759E3EAB3D367AC4 PUSH1 0x0 SHL PUSH2 0x48CF JUMP JUMPDEST PUSH2 0x1987 PUSH32 0x42C23A7A1EE83A7953D19BCE44D891081EEDF2BC5F106BFFF66607B1A063AF0F PUSH1 0x0 SHL PUSH2 0x48CF JUMP JUMPDEST PUSH1 0x1 SWAP3 POP POP POP SWAP2 SWAP1 POP JUMP JUMPDEST PUSH2 0x199A PUSH2 0x2071 JUMP JUMPDEST ISZERO PUSH2 0x19DA JUMPI PUSH1 0x40 MLOAD PUSH32 0x8C379A000000000000000000000000000000000000000000000000000000000 DUP2 MSTORE PUSH1 0x4 ADD PUSH2 0x19D1 SWAP1 PUSH2 0x5391 JUMP JUMPDEST PUSH1 0x40 MLOAD DUP1 SWAP2 SUB SWAP1 REVERT JUMPDEST CALLER PUSH2 0x1A07 PUSH32 0xA5BB85A5119CA86E9E3AF02DE1EF2A585180966B3160162A8B02CF88E513B665 PUSH1 0x0 SHL PUSH2 0x48CF JUMP JUMPDEST PUSH2 0x1A33 PUSH32 0x4798711D4B0931D93995D2F59F0416B64A23679F6D50F9AA44EBE1F2A9B103B7 PUSH1 0x0 SHL PUSH2 0x48CF JUMP JUMPDEST PUSH2 0x1A5F PUSH32 0x4CF96D3DB4FF9E59FD4F0786ED78723169369EAF8C64998117140BBCB895F948 PUSH1 0x0 SHL PUSH2 0x48CF JUMP JUMPDEST PUSH1 0x0 PUSH1 0x3 PUSH1 0x0 DUP4 PUSH20 0xFFFFFFFFFFFFFFFFFFFFFFFFFFFFFFFFFFFFFFFF AND PUSH20 0xFFFFFFFFFFFFFFFFFFFFFFFFFFFFFFFFFFFFFFFF AND DUP2 MSTORE PUSH1 0x20 ADD SWAP1 DUP2 MSTORE PUSH1 0x20 ADD PUSH1 0x0 KECCAK256 PUSH1 0x0 SWAP1 SLOAD SWAP1 PUSH2 0x100 EXP SWAP1 DIV PUSH1 0xFF AND SWAP1 POP PUSH2 0x1ADC PUSH32 0x652B750775C89BF16905FB12F13344373BCF93AD9620C84D6B3B99FFEF423EA7 PUSH1 0x0 SHL PUSH2 0x48CF JUMP JUMPDEST PUSH2 0x1B08 PUSH32 0xA9066C4D38FF22AF42F93EFB3E5D2AE17235CE3108403B10E35C72B91BE299E5 PUSH1 0x0 SHL PUSH2 0x48CF JUMP JUMPDEST PUSH2 0x1B34 PUSH32 0x34B640BA749012C70E8E7EDA1C0BDE9F5F1BF8C55483F5A21BA13026A115599F PUSH1 0x0 SHL PUSH2 0x48CF JUMP JUMPDEST DUP1 PUSH2 0x1B74 JUMPI PUSH1 0x40 MLOAD PUSH32 0x8C379A000000000000000000000000000000000000000000000000000000000 DUP2 MSTORE PUSH1 0x4 ADD PUSH2 0x1B6B SWAP1 PUSH2 0x5325 JUMP JUMPDEST PUSH1 0x40 MLOAD DUP1 SWAP2 SUB SWAP1 REVERT JUMPDEST PUSH2 0x1BA0 PUSH32 0xC8391C996BC9A496F4F2FE86858DD4531EED9019015E78EB14C1618113798DA4 PUSH1 0x0 SHL PUSH2 0x48CF JUMP JUMPDEST PUSH2 0x1BCC PUSH32 0x9157B2054990CC122E198AA955191AD43FCC962BDACBE5CEB561C27538727B20 PUSH1 0x0 SHL PUSH2 0x48CF JUMP JUMPDEST PUSH2 0x1BF8 PUSH32 0xADF1732F50D52E7490AC9685EAC831C3C324ACDE0F76E845D26B3E74B9339409 PUSH1 0x0 SHL PUSH2 0x48CF JUMP JUMPDEST PUSH2 0x1C24 PUSH32 0x19327D1114E91C5287AD12D609E3FC40510D844EC3E2F23BD6A2C14FEFE021BA PUSH1 0x0 SHL PUSH2 0x48CF JUMP JUMPDEST PUSH2 0x1C50 PUSH32 0xD35449D5BEED9813F0CCF81C13ED5D38B6CFA8E54808946601AB5C2B959F208 PUSH1 0x0 SHL PUSH2 0x48CF JUMP JUMPDEST PUSH1 0x0 PUSH1 0x3 PUSH1 0x0 DUP6 PUSH20 0xFFFFFFFFFFFFFFFFFFFFFFFFFFFFFFFFFFFFFFFF AND PUSH20 0xFFFFFFFFFFFFFFFFFFFFFFFFFFFFFFFFFFFFFFFF AND DUP2 MSTORE PUSH1 0x20 ADD SWAP1 DUP2 MSTORE PUSH1 0x20 ADD PUSH1 0x0 KECCAK256 PUSH1 0x0 PUSH2 0x100 EXP DUP2 SLOAD DUP2 PUSH1 0xFF MUL NOT AND SWAP1 DUP4 ISZERO ISZERO MUL OR SWAP1 SSTORE POP PUSH2 0x1CD4 PUSH32 0xC237B2D92643183CA0717F1CE3FE44E5E579A5CBE72A5BD25B2BC867422ACEB9 PUSH1 0x0 SHL PUSH2 0x48CF JUMP JUMPDEST PUSH2 0x1D00 PUSH32 0x9DF9B0E12B6F9D106DD83756CD497BA4AB940EE161D0FFA92179D73122234D8B PUSH1 0x0 SHL PUSH2 0x48CF JUMP JUMPDEST PUSH32 0x21E8741435B5373014087A70641E17E7139C8F3ECFFBC070C83CA921E5F06AB5 CALLER DUP5 PUSH1 0x40 MLOAD PUSH2 0x1D31 SWAP3 SWAP2 SWAP1 PUSH2 0x55A1 JUMP JUMPDEST PUSH1 0x40 MLOAD DUP1 SWAP2 SUB SWAP1 LOG1 POP POP POP JUMP JUMPDEST PUSH1 0x0 CALLER PUSH2 0x1D6D PUSH32 0xA5BB85A5119CA86E9E3AF02DE1EF2A585180966B3160162A8B02CF88E513B665 PUSH1 0x0 SHL PUSH2 0x48CF JUMP JUMPDEST PUSH2 0x1D99 PUSH32 0x4798711D4B0931D93995D2F59F0416B64A23679F6D50F9AA44EBE1F2A9B103B7 PUSH1 0x0 SHL PUSH2 0x48CF JUMP JUMPDEST PUSH2 0x1DC5 PUSH32 0x4CF96D3DB4FF9E59FD4F0786ED78723169369EAF8C64998117140BBCB895F948 PUSH1 0x0 SHL PUSH2 0x48CF JUMP JUMPDEST PUSH1 0x0 PUSH1 0x3 PUSH1 0x0 DUP4 PUSH20 0xFFFFFFFFFFFFFFFFFFFFFFFFFFFFFFFFFFFFFFFF AND PUSH20 0xFFFFFFFFFFFFFFFFFFFFFFFFFFFFFFFFFFFFFFFF AND DUP2 MSTORE PUSH1 0x20 ADD SWAP1 DUP2 MSTORE PUSH1 0x20 ADD PUSH1 0x0 KECCAK256 PUSH1 0x0 SWAP1 SLOAD SWAP1 PUSH2 0x100 EXP SWAP1 DIV PUSH1 0xFF AND SWAP1 POP PUSH2 0x1E42 PUSH32 0x652B750775C89BF16905FB12F13344373BCF93AD9620C84D6B3B99FFEF423EA7 PUSH1 0x0 SHL PUSH2 0x48CF JUMP JUMPDEST PUSH2 0x1E6E PUSH32 0xA9066C4D38FF22AF42F93EFB3E5D2AE17235CE3108403B10E35C72B91BE299E5 PUSH1 0x0 SHL PUSH2 0x48CF JUMP JUMPDEST PUSH2 0x1E9A PUSH32 0x34B640BA749012C70E8E7EDA1C0BDE9F5F1BF8C55483F5A21BA13026A115599F PUSH1 0x0 SHL PUSH2 0x48CF JUMP JUMPDEST DUP1 PUSH2 0x1EDA JUMPI PUSH1 0x40 MLOAD PUSH32 0x8C379A000000000000000000000000000000000000000000000000000000000 DUP2 MSTORE PUSH1 0x4 ADD PUSH2 0x1ED1 SWAP1 PUSH2 0x5325 JUMP JUMPDEST PUSH1 0x40 MLOAD DUP1 SWAP2 SUB SWAP1 REVERT JUMPDEST PUSH2 0x1F06 PUSH32 0xC8391C996BC9A496F4F2FE86858DD4531EED9019015E78EB14C1618113798DA4 PUSH1 0x0 SHL PUSH2 0x48CF JUMP JUMPDEST PUSH2 0x1F32 PUSH32 0x9157B2054990CC122E198AA955191AD43FCC962BDACBE5CEB561C27538727B20 PUSH1 0x0 SHL PUSH2 0x48CF JUMP JUMPDEST PUSH2 0x1F5E PUSH32 0x8D8BEA3C65BCA62E78A81AC5D37091670AE637D37736045932FB9739B21C9DC1 PUSH1 0x0 SHL PUSH2 0x48CF JUMP JUMPDEST PUSH2 0x1F8A PUSH32 0xAF2BB3D4E7FA6D39A593CA560DBD8554CAECE7344977687E32BA10B5003513A4 PUSH1 0x0 SHL PUSH2 0x48CF JUMP JUMPDEST PUSH2 0x1FB6 PUSH32 0x291269A2FFB4E1D3D23E420236C3CEC8C7C5BB03FDA6C0527F22425E3320F3C6 PUSH1 0x0 SHL PUSH2 0x48CF JUMP JUMPDEST PUSH1 0x0 PUSH1 0x5 PUSH1 0x0 DUP7 PUSH20 0xFFFFFFFFFFFFFFFFFFFFFFFFFFFFFFFFFFFFFFFF AND PUSH20 0xFFFFFFFFFFFFFFFFFFFFFFFFFFFFFFFFFFFFFFFF AND DUP2 MSTORE PUSH1 0x20 ADD SWAP1 DUP2 MSTORE PUSH1 0x20 ADD PUSH1 0x0 KECCAK256 PUSH1 0x0 PUSH2 0x100 EXP DUP2 SLOAD DUP2 PUSH1 0xFF MUL NOT AND SWAP1 DUP4 ISZERO ISZERO MUL OR SWAP1 SSTORE POP PUSH2 0x203A PUSH32 0x55F10FF814687444CC7CE4CDC467F799452B99AF1A690A596C59080A5C6900F8 PUSH1 0x0 SHL PUSH2 0x48CF JUMP JUMPDEST PUSH2 0x2066 PUSH32 0xB19A1C7A6BCDF2C29AC823FB40B81B22993796D720A7A5184E08CCE4ED53D3AE PUSH1 0x0 SHL PUSH2 0x48CF JUMP JUMPDEST PUSH1 0x1 SWAP3 POP POP POP SWAP2 SWAP1 POP JUMP JUMPDEST PUSH1 0x0 DUP1 PUSH1 0x0 SWAP1 SLOAD SWAP1 PUSH2 0x100 EXP SWAP1 DIV PUSH1 0xFF AND SWAP1 POP SWAP1 JUMP JUMPDEST PUSH2 0x208F PUSH2 0x2071 JUMP JUMPDEST ISZERO PUSH2 0x20CF JUMPI PUSH1 0x40 MLOAD PUSH32 0x8C379A000000000000000000000000000000000000000000000000000000000 DUP2 MSTORE PUSH1 0x4 ADD PUSH2 0x20C6 SWAP1 PUSH2 0x5391 JUMP JUMPDEST PUSH1 0x40 MLOAD DUP1 SWAP2 SUB SWAP1 REVERT JUMPDEST PUSH2 0x20FB PUSH32 0x937A41745CDCC963E4AEAA9C56528D06C3BA1E629726F59E8841A14A36301964 PUSH1 0x0 SHL PUSH2 0x48CF JUMP JUMPDEST PUSH2 0x2127 PUSH32 0x871E5C489CAF1DF2F4102C9A1BEACE4295D3833E9F26FBFB0DD04C7D6714F592 PUSH1 0x0 SHL PUSH2 0x48CF JUMP JUMPDEST PUSH2 0x2153 PUSH32 0xA1FA760DD71DC291007DF0ADC4EC92C8D1658ED9B5E548FE2D405577CCDFF760 PUSH1 0x0 SHL PUSH2 0x48CF JUMP JUMPDEST PUSH2 0x217F PUSH32 0xA98E1D32CFF3C1A7B3A7424816E61FC0BF4CEF092C08CF1F8D8D012B368B4A45 PUSH1 0x0 SHL PUSH2 0x48CF JUMP JUMPDEST PUSH1 0x0 ISZERO ISZERO PUSH1 0x5 PUSH1 0x0 CALLER PUSH20 0xFFFFFFFFFFFFFFFFFFFFFFFFFFFFFFFFFFFFFFFF AND PUSH20 0xFFFFFFFFFFFFFFFFFFFFFFFFFFFFFFFFFFFFFFFF AND DUP2 MSTORE PUSH1 0x20 ADD SWAP1 DUP2 MSTORE PUSH1 0x20 ADD PUSH1 0x0 KECCAK256 PUSH1 0x0 SWAP1 SLOAD SWAP1 PUSH2 0x100 EXP SWAP1 DIV PUSH1 0xFF AND ISZERO ISZERO EQ PUSH2 0x2212 JUMPI PUSH1 0x40 MLOAD PUSH32 0x8C379A000000000000000000000000000000000000000000000000000000000 DUP2 MSTORE PUSH1 0x4 ADD PUSH2 0x2209 SWAP1 PUSH2 0x5423 JUMP JUMPDEST PUSH1 0x40 MLOAD DUP1 SWAP2 SUB SWAP1 REVERT JUMPDEST PUSH2 0x223E PUSH32 0x2ABFF1CE909803E5C4F1660028BEF60FA268FA7A41D426A38805A1508FD2EB74 PUSH1 0x0 SHL PUSH2 0x48CF JUMP JUMPDEST PUSH2 0x226A PUSH32 0xFE7FF8E42F34670341436BF522CE31CEF6C13146C85E33BE37A17087498912AE PUSH1 0x0 SHL PUSH2 0x48CF JUMP JUMPDEST PUSH2 0x2296 PUSH32 0xC8395AAEA5632F16234EA7F231DCD26B223E32FDA2F204185C4D128EF37FB567 PUSH1 0x0 SHL PUSH2 0x48CF JUMP JUMPDEST PUSH2 0x22C2 PUSH32 0xCC4DE5B203C31A376DA31E488DBF7AF6E83E6123D0BDBF1DE6CD9872625600A6 PUSH1 0x0 SHL PUSH2 0x48CF JUMP JUMPDEST PUSH2 0x22EE PUSH32 0x18354D62C15D11DBB36A56F5D3BFC9248B267FE1D6C35CE87BA64EB240D75193 PUSH1 0x0 SHL PUSH2 0x48CF JUMP JUMPDEST PUSH2 0x231A PUSH32 0x3BFD5514C87CFA97F1F14BED571C185BCF510ACAC67CFF29719E48D44A0FA4FA PUSH1 0x0 SHL PUSH2 0x48CF JUMP JUMPDEST CALLER PUSH20 0xFFFFFFFFFFFFFFFFFFFFFFFFFFFFFFFFFFFFFFFF AND PUSH1 0x4 PUSH1 0x0 DUP4 DUP2 MSTORE PUSH1 0x20 ADD SWAP1 DUP2 MSTORE PUSH1 0x20 ADD PUSH1 0x0 KECCAK256 PUSH1 0x7 ADD PUSH1 0x0 SWAP1 SLOAD SWAP1 PUSH2 0x100 EXP SWAP1 DIV PUSH20 0xFFFFFFFFFFFFFFFFFFFFFFFFFFFFFFFFFFFFFFFF AND PUSH20 0xFFFFFFFFFFFFFFFFFFFFFFFFFFFFFFFFFFFFFFFF AND EQ DUP1 PUSH2 0x23D3 JUMPI POP PUSH1 0x3 PUSH1 0x0 CALLER PUSH20 0xFFFFFFFFFFFFFFFFFFFFFFFFFFFFFFFFFFFFFFFF AND PUSH20 0xFFFFFFFFFFFFFFFFFFFFFFFFFFFFFFFFFFFFFFFF AND DUP2 MSTORE PUSH1 0x20 ADD SWAP1 DUP2 MSTORE PUSH1 0x20 ADD PUSH1 0x0 KECCAK256 PUSH1 0x0 SWAP1 SLOAD SWAP1 PUSH2 0x100 EXP SWAP1 DIV PUSH1 0xFF AND JUMPDEST PUSH2 0x2412 JUMPI PUSH1 0x40 MLOAD PUSH32 0x8C379A000000000000000000000000000000000000000000000000000000000 DUP2 MSTORE PUSH1 0x4 ADD PUSH2 0x2409 SWAP1 PUSH2 0x563C JUMP JUMPDEST PUSH1 0x40 MLOAD DUP1 SWAP2 SUB SWAP1 REVERT JUMPDEST PUSH2 0x243E PUSH32 0x58C461E6295A1A79D5C8590639ADD87CF6AB1BB4CEE3B2BC547EFCFD434CCEDB PUSH1 0x0 SHL PUSH2 0x48CF JUMP JUMPDEST PUSH2 0x246A PUSH32 0xF0DC5DE74B18D44E42746B7A13010B13FADD73DA25EBC4A41D4F74BEE68C98E0 PUSH1 0x0 SHL PUSH2 0x48CF JUMP JUMPDEST PUSH2 0x2496 PUSH32 0xA9170CCFC290FB983981FA1C8365EF817C10BD177467F71672D4E08EF4E4CC70 PUSH1 0x0 SHL PUSH2 0x48CF JUMP JUMPDEST PUSH1 0x0 PUSH1 0x4 PUSH1 0x0 DUP4 DUP2 MSTORE PUSH1 0x20 ADD SWAP1 DUP2 MSTORE PUSH1 0x20 ADD PUSH1 0x0 KECCAK256 PUSH1 0x7 ADD PUSH1 0x14 PUSH2 0x100 EXP DUP2 SLOAD DUP2 PUSH1 0xFF MUL NOT AND SWAP1 DUP4 ISZERO ISZERO MUL OR SWAP1 SSTORE POP PUSH2 0x24F1 PUSH32 0xEDCF4F878F86037ECDD5AA00D018B9129D90F18862940CF3E99955166AB64D73 PUSH1 0x0 SHL PUSH2 0x48CF JUMP JUMPDEST PUSH2 0x251D PUSH32 0xDFEBE2C75F2DFCCFEFC3FD9743AFC15E938F530DDCD409C93C3751AF5B3DA657 PUSH1 0x0 SHL PUSH2 0x48CF JUMP JUMPDEST PUSH2 0x2527 PUSH1 0x2 PUSH2 0x48D2 JUMP JUMPDEST POP JUMP JUMPDEST CALLER PUSH2 0x2557 PUSH32 0xA5BB85A5119CA86E9E3AF02DE1EF2A585180966B3160162A8B02CF88E513B665 PUSH1 0x0 SHL PUSH2 0x48CF JUMP JUMPDEST PUSH2 0x2583 PUSH32 0x4798711D4B0931D93995D2F59F0416B64A23679F6D50F9AA44EBE1F2A9B103B7 PUSH1 0x0 SHL PUSH2 0x48CF JUMP JUMPDEST PUSH2 0x25AF PUSH32 0x4CF96D3DB4FF9E59FD4F0786ED78723169369EAF8C64998117140BBCB895F948 PUSH1 0x0 SHL PUSH2 0x48CF JUMP JUMPDEST PUSH1 0x0 PUSH1 0x3 PUSH1 0x0 DUP4 PUSH20 0xFFFFFFFFFFFFFFFFFFFFFFFFFFFFFFFFFFFFFFFF AND PUSH20 0xFFFFFFFFFFFFFFFFFFFFFFFFFFFFFFFFFFFFFFFF AND DUP2 MSTORE PUSH1 0x20 ADD SWAP1 DUP2 MSTORE PUSH1 0x20 ADD PUSH1 0x0 KECCAK256 PUSH1 0x0 SWAP1 SLOAD SWAP1 PUSH2 0x100 EXP SWAP1 DIV PUSH1 0xFF AND SWAP1 POP PUSH2 0x262C PUSH32 0x652B750775C89BF16905FB12F13344373BCF93AD9620C84D6B3B99FFEF423EA7 PUSH1 0x0 SHL PUSH2 0x48CF JUMP JUMPDEST PUSH2 0x2658 PUSH32 0xA9066C4D38FF22AF42F93EFB3E5D2AE17235CE3108403B10E35C72B91BE299E5 PUSH1 0x0 SHL PUSH2 0x48CF JUMP JUMPDEST PUSH2 0x2684 PUSH32 0x34B640BA749012C70E8E7EDA1C0BDE9F5F1BF8C55483F5A21BA13026A115599F PUSH1 0x0 SHL PUSH2 0x48CF JUMP JUMPDEST DUP1 PUSH2 0x26C4 JUMPI PUSH1 0x40 MLOAD PUSH32 0x8C379A000000000000000000000000000000000000000000000000000000000 DUP2 MSTORE PUSH1 0x4 ADD PUSH2 0x26BB SWAP1 PUSH2 0x5325 JUMP JUMPDEST PUSH1 0x40 MLOAD DUP1 SWAP2 SUB SWAP1 REVERT JUMPDEST PUSH2 0x26F0 PUSH32 0xC8391C996BC9A496F4F2FE86858DD4531EED9019015E78EB14C1618113798DA4 PUSH1 0x0 SHL PUSH2 0x48CF JUMP JUMPDEST PUSH2 0x271C PUSH32 0x9157B2054990CC122E198AA955191AD43FCC962BDACBE5CEB561C27538727B20 PUSH1 0x0 SHL PUSH2 0x48CF JUMP JUMPDEST PUSH2 0x2748 PUSH32 0xEA813BAD3C6B5DAA8CDD67E72A3117D1178926A935FEF1F0C002BFA44B59D6E4 PUSH1 0x0 SHL PUSH2 0x48CF JUMP JUMPDEST PUSH2 0x2774 PUSH32 0xADD742D39C444EE1ED7E6D208F0847A5B8D7019CE8C36FF68838CEA615FBA701 PUSH1 0x0 SHL PUSH2 0x48CF JUMP JUMPDEST PUSH2 0x27A0 PUSH32 0x24AAB32B66BB770424C117CC240E15DA3A12162FA890E15754F668AEC75C1E5B PUSH1 0x0 SHL PUSH2 0x48CF JUMP JUMPDEST PUSH2 0x27A8 PUSH2 0x4997 JUMP JUMPDEST POP POP JUMP JUMPDEST PUSH2 0x27D8 PUSH32 0xC9C3A60A2916E2BFE9494D55C53C0AA1B9270ACAB95DD2AC446D03489D409B9B PUSH1 0x0 SHL PUSH2 0x48CF JUMP JUMPDEST PUSH2 0x2804 PUSH32 0x63A6DCAC0163BB721234A457F944359E230CB9917AFD65C572FE9C780FB15B8B PUSH1 0x0 SHL PUSH2 0x48CF JUMP JUMPDEST PUSH2 0x2830 PUSH32 0xE25B869BF53050BE77F160AB9353119CD78BBB7451DDA037B26122D7CB179B8C PUSH1 0x0 SHL PUSH2 0x48CF JUMP JUMPDEST PUSH1 0x6 DUP2 SWAP1 DUP1 PUSH1 0x1 DUP2 SLOAD ADD DUP1 DUP3 SSTORE DUP1 SWAP2 POP POP PUSH1 0x1 SWAP1 SUB SWAP1 PUSH1 0x0 MSTORE PUSH1 0x20 PUSH1 0x0 KECCAK256 ADD PUSH1 0x0 SWAP1 SWAP2 SWAP1 SWAP2 SWAP1 SWAP2 POP SSTORE POP JUMP JUMPDEST PUSH1 0x4 PUSH1 0x20 MSTORE DUP1 PUSH1 0x0 MSTORE PUSH1 0x40 PUSH1 0x0 KECCAK256 PUSH1 0x0 SWAP2 POP SWAP1 POP DUP1 PUSH1 0x0 ADD SLOAD SWAP1 DUP1 PUSH1 0x1 ADD DUP1 SLOAD PUSH2 0x2885 SWAP1 PUSH2 0x5540 JUMP JUMPDEST DUP1 PUSH1 0x1F ADD PUSH1 0x20 DUP1 SWAP2 DIV MUL PUSH1 0x20 ADD PUSH1 0x40 MLOAD SWAP1 DUP2 ADD PUSH1 0x40 MSTORE DUP1 SWAP3 SWAP2 SWAP1 DUP2 DUP2 MSTORE PUSH1 0x20 ADD DUP3 DUP1 SLOAD PUSH2 0x28B1 SWAP1 PUSH2 0x5540 JUMP JUMPDEST DUP1 ISZERO PUSH2 0x28FE JUMPI DUP1 PUSH1 0x1F LT PUSH2 0x28D3 JUMPI PUSH2 0x100 DUP1 DUP4 SLOAD DIV MUL DUP4 MSTORE SWAP2 PUSH1 0x20 ADD SWAP2 PUSH2 0x28FE JUMP JUMPDEST DUP3 ADD SWAP2 SWAP1 PUSH1 0x0 MSTORE PUSH1 0x20 PUSH1 0x0 KECCAK256 SWAP1 JUMPDEST DUP2 SLOAD DUP2 MSTORE SWAP1 PUSH1 0x1 ADD SWAP1 PUSH1 0x20 ADD DUP1 DUP4 GT PUSH2 0x28E1 JUMPI DUP3 SWAP1 SUB PUSH1 0x1F AND DUP3 ADD SWAP2 JUMPDEST POP POP POP POP POP SWAP1 DUP1 PUSH1 0x2 ADD DUP1 SLOAD PUSH2 0x2913 SWAP1 PUSH2 0x5540 JUMP JUMPDEST DUP1 PUSH1 0x1F ADD PUSH1 0x20 DUP1 SWAP2 DIV MUL PUSH1 0x20 ADD PUSH1 0x40 MLOAD SWAP1 DUP2 ADD PUSH1 0x40 MSTORE DUP1 SWAP3 SWAP2 SWAP1 DUP2 DUP2 MSTORE PUSH1 0x20 ADD DUP3 DUP1 SLOAD PUSH2 0x293F SWAP1 PUSH2 0x5540 JUMP JUMPDEST DUP1 ISZERO PUSH2 0x298C JUMPI DUP1 PUSH1 0x1F LT PUSH2 0x2961 JUMPI PUSH2 0x100 DUP1 DUP4 SLOAD DIV MUL DUP4 MSTORE SWAP2 PUSH1 0x20 ADD SWAP2 PUSH2 0x298C JUMP JUMPDEST DUP3 ADD SWAP2 SWAP1 PUSH1 0x0 MSTORE PUSH1 0x20 PUSH1 0x0 KECCAK256 SWAP1 JUMPDEST DUP2 SLOAD DUP2 MSTORE SWAP1 PUSH1 0x1 ADD SWAP1 PUSH1 0x20 ADD DUP1 DUP4 GT PUSH2 0x296F JUMPI DUP3 SWAP1 SUB PUSH1 0x1F AND DUP3 ADD SWAP2 JUMPDEST POP POP POP POP POP SWAP1 DUP1 PUSH1 0x3 ADD DUP1 SLOAD PUSH2 0x29A1 SWAP1 PUSH2 0x5540 JUMP JUMPDEST DUP1 PUSH1 0x1F ADD PUSH1 0x20 DUP1 SWAP2 DIV MUL PUSH1 0x20 ADD PUSH1 0x40 MLOAD SWAP1 DUP2 ADD PUSH1 0x40 MSTORE DUP1 SWAP3 SWAP2 SWAP1 DUP2 DUP2 MSTORE PUSH1 0x20 ADD DUP3 DUP1 SLOAD PUSH2 0x29CD SWAP1 PUSH2 0x5540 JUMP JUMPDEST DUP1 ISZERO PUSH2 0x2A1A JUMPI DUP1 PUSH1 0x1F LT PUSH2 0x29EF JUMPI PUSH2 0x100 DUP1 DUP4 SLOAD DIV MUL DUP4 MSTORE SWAP2 PUSH1 0x20 ADD SWAP2 PUSH2 0x2A1A JUMP JUMPDEST DUP3 ADD SWAP2 SWAP1 PUSH1 0x0 MSTORE PUSH1 0x20 PUSH1 0x0 KECCAK256 SWAP1 JUMPDEST DUP2 SLOAD DUP2 MSTORE SWAP1 PUSH1 0x1 ADD SWAP1 PUSH1 0x20 ADD DUP1 DUP4 GT PUSH2 0x29FD JUMPI DUP3 SWAP1 SUB PUSH1 0x1F AND DUP3 ADD SWAP2 JUMPDEST POP POP POP POP POP SWAP1 DUP1 PUSH1 0x4 ADD DUP1 SLOAD PUSH2 0x2A2F SWAP1 PUSH2 0x5540 JUMP JUMPDEST DUP1 PUSH1 0x1F ADD PUSH1 0x20 DUP1 SWAP2 DIV MUL PUSH1 0x20 ADD PUSH1 0x40 MLOAD SWAP1 DUP2 ADD PUSH1 0x40 MSTORE DUP1 SWAP3 SWAP2 SWAP1 DUP2 DUP2 MSTORE PUSH1 0x20 ADD DUP3 DUP1 SLOAD PUSH2 0x2A5B SWAP1 PUSH2 0x5540 JUMP JUMPDEST DUP1 ISZERO PUSH2 0x2AA8 JUMPI DUP1 PUSH1 0x1F LT PUSH2 0x2A7D JUMPI PUSH2 0x100 DUP1 DUP4 SLOAD DIV MUL DUP4 MSTORE SWAP2 PUSH1 0x20 ADD SWAP2 PUSH2 0x2AA8 JUMP JUMPDEST DUP3 ADD SWAP2 SWAP1 PUSH1 0x0 MSTORE PUSH1 0x20 PUSH1 0x0 KECCAK256 SWAP1 JUMPDEST DUP2 SLOAD DUP2 MSTORE SWAP1 PUSH1 0x1 ADD SWAP1 PUSH1 0x20 ADD DUP1 DUP4 GT PUSH2 0x2A8B JUMPI DUP3 SWAP1 SUB PUSH1 0x1F AND DUP3 ADD SWAP2 JUMPDEST POP POP POP POP POP SWAP1 DUP1 PUSH1 0x5 ADD DUP1 SLOAD PUSH2 0x2ABD SWAP1 PUSH2 0x5540 JUMP JUMPDEST DUP1 PUSH1 0x1F ADD PUSH1 0x20 DUP1 SWAP2 DIV MUL PUSH1 0x20 ADD PUSH1 0x40 MLOAD SWAP1 DUP2 ADD PUSH1 0x40 MSTORE DUP1 SWAP3 SWAP2 SWAP1 DUP2 DUP2 MSTORE PUSH1 0x20 ADD DUP3 DUP1 SLOAD PUSH2 0x2AE9 SWAP1 PUSH2 0x5540 JUMP JUMPDEST DUP1 ISZERO PUSH2 0x2B36 JUMPI DUP1 PUSH1 0x1F LT PUSH2 0x2B0B JUMPI PUSH2 0x100 DUP1 DUP4 SLOAD DIV MUL DUP4 MSTORE SWAP2 PUSH1 0x20 ADD SWAP2 PUSH2 0x2B36 JUMP JUMPDEST DUP3 ADD SWAP2 SWAP1 PUSH1 0x0 MSTORE PUSH1 0x20 PUSH1 0x0 KECCAK256 SWAP1 JUMPDEST DUP2 SLOAD DUP2 MSTORE SWAP1 PUSH1 0x1 ADD SWAP1 PUSH1 0x20 ADD DUP1 DUP4 GT PUSH2 0x2B19 JUMPI DUP3 SWAP1 SUB PUSH1 0x1F AND DUP3 ADD SWAP2 JUMPDEST POP POP POP POP POP SWAP1 DUP1 PUSH1 0x6 ADD SLOAD SWAP1 DUP1 PUSH1 0x7 ADD PUSH1 0x0 SWAP1 SLOAD SWAP1 PUSH2 0x100 EXP SWAP1 DIV PUSH20 0xFFFFFFFFFFFFFFFFFFFFFFFFFFFFFFFFFFFFFFFF AND SWAP1 DUP1 PUSH1 0x7 ADD PUSH1 0x14 SWAP1 SLOAD SWAP1 PUSH2 0x100 EXP SWAP1 DIV PUSH1 0xFF AND SWAP1 POP DUP10 JUMP JUMPDEST PUSH2 0x2B87 PUSH2 0x2071 JUMP JUMPDEST ISZERO PUSH2 0x2BC7 JUMPI PUSH1 0x40 MLOAD PUSH32 0x8C379A000000000000000000000000000000000000000000000000000000000 DUP2 MSTORE PUSH1 0x4 ADD PUSH2 0x2BBE SWAP1 PUSH2 0x5391 JUMP JUMPDEST PUSH1 0x40 MLOAD DUP1 SWAP2 SUB SWAP1 REVERT JUMPDEST PUSH2 0x2BF3 PUSH32 0x937A41745CDCC963E4AEAA9C56528D06C3BA1E629726F59E8841A14A36301964 PUSH1 0x0 SHL PUSH2 0x48CF JUMP JUMPDEST PUSH2 0x2C1F PUSH32 0x871E5C489CAF1DF2F4102C9A1BEACE4295D3833E9F26FBFB0DD04C7D6714F592 PUSH1 0x0 SHL PUSH2 0x48CF JUMP JUMPDEST PUSH2 0x2C4B PUSH32 0xA1FA760DD71DC291007DF0ADC4EC92C8D1658ED9B5E548FE2D405577CCDFF760 PUSH1 0x0 SHL PUSH2 0x48CF JUMP JUMPDEST PUSH2 0x2C77 PUSH32 0xA98E1D32CFF3C1A7B3A7424816E61FC0BF4CEF092C08CF1F8D8D012B368B4A45 PUSH1 0x0 SHL PUSH2 0x48CF JUMP JUMPDEST PUSH1 0x0 ISZERO ISZERO PUSH1 0x5 PUSH1 0x0 CALLER PUSH20 0xFFFFFFFFFFFFFFFFFFFFFFFFFFFFFFFFFFFFFFFF AND PUSH20 0xFFFFFFFFFFFFFFFFFFFFFFFFFFFFFFFFFFFFFFFF AND DUP2 MSTORE PUSH1 0x20 ADD SWAP1 DUP2 MSTORE PUSH1 0x20 ADD PUSH1 0x0 KECCAK256 PUSH1 0x0 SWAP1 SLOAD SWAP1 PUSH2 0x100 EXP SWAP1 DIV PUSH1 0xFF AND ISZERO ISZERO EQ PUSH2 0x2D0A JUMPI PUSH1 0x40 MLOAD PUSH32 0x8C379A000000000000000000000000000000000000000000000000000000000 DUP2 MSTORE PUSH1 0x4 ADD PUSH2 0x2D01 SWAP1 PUSH2 0x5423 JUMP JUMPDEST PUSH1 0x40 MLOAD DUP1 SWAP2 SUB SWAP1 REVERT JUMPDEST PUSH2 0x2D36 PUSH32 0x2ABFF1CE909803E5C4F1660028BEF60FA268FA7A41D426A38805A1508FD2EB74 PUSH1 0x0 SHL PUSH2 0x48CF JUMP JUMPDEST PUSH2 0x2D62 PUSH32 0xFE7FF8E42F34670341436BF522CE31CEF6C13146C85E33BE37A17087498912AE PUSH1 0x0 SHL PUSH2 0x48CF JUMP JUMPDEST PUSH2 0x2D8E PUSH32 0x61A4770079A2E4484875AA3087A0D1133857D135EDC73EF5713246F854382223 PUSH1 0x0 SHL PUSH2 0x48CF JUMP JUMPDEST PUSH2 0x2DBA PUSH32 0x57F1D9B4F2A4559DB761AF4FA55B520B4B0B72019F8EE3F8CAE222CB6DD946A2 PUSH1 0x0 SHL PUSH2 0x48CF JUMP JUMPDEST PUSH2 0x2DE6 PUSH32 0x5E68642C1B1BCF84CFE9ED5379271A05E17731BF616FA46389C3FFFD8533332D PUSH1 0x0 SHL PUSH2 0x48CF JUMP JUMPDEST PUSH2 0x2E12 PUSH32 0xFFABC0229CE7DF722160080B1838BDDC0C36E35E463C0B8A3EFDDE03A44416D2 PUSH1 0x0 SHL PUSH2 0x48CF JUMP JUMPDEST CALLER PUSH20 0xFFFFFFFFFFFFFFFFFFFFFFFFFFFFFFFFFFFFFFFF AND PUSH1 0x4 PUSH1 0x0 DUP4 DUP2 MSTORE PUSH1 0x20 ADD SWAP1 DUP2 MSTORE PUSH1 0x20 ADD PUSH1 0x0 KECCAK256 PUSH1 0x7 ADD PUSH1 0x0 SWAP1 SLOAD SWAP1 PUSH2 0x100 EXP SWAP1 DIV PUSH20 0xFFFFFFFFFFFFFFFFFFFFFFFFFFFFFFFFFFFFFFFF AND PUSH20 0xFFFFFFFFFFFFFFFFFFFFFFFFFFFFFFFFFFFFFFFF AND EQ PUSH2 0x2EB6 JUMPI PUSH1 0x40 MLOAD PUSH32 0x8C379A000000000000000000000000000000000000000000000000000000000 DUP2 MSTORE PUSH1 0x4 ADD PUSH2 0x2EAD SWAP1 PUSH2 0x563C JUMP JUMPDEST PUSH1 0x40 MLOAD DUP1 SWAP2 SUB SWAP1 REVERT JUMPDEST PUSH2 0x2EE2 PUSH32 0xFEE959C32706A16F36DC2A091E007B9A1B1F8E64F806FA352E563FC891B721B2 PUSH1 0x0 SHL PUSH2 0x48CF JUMP JUMPDEST PUSH2 0x2F0E PUSH32 0xAAE6A8B75F21BD0D435AB028D16EDB7199E142E40BA29795F6CCE37C02A3D556 PUSH1 0x0 SHL PUSH2 0x48CF JUMP JUMPDEST PUSH2 0x2F3A PUSH32 0x3E4A44F95C3F37D10521B4BFF4AF77171E0B79D742C121BECE589BAE5E33B093 PUSH1 0x0 SHL PUSH2 0x48CF JUMP JUMPDEST PUSH1 0x1 PUSH1 0x4 PUSH1 0x0 DUP4 DUP2 MSTORE PUSH1 0x20 ADD SWAP1 DUP2 MSTORE PUSH1 0x20 ADD PUSH1 0x0 KECCAK256 PUSH1 0x7 ADD PUSH1 0x14 PUSH2 0x100 EXP DUP2 SLOAD DUP2 PUSH1 0xFF MUL NOT AND SWAP1 DUP4 ISZERO ISZERO MUL OR SWAP1 SSTORE POP PUSH2 0x2F95 PUSH32 0xD64029600BE10F1E3EAE4372C57A427E728DDBD86738FD5B4EE4D74E0A36ABA7 PUSH1 0x0 SHL PUSH2 0x48CF JUMP JUMPDEST PUSH2 0x2FC1 PUSH32 0x75FD59F26CE867A43CBA347DC1A0929A9CEE2451072B4FE4B73287DAAAEA1B0B PUSH1 0x0 SHL PUSH2 0x48CF JUMP JUMPDEST PUSH2 0x2FCB PUSH1 0x1 PUSH2 0x48D2 JUMP JUMPDEST POP JUMP JUMPDEST PUSH1 0x6 DUP2 DUP2 SLOAD DUP2 LT PUSH2 0x2FDE JUMPI PUSH1 0x0 DUP1 REVERT JUMPDEST SWAP1 PUSH1 0x0 MSTORE PUSH1 0x20 PUSH1 0x0 KECCAK256 ADD PUSH1 0x0 SWAP2 POP SWAP1 POP SLOAD DUP2 JUMP JUMPDEST PUSH1 0x60 PUSH2 0x2FFC PUSH2 0x2071 JUMP JUMPDEST ISZERO PUSH2 0x303C JUMPI PUSH1 0x40 MLOAD PUSH32 0x8C379A000000000000000000000000000000000000000000000000000000000 DUP2 MSTORE PUSH1 0x4 ADD PUSH2 0x3033 SWAP1 PUSH2 0x5391 JUMP JUMPDEST PUSH1 0x40 MLOAD DUP1 SWAP2 SUB SWAP1 REVERT JUMPDEST PUSH2 0x3068 PUSH32 0x937A41745CDCC963E4AEAA9C56528D06C3BA1E629726F59E8841A14A36301964 PUSH1 0x0 SHL PUSH2 0x48CF JUMP JUMPDEST PUSH2 0x3094 PUSH32 0x871E5C489CAF1DF2F4102C9A1BEACE4295D3833E9F26FBFB0DD04C7D6714F592 PUSH1 0x0 SHL PUSH2 0x48CF JUMP JUMPDEST PUSH2 0x30C0 PUSH32 0xA1FA760DD71DC291007DF0ADC4EC92C8D1658ED9B5E548FE2D405577CCDFF760 PUSH1 0x0 SHL PUSH2 0x48CF JUMP JUMPDEST PUSH2 0x30EC PUSH32 0xA98E1D32CFF3C1A7B3A7424816E61FC0BF4CEF092C08CF1F8D8D012B368B4A45 PUSH1 0x0 SHL PUSH2 0x48CF JUMP JUMPDEST PUSH1 0x0 ISZERO ISZERO PUSH1 0x5 PUSH1 0x0 CALLER PUSH20 0xFFFFFFFFFFFFFFFFFFFFFFFFFFFFFFFFFFFFFFFF AND PUSH20 0xFFFFFFFFFFFFFFFFFFFFFFFFFFFFFFFFFFFFFFFF AND DUP2 MSTORE PUSH1 0x20 ADD SWAP1 DUP2 MSTORE PUSH1 0x20 ADD PUSH1 0x0 KECCAK256 PUSH1 0x0 SWAP1 SLOAD SWAP1 PUSH2 0x100 EXP SWAP1 DIV PUSH1 0xFF AND ISZERO ISZERO EQ PUSH2 0x317F JUMPI PUSH1 0x40 MLOAD PUSH32 0x8C379A000000000000000000000000000000000000000000000000000000000 DUP2 MSTORE PUSH1 0x4 ADD PUSH2 0x3176 SWAP1 PUSH2 0x5423 JUMP JUMPDEST PUSH1 0x40 MLOAD DUP1 SWAP2 SUB SWAP1 REVERT JUMPDEST PUSH2 0x31AB PUSH32 0x2ABFF1CE909803E5C4F1660028BEF60FA268FA7A41D426A38805A1508FD2EB74 PUSH1 0x0 SHL PUSH2 0x48CF JUMP JUMPDEST PUSH2 0x31D7 PUSH32 0xFE7FF8E42F34670341436BF522CE31CEF6C13146C85E33BE37A17087498912AE PUSH1 0x0 SHL PUSH2 0x48CF JUMP JUMPDEST PUSH2 0x3203 PUSH32 0x9A478400B981F07EEB94D6268892AC76E7F0224C2942D086E0887C9C48D1DAFE PUSH1 0x0 SHL PUSH2 0x48CF JUMP JUMPDEST PUSH2 0x322F PUSH32 0xAD4F96BF48B67818670E194B7D704EC726AF15F31EA78DFD20D63A7D51E96E79 PUSH1 0x0 SHL PUSH2 0x48CF JUMP JUMPDEST PUSH2 0x325B PUSH32 0x5893E1456B083682C5F454402E084C376279C22C249408776EE2CDEBA9C98B81 PUSH1 0x0 SHL PUSH2 0x48CF JUMP JUMPDEST PUSH1 0x0 PUSH2 0x3267 PUSH1 0x1 PUSH2 0x48E8 JUMP JUMPDEST SWAP1 POP PUSH2 0x3295 PUSH32 0x8FC9CF3FC1806967A65A66B437F8CA471BD9D467E04A2F7FF04F047177788732 PUSH1 0x0 SHL PUSH2 0x48CF JUMP JUMPDEST PUSH2 0x32C1 PUSH32 0xE8BA2E6A81A1D2D6671ECF404EAFF1D5156F522FEB892784CF9EBF74ECB8BFD1 PUSH1 0x0 SHL PUSH2 0x48CF JUMP JUMPDEST PUSH1 0x0 PUSH2 0x32CD PUSH1 0x2 PUSH2 0x48E8 JUMP JUMPDEST PUSH2 0x32D7 PUSH1 0x1 PUSH2 0x48E8 JUMP JUMPDEST PUSH2 0x32E1 SWAP2 SWAP1 PUSH2 0x565C JUMP JUMPDEST SWAP1 POP PUSH2 0x330F PUSH32 0x10E56C6BE087B765C8EB567F00FDDB7C91257141FB42D451724D20517C5EB627 PUSH1 0x0 SHL PUSH2 0x48CF JUMP JUMPDEST PUSH2 0x333B PUSH32 0xBA4CF05B2D4B9B4F852BA5D4CB7EEAC2EADDCAC5C168797801A98B1E73BF2C47 PUSH1 0x0 SHL PUSH2 0x48CF JUMP JUMPDEST PUSH1 0x0 PUSH2 0x3369 PUSH32 0x51AD48418BAAD8FFB28C34FA0C36AF82AF4A6AAAAD4D28BDCD095A50E541242F PUSH1 0x0 SHL PUSH2 0x48CF JUMP JUMPDEST PUSH2 0x3395 PUSH32 0x8EF59B19EB4395314A9C2ABF4DAA4715A3804DB7A002F40ABB0A5A741A210A09 PUSH1 0x0 SHL PUSH2 0x48CF JUMP JUMPDEST PUSH1 0x0 DUP3 PUSH8 0xFFFFFFFFFFFFFFFF DUP2 GT ISZERO PUSH2 0x33B1 JUMPI PUSH2 0x33B0 PUSH2 0x5069 JUMP JUMPDEST JUMPDEST PUSH1 0x40 MLOAD SWAP1 DUP1 DUP3 MSTORE DUP1 PUSH1 0x20 MUL PUSH1 0x20 ADD DUP3 ADD PUSH1 0x40 MSTORE DUP1 ISZERO PUSH2 0x33EA JUMPI DUP2 PUSH1 0x20 ADD JUMPDEST PUSH2 0x33D7 PUSH2 0x4A62 JUMP JUMPDEST DUP2 MSTORE PUSH1 0x20 ADD SWAP1 PUSH1 0x1 SWAP1 SUB SWAP1 DUP2 PUSH2 0x33CF JUMPI SWAP1 POP JUMPDEST POP SWAP1 POP PUSH2 0x3419 PUSH32 0xD5679A10E1DF545938A262BA2935E402023BDA7C624FDAC8ADCD3DF08F2AC2A PUSH1 0x0 SHL PUSH2 0x48CF JUMP JUMPDEST PUSH2 0x3445 PUSH32 0x6B7C341F94F1EBA3DC668533C19AFF22F79FF81F3FDE9DF0AC1A2DBC6BCF192B PUSH1 0x0 SHL PUSH2 0x48CF JUMP JUMPDEST PUSH1 0x0 JUMPDEST DUP5 DUP2 LT ISZERO PUSH2 0x3A8E JUMPI PUSH2 0x347C PUSH32 0x37C1D19E5D4139FB377F8EFA06F44FC5C9C48D522DF5EBBEB05B1E1283722AED PUSH1 0x0 SHL PUSH2 0x48CF JUMP JUMPDEST PUSH2 0x34A8 PUSH32 0x9E264266FC85840237D9AA33810450658494B0B2929EEF2B2380A46B0DD5C713 PUSH1 0x0 SHL PUSH2 0x48CF JUMP JUMPDEST PUSH1 0x1 ISZERO ISZERO PUSH1 0x4 PUSH1 0x0 PUSH1 0x1 DUP5 PUSH2 0x34BD SWAP2 SWAP1 PUSH2 0x5472 JUMP JUMPDEST DUP2 MSTORE PUSH1 0x20 ADD SWAP1 DUP2 MSTORE PUSH1 0x20 ADD PUSH1 0x0 KECCAK256 PUSH1 0x7 ADD PUSH1 0x14 SWAP1 SLOAD SWAP1 PUSH2 0x100 EXP SWAP1 DIV PUSH1 0xFF AND ISZERO ISZERO EQ ISZERO PUSH2 0x3A4E JUMPI PUSH2 0x3510 PUSH32 0x61CB970250B1259FF7895FC80F9BD8E2DB1796A177A0BF8E2AEB8A117241B72C PUSH1 0x0 SHL PUSH2 0x48CF JUMP JUMPDEST PUSH2 0x353C PUSH32 0xA4814B16AAA1569E0805AFFDCDDBEF234CED031B3C02909D7FE6787E08ABF0FE PUSH1 0x0 SHL PUSH2 0x48CF JUMP JUMPDEST PUSH2 0x3568 PUSH32 0x1C15233E502AECA8357251F66EF233018691F37005980FF0B42D526DC03D775B PUSH1 0x0 SHL PUSH2 0x48CF JUMP JUMPDEST PUSH1 0x0 PUSH1 0x4 PUSH1 0x0 PUSH1 0x1 DUP5 PUSH2 0x357B SWAP2 SWAP1 PUSH2 0x5472 JUMP JUMPDEST DUP2 MSTORE PUSH1 0x20 ADD SWAP1 DUP2 MSTORE PUSH1 0x20 ADD PUSH1 0x0 KECCAK256 PUSH1 0x0 ADD SLOAD SWAP1 POP PUSH2 0x35BB PUSH32 0xE7D96FDA8FD87AFDBF9C7EAEC86B29C8FBAB36CE3FFE80C1FCDF841611FA1742 PUSH1 0x0 SHL PUSH2 0x48CF JUMP JUMPDEST PUSH2 0x35E7 PUSH32 0x48E266A3CAC21039BDEB1B916CD852AF5F644A15B5231EF841F1F3EEE5048F3A PUSH1 0x0 SHL PUSH2 0x48CF JUMP JUMPDEST PUSH1 0x0 PUSH1 0x4 PUSH1 0x0 DUP4 DUP2 MSTORE PUSH1 0x20 ADD SWAP1 DUP2 MSTORE PUSH1 0x20 ADD PUSH1 0x0 KECCAK256 SWAP1 POP PUSH2 0x362A PUSH32 0x606F7FF12FAA21E427487493D9E5C85CC9F2244DA0CC209C8F635440CE86E4E1 PUSH1 0x0 SHL PUSH2 0x48CF JUMP JUMPDEST PUSH2 0x3656 PUSH32 0xD670CC6DF52C0C309A0A3F029D0063117DD81902DACDF1A651069117BD44A0D2 PUSH1 0x0 SHL PUSH2 0x48CF JUMP JUMPDEST DUP1 PUSH1 0x40 MLOAD DUP1 PUSH2 0x120 ADD PUSH1 0x40 MSTORE SWAP1 DUP2 PUSH1 0x0 DUP3 ADD SLOAD DUP2 MSTORE PUSH1 0x20 ADD PUSH1 0x1 DUP3 ADD DUP1 SLOAD PUSH2 0x367D SWAP1 PUSH2 0x5540 JUMP JUMPDEST DUP1 PUSH1 0x1F ADD PUSH1 0x20 DUP1 SWAP2 DIV MUL PUSH1 0x20 ADD PUSH1 0x40 MLOAD SWAP1 DUP2 ADD PUSH1 0x40 MSTORE DUP1 SWAP3 SWAP2 SWAP1 DUP2 DUP2 MSTORE PUSH1 0x20 ADD DUP3 DUP1 SLOAD PUSH2 0x36A9 SWAP1 PUSH2 0x5540 JUMP JUMPDEST DUP1 ISZERO PUSH2 0x36F6 JUMPI DUP1 PUSH1 0x1F LT PUSH2 0x36CB JUMPI PUSH2 0x100 DUP1 DUP4 SLOAD DIV MUL DUP4 MSTORE SWAP2 PUSH1 0x20 ADD SWAP2 PUSH2 0x36F6 JUMP JUMPDEST DUP3 ADD SWAP2 SWAP1 PUSH1 0x0 MSTORE PUSH1 0x20 PUSH1 0x0 KECCAK256 SWAP1 JUMPDEST DUP2 SLOAD DUP2 MSTORE SWAP1 PUSH1 0x1 ADD SWAP1 PUSH1 0x20 ADD DUP1 DUP4 GT PUSH2 0x36D9 JUMPI DUP3 SWAP1 SUB PUSH1 0x1F AND DUP3 ADD SWAP2 JUMPDEST POP POP POP POP POP DUP2 MSTORE PUSH1 0x20 ADD PUSH1 0x2 DUP3 ADD DUP1 SLOAD PUSH2 0x370F SWAP1 PUSH2 0x5540 JUMP JUMPDEST DUP1 PUSH1 0x1F ADD PUSH1 0x20 DUP1 SWAP2 DIV MUL PUSH1 0x20 ADD PUSH1 0x40 MLOAD SWAP1 DUP2 ADD PUSH1 0x40 MSTORE DUP1 SWAP3 SWAP2 SWAP1 DUP2 DUP2 MSTORE PUSH1 0x20 ADD DUP3 DUP1 SLOAD PUSH2 0x373B SWAP1 PUSH2 0x5540 JUMP JUMPDEST DUP1 ISZERO PUSH2 0x3788 JUMPI DUP1 PUSH1 0x1F LT PUSH2 0x375D JUMPI PUSH2 0x100 DUP1 DUP4 SLOAD DIV MUL DUP4 MSTORE SWAP2 PUSH1 0x20 ADD SWAP2 PUSH2 0x3788 JUMP JUMPDEST DUP3 ADD SWAP2 SWAP1 PUSH1 0x0 MSTORE PUSH1 0x20 PUSH1 0x0 KECCAK256 SWAP1 JUMPDEST DUP2 SLOAD DUP2 MSTORE SWAP1 PUSH1 0x1 ADD SWAP1 PUSH1 0x20 ADD DUP1 DUP4 GT PUSH2 0x376B JUMPI DUP3 SWAP1 SUB PUSH1 0x1F AND DUP3 ADD SWAP2 JUMPDEST POP POP POP POP POP DUP2 MSTORE PUSH1 0x20 ADD PUSH1 0x3 DUP3 ADD DUP1 SLOAD PUSH2 0x37A1 SWAP1 PUSH2 0x5540 JUMP JUMPDEST DUP1 PUSH1 0x1F ADD PUSH1 0x20 DUP1 SWAP2 DIV MUL PUSH1 0x20 ADD PUSH1 0x40 MLOAD SWAP1 DUP2 ADD PUSH1 0x40 MSTORE DUP1 SWAP3 SWAP2 SWAP1 DUP2 DUP2 MSTORE PUSH1 0x20 ADD DUP3 DUP1 SLOAD PUSH2 0x37CD SWAP1 PUSH2 0x5540 JUMP JUMPDEST DUP1 ISZERO PUSH2 0x381A JUMPI DUP1 PUSH1 0x1F LT PUSH2 0x37EF JUMPI PUSH2 0x100 DUP1 DUP4 SLOAD DIV MUL DUP4 MSTORE SWAP2 PUSH1 0x20 ADD SWAP2 PUSH2 0x381A JUMP JUMPDEST DUP3 ADD SWAP2 SWAP1 PUSH1 0x0 MSTORE PUSH1 0x20 PUSH1 0x0 KECCAK256 SWAP1 JUMPDEST DUP2 SLOAD DUP2 MSTORE SWAP1 PUSH1 0x1 ADD SWAP1 PUSH1 0x20 ADD DUP1 DUP4 GT PUSH2 0x37FD JUMPI DUP3 SWAP1 SUB PUSH1 0x1F AND DUP3 ADD SWAP2 JUMPDEST POP POP POP POP POP DUP2 MSTORE PUSH1 0x20 ADD PUSH1 0x4 DUP3 ADD DUP1 SLOAD PUSH2 0x3833 SWAP1 PUSH2 0x5540 JUMP JUMPDEST DUP1 PUSH1 0x1F ADD PUSH1 0x20 DUP1 SWAP2 DIV MUL PUSH1 0x20 ADD PUSH1 0x40 MLOAD SWAP1 DUP2 ADD PUSH1 0x40 MSTORE DUP1 SWAP3 SWAP2 SWAP1 DUP2 DUP2 MSTORE PUSH1 0x20 ADD DUP3 DUP1 SLOAD PUSH2 0x385F SWAP1 PUSH2 0x5540 JUMP JUMPDEST DUP1 ISZERO PUSH2 0x38AC JUMPI DUP1 PUSH1 0x1F LT PUSH2 0x3881 JUMPI PUSH2 0x100 DUP1 DUP4 SLOAD DIV MUL DUP4 MSTORE SWAP2 PUSH1 0x20 ADD SWAP2 PUSH2 0x38AC JUMP JUMPDEST DUP3 ADD SWAP2 SWAP1 PUSH1 0x0 MSTORE PUSH1 0x20 PUSH1 0x0 KECCAK256 SWAP1 JUMPDEST DUP2 SLOAD DUP2 MSTORE SWAP1 PUSH1 0x1 ADD SWAP1 PUSH1 0x20 ADD DUP1 DUP4 GT PUSH2 0x388F JUMPI DUP3 SWAP1 SUB PUSH1 0x1F AND DUP3 ADD SWAP2 JUMPDEST POP POP POP POP POP DUP2 MSTORE PUSH1 0x20 ADD PUSH1 0x5 DUP3 ADD DUP1 SLOAD PUSH2 0x38C5 SWAP1 PUSH2 0x5540 JUMP JUMPDEST DUP1 PUSH1 0x1F ADD PUSH1 0x20 DUP1 SWAP2 DIV MUL PUSH1 0x20 ADD PUSH1 0x40 MLOAD SWAP1 DUP2 ADD PUSH1 0x40 MSTORE DUP1 SWAP3 SWAP2 SWAP1 DUP2 DUP2 MSTORE PUSH1 0x20 ADD DUP3 DUP1 SLOAD PUSH2 0x38F1 SWAP1 PUSH2 0x5540 JUMP JUMPDEST DUP1 ISZERO PUSH2 0x393E JUMPI DUP1 PUSH1 0x1F LT PUSH2 0x3913 JUMPI PUSH2 0x100 DUP1 DUP4 SLOAD DIV MUL DUP4 MSTORE SWAP2 PUSH1 0x20 ADD SWAP2 PUSH2 0x393E JUMP JUMPDEST DUP3 ADD SWAP2 SWAP1 PUSH1 0x0 MSTORE PUSH1 0x20 PUSH1 0x0 KECCAK256 SWAP1 JUMPDEST DUP2 SLOAD DUP2 MSTORE SWAP1 PUSH1 0x1 ADD SWAP1 PUSH1 0x20 ADD DUP1 DUP4 GT PUSH2 0x3921 JUMPI DUP3 SWAP1 SUB PUSH1 0x1F AND DUP3 ADD SWAP2 JUMPDEST POP POP POP POP POP DUP2 MSTORE PUSH1 0x20 ADD PUSH1 0x6 DUP3 ADD SLOAD DUP2 MSTORE PUSH1 0x20 ADD PUSH1 0x7 DUP3 ADD PUSH1 0x0 SWAP1 SLOAD SWAP1 PUSH2 0x100 EXP SWAP1 DIV PUSH20 0xFFFFFFFFFFFFFFFFFFFFFFFFFFFFFFFFFFFFFFFF AND PUSH20 0xFFFFFFFFFFFFFFFFFFFFFFFFFFFFFFFFFFFFFFFF AND PUSH20 0xFFFFFFFFFFFFFFFFFFFFFFFFFFFFFFFFFFFFFFFF AND DUP2 MSTORE PUSH1 0x20 ADD PUSH1 0x7 DUP3 ADD PUSH1 0x14 SWAP1 SLOAD SWAP1 PUSH2 0x100 EXP SWAP1 DIV PUSH1 0xFF AND ISZERO ISZERO ISZERO ISZERO DUP2 MSTORE POP POP DUP5 DUP7 DUP2 MLOAD DUP2 LT PUSH2 0x39D5 JUMPI PUSH2 0x39D4 PUSH2 0x5572 JUMP JUMPDEST JUMPDEST PUSH1 0x20 MUL PUSH1 0x20 ADD ADD DUP2 SWAP1 MSTORE POP PUSH2 0x3A0C PUSH32 0xEA34BE4F3B03A41A626BABA4C6F87A59C45929C205BC22BD8CD0FF48A3B96393 PUSH1 0x0 SHL PUSH2 0x48CF JUMP JUMPDEST PUSH2 0x3A38 PUSH32 0x7DC32079E4B8C27EF982AF5619BCF82521511362EA7986C17C4D8A4B2FA14D4A PUSH1 0x0 SHL PUSH2 0x48CF JUMP JUMPDEST PUSH1 0x1 DUP6 PUSH2 0x3A45 SWAP2 SWAP1 PUSH2 0x5472 JUMP JUMPDEST SWAP5 POP POP POP PUSH2 0x3A7B JUMP JUMPDEST PUSH2 0x3A7A PUSH32 0x8DA63C565B63DE6E6C5FCF276C98D63070DC0495243247683E17A9C6705F7945 PUSH1 0x0 SHL PUSH2 0x48CF JUMP JUMPDEST JUMPDEST DUP1 DUP1 PUSH2 0x3A86 SWAP1 PUSH2 0x54C8 JUMP JUMPDEST SWAP2 POP POP PUSH2 0x3448 JUMP JUMPDEST POP PUSH2 0x3ABB PUSH32 0xE19DC9AF81006BF61FA53F41C8B5A996CD7E40EF81FCFEC51FD2DC87A1C06381 PUSH1 0x0 SHL PUSH2 0x48CF JUMP JUMPDEST PUSH2 0x3AE7 PUSH32 0x95CA205A5B4063A87265A81C995A02510943CEA7676B076D04ADC7F6D067336E PUSH1 0x0 SHL PUSH2 0x48CF JUMP JUMPDEST DUP1 SWAP5 POP POP POP POP POP SWAP1 JUMP JUMPDEST PUSH1 0x3 PUSH1 0x20 MSTORE DUP1 PUSH1 0x0 MSTORE PUSH1 0x40 PUSH1 0x0 KECCAK256 PUSH1 0x0 SWAP2 POP SLOAD SWAP1 PUSH2 0x100 EXP SWAP1 DIV PUSH1 0xFF AND DUP2 JUMP JUMPDEST PUSH2 0x3B19 PUSH2 0x2071 JUMP JUMPDEST ISZERO PUSH2 0x3B59 JUMPI PUSH1 0x40 MLOAD PUSH32 0x8C379A000000000000000000000000000000000000000000000000000000000 DUP2 MSTORE PUSH1 0x4 ADD PUSH2 0x3B50 SWAP1 PUSH2 0x5391 JUMP JUMPDEST PUSH1 0x40 MLOAD DUP1 SWAP2 SUB SWAP1 REVERT JUMPDEST CALLER PUSH2 0x3B86 PUSH32 0xA5BB85A5119CA86E9E3AF02DE1EF2A585180966B3160162A8B02CF88E513B665 PUSH1 0x0 SHL PUSH2 0x48CF JUMP JUMPDEST PUSH2 0x3BB2 PUSH32 0x4798711D4B0931D93995D2F59F0416B64A23679F6D50F9AA44EBE1F2A9B103B7 PUSH1 0x0 SHL PUSH2 0x48CF JUMP JUMPDEST PUSH2 0x3BDE PUSH32 0x4CF96D3DB4FF9E59FD4F0786ED78723169369EAF8C64998117140BBCB895F948 PUSH1 0x0 SHL PUSH2 0x48CF JUMP JUMPDEST PUSH1 0x0 PUSH1 0x3 PUSH1 0x0 DUP4 PUSH20 0xFFFFFFFFFFFFFFFFFFFFFFFFFFFFFFFFFFFFFFFF AND PUSH20 0xFFFFFFFFFFFFFFFFFFFFFFFFFFFFFFFFFFFFFFFF AND DUP2 MSTORE PUSH1 0x20 ADD SWAP1 DUP2 MSTORE PUSH1 0x20 ADD PUSH1 0x0 KECCAK256 PUSH1 0x0 SWAP1 SLOAD SWAP1 PUSH2 0x100 EXP SWAP1 DIV PUSH1 0xFF AND SWAP1 POP PUSH2 0x3C5B PUSH32 0x652B750775C89BF16905FB12F13344373BCF93AD9620C84D6B3B99FFEF423EA7 PUSH1 0x0 SHL PUSH2 0x48CF JUMP JUMPDEST PUSH2 0x3C87 PUSH32 0xA9066C4D38FF22AF42F93EFB3E5D2AE17235CE3108403B10E35C72B91BE299E5 PUSH1 0x0 SHL PUSH2 0x48CF JUMP JUMPDEST PUSH2 0x3CB3 PUSH32 0x34B640BA749012C70E8E7EDA1C0BDE9F5F1BF8C55483F5A21BA13026A115599F PUSH1 0x0 SHL PUSH2 0x48CF JUMP JUMPDEST DUP1 PUSH2 0x3CF3 JUMPI PUSH1 0x40 MLOAD PUSH32 0x8C379A000000000000000000000000000000000000000000000000000000000 DUP2 MSTORE PUSH1 0x4 ADD PUSH2 0x3CEA SWAP1 PUSH2 0x5325 JUMP JUMPDEST PUSH1 0x40 MLOAD DUP1 SWAP2 SUB SWAP1 REVERT JUMPDEST PUSH2 0x3D1F PUSH32 0xC8391C996BC9A496F4F2FE86858DD4531EED9019015E78EB14C1618113798DA4 PUSH1 0x0 SHL PUSH2 0x48CF JUMP JUMPDEST PUSH2 0x3D4B PUSH32 0x9157B2054990CC122E198AA955191AD43FCC962BDACBE5CEB561C27538727B20 PUSH1 0x0 SHL PUSH2 0x48CF JUMP JUMPDEST PUSH2 0x3D77 PUSH32 0x6E156C6D02C417B2DD5C738CDC1FCA4C2FA42B79FBFF42D744639CC298E8188C PUSH1 0x0 SHL PUSH2 0x48CF JUMP JUMPDEST PUSH2 0x3DA3 PUSH32 0x65701E6D0A692534F3B6916C7A19185E2E35861487F124FE80B5A96E4A463649 PUSH1 0x0 SHL PUSH2 0x48CF JUMP JUMPDEST PUSH2 0x3DCF PUSH32 0xA2680CA14C711DA805454FADBA8425F6AC1AFB752F631E84CD5B9D48BE488171 PUSH1 0x0 SHL PUSH2 0x48CF JUMP JUMPDEST PUSH1 0x1 PUSH1 0x3 PUSH1 0x0 DUP6 PUSH20 0xFFFFFFFFFFFFFFFFFFFFFFFFFFFFFFFFFFFFFFFF AND PUSH20 0xFFFFFFFFFFFFFFFFFFFFFFFFFFFFFFFFFFFFFFFF AND DUP2 MSTORE PUSH1 0x20 ADD SWAP1 DUP2 MSTORE PUSH1 0x20 ADD PUSH1 0x0 KECCAK256 PUSH1 0x0 PUSH2 0x100 EXP DUP2 SLOAD DUP2 PUSH1 0xFF MUL NOT AND SWAP1 DUP4 ISZERO ISZERO MUL OR SWAP1 SSTORE POP PUSH2 0x3E53 PUSH32 0xDE3D7FE5C033BBBC1313D20FBBA221E374DDA08705141244D3BB2C9E7135CC7 PUSH1 0x0 SHL PUSH2 0x48CF JUMP JUMPDEST PUSH2 0x3E7F PUSH32 0x4C82012C282F95DD09F9AE7B8925126AAC7B33F3B22BA5BE0ECCF89DF6E1938E PUSH1 0x0 SHL PUSH2 0x48CF JUMP JUMPDEST PUSH32 0xB5DD25A9CFCA5E08F42D8AA38AF875754EE83968A096A48442D6AF229D64DE65 CALLER DUP5 PUSH1 0x40 MLOAD PUSH2 0x3EB0 SWAP3 SWAP2 SWAP1 PUSH2 0x55A1 JUMP JUMPDEST PUSH1 0x40 MLOAD DUP1 SWAP2 SUB SWAP1 LOG1 POP POP POP JUMP JUMPDEST PUSH2 0x3EC5 PUSH2 0x2071 JUMP JUMPDEST ISZERO PUSH2 0x3F05 JUMPI PUSH1 0x40 MLOAD PUSH32 0x8C379A000000000000000000000000000000000000000000000000000000000 DUP2 MSTORE PUSH1 0x4 ADD PUSH2 0x3EFC SWAP1 PUSH2 0x5391 JUMP JUMPDEST PUSH1 0x40 MLOAD DUP1 SWAP2 SUB SWAP1 REVERT JUMPDEST PUSH2 0x3F31 PUSH32 0x937A41745CDCC963E4AEAA9C56528D06C3BA1E629726F59E8841A14A36301964 PUSH1 0x0 SHL PUSH2 0x48CF JUMP JUMPDEST PUSH2 0x3F5D PUSH32 0x871E5C489CAF1DF2F4102C9A1BEACE4295D3833E9F26FBFB0DD04C7D6714F592 PUSH1 0x0 SHL PUSH2 0x48CF JUMP JUMPDEST PUSH2 0x3F89 PUSH32 0xA1FA760DD71DC291007DF0ADC4EC92C8D1658ED9B5E548FE2D405577CCDFF760 PUSH1 0x0 SHL PUSH2 0x48CF JUMP JUMPDEST PUSH2 0x3FB5 PUSH32 0xA98E1D32CFF3C1A7B3A7424816E61FC0BF4CEF092C08CF1F8D8D012B368B4A45 PUSH1 0x0 SHL PUSH2 0x48CF JUMP JUMPDEST PUSH1 0x0 ISZERO ISZERO PUSH1 0x5 PUSH1 0x0 CALLER PUSH20 0xFFFFFFFFFFFFFFFFFFFFFFFFFFFFFFFFFFFFFFFF AND PUSH20 0xFFFFFFFFFFFFFFFFFFFFFFFFFFFFFFFFFFFFFFFF AND DUP2 MSTORE PUSH1 0x20 ADD SWAP1 DUP2 MSTORE PUSH1 0x20 ADD PUSH1 0x0 KECCAK256 PUSH1 0x0 SWAP1 SLOAD SWAP1 PUSH2 0x100 EXP SWAP1 DIV PUSH1 0xFF AND ISZERO ISZERO EQ PUSH2 0x4048 JUMPI PUSH1 0x40 MLOAD PUSH32 0x8C379A000000000000000000000000000000000000000000000000000000000 DUP2 MSTORE PUSH1 0x4 ADD PUSH2 0x403F SWAP1 PUSH2 0x5423 JUMP JUMPDEST PUSH1 0x40 MLOAD DUP1 SWAP2 SUB SWAP1 REVERT JUMPDEST PUSH2 0x4074 PUSH32 0x2ABFF1CE909803E5C4F1660028BEF60FA268FA7A41D426A38805A1508FD2EB74 PUSH1 0x0 SHL PUSH2 0x48CF JUMP JUMPDEST PUSH2 0x40A0 PUSH32 0xFE7FF8E42F34670341436BF522CE31CEF6C13146C85E33BE37A17087498912AE PUSH1 0x0 SHL PUSH2 0x48CF JUMP JUMPDEST PUSH2 0x40CC PUSH32 0xCEB37F9C5C59F2AC0291EC5AD35C940DD658AE8577245AD60EFDFCDDFE8F214A PUSH1 0x0 SHL PUSH2 0x48CF JUMP JUMPDEST PUSH2 0x40F8 PUSH32 0xF01314EDD9E9B9A79ED3BF297EB8B286BDDEF8E7929DBE572CD99F069FB76256 PUSH1 0x0 SHL PUSH2 0x48CF JUMP JUMPDEST PUSH2 0x4124 PUSH32 0x5554DBFD386C0E9CBE23DAFAC484D99176D6D345DBF67B10028F68D0696ED788 PUSH1 0x0 SHL PUSH2 0x48CF JUMP JUMPDEST PUSH2 0x4150 PUSH32 0x10DFE6CF3BA881D0FEA5A75CCE2DA3FC398CBC0375BB1F4985D54C90BB9BB0A3 PUSH1 0x0 SHL PUSH2 0x48CF JUMP JUMPDEST PUSH1 0x0 DUP7 MLOAD GT PUSH2 0x415E JUMPI PUSH1 0x0 DUP1 REVERT JUMPDEST PUSH2 0x418A PUSH32 0x7A00E27DD062E815C0DA178689580648C54A22059C10FAFC59CECD2791071116 PUSH1 0x0 SHL PUSH2 0x48CF JUMP JUMPDEST PUSH2 0x41B6 PUSH32 0xDCB9CBFB36201BC22D81AD26F18A29CDE25F7BF7831FB8C4796D1D61C08758C7 PUSH1 0x0 SHL PUSH2 0x48CF JUMP JUMPDEST PUSH2 0x41E2 PUSH32 0x6A48A8542343B264007340E2041735606F5EE053A5CBFE58976CB0DB92693EAB PUSH1 0x0 SHL PUSH2 0x48CF JUMP JUMPDEST PUSH2 0x420E PUSH32 0x1B10A91BA76293736F9A08F0FB0026006BD6B2AA0CB8C42A5DDD18F12F7E6233 PUSH1 0x0 SHL PUSH2 0x48CF JUMP JUMPDEST PUSH1 0x0 DUP5 MLOAD GT PUSH2 0x421C JUMPI PUSH1 0x0 DUP1 REVERT JUMPDEST PUSH2 0x4248 PUSH32 0x4A31445EFC35D09810DBE90FD3DE10BB9567EAE131CD7AB09B46DABDD309B7E1 PUSH1 0x0 SHL PUSH2 0x48CF JUMP JUMPDEST PUSH2 0x4274 PUSH32 0xC5D56A775CB309E7F193B174981183939E0261CF1775D9FFFD02EB07E5E36B73 PUSH1 0x0 SHL PUSH2 0x48CF JUMP JUMPDEST PUSH2 0x42A0 PUSH32 0xBB3780DB46ED461C1B2C71229DF9C175E561EE8242F1E5F5036ECCE952FDCD20 PUSH1 0x0 SHL PUSH2 0x48CF JUMP JUMPDEST PUSH2 0x42CC PUSH32 0xD04FB45A0FA8DFAC6D0AA6BD148DB70B06713D7AC863A0D4BFA94D9BC0AEAFED PUSH1 0x0 SHL PUSH2 0x48CF JUMP JUMPDEST PUSH1 0x0 DUP3 MLOAD GT PUSH2 0x42DA JUMPI PUSH1 0x0 DUP1 REVERT JUMPDEST PUSH2 0x4306 PUSH32 0x43C27C21360083DA65A8A0407D3432C541AAE9F28288E8225135F20018D8B396 PUSH1 0x0 SHL PUSH2 0x48CF JUMP JUMPDEST PUSH2 0x4332 PUSH32 0x7F462317F261A93EE365115AA80CB5390EED2658F8A66D8F7166E92BCC1A6D48 PUSH1 0x0 SHL PUSH2 0x48CF JUMP JUMPDEST PUSH2 0x435E PUSH32 0xEA013835E3A52A36632C255C7730C435FEAC135D7E1E808F2123C411D88EFE0F PUSH1 0x0 SHL PUSH2 0x48CF JUMP JUMPDEST PUSH2 0x438A PUSH32 0x4B5F96322DDDC5CF6DCAC4246A9BB1FFC1864DA4941607CE7F76E350D8AB1B19 PUSH1 0x0 SHL PUSH2 0x48CF JUMP JUMPDEST PUSH1 0x0 DUP4 MLOAD GT PUSH2 0x4398 JUMPI PUSH1 0x0 DUP1 REVERT JUMPDEST PUSH2 0x43C4 PUSH32 0x2FFD6D882C60012D6B622313FAF60DA089F7BE2146D7FBBF719B2E018096E444 PUSH1 0x0 SHL PUSH2 0x48CF JUMP JUMPDEST PUSH2 0x43F0 PUSH32 0xF0ABDC9ED00A6A3B0D1E370F2414E928DE07B0A5414D1FF6DD096B8E33D3145F PUSH1 0x0 SHL PUSH2 0x48CF JUMP JUMPDEST PUSH2 0x441C PUSH32 0x685057F088523C796200E63B18474EDD3C918CBE3938A87B3E54365978E80988 PUSH1 0x0 SHL PUSH2 0x48CF JUMP JUMPDEST PUSH2 0x4448 PUSH32 0x1D457FDD0FBD4DF3F5CE4DC565D4A6ABC2618D927426FBB9D6A078923679D1F9 PUSH1 0x0 SHL PUSH2 0x48CF JUMP JUMPDEST PUSH1 0x0 PUSH20 0xFFFFFFFFFFFFFFFFFFFFFFFFFFFFFFFFFFFFFFFF AND CALLER PUSH20 0xFFFFFFFFFFFFFFFFFFFFFFFFFFFFFFFFFFFFFFFF AND EQ ISZERO PUSH2 0x4482 JUMPI PUSH1 0x0 DUP1 REVERT JUMPDEST PUSH2 0x44AE PUSH32 0xA1888D164BA5C963985E426C894E97D71E83086B73A527D43AEE4931DE902DBF PUSH1 0x0 SHL PUSH2 0x48CF JUMP JUMPDEST PUSH2 0x44DA PUSH32 0x91F6944943CB3AE465448A4D17B0C6A0C2C0802788057FA92401D426B8D47241 PUSH1 0x0 SHL PUSH2 0x48CF JUMP JUMPDEST PUSH2 0x4506 PUSH32 0x362ACAF3094395FAAE7FFCDC915C4E60392876399AD6DF9860F3B4EC0BDDA6A4 PUSH1 0x0 SHL PUSH2 0x48CF JUMP JUMPDEST PUSH2 0x4532 PUSH32 0x13DC9C2E62CBC59E716C2B21BE936E14EAB197C07C9383AB219607E36390D150 PUSH1 0x0 SHL PUSH2 0x48CF JUMP JUMPDEST PUSH1 0x0 DUP6 MLOAD GT PUSH2 0x4540 JUMPI PUSH1 0x0 DUP1 REVERT JUMPDEST PUSH2 0x456C PUSH32 0xE6CDBD7A85F2D50334FF8DF5D461C933936F02495B9124A4FC662D8B8306623 PUSH1 0x0 SHL PUSH2 0x48CF JUMP JUMPDEST PUSH2 0x4598 PUSH32 0xEE3A90E51F79145DFF695993BAB9C1B2D7A8AB63CE342C401472885CBE2E313E PUSH1 0x0 SHL PUSH2 0x48CF JUMP JUMPDEST PUSH2 0x45C4 PUSH32 0x4FD61F26DF616E3B806A97B843E9F286D881BFAEE9FDCC224808569F5E9C9381 PUSH1 0x0 SHL PUSH2 0x48CF JUMP JUMPDEST PUSH2 0x45CE PUSH1 0x1 PUSH2 0x48D2 JUMP JUMPDEST PUSH2 0x45FA PUSH32 0xB12ABF75E93539A65BE66D6B5CB485D7E8D3500ED7B9F69F927E2A2EE1B62A5A PUSH1 0x0 SHL PUSH2 0x48CF JUMP JUMPDEST PUSH2 0x4626 PUSH32 0x197B1790E572A95FB006802CB75F15387553D8C274DAEF543E142D3668E468B1 PUSH1 0x0 SHL PUSH2 0x48CF JUMP JUMPDEST PUSH1 0x0 PUSH2 0x4632 PUSH1 0x1 PUSH2 0x48E8 JUMP JUMPDEST SWAP1 POP PUSH2 0x4660 PUSH32 0x2D018A55F1C3E15F6D73612142A72D6833008136C1F1B6B05C8AB2C334455A06 PUSH1 0x0 SHL PUSH2 0x48CF JUMP JUMPDEST PUSH2 0x468C PUSH32 0xA72E326CE3FC53A30A5BDC92FEE8D3BFBB657CA5CFC6D6601DF64F3ACF1EEA31 PUSH1 0x0 SHL PUSH2 0x48CF JUMP JUMPDEST PUSH1 0x40 MLOAD DUP1 PUSH2 0x120 ADD PUSH1 0x40 MSTORE DUP1 DUP3 DUP2 MSTORE PUSH1 0x20 ADD DUP9 DUP2 MSTORE PUSH1 0x20 ADD DUP8 DUP2 MSTORE PUSH1 0x20 ADD DUP7 DUP2 MSTORE PUSH1 0x20 ADD DUP6 DUP2 MSTORE PUSH1 0x20 ADD DUP5 DUP2 MSTORE PUSH1 0x20 ADD TIMESTAMP DUP2 MSTORE PUSH1 0x20 ADD CALLER PUSH20 0xFFFFFFFFFFFFFFFFFFFFFFFFFFFFFFFFFFFFFFFF AND DUP2 MSTORE PUSH1 0x20 ADD DUP4 ISZERO ISZERO DUP2 MSTORE POP PUSH1 0x4 PUSH1 0x0 DUP4 DUP2 MSTORE PUSH1 0x20 ADD SWAP1 DUP2 MSTORE PUSH1 0x20 ADD PUSH1 0x0 KECCAK256 PUSH1 0x0 DUP3 ADD MLOAD DUP2 PUSH1 0x0 ADD SSTORE PUSH1 0x20 DUP3 ADD MLOAD DUP2 PUSH1 0x1 ADD SWAP1 DUP1 MLOAD SWAP1 PUSH1 0x20 ADD SWAP1 PUSH2 0x471D SWAP3 SWAP2 SWAP1 PUSH2 0x4AC6 JUMP JUMPDEST POP PUSH1 0x40 DUP3 ADD MLOAD DUP2 PUSH1 0x2 ADD SWAP1 DUP1 MLOAD SWAP1 PUSH1 0x20 ADD SWAP1 PUSH2 0x473A SWAP3 SWAP2 SWAP1 PUSH2 0x4AC6 JUMP JUMPDEST POP PUSH1 0x60 DUP3 ADD MLOAD DUP2 PUSH1 0x3 ADD SWAP1 DUP1 MLOAD SWAP1 PUSH1 0x20 ADD SWAP1 PUSH2 0x4757 SWAP3 SWAP2 SWAP1 PUSH2 0x4AC6 JUMP JUMPDEST POP PUSH1 0x80 DUP3 ADD MLOAD DUP2 PUSH1 0x4 ADD SWAP1 DUP1 MLOAD SWAP1 PUSH1 0x20 ADD SWAP1 PUSH2 0x4774 SWAP3 SWAP2 SWAP1 PUSH2 0x4AC6 JUMP JUMPDEST POP PUSH1 0xA0 DUP3 ADD MLOAD DUP2 PUSH1 0x5 ADD SWAP1 DUP1 MLOAD SWAP1 PUSH1 0x20 ADD SWAP1 PUSH2 0x4791 SWAP3 SWAP2 SWAP1 PUSH2 0x4AC6 JUMP JUMPDEST POP PUSH1 0xC0 DUP3 ADD MLOAD DUP2 PUSH1 0x6 ADD SSTORE PUSH1 0xE0 DUP3 ADD MLOAD DUP2 PUSH1 0x7 ADD PUSH1 0x0 PUSH2 0x100 EXP DUP2 SLOAD DUP2 PUSH20 0xFFFFFFFFFFFFFFFFFFFFFFFFFFFFFFFFFFFFFFFF MUL NOT AND SWAP1 DUP4 PUSH20 0xFFFFFFFFFFFFFFFFFFFFFFFFFFFFFFFFFFFFFFFF AND MUL OR SWAP1 SSTORE POP PUSH2 0x100 DUP3 ADD MLOAD DUP2 PUSH1 0x7 ADD PUSH1 0x14 PUSH2 0x100 EXP DUP2 SLOAD DUP2 PUSH1 0xFF MUL NOT AND SWAP1 DUP4 ISZERO ISZERO MUL OR SWAP1 SSTORE POP SWAP1 POP POP PUSH2 0x4833 PUSH32 0x23283805CD5AF2D253EAC30CE7C0EFF6A54E3DD1C78230D2953D51A5E4E400C4 PUSH1 0x0 SHL PUSH2 0x48CF JUMP JUMPDEST PUSH2 0x485F PUSH32 0x530A1AA7DE9627C6B9E53C94E101ECCB958937CE231017C62CB376E673A4D851 PUSH1 0x0 SHL PUSH2 0x48CF JUMP JUMPDEST PUSH32 0x15685DBF79E7181AE33D4610B737556E08E88CD73CD97D994292E1699D09D0F3 DUP2 DUP9 DUP9 DUP9 DUP9 DUP9 TIMESTAMP CALLER DUP11 PUSH1 0x40 MLOAD PUSH2 0x489E SWAP10 SWAP9 SWAP8 SWAP7 SWAP6 SWAP5 SWAP4 SWAP3 SWAP2 SWAP1 PUSH2 0x4F94 JUMP JUMPDEST PUSH1 0x40 MLOAD DUP1 SWAP2 SUB SWAP1 LOG1 POP POP POP POP POP POP POP JUMP JUMPDEST PUSH1 0x5 PUSH1 0x20 MSTORE DUP1 PUSH1 0x0 MSTORE PUSH1 0x40 PUSH1 0x0 KECCAK256 PUSH1 0x0 SWAP2 POP SLOAD SWAP1 PUSH2 0x100 EXP SWAP1 DIV PUSH1 0xFF AND DUP2 JUMP JUMPDEST POP JUMP JUMPDEST PUSH1 0x1 DUP2 PUSH1 0x0 ADD PUSH1 0x0 DUP3 DUP3 SLOAD ADD SWAP3 POP POP DUP2 SWAP1 SSTORE POP POP JUMP JUMPDEST PUSH1 0x0 DUP2 PUSH1 0x0 ADD SLOAD SWAP1 POP SWAP2 SWAP1 POP JUMP JUMPDEST PUSH2 0x48FE PUSH2 0x2071 JUMP JUMPDEST PUSH2 0x493D JUMPI PUSH1 0x40 MLOAD PUSH32 0x8C379A000000000000000000000000000000000000000000000000000000000 DUP2 MSTORE PUSH1 0x4 ADD PUSH2 0x4934 SWAP1 PUSH2 0x56DC JUMP JUMPDEST PUSH1 0x40 MLOAD DUP1 SWAP2 SUB SWAP1 REVERT JUMPDEST PUSH1 0x0 DUP1 PUSH1 0x0 PUSH2 0x100 EXP DUP2 SLOAD DUP2 PUSH1 0xFF MUL NOT AND SWAP1 DUP4 ISZERO ISZERO MUL OR SWAP1 SSTORE POP PUSH32 0x5DB9EE0A495BF2E6FF9C91A7834C1BA4FDD244A5E8AA4E537BD38AEAE4B073AA PUSH2 0x4980 PUSH2 0x4A39 JUMP JUMPDEST PUSH1 0x40 MLOAD PUSH2 0x498D SWAP2 SWAP1 PUSH2 0x56FC JUMP JUMPDEST PUSH1 0x40 MLOAD DUP1 SWAP2 SUB SWAP1 LOG1 JUMP JUMPDEST PUSH2 0x499F PUSH2 0x2071 JUMP JUMPDEST ISZERO PUSH2 0x49DF JUMPI PUSH1 0x40 MLOAD PUSH32 0x8C379A000000000000000000000000000000000000000000000000000000000 DUP2 MSTORE PUSH1 0x4 ADD PUSH2 0x49D6 SWAP1 PUSH2 0x5391 JUMP JUMPDEST PUSH1 0x40 MLOAD DUP1 SWAP2 SUB SWAP1 REVERT JUMPDEST PUSH1 0x1 PUSH1 0x0 DUP1 PUSH2 0x100 EXP DUP2 SLOAD DUP2 PUSH1 0xFF MUL NOT AND SWAP1 DUP4 ISZERO ISZERO MUL OR SWAP1 SSTORE POP PUSH32 0x62E78CEA01BEE320CD4E420270B5EA74000D11B0C9F74754EBDBFC544B05A258 PUSH2 0x4A22 PUSH2 0x4A39 JUMP JUMPDEST PUSH1 0x40 MLOAD PUSH2 0x4A2F SWAP2 SWAP1 PUSH2 0x56FC JUMP JUMPDEST PUSH1 0x40 MLOAD DUP1 SWAP2 SUB SWAP1 LOG1 JUMP JUMPDEST PUSH1 0x0 CALLER SWAP1 POP SWAP1 JUMP JUMPDEST POP DUP1 SLOAD PUSH1 0x0 DUP3 SSTORE SWAP1 PUSH1 0x0 MSTORE PUSH1 0x20 PUSH1 0x0 KECCAK256 SWAP1 DUP2 ADD SWAP1 PUSH2 0x4A5F SWAP2 SWAP1 PUSH2 0x4B4C JUMP JUMPDEST POP JUMP JUMPDEST PUSH1 0x40 MLOAD DUP1 PUSH2 0x120 ADD PUSH1 0x40 MSTORE DUP1 PUSH1 0x0 DUP2 MSTORE PUSH1 0x20 ADD PUSH1 0x60 DUP2 MSTORE PUSH1 0x20 ADD PUSH1 0x60 DUP2 MSTORE PUSH1 0x20 ADD PUSH1 0x60 DUP2 MSTORE PUSH1 0x20 ADD PUSH1 0x60 DUP2 MSTORE PUSH1 0x20 ADD PUSH1 0x60 DUP2 MSTORE PUSH1 0x20 ADD PUSH1 0x0 DUP2 MSTORE PUSH1 0x20 ADD PUSH1 0x0 PUSH20 0xFFFFFFFFFFFFFFFFFFFFFFFFFFFFFFFFFFFFFFFF AND DUP2 MSTORE PUSH1 0x20 ADD PUSH1 0x0 ISZERO ISZERO DUP2 MSTORE POP SWAP1 JUMP JUMPDEST DUP3 DUP1 SLOAD PUSH2 0x4AD2 SWAP1 PUSH2 0x5540 JUMP JUMPDEST SWAP1 PUSH1 0x0 MSTORE PUSH1 0x20 PUSH1 0x0 KECCAK256 SWAP1 PUSH1 0x1F ADD PUSH1 0x20 SWAP1 DIV DUP2 ADD SWAP3 DUP3 PUSH2 0x4AF4 JUMPI PUSH1 0x0 DUP6 SSTORE PUSH2 0x4B3B JUMP JUMPDEST DUP3 PUSH1 0x1F LT PUSH2 0x4B0D JUMPI DUP1 MLOAD PUSH1 0xFF NOT AND DUP4 DUP1 ADD OR DUP6 SSTORE PUSH2 0x4B3B JUMP JUMPDEST DUP3 DUP1 ADD PUSH1 0x1 ADD DUP6 SSTORE DUP3 ISZERO PUSH2 0x4B3B JUMPI SWAP2 DUP3 ADD JUMPDEST DUP3 DUP2 GT ISZERO PUSH2 0x4B3A JUMPI DUP3 MLOAD DUP3 SSTORE SWAP2 PUSH1 0x20 ADD SWAP2 SWAP1 PUSH1 0x1 ADD SWAP1 PUSH2 0x4B1F JUMP JUMPDEST JUMPDEST POP SWAP1 POP PUSH2 0x4B48 SWAP2 SWAP1 PUSH2 0x4B4C JUMP JUMPDEST POP SWAP1 JUMP JUMPDEST JUMPDEST DUP1 DUP3 GT ISZERO PUSH2 0x4B65 JUMPI PUSH1 0x0 DUP2 PUSH1 0x0 SWAP1 SSTORE POP PUSH1 0x1 ADD PUSH2 0x4B4D JUMP JUMPDEST POP SWAP1 JUMP JUMPDEST PUSH1 0x0 PUSH1 0x40 MLOAD SWAP1 POP SWAP1 JUMP JUMPDEST PUSH1 0x0 DUP1 REVERT JUMPDEST PUSH1 0x0 DUP1 REVERT JUMPDEST PUSH1 0x0 DUP2 SWAP1 POP SWAP2 SWAP1 POP JUMP JUMPDEST PUSH2 0x4B90 DUP2 PUSH2 0x4B7D JUMP JUMPDEST DUP2 EQ PUSH2 0x4B9B JUMPI PUSH1 0x0 DUP1 REVERT JUMPDEST POP JUMP JUMPDEST PUSH1 0x0 DUP2 CALLDATALOAD SWAP1 POP PUSH2 0x4BAD DUP2 PUSH2 0x4B87 JUMP JUMPDEST SWAP3 SWAP2 POP POP JUMP JUMPDEST PUSH1 0x0 PUSH1 0x20 DUP3 DUP5 SUB SLT ISZERO PUSH2 0x4BC9 JUMPI PUSH2 0x4BC8 PUSH2 0x4B73 JUMP JUMPDEST JUMPDEST PUSH1 0x0 PUSH2 0x4BD7 DUP5 DUP3 DUP6 ADD PUSH2 0x4B9E JUMP JUMPDEST SWAP2 POP POP SWAP3 SWAP2 POP POP JUMP JUMPDEST PUSH1 0x0 DUP2 MLOAD SWAP1 POP SWAP2 SWAP1 POP JUMP JUMPDEST PUSH1 0x0 DUP3 DUP3 MSTORE PUSH1 0x20 DUP3 ADD SWAP1 POP SWAP3 SWAP2 POP POP JUMP JUMPDEST PUSH1 0x0 DUP2 SWAP1 POP PUSH1 0x20 DUP3 ADD SWAP1 POP SWAP2 SWAP1 POP JUMP JUMPDEST PUSH2 0x4C15 DUP2 PUSH2 0x4B7D JUMP JUMPDEST DUP3 MSTORE POP POP JUMP JUMPDEST PUSH1 0x0 DUP2 MLOAD SWAP1 POP SWAP2 SWAP1 POP JUMP JUMPDEST PUSH1 0x0 DUP3 DUP3 MSTORE PUSH1 0x20 DUP3 ADD SWAP1 POP SWAP3 SWAP2 POP POP JUMP JUMPDEST PUSH1 0x0 JUMPDEST DUP4 DUP2 LT ISZERO PUSH2 0x4C55 JUMPI DUP1 DUP3 ADD MLOAD DUP2 DUP5 ADD MSTORE PUSH1 0x20 DUP2 ADD SWAP1 POP PUSH2 0x4C3A JUMP JUMPDEST DUP4 DUP2 GT ISZERO PUSH2 0x4C64 JUMPI PUSH1 0x0 DUP5 DUP5 ADD MSTORE JUMPDEST POP POP POP POP JUMP JUMPDEST PUSH1 0x0 PUSH1 0x1F NOT PUSH1 0x1F DUP4 ADD AND SWAP1 POP SWAP2 SWAP1 POP JUMP JUMPDEST PUSH1 0x0 PUSH2 0x4C86 DUP3 PUSH2 0x4C1B JUMP JUMPDEST PUSH2 0x4C90 DUP2 DUP6 PUSH2 0x4C26 JUMP JUMPDEST SWAP4 POP PUSH2 0x4CA0 DUP2 DUP6 PUSH1 0x20 DUP7 ADD PUSH2 0x4C37 JUMP JUMPDEST PUSH2 0x4CA9 DUP2 PUSH2 0x4C6A JUMP JUMPDEST DUP5 ADD SWAP2 POP POP SWAP3 SWAP2 POP POP JUMP JUMPDEST PUSH1 0x0 PUSH20 0xFFFFFFFFFFFFFFFFFFFFFFFFFFFFFFFFFFFFFFFF DUP3 AND SWAP1 POP SWAP2 SWAP1 POP JUMP JUMPDEST PUSH1 0x0 PUSH2 0x4CDF DUP3 PUSH2 0x4CB4 JUMP JUMPDEST SWAP1 POP SWAP2 SWAP1 POP JUMP JUMPDEST PUSH2 0x4CEF DUP2 PUSH2 0x4CD4 JUMP JUMPDEST DUP3 MSTORE POP POP JUMP JUMPDEST PUSH1 0x0 DUP2 ISZERO ISZERO SWAP1 POP SWAP2 SWAP1 POP JUMP JUMPDEST PUSH2 0x4D0A DUP2 PUSH2 0x4CF5 JUMP JUMPDEST DUP3 MSTORE POP POP JUMP JUMPDEST PUSH1 0x0 PUSH2 0x120 DUP4 ADD PUSH1 0x0 DUP4 ADD MLOAD PUSH2 0x4D29 PUSH1 0x0 DUP7 ADD DUP3 PUSH2 0x4C0C JUMP JUMPDEST POP PUSH1 0x20 DUP4 ADD MLOAD DUP5 DUP3 SUB PUSH1 0x20 DUP7 ADD MSTORE PUSH2 0x4D41 DUP3 DUP3 PUSH2 0x4C7B JUMP JUMPDEST SWAP2 POP POP PUSH1 0x40 DUP4 ADD MLOAD DUP5 DUP3 SUB PUSH1 0x40 DUP7 ADD MSTORE PUSH2 0x4D5B DUP3 DUP3 PUSH2 0x4C7B JUMP JUMPDEST SWAP2 POP POP PUSH1 0x60 DUP4 ADD MLOAD DUP5 DUP3 SUB PUSH1 0x60 DUP7 ADD MSTORE PUSH2 0x4D75 DUP3 DUP3 PUSH2 0x4C7B JUMP JUMPDEST SWAP2 POP POP PUSH1 0x80 DUP4 ADD MLOAD DUP5 DUP3 SUB PUSH1 0x80 DUP7 ADD MSTORE PUSH2 0x4D8F DUP3 DUP3 PUSH2 0x4C7B JUMP JUMPDEST SWAP2 POP POP PUSH1 0xA0 DUP4 ADD MLOAD DUP5 DUP3 SUB PUSH1 0xA0 DUP7 ADD MSTORE PUSH2 0x4DA9 DUP3 DUP3 PUSH2 0x4C7B JUMP JUMPDEST SWAP2 POP POP PUSH1 0xC0 DUP4 ADD MLOAD PUSH2 0x4DBE PUSH1 0xC0 DUP7 ADD DUP3 PUSH2 0x4C0C JUMP JUMPDEST POP PUSH1 0xE0 DUP4 ADD MLOAD PUSH2 0x4DD1 PUSH1 0xE0 DUP7 ADD DUP3 PUSH2 0x4CE6 JUMP JUMPDEST POP PUSH2 0x100 DUP4 ADD MLOAD PUSH2 0x4DE6 PUSH2 0x100 DUP7 ADD DUP3 PUSH2 0x4D01 JUMP JUMPDEST POP DUP1 SWAP2 POP POP SWAP3 SWAP2 POP POP JUMP JUMPDEST PUSH1 0x0 PUSH2 0x4DFD DUP4 DUP4 PUSH2 0x4D10 JUMP JUMPDEST SWAP1 POP SWAP3 SWAP2 POP POP JUMP JUMPDEST PUSH1 0x0 PUSH1 0x20 DUP3 ADD SWAP1 POP SWAP2 SWAP1 POP JUMP JUMPDEST PUSH1 0x0 PUSH2 0x4E1D DUP3 PUSH2 0x4BE0 JUMP JUMPDEST PUSH2 0x4E27 DUP2 DUP6 PUSH2 0x4BEB JUMP JUMPDEST SWAP4 POP DUP4 PUSH1 0x20 DUP3 MUL DUP6 ADD PUSH2 0x4E39 DUP6 PUSH2 0x4BFC JUMP JUMPDEST DUP1 PUSH1 0x0 JUMPDEST DUP6 DUP2 LT ISZERO PUSH2 0x4E75 JUMPI DUP5 DUP5 SUB DUP10 MSTORE DUP2 MLOAD PUSH2 0x4E56 DUP6 DUP3 PUSH2 0x4DF1 JUMP JUMPDEST SWAP5 POP PUSH2 0x4E61 DUP4 PUSH2 0x4E05 JUMP JUMPDEST SWAP3 POP PUSH1 0x20 DUP11 ADD SWAP10 POP POP PUSH1 0x1 DUP2 ADD SWAP1 POP PUSH2 0x4E3D JUMP JUMPDEST POP DUP3 SWAP8 POP DUP8 SWAP6 POP POP POP POP POP POP SWAP3 SWAP2 POP POP JUMP JUMPDEST PUSH1 0x0 PUSH1 0x20 DUP3 ADD SWAP1 POP DUP2 DUP2 SUB PUSH1 0x0 DUP4 ADD MSTORE PUSH2 0x4EA1 DUP2 DUP5 PUSH2 0x4E12 JUMP JUMPDEST SWAP1 POP SWAP3 SWAP2 POP POP JUMP JUMPDEST PUSH2 0x4EB2 DUP2 PUSH2 0x4CD4 JUMP JUMPDEST DUP2 EQ PUSH2 0x4EBD JUMPI PUSH1 0x0 DUP1 REVERT JUMPDEST POP JUMP JUMPDEST PUSH1 0x0 DUP2 CALLDATALOAD SWAP1 POP PUSH2 0x4ECF DUP2 PUSH2 0x4EA9 JUMP JUMPDEST SWAP3 SWAP2 POP POP JUMP JUMPDEST PUSH1 0x0 PUSH1 0x20 DUP3 DUP5 SUB SLT ISZERO PUSH2 0x4EEB JUMPI PUSH2 0x4EEA PUSH2 0x4B73 JUMP JUMPDEST JUMPDEST PUSH1 0x0 PUSH2 0x4EF9 DUP5 DUP3 DUP6 ADD PUSH2 0x4EC0 JUMP JUMPDEST SWAP2 POP POP SWAP3 SWAP2 POP POP JUMP JUMPDEST PUSH2 0x4F0B DUP2 PUSH2 0x4CF5 JUMP JUMPDEST DUP3 MSTORE POP POP JUMP JUMPDEST PUSH1 0x0 PUSH1 0x20 DUP3 ADD SWAP1 POP PUSH2 0x4F26 PUSH1 0x0 DUP4 ADD DUP5 PUSH2 0x4F02 JUMP JUMPDEST SWAP3 SWAP2 POP POP JUMP JUMPDEST PUSH2 0x4F35 DUP2 PUSH2 0x4B7D JUMP JUMPDEST DUP3 MSTORE POP POP JUMP JUMPDEST PUSH1 0x0 DUP3 DUP3 MSTORE PUSH1 0x20 DUP3 ADD SWAP1 POP SWAP3 SWAP2 POP POP JUMP JUMPDEST PUSH1 0x0 PUSH2 0x4F57 DUP3 PUSH2 0x4C1B JUMP JUMPDEST PUSH2 0x4F61 DUP2 DUP6 PUSH2 0x4F3B JUMP JUMPDEST SWAP4 POP PUSH2 0x4F71 DUP2 DUP6 PUSH1 0x20 DUP7 ADD PUSH2 0x4C37 JUMP JUMPDEST PUSH2 0x4F7A DUP2 PUSH2 0x4C6A JUMP JUMPDEST DUP5 ADD SWAP2 POP POP SWAP3 SWAP2 POP POP JUMP JUMPDEST PUSH2 0x4F8E DUP2 PUSH2 0x4CD4 JUMP JUMPDEST DUP3 MSTORE POP POP JUMP JUMPDEST PUSH1 0x0 PUSH2 0x120 DUP3 ADD SWAP1 POP PUSH2 0x4FAA PUSH1 0x0 DUP4 ADD DUP13 PUSH2 0x4F2C JUMP JUMPDEST DUP2 DUP2 SUB PUSH1 0x20 DUP4 ADD MSTORE PUSH2 0x4FBC DUP2 DUP12 PUSH2 0x4F4C JUMP JUMPDEST SWAP1 POP DUP2 DUP2 SUB PUSH1 0x40 DUP4 ADD MSTORE PUSH2 0x4FD0 DUP2 DUP11 PUSH2 0x4F4C JUMP JUMPDEST SWAP1 POP DUP2 DUP2 SUB PUSH1 0x60 DUP4 ADD MSTORE PUSH2 0x4FE4 DUP2 DUP10 PUSH2 0x4F4C JUMP JUMPDEST SWAP1 POP DUP2 DUP2 SUB PUSH1 0x80 DUP4 ADD MSTORE PUSH2 0x4FF8 DUP2 DUP9 PUSH2 0x4F4C JUMP JUMPDEST SWAP1 POP DUP2 DUP2 SUB PUSH1 0xA0 DUP4 ADD MSTORE PUSH2 0x500C DUP2 DUP8 PUSH2 0x4F4C JUMP JUMPDEST SWAP1 POP PUSH2 0x501B PUSH1 0xC0 DUP4 ADD DUP7 PUSH2 0x4F2C JUMP JUMPDEST PUSH2 0x5028 PUSH1 0xE0 DUP4 ADD DUP6 PUSH2 0x4F85 JUMP JUMPDEST PUSH2 0x5036 PUSH2 0x100 DUP4 ADD DUP5 PUSH2 0x4F02 JUMP JUMPDEST SWAP11 SWAP10 POP POP POP POP POP POP POP POP POP POP JUMP JUMPDEST PUSH1 0x0 PUSH1 0x20 DUP3 ADD SWAP1 POP PUSH2 0x5059 PUSH1 0x0 DUP4 ADD DUP5 PUSH2 0x4F2C JUMP JUMPDEST SWAP3 SWAP2 POP POP JUMP JUMPDEST PUSH1 0x0 DUP1 REVERT JUMPDEST PUSH1 0x0 DUP1 REVERT JUMPDEST PUSH32 0x4E487B7100000000000000000000000000000000000000000000000000000000 PUSH1 0x0 MSTORE PUSH1 0x41 PUSH1 0x4 MSTORE PUSH1 0x24 PUSH1 0x0 REVERT JUMPDEST PUSH2 0x50A1 DUP3 PUSH2 0x4C6A JUMP JUMPDEST DUP2 ADD DUP2 DUP2 LT PUSH8 0xFFFFFFFFFFFFFFFF DUP3 GT OR ISZERO PUSH2 0x50C0 JUMPI PUSH2 0x50BF PUSH2 0x5069 JUMP JUMPDEST JUMPDEST DUP1 PUSH1 0x40 MSTORE POP POP POP JUMP JUMPDEST PUSH1 0x0 PUSH2 0x50D3 PUSH2 0x4B69 JUMP JUMPDEST SWAP1 POP PUSH2 0x50DF DUP3 DUP3 PUSH2 0x5098 JUMP JUMPDEST SWAP2 SWAP1 POP JUMP JUMPDEST PUSH1 0x0 PUSH8 0xFFFFFFFFFFFFFFFF DUP3 GT ISZERO PUSH2 0x50FF JUMPI PUSH2 0x50FE PUSH2 0x5069 JUMP JUMPDEST JUMPDEST PUSH2 0x5108 DUP3 PUSH2 0x4C6A JUMP JUMPDEST SWAP1 POP PUSH1 0x20 DUP2 ADD SWAP1 POP SWAP2 SWAP1 POP JUMP JUMPDEST DUP3 DUP2 DUP4 CALLDATACOPY PUSH1 0x0 DUP4 DUP4 ADD MSTORE POP POP POP JUMP JUMPDEST PUSH1 0x0 PUSH2 0x5137 PUSH2 0x5132 DUP5 PUSH2 0x50E4 JUMP JUMPDEST PUSH2 0x50C9 JUMP JUMPDEST SWAP1 POP DUP3 DUP2 MSTORE PUSH1 0x20 DUP2 ADD DUP5 DUP5 DUP5 ADD GT ISZERO PUSH2 0x5153 JUMPI PUSH2 0x5152 PUSH2 0x5064 JUMP JUMPDEST JUMPDEST PUSH2 0x515E DUP5 DUP3 DUP6 PUSH2 0x5115 JUMP JUMPDEST POP SWAP4 SWAP3 POP POP POP JUMP JUMPDEST PUSH1 0x0 DUP3 PUSH1 0x1F DUP4 ADD SLT PUSH2 0x517B JUMPI PUSH2 0x517A PUSH2 0x505F JUMP JUMPDEST JUMPDEST DUP2 CALLDATALOAD PUSH2 0x518B DUP5 DUP3 PUSH1 0x20 DUP7 ADD PUSH2 0x5124 JUMP JUMPDEST SWAP2 POP POP SWAP3 SWAP2 POP POP JUMP JUMPDEST PUSH2 0x519D DUP2 PUSH2 0x4CF5 JUMP JUMPDEST DUP2 EQ PUSH2 0x51A8 JUMPI PUSH1 0x0 DUP1 REVERT JUMPDEST POP JUMP JUMPDEST PUSH1 0x0 DUP2 CALLDATALOAD SWAP1 POP PUSH2 0x51BA DUP2 PUSH2 0x5194 JUMP JUMPDEST SWAP3 SWAP2 POP POP JUMP JUMPDEST PUSH1 0x0 DUP1 PUSH1 0x0 DUP1 PUSH1 0x0 DUP1 PUSH1 0xC0 DUP8 DUP10 SUB SLT ISZERO PUSH2 0x51DD JUMPI PUSH2 0x51DC PUSH2 0x4B73 JUMP JUMPDEST JUMPDEST PUSH1 0x0 DUP8 ADD CALLDATALOAD PUSH8 0xFFFFFFFFFFFFFFFF DUP2 GT ISZERO PUSH2 0x51FB JUMPI PUSH2 0x51FA PUSH2 0x4B78 JUMP JUMPDEST JUMPDEST PUSH2 0x5207 DUP10 DUP3 DUP11 ADD PUSH2 0x5166 JUMP JUMPDEST SWAP7 POP POP PUSH1 0x20 DUP8 ADD CALLDATALOAD PUSH8 0xFFFFFFFFFFFFFFFF DUP2 GT ISZERO PUSH2 0x5228 JUMPI PUSH2 0x5227 PUSH2 0x4B78 JUMP JUMPDEST JUMPDEST PUSH2 0x5234 DUP10 DUP3 DUP11 ADD PUSH2 0x5166 JUMP JUMPDEST SWAP6 POP POP PUSH1 0x40 DUP8 ADD CALLDATALOAD PUSH8 0xFFFFFFFFFFFFFFFF DUP2 GT ISZERO PUSH2 0x5255 JUMPI PUSH2 0x5254 PUSH2 0x4B78 JUMP JUMPDEST JUMPDEST PUSH2 0x5261 DUP10 DUP3 DUP11 ADD PUSH2 0x5166 JUMP JUMPDEST SWAP5 POP POP PUSH1 0x60 DUP8 ADD CALLDATALOAD PUSH8 0xFFFFFFFFFFFFFFFF DUP2 GT ISZERO PUSH2 0x5282 JUMPI PUSH2 0x5281 PUSH2 0x4B78 JUMP JUMPDEST JUMPDEST PUSH2 0x528E DUP10 DUP3 DUP11 ADD PUSH2 0x5166 JUMP JUMPDEST SWAP4 POP POP PUSH1 0x80 DUP8 ADD CALLDATALOAD PUSH8 0xFFFFFFFFFFFFFFFF DUP2 GT ISZERO PUSH2 0x52AF JUMPI PUSH2 0x52AE PUSH2 0x4B78 JUMP JUMPDEST JUMPDEST PUSH2 0x52BB DUP10 DUP3 DUP11 ADD PUSH2 0x5166 JUMP JUMPDEST SWAP3 POP POP PUSH1 0xA0 PUSH2 0x52CC DUP10 DUP3 DUP11 ADD PUSH2 0x51AB JUMP JUMPDEST SWAP2 POP POP SWAP3 SWAP6 POP SWAP3 SWAP6 POP SWAP3 SWAP6 JUMP JUMPDEST PUSH32 0x4F6E6C79204D6F64657261746F72732048617665204163636573732100000000 PUSH1 0x0 DUP3 ADD MSTORE POP JUMP JUMPDEST PUSH1 0x0 PUSH2 0x530F PUSH1 0x1C DUP4 PUSH2 0x4F3B JUMP JUMPDEST SWAP2 POP PUSH2 0x531A DUP3 PUSH2 0x52D9 JUMP JUMPDEST PUSH1 0x20 DUP3 ADD SWAP1 POP SWAP2 SWAP1 POP JUMP JUMPDEST PUSH1 0x0 PUSH1 0x20 DUP3 ADD SWAP1 POP DUP2 DUP2 SUB PUSH1 0x0 DUP4 ADD MSTORE PUSH2 0x533E DUP2 PUSH2 0x5302 JUMP JUMPDEST SWAP1 POP SWAP2 SWAP1 POP JUMP JUMPDEST PUSH32 0x5061757361626C653A2070617573656400000000000000000000000000000000 PUSH1 0x0 DUP3 ADD MSTORE POP JUMP JUMPDEST PUSH1 0x0 PUSH2 0x537B PUSH1 0x10 DUP4 PUSH2 0x4F3B JUMP JUMPDEST SWAP2 POP PUSH2 0x5386 DUP3 PUSH2 0x5345 JUMP JUMPDEST PUSH1 0x20 DUP3 ADD SWAP1 POP SWAP2 SWAP1 POP JUMP JUMPDEST PUSH1 0x0 PUSH1 0x20 DUP3 ADD SWAP1 POP DUP2 DUP2 SUB PUSH1 0x0 DUP4 ADD MSTORE PUSH2 0x53AA DUP2 PUSH2 0x536E JUMP JUMPDEST SWAP1 POP SWAP2 SWAP1 POP JUMP JUMPDEST PUSH32 0x416464726573732069732063757272656E746C7920426C61636B6C6973746564 PUSH1 0x0 DUP3 ADD MSTORE PUSH32 0x2E2E000000000000000000000000000000000000000000000000000000000000 PUSH1 0x20 DUP3 ADD MSTORE POP JUMP JUMPDEST PUSH1 0x0 PUSH2 0x540D PUSH1 0x22 DUP4 PUSH2 0x4F3B JUMP JUMPDEST SWAP2 POP PUSH2 0x5418 DUP3 PUSH2 0x53B1 JUMP JUMPDEST PUSH1 0x40 DUP3 ADD SWAP1 POP SWAP2 SWAP1 POP JUMP JUMPDEST PUSH1 0x0 PUSH1 0x20 DUP3 ADD SWAP1 POP DUP2 DUP2 SUB PUSH1 0x0 DUP4 ADD MSTORE PUSH2 0x543C DUP2 PUSH2 0x5400 JUMP JUMPDEST SWAP1 POP SWAP2 SWAP1 POP JUMP JUMPDEST PUSH32 0x4E487B7100000000000000000000000000000000000000000000000000000000 PUSH1 0x0 MSTORE PUSH1 0x11 PUSH1 0x4 MSTORE PUSH1 0x24 PUSH1 0x0 REVERT JUMPDEST PUSH1 0x0 PUSH2 0x547D DUP3 PUSH2 0x4B7D JUMP JUMPDEST SWAP2 POP PUSH2 0x5488 DUP4 PUSH2 0x4B7D JUMP JUMPDEST SWAP3 POP DUP3 PUSH32 0xFFFFFFFFFFFFFFFFFFFFFFFFFFFFFFFFFFFFFFFFFFFFFFFFFFFFFFFFFFFFFFFF SUB DUP3 GT ISZERO PUSH2 0x54BD JUMPI PUSH2 0x54BC PUSH2 0x5443 JUMP JUMPDEST JUMPDEST DUP3 DUP3 ADD SWAP1 POP SWAP3 SWAP2 POP POP JUMP JUMPDEST PUSH1 0x0 PUSH2 0x54D3 DUP3 PUSH2 0x4B7D JUMP JUMPDEST SWAP2 POP PUSH32 0xFFFFFFFFFFFFFFFFFFFFFFFFFFFFFFFFFFFFFFFFFFFFFFFFFFFFFFFFFFFFFFFF DUP3 EQ ISZERO PUSH2 0x5506 JUMPI PUSH2 0x5505 PUSH2 0x5443 JUMP JUMPDEST JUMPDEST PUSH1 0x1 DUP3 ADD SWAP1 POP SWAP2 SWAP1 POP JUMP JUMPDEST PUSH32 0x4E487B7100000000000000000000000000000000000000000000000000000000 PUSH1 0x0 MSTORE PUSH1 0x22 PUSH1 0x4 MSTORE PUSH1 0x24 PUSH1 0x0 REVERT JUMPDEST PUSH1 0x0 PUSH1 0x2 DUP3 DIV SWAP1 POP PUSH1 0x1 DUP3 AND DUP1 PUSH2 0x5558 JUMPI PUSH1 0x7F DUP3 AND SWAP2 POP JUMPDEST PUSH1 0x20 DUP3 LT DUP2 EQ ISZERO PUSH2 0x556C JUMPI PUSH2 0x556B PUSH2 0x5511 JUMP JUMPDEST JUMPDEST POP SWAP2 SWAP1 POP JUMP JUMPDEST PUSH32 0x4E487B7100000000000000000000000000000000000000000000000000000000 PUSH1 0x0 MSTORE PUSH1 0x32 PUSH1 0x4 MSTORE PUSH1 0x24 PUSH1 0x0 REVERT JUMPDEST PUSH1 0x0 PUSH1 0x40 DUP3 ADD SWAP1 POP PUSH2 0x55B6 PUSH1 0x0 DUP4 ADD DUP6 PUSH2 0x4F85 JUMP JUMPDEST PUSH2 0x55C3 PUSH1 0x20 DUP4 ADD DUP5 PUSH2 0x4F85 JUMP JUMPDEST SWAP4 SWAP3 POP POP POP JUMP JUMPDEST PUSH32 0x796F752063616E206F6E6C79206D616E6970756C61746520796F7572206F776E PUSH1 0x0 DUP3 ADD MSTORE PUSH32 0x2066696C65000000000000000000000000000000000000000000000000000000 PUSH1 0x20 DUP3 ADD MSTORE POP JUMP JUMPDEST PUSH1 0x0 PUSH2 0x5626 PUSH1 0x25 DUP4 PUSH2 0x4F3B JUMP JUMPDEST SWAP2 POP PUSH2 0x5631 DUP3 PUSH2 0x55CA JUMP JUMPDEST PUSH1 0x40 DUP3 ADD SWAP1 POP SWAP2 SWAP1 POP JUMP JUMPDEST PUSH1 0x0 PUSH1 0x20 DUP3 ADD SWAP1 POP DUP2 DUP2 SUB PUSH1 0x0 DUP4 ADD MSTORE PUSH2 0x5655 DUP2 PUSH2 0x5619 JUMP JUMPDEST SWAP1 POP SWAP2 SWAP1 POP JUMP JUMPDEST PUSH1 0x0 PUSH2 0x5667 DUP3 PUSH2 0x4B7D JUMP JUMPDEST SWAP2 POP PUSH2 0x5672 DUP4 PUSH2 0x4B7D JUMP JUMPDEST SWAP3 POP DUP3 DUP3 LT ISZERO PUSH2 0x5685 JUMPI PUSH2 0x5684 PUSH2 0x5443 JUMP JUMPDEST JUMPDEST DUP3 DUP3 SUB SWAP1 POP SWAP3 SWAP2 POP POP JUMP JUMPDEST PUSH32 0x5061757361626C653A206E6F7420706175736564000000000000000000000000 PUSH1 0x0 DUP3 ADD MSTORE POP JUMP JUMPDEST PUSH1 0x0 PUSH2 0x56C6 PUSH1 0x14 DUP4 PUSH2 0x4F3B JUMP JUMPDEST SWAP2 POP PUSH2 0x56D1 DUP3 PUSH2 0x5690 JUMP JUMPDEST PUSH1 0x20 DUP3 ADD SWAP1 POP SWAP2 SWAP1 POP JUMP JUMPDEST PUSH1 0x0 PUSH1 0x20 DUP3 ADD SWAP1 POP DUP2 DUP2 SUB PUSH1 0x0 DUP4 ADD MSTORE PUSH2 0x56F5 DUP2 PUSH2 0x56B9 JUMP JUMPDEST SWAP1 POP SWAP2 SWAP1 POP JUMP JUMPDEST PUSH1 0x0 PUSH1 0x20 DUP3 ADD SWAP1 POP PUSH2 0x5711 PUSH1 0x0 DUP4 ADD DUP5 PUSH2 0x4F85 JUMP JUMPDEST SWAP3 SWAP2 POP POP JUMP INVALID LOG2 PUSH5 0x6970667358 0x22 SLT KECCAK256 RETURN 0x5F PUSH7 0xFEF4876091CFAE DUP14 PUSH7 0x3C63C0F263FFE7 AND 0xCB 0x21 SMOD SWAP6 0xDB GASPRICE DUP12 PUSH15 0xDD6045D464736F6C634300080A0033 "
        },
        "methodIdentifiers": {
          "Allfiles(uint256)": "972a92b9",
          "addToBlackList(address)": "417c73a7",
          "assignMod(address)": "b27e237c",
          "blackListedAddresses(address)": "f54dc757",
          "clearReportedFiles(uint256)": "00e17ba0",
          "fetchPublicFiles()": "a8b23dbc",
          "fetchUserFiles()": "31d1f185",
          "makeFilePrivate(uint256)": "82d0ed2e",
          "makeFilePublic(uint256)": "9a66b923",
          "moderator(address)": "b1bed4f5",
          "pause()": "8456cb59",
          "paused()": "5c975abb",
          "removeFromBlackList(address)": "4a49ac4c",
          "removeMod(address)": "4637de3c",
          "report(uint256)": "969b1cdb",
          "reportedFiles(uint256)": "9b569074",
          "unpause()": "3f4ba83a",
          "uploadFile(string,string,string,string,string,bool)": "d13d9e9c"
        }
      }
    }
  }
}