{
  "_format": "hh-sol-artifact-1",
  "contractName": "NestDrive",
  "sourceName": "contracts/NestDrive.sol",
  "abi": [
    {
      "inputs": [],
      "stateMutability": "nonpayable",
      "type": "constructor"
    },
    {
      "anonymous": false,
      "inputs": [
        {
          "indexed": false,
          "internalType": "address",
          "name": "adder",
          "type": "address"
        },
        {
          "indexed": false,
          "internalType": "address",
          "name": "newMod",
          "type": "address"
        }
      ],
      "name": "AssignMod",
      "type": "event"
    },
    {
      "anonymous": false,
      "inputs": [
        {
          "indexed": false,
          "internalType": "uint256",
          "name": "fileId",
          "type": "uint256"
        },
        {
          "indexed": false,
          "internalType": "string",
          "name": "fileHash",
          "type": "string"
        },
        {
          "indexed": false,
          "internalType": "string",
          "name": "fileSize",
          "type": "string"
        },
        {
          "indexed": false,
          "internalType": "string",
          "name": "fileType",
          "type": "string"
        },
        {
          "indexed": false,
          "internalType": "string",
          "name": "fileName",
          "type": "string"
        },
        {
          "indexed": false,
          "internalType": "string",
          "name": "fileDescription",
          "type": "string"
        },
        {
          "indexed": false,
          "internalType": "uint256",
          "name": "uploadTime",
          "type": "uint256"
        },
        {
          "indexed": false,
          "internalType": "address",
          "name": "uploader",
          "type": "address"
        },
        {
          "indexed": false,
          "internalType": "bool",
          "name": "isPublic",
          "type": "bool"
        }
      ],
      "name": "FileUploaded",
      "type": "event"
    },
    {
      "anonymous": false,
      "inputs": [
        {
          "indexed": false,
          "internalType": "address",
          "name": "account",
          "type": "address"
        }
      ],
      "name": "Paused",
      "type": "event"
    },
    {
      "anonymous": false,
      "inputs": [
        {
          "indexed": false,
          "internalType": "address",
          "name": "remover",
          "type": "address"
        },
        {
          "indexed": false,
          "internalType": "address",
          "name": "newMod",
          "type": "address"
        }
      ],
      "name": "RemoveMod",
      "type": "event"
    },
    {
      "anonymous": false,
      "inputs": [
        {
          "indexed": false,
          "internalType": "address",
          "name": "account",
          "type": "address"
        }
      ],
      "name": "Unpaused",
      "type": "event"
    },
    {
      "inputs": [
        {
          "internalType": "uint256",
          "name": "",
          "type": "uint256"
        }
      ],
      "name": "Allfiles",
      "outputs": [
        {
          "internalType": "uint256",
          "name": "fileId",
          "type": "uint256"
        },
        {
          "internalType": "string",
          "name": "fileHash",
          "type": "string"
        },
        {
          "internalType": "string",
          "name": "fileSize",
          "type": "string"
        },
        {
          "internalType": "string",
          "name": "fileType",
          "type": "string"
        },
        {
          "internalType": "string",
          "name": "fileName",
          "type": "string"
        },
        {
          "internalType": "string",
          "name": "fileDescription",
          "type": "string"
        },
        {
          "internalType": "uint256",
          "name": "uploadTime",
          "type": "uint256"
        },
        {
          "internalType": "address",
          "name": "uploader",
          "type": "address"
        },
        {
          "internalType": "bool",
          "name": "isPublic",
          "type": "bool"
        }
      ],
      "stateMutability": "view",
      "type": "function"
    },
    {
      "inputs": [
        {
          "internalType": "address",
          "name": "_addr",
          "type": "address"
        }
      ],
      "name": "addToBlackList",
      "outputs": [
        {
          "internalType": "bool",
          "name": "",
          "type": "bool"
        }
      ],
      "stateMutability": "nonpayable",
      "type": "function"
    },
    {
      "inputs": [
        {
          "internalType": "address",
          "name": "_newMod",
          "type": "address"
        }
      ],
      "name": "assignMod",
      "outputs": [],
      "stateMutability": "nonpayable",
      "type": "function"
    },
    {
      "inputs": [
        {
          "internalType": "address",
          "name": "",
          "type": "address"
        }
      ],
      "name": "blackListedAddresses",
      "outputs": [
        {
          "internalType": "bool",
          "name": "",
          "type": "bool"
        }
      ],
      "stateMutability": "view",
      "type": "function"
    },
    {
      "inputs": [
        {
          "internalType": "uint256",
          "name": "fileId",
          "type": "uint256"
        }
      ],
      "name": "clearReportedFiles",
      "outputs": [],
      "stateMutability": "nonpayable",
      "type": "function"
    },
    {
      "inputs": [],
      "name": "fetchPublicFiles",
      "outputs": [
        {
          "components": [
            {
              "internalType": "uint256",
              "name": "fileId",
              "type": "uint256"
            },
            {
              "internalType": "string",
              "name": "fileHash",
              "type": "string"
            },
            {
              "internalType": "string",
              "name": "fileSize",
              "type": "string"
            },
            {
              "internalType": "string",
              "name": "fileType",
              "type": "string"
            },
            {
              "internalType": "string",
              "name": "fileName",
              "type": "string"
            },
            {
              "internalType": "string",
              "name": "fileDescription",
              "type": "string"
            },
            {
              "internalType": "uint256",
              "name": "uploadTime",
              "type": "uint256"
            },
            {
              "internalType": "address",
              "name": "uploader",
              "type": "address"
            },
            {
              "internalType": "bool",
              "name": "isPublic",
              "type": "bool"
            }
          ],
          "internalType": "struct NestDrive.File[]",
          "name": "",
          "type": "tuple[]"
        }
      ],
      "stateMutability": "view",
      "type": "function"
    },
    {
      "inputs": [],
      "name": "fetchUserFiles",
      "outputs": [
        {
          "components": [
            {
              "internalType": "uint256",
              "name": "fileId",
              "type": "uint256"
            },
            {
              "internalType": "string",
              "name": "fileHash",
              "type": "string"
            },
            {
              "internalType": "string",
              "name": "fileSize",
              "type": "string"
            },
            {
              "internalType": "string",
              "name": "fileType",
              "type": "string"
            },
            {
              "internalType": "string",
              "name": "fileName",
              "type": "string"
            },
            {
              "internalType": "string",
              "name": "fileDescription",
              "type": "string"
            },
            {
              "internalType": "uint256",
              "name": "uploadTime",
              "type": "uint256"
            },
            {
              "internalType": "address",
              "name": "uploader",
              "type": "address"
            },
            {
              "internalType": "bool",
              "name": "isPublic",
              "type": "bool"
            }
          ],
          "internalType": "struct NestDrive.File[]",
          "name": "",
          "type": "tuple[]"
        }
      ],
      "stateMutability": "view",
      "type": "function"
    },
    {
      "inputs": [
        {
          "internalType": "uint256",
          "name": "fileId",
          "type": "uint256"
        }
      ],
      "name": "makeFilePrivate",
      "outputs": [],
      "stateMutability": "nonpayable",
      "type": "function"
    },
    {
      "inputs": [
        {
          "internalType": "uint256",
          "name": "fileId",
          "type": "uint256"
        }
      ],
      "name": "makeFilePublic",
      "outputs": [],
      "stateMutability": "nonpayable",
      "type": "function"
    },
    {
      "inputs": [
        {
          "internalType": "address",
          "name": "",
          "type": "address"
        }
      ],
      "name": "moderator",
      "outputs": [
        {
          "internalType": "bool",
          "name": "",
          "type": "bool"
        }
      ],
      "stateMutability": "view",
      "type": "function"
    },
    {
      "inputs": [],
      "name": "pause",
      "outputs": [],
      "stateMutability": "nonpayable",
      "type": "function"
    },
    {
      "inputs": [],
      "name": "paused",
      "outputs": [
        {
          "internalType": "bool",
          "name": "",
          "type": "bool"
        }
      ],
      "stateMutability": "view",
      "type": "function"
    },
    {
      "inputs": [
        {
          "internalType": "address",
          "name": "_addr",
          "type": "address"
        }
      ],
      "name": "removeFromBlackList",
      "outputs": [
        {
          "internalType": "bool",
          "name": "",
          "type": "bool"
        }
      ],
      "stateMutability": "nonpayable",
      "type": "function"
    },
    {
      "inputs": [
        {
          "internalType": "address",
          "name": "_mod",
          "type": "address"
        }
      ],
      "name": "removeMod",
      "outputs": [],
      "stateMutability": "nonpayable",
      "type": "function"
    },
    {
      "inputs": [
        {
          "internalType": "uint256",
          "name": "fileId",
          "type": "uint256"
        }
      ],
      "name": "report",
      "outputs": [],
      "stateMutability": "nonpayable",
      "type": "function"
    },
    {
      "inputs": [
        {
          "internalType": "uint256",
          "name": "",
          "type": "uint256"
        }
      ],
      "name": "reportedFiles",
      "outputs": [
        {
          "internalType": "uint256",
          "name": "",
          "type": "uint256"
        }
      ],
      "stateMutability": "view",
      "type": "function"
    },
    {
      "inputs": [],
      "name": "unpause",
      "outputs": [],
      "stateMutability": "nonpayable",
      "type": "function"
    },
    {
      "inputs": [
        {
          "internalType": "string",
          "name": "_fileHash",
          "type": "string"
        },
        {
          "internalType": "string",
          "name": "_fileSize",
          "type": "string"
        },
        {
          "internalType": "string",
          "name": "_fileType",
          "type": "string"
        },
        {
          "internalType": "string",
          "name": "_fileName",
          "type": "string"
        },
        {
          "internalType": "string",
          "name": "_fileDescription",
          "type": "string"
        },
        {
          "internalType": "bool",
          "name": "_isPublic",
          "type": "bool"
        }
      ],
      "name": "uploadFile",
      "outputs": [],
      "stateMutability": "nonpayable",
      "type": "function"
    }
  ],
  "bytecode": "0x60806040523480156200001157600080fd5b5060008060006101000a81548160ff021916908315150217905550620000607fc79a7738862afd2956079d6885e6932143957da7824bbad1692b86f6a3e78b2860001b6200012660201b60201c565b620000947f794429c93ae9ceb6cb6bb7e158fdebd1df10a5c1d30d7fc293fc12ca3e89010360001b6200012660201b60201c565b620000c87fbc6653f3e5a95aaed7991adb6625b0a33a2c17f7b6c4097bb5f9f8bdbbd4b81260001b6200012660201b60201c565b6001600360003373ffffffffffffffffffffffffffffffffffffffff1673ffffffffffffffffffffffffffffffffffffffff16815260200190815260200160002060006101000a81548160ff02191690831515021790555062000129565b50565b61574d80620001396000396000f3fe608060405234801561001057600080fd5b50600436106101155760003560e01c8063969b1cdb116100a2578063a8b23dbc11610071578063a8b23dbc146102be578063b1bed4f5146102dc578063b27e237c1461030c578063d13d9e9c14610328578063f54dc7571461034457610115565b8063969b1cdb1461021e578063972a92b91461023a5780639a66b923146102725780639b5690741461028e57610115565b80634637de3c116100e95780634637de3c1461018e5780634a49ac4c146101aa5780635c975abb146101da57806382d0ed2e146101f85780638456cb591461021457610115565b8062e17ba01461011a57806331d1f185146101365780633f4ba83a14610154578063417c73a71461015e575b600080fd5b610134600480360381019061012f9190614bb3565b610374565b005b61013e6106ba565b60405161014b9190614e87565b60405180910390f35b61015c6113dd565b005b61017860048036038101906101739190614ed5565b61165f565b6040516101859190614f11565b60405180910390f35b6101a860048036038101906101a39190614ed5565b611992565b005b6101c460048036038101906101bf9190614ed5565b611d3e565b6040516101d19190614f11565b60405180910390f35b6101e2612071565b6040516101ef9190614f11565b60405180910390f35b610212600480360381019061020d9190614bb3565b612087565b005b61021c61252a565b005b61023860048036038101906102339190614bb3565b6127ac565b005b610254600480360381019061024f9190614bb3565b61285c565b60405161026999989796959493929190614f94565b60405180910390f35b61028c60048036038101906102879190614bb3565b612b7f565b005b6102a860048036038101906102a39190614bb3565b612fce565b6040516102b59190615044565b60405180910390f35b6102c6612ff2565b6040516102d39190614e87565b60405180910390f35b6102f660048036038101906102f19190614ed5565b613af1565b6040516103039190614f11565b60405180910390f35b61032660048036038101906103219190614ed5565b613b11565b005b610342600480360381019061033d91906151c0565b613ebd565b005b61035e60048036038101906103599190614ed5565b6148af565b60405161036b9190614f11565b60405180910390f35b336103a17fa5bb85a5119ca86e9e3af02de1ef2a585180966b3160162a8b02cf88e513b66560001b6148cf565b6103cd7f4798711d4b0931d93995d2f59f0416b64a23679f6d50f9aa44ebe1f2a9b103b760001b6148cf565b6103f97f4cf96d3db4ff9e59fd4f0786ed78723169369eaf8c64998117140bbcb895f94860001b6148cf565b6000600360008373ffffffffffffffffffffffffffffffffffffffff1673ffffffffffffffffffffffffffffffffffffffff16815260200190815260200160002060009054906101000a900460ff1690506104767f652b750775c89bf16905fb12f13344373bcf93ad9620c84d6b3b99ffef423ea760001b6148cf565b6104a27fa9066c4d38ff22af42f93efb3e5d2ae17235ce3108403b10e35c72b91be299e560001b6148cf565b6104ce7f34b640ba749012c70e8e7eda1c0bde9f5f1bf8c55483f5a21ba13026a115599f60001b6148cf565b8061050e576040517f08c379a000000000000000000000000000000000000000000000000000000000815260040161050590615325565b60405180910390fd5b61053a7fc8391c996bc9a496f4f2fe86858dd4531eed9019015e78eb14c1618113798da460001b6148cf565b6105667f9157b2054990cc122e198aa955191ad43fcc962bdacbe5ceb561c27538727b2060001b6148cf565b6105927fa9bec7d1daff10e5762e6b78d137ae1da4107ed8d3d3c94215f21ff9388d5c9860001b6148cf565b6105be7fff4d02835b35176ba8b674463b8f62862c39805a7a7315453ea3a7c3637e742b60001b6148cf565b6105ea7f2507df39e13437dadd22f09e9de29fc3d9864d0a910ffcc4373b011494ca67fd60001b6148cf565b60006004600085815260200190815260200160002060070160146101000a81548160ff0219169083151502179055506106457f020a27f391ae2099526980054d25f4ea033867d76f8d0fe76492de39771a7c8960001b6148cf565b6106717ff48abee25b15695fa1078a78c6e5f1b3d8d8a5c241b21499640f6401ff0b916e60001b6148cf565b61067b60026148d2565b6106a77ff45f2f6228a62358851b0e61b037b67bf18af4afb58dcb1479b31a6230151c4360001b6148cf565b600660006106b59190614a41565b505050565b60606106c4612071565b15610704576040517f08c379a00000000000000000000000000000000000000000000000000000000081526004016106fb90615391565b60405180910390fd5b6107307f937a41745cdcc963e4aeaa9c56528d06c3ba1e629726f59e8841a14a3630196460001b6148cf565b61075c7f871e5c489caf1df2f4102c9a1beace4295d3833e9f26fbfb0dd04c7d6714f59260001b6148cf565b6107887fa1fa760dd71dc291007df0adc4ec92c8d1658ed9b5e548fe2d405577ccdff76060001b6148cf565b6107b47fa98e1d32cff3c1a7b3a7424816e61fc0bf4cef092c08cf1f8d8d012b368b4a4560001b6148cf565b60001515600560003373ffffffffffffffffffffffffffffffffffffffff1673ffffffffffffffffffffffffffffffffffffffff16815260200190815260200160002060009054906101000a900460ff16151514610847576040517f08c379a000000000000000000000000000000000000000000000000000000000815260040161083e90615423565b60405180910390fd5b6108737f2abff1ce909803e5c4f1660028bef60fa268fa7a41d426a38805a1508fd2eb7460001b6148cf565b61089f7ffe7ff8e42f34670341436bf522ce31cef6c13146c85e33be37a17087498912ae60001b6148cf565b6108cb7f57390d9af238e3a6ed3644a38063427f37ca8fc486db7f72e3fe2acb8c7506fd60001b6148cf565b6108f77f65a6e3fe3114e640edbdb4dbe948ce2bf71c57a0d5d3ba8a43a959fa80920e1a60001b6148cf565b6109237fd1c2b8c927bf83aa397233e9b6cbab409f3577d89821d379a21640e2280b299860001b6148cf565b600061092f60016148e8565b905061095d7f813c7c839fdb3f5bf670cd70e028b3bc8614ab33a92d8de061ad8f8a5709324b60001b6148cf565b6109897fd091fd4f336c639768a50db3126c1d5416b1e327bb1dbdaec684d2514fa0f08660001b6148cf565b60006109b77f97fac4966bc6b949aeab748da2e9fd76eb08fe58a415867bef6813035713597260001b6148cf565b6109e37fdd2b0fb0269924ffc260cdc9c7f07efde8078849e9c650ecc0573f0725c941ae60001b6148cf565b6000610a117f63be2255b9ff62632458747d28a7b0a2e2ccd2fb0f9f821cd20f6d0954fa134f60001b6148cf565b610a3d7f46570a5d2aa13cf6a12126c7cd202ab6a581087cdc684dbf7c5cd18a5ac6fd2c60001b6148cf565b60005b83811015610bee57610a747f6d9ea1913c6e63a152c81614a09aafa847159b7fb3f3d7853f70874a09da78d860001b6148cf565b610aa07f355faf35687343d762b74ac74a507591a6505ef01a2af91e2b957b11aae8f17b60001b6148cf565b3373ffffffffffffffffffffffffffffffffffffffff1660046000600184610ac89190615472565b815260200190815260200160002060070160009054906101000a900473ffffffffffffffffffffffffffffffffffffffff1673ffffffffffffffffffffffffffffffffffffffff161415610bae57610b427fc79754e3bb7f824c8c79a26182f7be57e359d7a06b40ceda52081047fbdca98760001b6148cf565b610b6e7fa1ea889348bbd45944aec7624468efedb20f8d8e6c0d0157113d7f6e0272bbe560001b6148cf565b610b9a7f22c1ea61c3aee0e91aab5ef22a8ef1885b5117ae06b1e6dc457ced0b92ae194760001b6148cf565b600183610ba79190615472565b9250610bdb565b610bda7f216783361edc04dc21e314643db1298d20299b9256fd3461b983c43873bf0a5260001b6148cf565b5b8080610be6906154c8565b915050610a40565b50610c1b7f29aafabf0c41b0fdfca228009933d6b2d9418120d9328e07be587e290a82c8c260001b6148cf565b610c477fb095b63820e1461fd1ce8c5bd0e24191bcb3eb3f7313600a65e2c748392814fd60001b6148cf565b60008267ffffffffffffffff811115610c6357610c62615069565b5b604051908082528060200260200182016040528015610c9c57816020015b610c89614a62565b815260200190600190039081610c815790505b509050610ccb7f427c3fc0e158a528fac0e2000f33c311f51d7aa217f7fd488d5074ca73ae2a3660001b6148cf565b610cf77f6b1ef92c8248ec90b597d14998da9482c5c2eb408fa4d71bfceb43bad25c210360001b6148cf565b60005b8481101561137a57610d2e7f18f32c4c64136d9d239ef288f437f443d67a4757be1735e188863b84dc16260260001b6148cf565b610d5a7f84ef35eaab8e78fc87d743d7228db48143e26105e21555791b616f05b260d00560001b6148cf565b3373ffffffffffffffffffffffffffffffffffffffff1660046000600184610d829190615472565b815260200190815260200160002060070160009054906101000a900473ffffffffffffffffffffffffffffffffffffffff1673ffffffffffffffffffffffffffffffffffffffff16141561133a57610dfc7f1940b8dcf67b57a71fe8eb43969adf3e6aa7e96810858fa82c4ffd8aa0178c9360001b6148cf565b610e287fb617325e836d8f2abb62ad84246ae2b34eed85866e5ccdf6060ea9a45b01483660001b6148cf565b610e547fe20ee470a9797f306b52c48cfb5a8f5a816447e1d025b29f78c84874fac01e9360001b6148cf565b600060046000600184610e679190615472565b8152602001908152602001600020600001549050610ea77f914649de753635d96df8f6840e1060167bf06e18df8ff1b1f89ac04a54ad7de160001b6148cf565b610ed37fd8fe27c0d8fbc24b355c23a5c3578cd5e5f34af889175ed60cd67514cb8df19e60001b6148cf565b6000600460008381526020019081526020016000209050610f167fb56da8d3abab7baf076a17dab5bb4a32dae195143b33a7b79bc64241e8c4ebb160001b6148cf565b610f427f2e4f296708fd099c4cf78f9619eb1725bf1b212ece1285a8419fc10cd59b888960001b6148cf565b806040518061012001604052908160008201548152602001600182018054610f6990615540565b80601f0160208091040260200160405190810160405280929190818152602001828054610f9590615540565b8015610fe25780601f10610fb757610100808354040283529160200191610fe2565b820191906000526020600020905b815481529060010190602001808311610fc557829003601f168201915b50505050508152602001600282018054610ffb90615540565b80601f016020809104026020016040519081016040528092919081815260200182805461102790615540565b80156110745780601f1061104957610100808354040283529160200191611074565b820191906000526020600020905b81548152906001019060200180831161105757829003601f168201915b5050505050815260200160038201805461108d90615540565b80601f01602080910402602001604051908101604052809291908181526020018280546110b990615540565b80156111065780601f106110db57610100808354040283529160200191611106565b820191906000526020600020905b8154815290600101906020018083116110e957829003601f168201915b5050505050815260200160048201805461111f90615540565b80601f016020809104026020016040519081016040528092919081815260200182805461114b90615540565b80156111985780601f1061116d57610100808354040283529160200191611198565b820191906000526020600020905b81548152906001019060200180831161117b57829003601f168201915b505050505081526020016005820180546111b190615540565b80601f01602080910402602001604051908101604052809291908181526020018280546111dd90615540565b801561122a5780601f106111ff5761010080835404028352916020019161122a565b820191906000526020600020905b81548152906001019060200180831161120d57829003601f168201915b50505050508152602001600682015481526020016007820160009054906101000a900473ffffffffffffffffffffffffffffffffffffffff1673ffffffffffffffffffffffffffffffffffffffff1673ffffffffffffffffffffffffffffffffffffffff1681526020016007820160149054906101000a900460ff1615151515815250508486815181106112c1576112c0615572565b5b60200260200101819052506112f87f72b8528fae6320c6df81d793684ac8c2ab61b96f7dfcf893d2b73b93a462b2de60001b6148cf565b6113247f7b01011344049133ed427277e21a0bcff85cb73460dc0a20841889c55e4fef7960001b6148cf565b6001856113319190615472565b94505050611367565b6113667f59cb72882a9d07d7ece1403ccc426f904f01ef1bfa687681aa54a3c43260fc5e60001b6148cf565b5b8080611372906154c8565b915050610cfa565b506113a77fdccd5d753e1a3691c31fb13cee8880fa895153054ec1191eda8885299f57fad360001b6148cf565b6113d37f711d914f57bf1e5ee110223315cb9828ee6506cccade55d2d403fc61dcbb5dea60001b6148cf565b8094505050505090565b3361140a7fa5bb85a5119ca86e9e3af02de1ef2a585180966b3160162a8b02cf88e513b66560001b6148cf565b6114367f4798711d4b0931d93995d2f59f0416b64a23679f6d50f9aa44ebe1f2a9b103b760001b6148cf565b6114627f4cf96d3db4ff9e59fd4f0786ed78723169369eaf8c64998117140bbcb895f94860001b6148cf565b6000600360008373ffffffffffffffffffffffffffffffffffffffff1673ffffffffffffffffffffffffffffffffffffffff16815260200190815260200160002060009054906101000a900460ff1690506114df7f652b750775c89bf16905fb12f13344373bcf93ad9620c84d6b3b99ffef423ea760001b6148cf565b61150b7fa9066c4d38ff22af42f93efb3e5d2ae17235ce3108403b10e35c72b91be299e560001b6148cf565b6115377f34b640ba749012c70e8e7eda1c0bde9f5f1bf8c55483f5a21ba13026a115599f60001b6148cf565b80611577576040517f08c379a000000000000000000000000000000000000000000000000000000000815260040161156e90615325565b60405180910390fd5b6115a37fc8391c996bc9a496f4f2fe86858dd4531eed9019015e78eb14c1618113798da460001b6148cf565b6115cf7f9157b2054990cc122e198aa955191ad43fcc962bdacbe5ceb561c27538727b2060001b6148cf565b6115fb7fb1ec65587eb13fcb4efadb889a324a13da1cbe3416e4f95e6a149d954ddb54c960001b6148cf565b6116277f757a3d084da2ba595b68c7526463c20e46e8ba0a131e7e32c0c2e94fb3bcd5ba60001b6148cf565b6116537f14c2985b0bfc98b37d58603221260305d6a654e06bb570c09402088e25bbceda60001b6148cf565b61165b6148f6565b5050565b60003361168e7fa5bb85a5119ca86e9e3af02de1ef2a585180966b3160162a8b02cf88e513b66560001b6148cf565b6116ba7f4798711d4b0931d93995d2f59f0416b64a23679f6d50f9aa44ebe1f2a9b103b760001b6148cf565b6116e67f4cf96d3db4ff9e59fd4f0786ed78723169369eaf8c64998117140bbcb895f94860001b6148cf565b6000600360008373ffffffffffffffffffffffffffffffffffffffff1673ffffffffffffffffffffffffffffffffffffffff16815260200190815260200160002060009054906101000a900460ff1690506117637f652b750775c89bf16905fb12f13344373bcf93ad9620c84d6b3b99ffef423ea760001b6148cf565b61178f7fa9066c4d38ff22af42f93efb3e5d2ae17235ce3108403b10e35c72b91be299e560001b6148cf565b6117bb7f34b640ba749012c70e8e7eda1c0bde9f5f1bf8c55483f5a21ba13026a115599f60001b6148cf565b806117fb576040517f08c379a00000000000000000000000000000000000000000000000000000000081526004016117f290615325565b60405180910390fd5b6118277fc8391c996bc9a496f4f2fe86858dd4531eed9019015e78eb14c1618113798da460001b6148cf565b6118537f9157b2054990cc122e198aa955191ad43fcc962bdacbe5ceb561c27538727b2060001b6148cf565b61187f7fb8ed80d75dacb2637363d180cddfd592e6e9fd0f1b921a38ecd287948496cdc160001b6148cf565b6118ab7fb2eaf8d14a7b5fa0a91e783008b2899040db61d6f60a63354354fedf41cef1f060001b6148cf565b6118d77fa71861a84ef8debfdad47ad68c4ecc3d0388be2ba20c4493e1722d3a12ca5c0260001b6148cf565b6001600560008673ffffffffffffffffffffffffffffffffffffffff1673ffffffffffffffffffffffffffffffffffffffff16815260200190815260200160002060006101000a81548160ff02191690831515021790555061195b7f274ebf921ab4fc73df9c08d1220569c99db8e72c31904652759e3eab3d367ac460001b6148cf565b6119877f42c23a7a1ee83a7953d19bce44d891081eedf2bc5f106bfff66607b1a063af0f60001b6148cf565b600192505050919050565b61199a612071565b156119da576040517f08c379a00000000000000000000000000000000000000000000000000000000081526004016119d190615391565b60405180910390fd5b33611a077fa5bb85a5119ca86e9e3af02de1ef2a585180966b3160162a8b02cf88e513b66560001b6148cf565b611a337f4798711d4b0931d93995d2f59f0416b64a23679f6d50f9aa44ebe1f2a9b103b760001b6148cf565b611a5f7f4cf96d3db4ff9e59fd4f0786ed78723169369eaf8c64998117140bbcb895f94860001b6148cf565b6000600360008373ffffffffffffffffffffffffffffffffffffffff1673ffffffffffffffffffffffffffffffffffffffff16815260200190815260200160002060009054906101000a900460ff169050611adc7f652b750775c89bf16905fb12f13344373bcf93ad9620c84d6b3b99ffef423ea760001b6148cf565b611b087fa9066c4d38ff22af42f93efb3e5d2ae17235ce3108403b10e35c72b91be299e560001b6148cf565b611b347f34b640ba749012c70e8e7eda1c0bde9f5f1bf8c55483f5a21ba13026a115599f60001b6148cf565b80611b74576040517f08c379a0000000000000000000000000000000000000000000000000000000008152600401611b6b90615325565b60405180910390fd5b611ba07fc8391c996bc9a496f4f2fe86858dd4531eed9019015e78eb14c1618113798da460001b6148cf565b611bcc7f9157b2054990cc122e198aa955191ad43fcc962bdacbe5ceb561c27538727b2060001b6148cf565b611bf87fadf1732f50d52e7490ac9685eac831c3c324acde0f76e845d26b3e74b933940960001b6148cf565b611c247f19327d1114e91c5287ad12d609e3fc40510d844ec3e2f23bd6a2c14fefe021ba60001b6148cf565b611c507f0d35449d5beed9813f0ccf81c13ed5d38b6cfa8e54808946601ab5c2b959f20860001b6148cf565b6000600360008573ffffffffffffffffffffffffffffffffffffffff1673ffffffffffffffffffffffffffffffffffffffff16815260200190815260200160002060006101000a81548160ff021916908315150217905550611cd47fc237b2d92643183ca0717f1ce3fe44e5e579a5cbe72a5bd25b2bc867422aceb960001b6148cf565b611d007f9df9b0e12b6f9d106dd83756cd497ba4ab940ee161d0ffa92179d73122234d8b60001b6148cf565b7f21e8741435b5373014087a70641e17e7139c8f3ecffbc070c83ca921e5f06ab53384604051611d319291906155a1565b60405180910390a1505050565b600033611d6d7fa5bb85a5119ca86e9e3af02de1ef2a585180966b3160162a8b02cf88e513b66560001b6148cf565b611d997f4798711d4b0931d93995d2f59f0416b64a23679f6d50f9aa44ebe1f2a9b103b760001b6148cf565b611dc57f4cf96d3db4ff9e59fd4f0786ed78723169369eaf8c64998117140bbcb895f94860001b6148cf565b6000600360008373ffffffffffffffffffffffffffffffffffffffff1673ffffffffffffffffffffffffffffffffffffffff16815260200190815260200160002060009054906101000a900460ff169050611e427f652b750775c89bf16905fb12f13344373bcf93ad9620c84d6b3b99ffef423ea760001b6148cf565b611e6e7fa9066c4d38ff22af42f93efb3e5d2ae17235ce3108403b10e35c72b91be299e560001b6148cf565b611e9a7f34b640ba749012c70e8e7eda1c0bde9f5f1bf8c55483f5a21ba13026a115599f60001b6148cf565b80611eda576040517f08c379a0000000000000000000000000000000000000000000000000000000008152600401611ed190615325565b60405180910390fd5b611f067fc8391c996bc9a496f4f2fe86858dd4531eed9019015e78eb14c1618113798da460001b6148cf565b611f327f9157b2054990cc122e198aa955191ad43fcc962bdacbe5ceb561c27538727b2060001b6148cf565b611f5e7f8d8bea3c65bca62e78a81ac5d37091670ae637d37736045932fb9739b21c9dc160001b6148cf565b611f8a7faf2bb3d4e7fa6d39a593ca560dbd8554caece7344977687e32ba10b5003513a460001b6148cf565b611fb67f291269a2ffb4e1d3d23e420236c3cec8c7c5bb03fda6c0527f22425e3320f3c660001b6148cf565b6000600560008673ffffffffffffffffffffffffffffffffffffffff1673ffffffffffffffffffffffffffffffffffffffff16815260200190815260200160002060006101000a81548160ff02191690831515021790555061203a7f55f10ff814687444cc7ce4cdc467f799452b99af1a690a596c59080a5c6900f860001b6148cf565b6120667fb19a1c7a6bcdf2c29ac823fb40b81b22993796d720a7a5184e08cce4ed53d3ae60001b6148cf565b600192505050919050565b60008060009054906101000a900460ff16905090565b61208f612071565b156120cf576040517f08c379a00000000000000000000000000000000000000000000000000000000081526004016120c690615391565b60405180910390fd5b6120fb7f937a41745cdcc963e4aeaa9c56528d06c3ba1e629726f59e8841a14a3630196460001b6148cf565b6121277f871e5c489caf1df2f4102c9a1beace4295d3833e9f26fbfb0dd04c7d6714f59260001b6148cf565b6121537fa1fa760dd71dc291007df0adc4ec92c8d1658ed9b5e548fe2d405577ccdff76060001b6148cf565b61217f7fa98e1d32cff3c1a7b3a7424816e61fc0bf4cef092c08cf1f8d8d012b368b4a4560001b6148cf565b60001515600560003373ffffffffffffffffffffffffffffffffffffffff1673ffffffffffffffffffffffffffffffffffffffff16815260200190815260200160002060009054906101000a900460ff16151514612212576040517f08c379a000000000000000000000000000000000000000000000000000000000815260040161220990615423565b60405180910390fd5b61223e7f2abff1ce909803e5c4f1660028bef60fa268fa7a41d426a38805a1508fd2eb7460001b6148cf565b61226a7ffe7ff8e42f34670341436bf522ce31cef6c13146c85e33be37a17087498912ae60001b6148cf565b6122967fc8395aaea5632f16234ea7f231dcd26b223e32fda2f204185c4d128ef37fb56760001b6148cf565b6122c27fcc4de5b203c31a376da31e488dbf7af6e83e6123d0bdbf1de6cd9872625600a660001b6148cf565b6122ee7f18354d62c15d11dbb36a56f5d3bfc9248b267fe1d6c35ce87ba64eb240d7519360001b6148cf565b61231a7f3bfd5514c87cfa97f1f14bed571c185bcf510acac67cff29719e48d44a0fa4fa60001b6148cf565b3373ffffffffffffffffffffffffffffffffffffffff166004600083815260200190815260200160002060070160009054906101000a900473ffffffffffffffffffffffffffffffffffffffff1673ffffffffffffffffffffffffffffffffffffffff1614806123d35750600360003373ffffffffffffffffffffffffffffffffffffffff1673ffffffffffffffffffffffffffffffffffffffff16815260200190815260200160002060009054906101000a900460ff165b612412576040517f08c379a00000000000000000000000000000000000000000000000000000000081526004016124099061563c565b60405180910390fd5b61243e7f58c461e6295a1a79d5c8590639add87cf6ab1bb4cee3b2bc547efcfd434ccedb60001b6148cf565b61246a7ff0dc5de74b18d44e42746b7a13010b13fadd73da25ebc4a41d4f74bee68c98e060001b6148cf565b6124967fa9170ccfc290fb983981fa1c8365ef817c10bd177467f71672d4e08ef4e4cc7060001b6148cf565b60006004600083815260200190815260200160002060070160146101000a81548160ff0219169083151502179055506124f17fedcf4f878f86037ecdd5aa00d018b9129d90f18862940cf3e99955166ab64d7360001b6148cf565b61251d7fdfebe2c75f2dfccfefc3fd9743afc15e938f530ddcd409c93c3751af5b3da65760001b6148cf565b61252760026148d2565b50565b336125577fa5bb85a5119ca86e9e3af02de1ef2a585180966b3160162a8b02cf88e513b66560001b6148cf565b6125837f4798711d4b0931d93995d2f59f0416b64a23679f6d50f9aa44ebe1f2a9b103b760001b6148cf565b6125af7f4cf96d3db4ff9e59fd4f0786ed78723169369eaf8c64998117140bbcb895f94860001b6148cf565b6000600360008373ffffffffffffffffffffffffffffffffffffffff1673ffffffffffffffffffffffffffffffffffffffff16815260200190815260200160002060009054906101000a900460ff16905061262c7f652b750775c89bf16905fb12f13344373bcf93ad9620c84d6b3b99ffef423ea760001b6148cf565b6126587fa9066c4d38ff22af42f93efb3e5d2ae17235ce3108403b10e35c72b91be299e560001b6148cf565b6126847f34b640ba749012c70e8e7eda1c0bde9f5f1bf8c55483f5a21ba13026a115599f60001b6148cf565b806126c4576040517f08c379a00000000000000000000000000000000000000000000000000000000081526004016126bb90615325565b60405180910390fd5b6126f07fc8391c996bc9a496f4f2fe86858dd4531eed9019015e78eb14c1618113798da460001b6148cf565b61271c7f9157b2054990cc122e198aa955191ad43fcc962bdacbe5ceb561c27538727b2060001b6148cf565b6127487fea813bad3c6b5daa8cdd67e72a3117d1178926a935fef1f0c002bfa44b59d6e460001b6148cf565b6127747fadd742d39c444ee1ed7e6d208f0847a5b8d7019ce8c36ff68838cea615fba70160001b6148cf565b6127a07f24aab32b66bb770424c117cc240e15da3a12162fa890e15754f668aec75c1e5b60001b6148cf565b6127a8614997565b5050565b6127d87fc9c3a60a2916e2bfe9494d55c53c0aa1b9270acab95dd2ac446d03489d409b9b60001b6148cf565b6128047f63a6dcac0163bb721234a457f944359e230cb9917afd65c572fe9c780fb15b8b60001b6148cf565b6128307fe25b869bf53050be77f160ab9353119cd78bbb7451dda037b26122d7cb179b8c60001b6148cf565b600681908060018154018082558091505060019003906000526020600020016000909190919091505550565b600460205280600052604060002060009150905080600001549080600101805461288590615540565b80601f01602080910402602001604051908101604052809291908181526020018280546128b190615540565b80156128fe5780601f106128d3576101008083540402835291602001916128fe565b820191906000526020600020905b8154815290600101906020018083116128e157829003601f168201915b50505050509080600201805461291390615540565b80601f016020809104026020016040519081016040528092919081815260200182805461293f90615540565b801561298c5780601f106129615761010080835404028352916020019161298c565b820191906000526020600020905b81548152906001019060200180831161296f57829003601f168201915b5050505050908060030180546129a190615540565b80601f01602080910402602001604051908101604052809291908181526020018280546129cd90615540565b8015612a1a5780601f106129ef57610100808354040283529160200191612a1a565b820191906000526020600020905b8154815290600101906020018083116129fd57829003601f168201915b505050505090806004018054612a2f90615540565b80601f0160208091040260200160405190810160405280929190818152602001828054612a5b90615540565b8015612aa85780601f10612a7d57610100808354040283529160200191612aa8565b820191906000526020600020905b815481529060010190602001808311612a8b57829003601f168201915b505050505090806005018054612abd90615540565b80601f0160208091040260200160405190810160405280929190818152602001828054612ae990615540565b8015612b365780601f10612b0b57610100808354040283529160200191612b36565b820191906000526020600020905b815481529060010190602001808311612b1957829003601f168201915b5050505050908060060154908060070160009054906101000a900473ffffffffffffffffffffffffffffffffffffffff16908060070160149054906101000a900460ff16905089565b612b87612071565b15612bc7576040517f08c379a0000000000000000000000000000000000000000000000000000000008152600401612bbe90615391565b60405180910390fd5b612bf37f937a41745cdcc963e4aeaa9c56528d06c3ba1e629726f59e8841a14a3630196460001b6148cf565b612c1f7f871e5c489caf1df2f4102c9a1beace4295d3833e9f26fbfb0dd04c7d6714f59260001b6148cf565b612c4b7fa1fa760dd71dc291007df0adc4ec92c8d1658ed9b5e548fe2d405577ccdff76060001b6148cf565b612c777fa98e1d32cff3c1a7b3a7424816e61fc0bf4cef092c08cf1f8d8d012b368b4a4560001b6148cf565b60001515600560003373ffffffffffffffffffffffffffffffffffffffff1673ffffffffffffffffffffffffffffffffffffffff16815260200190815260200160002060009054906101000a900460ff16151514612d0a576040517f08c379a0000000000000000000000000000000000000000000000000000000008152600401612d0190615423565b60405180910390fd5b612d367f2abff1ce909803e5c4f1660028bef60fa268fa7a41d426a38805a1508fd2eb7460001b6148cf565b612d627ffe7ff8e42f34670341436bf522ce31cef6c13146c85e33be37a17087498912ae60001b6148cf565b612d8e7f61a4770079a2e4484875aa3087a0d1133857d135edc73ef5713246f85438222360001b6148cf565b612dba7f57f1d9b4f2a4559db761af4fa55b520b4b0b72019f8ee3f8cae222cb6dd946a260001b6148cf565b612de67f5e68642c1b1bcf84cfe9ed5379271a05e17731bf616fa46389c3fffd8533332d60001b6148cf565b612e127fffabc0229ce7df722160080b1838bddc0c36e35e463c0b8a3efdde03a44416d260001b6148cf565b3373ffffffffffffffffffffffffffffffffffffffff166004600083815260200190815260200160002060070160009054906101000a900473ffffffffffffffffffffffffffffffffffffffff1673ffffffffffffffffffffffffffffffffffffffff1614612eb6576040517f08c379a0000000000000000000000000000000000000000000000000000000008152600401612ead9061563c565b60405180910390fd5b612ee27ffee959c32706a16f36dc2a091e007b9a1b1f8e64f806fa352e563fc891b721b260001b6148cf565b612f0e7faae6a8b75f21bd0d435ab028d16edb7199e142e40ba29795f6cce37c02a3d55660001b6148cf565b612f3a7f3e4a44f95c3f37d10521b4bff4af77171e0b79d742c121bece589bae5e33b09360001b6148cf565b60016004600083815260200190815260200160002060070160146101000a81548160ff021916908315150217905550612f957fd64029600be10f1e3eae4372c57a427e728ddbd86738fd5b4ee4d74e0a36aba760001b6148cf565b612fc17f75fd59f26ce867a43cba347dc1a0929a9cee2451072b4fe4b73287daaaea1b0b60001b6148cf565b612fcb60016148d2565b50565b60068181548110612fde57600080fd5b906000526020600020016000915090505481565b6060612ffc612071565b1561303c576040517f08c379a000000000000000000000000000000000000000000000000000000000815260040161303390615391565b60405180910390fd5b6130687f937a41745cdcc963e4aeaa9c56528d06c3ba1e629726f59e8841a14a3630196460001b6148cf565b6130947f871e5c489caf1df2f4102c9a1beace4295d3833e9f26fbfb0dd04c7d6714f59260001b6148cf565b6130c07fa1fa760dd71dc291007df0adc4ec92c8d1658ed9b5e548fe2d405577ccdff76060001b6148cf565b6130ec7fa98e1d32cff3c1a7b3a7424816e61fc0bf4cef092c08cf1f8d8d012b368b4a4560001b6148cf565b60001515600560003373ffffffffffffffffffffffffffffffffffffffff1673ffffffffffffffffffffffffffffffffffffffff16815260200190815260200160002060009054906101000a900460ff1615151461317f576040517f08c379a000000000000000000000000000000000000000000000000000000000815260040161317690615423565b60405180910390fd5b6131ab7f2abff1ce909803e5c4f1660028bef60fa268fa7a41d426a38805a1508fd2eb7460001b6148cf565b6131d77ffe7ff8e42f34670341436bf522ce31cef6c13146c85e33be37a17087498912ae60001b6148cf565b6132037f9a478400b981f07eeb94d6268892ac76e7f0224c2942d086e0887c9c48d1dafe60001b6148cf565b61322f7fad4f96bf48b67818670e194b7d704ec726af15f31ea78dfd20d63a7d51e96e7960001b6148cf565b61325b7f5893e1456b083682c5f454402e084c376279c22c249408776ee2cdeba9c98b8160001b6148cf565b600061326760016148e8565b90506132957f8fc9cf3fc1806967a65a66b437f8ca471bd9d467e04a2f7ff04f04717778873260001b6148cf565b6132c17fe8ba2e6a81a1d2d6671ecf404eaff1d5156f522feb892784cf9ebf74ecb8bfd160001b6148cf565b60006132cd60026148e8565b6132d760016148e8565b6132e1919061565c565b905061330f7f10e56c6be087b765c8eb567f00fddb7c91257141fb42d451724d20517c5eb62760001b6148cf565b61333b7fba4cf05b2d4b9b4f852ba5d4cb7eeac2eaddcac5c168797801a98b1e73bf2c4760001b6148cf565b60006133697f51ad48418baad8ffb28c34fa0c36af82af4a6aaaad4d28bdcd095a50e541242f60001b6148cf565b6133957f8ef59b19eb4395314a9c2abf4daa4715a3804db7a002f40abb0a5a741a210a0960001b6148cf565b60008267ffffffffffffffff8111156133b1576133b0615069565b5b6040519080825280602002602001820160405280156133ea57816020015b6133d7614a62565b8152602001906001900390816133cf5790505b5090506134197f0d5679a10e1df545938a262ba2935e402023bda7c624fdac8adcd3df08f2ac2a60001b6148cf565b6134457f6b7c341f94f1eba3dc668533c19aff22f79ff81f3fde9df0ac1a2dbc6bcf192b60001b6148cf565b60005b84811015613a8e5761347c7f37c1d19e5d4139fb377f8efa06f44fc5c9c48d522df5ebbeb05b1e1283722aed60001b6148cf565b6134a87f9e264266fc85840237d9aa33810450658494b0b2929eef2b2380a46b0dd5c71360001b6148cf565b60011515600460006001846134bd9190615472565b815260200190815260200160002060070160149054906101000a900460ff1615151415613a4e576135107f61cb970250b1259ff7895fc80f9bd8e2db1796a177a0bf8e2aeb8a117241b72c60001b6148cf565b61353c7fa4814b16aaa1569e0805affdcddbef234ced031b3c02909d7fe6787e08abf0fe60001b6148cf565b6135687f1c15233e502aeca8357251f66ef233018691f37005980ff0b42d526dc03d775b60001b6148cf565b60006004600060018461357b9190615472565b81526020019081526020016000206000015490506135bb7fe7d96fda8fd87afdbf9c7eaec86b29c8fbab36ce3ffe80c1fcdf841611fa174260001b6148cf565b6135e77f48e266a3cac21039bdeb1b916cd852af5f644a15b5231ef841f1f3eee5048f3a60001b6148cf565b600060046000838152602001908152602001600020905061362a7f606f7ff12faa21e427487493d9e5c85cc9f2244da0cc209c8f635440ce86e4e160001b6148cf565b6136567fd670cc6df52c0c309a0a3f029d0063117dd81902dacdf1a651069117bd44a0d260001b6148cf565b80604051806101200160405290816000820154815260200160018201805461367d90615540565b80601f01602080910402602001604051908101604052809291908181526020018280546136a990615540565b80156136f65780601f106136cb576101008083540402835291602001916136f6565b820191906000526020600020905b8154815290600101906020018083116136d957829003601f168201915b5050505050815260200160028201805461370f90615540565b80601f016020809104026020016040519081016040528092919081815260200182805461373b90615540565b80156137885780601f1061375d57610100808354040283529160200191613788565b820191906000526020600020905b81548152906001019060200180831161376b57829003601f168201915b505050505081526020016003820180546137a190615540565b80601f01602080910402602001604051908101604052809291908181526020018280546137cd90615540565b801561381a5780601f106137ef5761010080835404028352916020019161381a565b820191906000526020600020905b8154815290600101906020018083116137fd57829003601f168201915b5050505050815260200160048201805461383390615540565b80601f016020809104026020016040519081016040528092919081815260200182805461385f90615540565b80156138ac5780601f10613881576101008083540402835291602001916138ac565b820191906000526020600020905b81548152906001019060200180831161388f57829003601f168201915b505050505081526020016005820180546138c590615540565b80601f01602080910402602001604051908101604052809291908181526020018280546138f190615540565b801561393e5780601f106139135761010080835404028352916020019161393e565b820191906000526020600020905b81548152906001019060200180831161392157829003601f168201915b50505050508152602001600682015481526020016007820160009054906101000a900473ffffffffffffffffffffffffffffffffffffffff1673ffffffffffffffffffffffffffffffffffffffff1673ffffffffffffffffffffffffffffffffffffffff1681526020016007820160149054906101000a900460ff1615151515815250508486815181106139d5576139d4615572565b5b6020026020010181905250613a0c7fea34be4f3b03a41a626baba4c6f87a59c45929c205bc22bd8cd0ff48a3b9639360001b6148cf565b613a387f7dc32079e4b8c27ef982af5619bcf82521511362ea7986c17c4d8a4b2fa14d4a60001b6148cf565b600185613a459190615472565b94505050613a7b565b613a7a7f8da63c565b63de6e6c5fcf276c98d63070dc0495243247683e17a9c6705f794560001b6148cf565b5b8080613a86906154c8565b915050613448565b50613abb7fe19dc9af81006bf61fa53f41c8b5a996cd7e40ef81fcfec51fd2dc87a1c0638160001b6148cf565b613ae77f95ca205a5b4063a87265a81c995a02510943cea7676b076d04adc7f6d067336e60001b6148cf565b8094505050505090565b60036020528060005260406000206000915054906101000a900460ff1681565b613b19612071565b15613b59576040517f08c379a0000000000000000000000000000000000000000000000000000000008152600401613b5090615391565b60405180910390fd5b33613b867fa5bb85a5119ca86e9e3af02de1ef2a585180966b3160162a8b02cf88e513b66560001b6148cf565b613bb27f4798711d4b0931d93995d2f59f0416b64a23679f6d50f9aa44ebe1f2a9b103b760001b6148cf565b613bde7f4cf96d3db4ff9e59fd4f0786ed78723169369eaf8c64998117140bbcb895f94860001b6148cf565b6000600360008373ffffffffffffffffffffffffffffffffffffffff1673ffffffffffffffffffffffffffffffffffffffff16815260200190815260200160002060009054906101000a900460ff169050613c5b7f652b750775c89bf16905fb12f13344373bcf93ad9620c84d6b3b99ffef423ea760001b6148cf565b613c877fa9066c4d38ff22af42f93efb3e5d2ae17235ce3108403b10e35c72b91be299e560001b6148cf565b613cb37f34b640ba749012c70e8e7eda1c0bde9f5f1bf8c55483f5a21ba13026a115599f60001b6148cf565b80613cf3576040517f08c379a0000000000000000000000000000000000000000000000000000000008152600401613cea90615325565b60405180910390fd5b613d1f7fc8391c996bc9a496f4f2fe86858dd4531eed9019015e78eb14c1618113798da460001b6148cf565b613d4b7f9157b2054990cc122e198aa955191ad43fcc962bdacbe5ceb561c27538727b2060001b6148cf565b613d777f6e156c6d02c417b2dd5c738cdc1fca4c2fa42b79fbff42d744639cc298e8188c60001b6148cf565b613da37f65701e6d0a692534f3b6916c7a19185e2e35861487f124fe80b5a96e4a46364960001b6148cf565b613dcf7fa2680ca14c711da805454fadba8425f6ac1afb752f631e84cd5b9d48be48817160001b6148cf565b6001600360008573ffffffffffffffffffffffffffffffffffffffff1673ffffffffffffffffffffffffffffffffffffffff16815260200190815260200160002060006101000a81548160ff021916908315150217905550613e537f0de3d7fe5c033bbbc1313d20fbba221e374dda08705141244d3bb2c9e7135cc760001b6148cf565b613e7f7f4c82012c282f95dd09f9ae7b8925126aac7b33f3b22ba5be0eccf89df6e1938e60001b6148cf565b7fb5dd25a9cfca5e08f42d8aa38af875754ee83968a096a48442d6af229d64de653384604051613eb09291906155a1565b60405180910390a1505050565b613ec5612071565b15613f05576040517f08c379a0000000000000000000000000000000000000000000000000000000008152600401613efc90615391565b60405180910390fd5b613f317f937a41745cdcc963e4aeaa9c56528d06c3ba1e629726f59e8841a14a3630196460001b6148cf565b613f5d7f871e5c489caf1df2f4102c9a1beace4295d3833e9f26fbfb0dd04c7d6714f59260001b6148cf565b613f897fa1fa760dd71dc291007df0adc4ec92c8d1658ed9b5e548fe2d405577ccdff76060001b6148cf565b613fb57fa98e1d32cff3c1a7b3a7424816e61fc0bf4cef092c08cf1f8d8d012b368b4a4560001b6148cf565b60001515600560003373ffffffffffffffffffffffffffffffffffffffff1673ffffffffffffffffffffffffffffffffffffffff16815260200190815260200160002060009054906101000a900460ff16151514614048576040517f08c379a000000000000000000000000000000000000000000000000000000000815260040161403f90615423565b60405180910390fd5b6140747f2abff1ce909803e5c4f1660028bef60fa268fa7a41d426a38805a1508fd2eb7460001b6148cf565b6140a07ffe7ff8e42f34670341436bf522ce31cef6c13146c85e33be37a17087498912ae60001b6148cf565b6140cc7fceb37f9c5c59f2ac0291ec5ad35c940dd658ae8577245ad60efdfcddfe8f214a60001b6148cf565b6140f87ff01314edd9e9b9a79ed3bf297eb8b286bddef8e7929dbe572cd99f069fb7625660001b6148cf565b6141247f5554dbfd386c0e9cbe23dafac484d99176d6d345dbf67b10028f68d0696ed78860001b6148cf565b6141507f10dfe6cf3ba881d0fea5a75cce2da3fc398cbc0375bb1f4985d54c90bb9bb0a360001b6148cf565b600086511161415e57600080fd5b61418a7f7a00e27dd062e815c0da178689580648c54a22059c10fafc59cecd279107111660001b6148cf565b6141b67fdcb9cbfb36201bc22d81ad26f18a29cde25f7bf7831fb8c4796d1d61c08758c760001b6148cf565b6141e27f6a48a8542343b264007340e2041735606f5ee053a5cbfe58976cb0db92693eab60001b6148cf565b61420e7f1b10a91ba76293736f9a08f0fb0026006bd6b2aa0cb8c42a5ddd18f12f7e623360001b6148cf565b600084511161421c57600080fd5b6142487f4a31445efc35d09810dbe90fd3de10bb9567eae131cd7ab09b46dabdd309b7e160001b6148cf565b6142747fc5d56a775cb309e7f193b174981183939e0261cf1775d9fffd02eb07e5e36b7360001b6148cf565b6142a07fbb3780db46ed461c1b2c71229df9c175e561ee8242f1e5f5036ecce952fdcd2060001b6148cf565b6142cc7fd04fb45a0fa8dfac6d0aa6bd148db70b06713d7ac863a0d4bfa94d9bc0aeafed60001b6148cf565b60008251116142da57600080fd5b6143067f43c27c21360083da65a8a0407d3432c541aae9f28288e8225135f20018d8b39660001b6148cf565b6143327f7f462317f261a93ee365115aa80cb5390eed2658f8a66d8f7166e92bcc1a6d4860001b6148cf565b61435e7fea013835e3a52a36632c255c7730c435feac135d7e1e808f2123c411d88efe0f60001b6148cf565b61438a7f4b5f96322dddc5cf6dcac4246a9bb1ffc1864da4941607ce7f76e350d8ab1b1960001b6148cf565b600083511161439857600080fd5b6143c47f2ffd6d882c60012d6b622313faf60da089f7be2146d7fbbf719b2e018096e44460001b6148cf565b6143f07ff0abdc9ed00a6a3b0d1e370f2414e928de07b0a5414d1ff6dd096b8e33d3145f60001b6148cf565b61441c7f685057f088523c796200e63b18474edd3c918cbe3938a87b3e54365978e8098860001b6148cf565b6144487f1d457fdd0fbd4df3f5ce4dc565d4a6abc2618d927426fbb9d6a078923679d1f960001b6148cf565b600073ffffffffffffffffffffffffffffffffffffffff163373ffffffffffffffffffffffffffffffffffffffff16141561448257600080fd5b6144ae7fa1888d164ba5c963985e426c894e97d71e83086b73a527d43aee4931de902dbf60001b6148cf565b6144da7f91f6944943cb3ae465448a4d17b0c6a0c2c0802788057fa92401d426b8d4724160001b6148cf565b6145067f362acaf3094395faae7ffcdc915c4e60392876399ad6df9860f3b4ec0bdda6a460001b6148cf565b6145327f13dc9c2e62cbc59e716c2b21be936e14eab197c07c9383ab219607e36390d15060001b6148cf565b600085511161454057600080fd5b61456c7f0e6cdbd7a85f2d50334ff8df5d461c933936f02495b9124a4fc662d8b830662360001b6148cf565b6145987fee3a90e51f79145dff695993bab9c1b2d7a8ab63ce342c401472885cbe2e313e60001b6148cf565b6145c47f4fd61f26df616e3b806a97b843e9f286d881bfaee9fdcc224808569f5e9c938160001b6148cf565b6145ce60016148d2565b6145fa7fb12abf75e93539a65be66d6b5cb485d7e8d3500ed7b9f69f927e2a2ee1b62a5a60001b6148cf565b6146267f197b1790e572a95fb006802cb75f15387553d8c274daef543e142d3668e468b160001b6148cf565b600061463260016148e8565b90506146607f2d018a55f1c3e15f6d73612142a72d6833008136c1f1b6b05c8ab2c334455a0660001b6148cf565b61468c7fa72e326ce3fc53a30a5bdc92fee8d3bfbb657ca5cfc6d6601df64f3acf1eea3160001b6148cf565b6040518061012001604052808281526020018881526020018781526020018681526020018581526020018481526020014281526020013373ffffffffffffffffffffffffffffffffffffffff1681526020018315158152506004600083815260200190815260200160002060008201518160000155602082015181600101908051906020019061471d929190614ac6565b50604082015181600201908051906020019061473a929190614ac6565b506060820151816003019080519060200190614757929190614ac6565b506080820151816004019080519060200190614774929190614ac6565b5060a0820151816005019080519060200190614791929190614ac6565b5060c0820151816006015560e08201518160070160006101000a81548173ffffffffffffffffffffffffffffffffffffffff021916908373ffffffffffffffffffffffffffffffffffffffff1602179055506101008201518160070160146101000a81548160ff0219169083151502179055509050506148337f23283805cd5af2d253eac30ce7c0eff6a54e3dd1c78230d2953d51a5e4e400c460001b6148cf565b61485f7f530a1aa7de9627c6b9e53c94e101eccb958937ce231017c62cb376e673a4d85160001b6148cf565b7f15685dbf79e7181ae33d4610b737556e08e88cd73cd97d994292e1699d09d0f381888888888842338a60405161489e99989796959493929190614f94565b60405180910390a150505050505050565b60056020528060005260406000206000915054906101000a900460ff1681565b50565b6001816000016000828254019250508190555050565b600081600001549050919050565b6148fe612071565b61493d576040517f08c379a0000000000000000000000000000000000000000000000000000000008152600401614934906156dc565b60405180910390fd5b60008060006101000a81548160ff0219169083151502179055507f5db9ee0a495bf2e6ff9c91a7834c1ba4fdd244a5e8aa4e537bd38aeae4b073aa614980614a39565b60405161498d91906156fc565b60405180910390a1565b61499f612071565b156149df576040517f08c379a00000000000000000000000000000000000000000000000000000000081526004016149d690615391565b60405180910390fd5b60016000806101000a81548160ff0219169083151502179055507f62e78cea01bee320cd4e420270b5ea74000d11b0c9f74754ebdbfc544b05a258614a22614a39565b604051614a2f91906156fc565b60405180910390a1565b600033905090565b5080546000825590600052602060002090810190614a5f9190614b4c565b50565b60405180610120016040528060008152602001606081526020016060815260200160608152602001606081526020016060815260200160008152602001600073ffffffffffffffffffffffffffffffffffffffff1681526020016000151581525090565b828054614ad290615540565b90600052602060002090601f016020900481019282614af45760008555614b3b565b82601f10614b0d57805160ff1916838001178555614b3b565b82800160010185558215614b3b579182015b82811115614b3a578251825591602001919060010190614b1f565b5b509050614b489190614b4c565b5090565b5b80821115614b65576000816000905550600101614b4d565b5090565b6000604051905090565b600080fd5b600080fd5b6000819050919050565b614b9081614b7d565b8114614b9b57600080fd5b50565b600081359050614bad81614b87565b92915050565b600060208284031215614bc957614bc8614b73565b5b6000614bd784828501614b9e565b91505092915050565b600081519050919050565b600082825260208201905092915050565b6000819050602082019050919050565b614c1581614b7d565b82525050565b600081519050919050565b600082825260208201905092915050565b60005b83811015614c55578082015181840152602081019050614c3a565b83811115614c64576000848401525b50505050565b6000601f19601f8301169050919050565b6000614c8682614c1b565b614c908185614c26565b9350614ca0818560208601614c37565b614ca981614c6a565b840191505092915050565b600073ffffffffffffffffffffffffffffffffffffffff82169050919050565b6000614cdf82614cb4565b9050919050565b614cef81614cd4565b82525050565b60008115159050919050565b614d0a81614cf5565b82525050565b600061012083016000830151614d296000860182614c0c565b5060208301518482036020860152614d418282614c7b565b91505060408301518482036040860152614d5b8282614c7b565b91505060608301518482036060860152614d758282614c7b565b91505060808301518482036080860152614d8f8282614c7b565b91505060a083015184820360a0860152614da98282614c7b565b91505060c0830151614dbe60c0860182614c0c565b5060e0830151614dd160e0860182614ce6565b50610100830151614de6610100860182614d01565b508091505092915050565b6000614dfd8383614d10565b905092915050565b6000602082019050919050565b6000614e1d82614be0565b614e278185614beb565b935083602082028501614e3985614bfc565b8060005b85811015614e755784840389528151614e568582614df1565b9450614e6183614e05565b925060208a01995050600181019050614e3d565b50829750879550505050505092915050565b60006020820190508181036000830152614ea18184614e12565b905092915050565b614eb281614cd4565b8114614ebd57600080fd5b50565b600081359050614ecf81614ea9565b92915050565b600060208284031215614eeb57614eea614b73565b5b6000614ef984828501614ec0565b91505092915050565b614f0b81614cf5565b82525050565b6000602082019050614f266000830184614f02565b92915050565b614f3581614b7d565b82525050565b600082825260208201905092915050565b6000614f5782614c1b565b614f618185614f3b565b9350614f71818560208601614c37565b614f7a81614c6a565b840191505092915050565b614f8e81614cd4565b82525050565b600061012082019050614faa600083018c614f2c565b8181036020830152614fbc818b614f4c565b90508181036040830152614fd0818a614f4c565b90508181036060830152614fe48189614f4c565b90508181036080830152614ff88188614f4c565b905081810360a083015261500c8187614f4c565b905061501b60c0830186614f2c565b61502860e0830185614f85565b615036610100830184614f02565b9a9950505050505050505050565b60006020820190506150596000830184614f2c565b92915050565b600080fd5b600080fd5b7f4e487b7100000000000000000000000000000000000000000000000000000000600052604160045260246000fd5b6150a182614c6a565b810181811067ffffffffffffffff821117156150c0576150bf615069565b5b80604052505050565b60006150d3614b69565b90506150df8282615098565b919050565b600067ffffffffffffffff8211156150ff576150fe615069565b5b61510882614c6a565b9050602081019050919050565b82818337600083830152505050565b6000615137615132846150e4565b6150c9565b90508281526020810184848401111561515357615152615064565b5b61515e848285615115565b509392505050565b600082601f83011261517b5761517a61505f565b5b813561518b848260208601615124565b91505092915050565b61519d81614cf5565b81146151a857600080fd5b50565b6000813590506151ba81615194565b92915050565b60008060008060008060c087890312156151dd576151dc614b73565b5b600087013567ffffffffffffffff8111156151fb576151fa614b78565b5b61520789828a01615166565b965050602087013567ffffffffffffffff81111561522857615227614b78565b5b61523489828a01615166565b955050604087013567ffffffffffffffff81111561525557615254614b78565b5b61526189828a01615166565b945050606087013567ffffffffffffffff81111561528257615281614b78565b5b61528e89828a01615166565b935050608087013567ffffffffffffffff8111156152af576152ae614b78565b5b6152bb89828a01615166565b92505060a06152cc89828a016151ab565b9150509295509295509295565b7f4f6e6c79204d6f64657261746f72732048617665204163636573732100000000600082015250565b600061530f601c83614f3b565b915061531a826152d9565b602082019050919050565b6000602082019050818103600083015261533e81615302565b9050919050565b7f5061757361626c653a2070617573656400000000000000000000000000000000600082015250565b600061537b601083614f3b565b915061538682615345565b602082019050919050565b600060208201905081810360008301526153aa8161536e565b9050919050565b7f416464726573732069732063757272656e746c7920426c61636b6c697374656460008201527f2e2e000000000000000000000000000000000000000000000000000000000000602082015250565b600061540d602283614f3b565b9150615418826153b1565b604082019050919050565b6000602082019050818103600083015261543c81615400565b9050919050565b7f4e487b7100000000000000000000000000000000000000000000000000000000600052601160045260246000fd5b600061547d82614b7d565b915061548883614b7d565b9250827fffffffffffffffffffffffffffffffffffffffffffffffffffffffffffffffff038211156154bd576154bc615443565b5b828201905092915050565b60006154d382614b7d565b91507fffffffffffffffffffffffffffffffffffffffffffffffffffffffffffffffff82141561550657615505615443565b5b600182019050919050565b7f4e487b7100000000000000000000000000000000000000000000000000000000600052602260045260246000fd5b6000600282049050600182168061555857607f821691505b6020821081141561556c5761556b615511565b5b50919050565b7f4e487b7100000000000000000000000000000000000000000000000000000000600052603260045260246000fd5b60006040820190506155b66000830185614f85565b6155c36020830184614f85565b9392505050565b7f796f752063616e206f6e6c79206d616e6970756c61746520796f7572206f776e60008201527f2066696c65000000000000000000000000000000000000000000000000000000602082015250565b6000615626602583614f3b565b9150615631826155ca565b604082019050919050565b6000602082019050818103600083015261565581615619565b9050919050565b600061566782614b7d565b915061567283614b7d565b92508282101561568557615684615443565b5b828203905092915050565b7f5061757361626c653a206e6f7420706175736564000000000000000000000000600082015250565b60006156c6601483614f3b565b91506156d182615690565b602082019050919050565b600060208201905081810360008301526156f5816156b9565b9050919050565b60006020820190506157116000830184614f85565b9291505056fea2646970667358221220f35f66fef4876091cfae8d663c63c0f263ffe716cb210795db3a8b6edd6045d464736f6c634300080a0033",
  "linkReferences": {},
  "deployedLinkReferences": {}
}