{
  "_format": "hh-sol-artifact-1",
  "contractName": "NestDrive",
  "sourceName": "contracts/NestDrive.sol",
  "abi": [
    {
      "inputs": [],
      "stateMutability": "nonpayable",
      "type": "constructor"
    },
    {
      "anonymous": false,
      "inputs": [
        {
          "indexed": false,
          "internalType": "address",
          "name": "adder",
          "type": "address"
        },
        {
          "indexed": false,
          "internalType": "address",
          "name": "newMod",
          "type": "address"
        }
      ],
      "name": "AssignMod",
      "type": "event"
    },
    {
      "anonymous": false,
      "inputs": [
        {
          "indexed": false,
          "internalType": "uint256",
          "name": "fileId",
          "type": "uint256"
        },
        {
          "indexed": false,
          "internalType": "string",
          "name": "fileHash",
          "type": "string"
        },
        {
          "indexed": false,
          "internalType": "string",
          "name": "fileSize",
          "type": "string"
        },
        {
          "indexed": false,
          "internalType": "string",
          "name": "fileType",
          "type": "string"
        },
        {
          "indexed": false,
          "internalType": "string",
          "name": "fileName",
          "type": "string"
        },
        {
          "indexed": false,
          "internalType": "string",
          "name": "fileDescription",
          "type": "string"
        },
        {
          "indexed": false,
          "internalType": "uint256",
          "name": "uploadTime",
          "type": "uint256"
        },
        {
          "indexed": false,
          "internalType": "address",
          "name": "uploader",
          "type": "address"
        },
        {
          "indexed": false,
          "internalType": "bool",
          "name": "isPublic",
          "type": "bool"
        }
      ],
      "name": "FileUploaded",
      "type": "event"
    },
    {
      "anonymous": false,
      "inputs": [
        {
          "indexed": false,
          "internalType": "address",
          "name": "account",
          "type": "address"
        }
      ],
      "name": "Paused",
      "type": "event"
    },
    {
      "anonymous": false,
      "inputs": [
        {
          "indexed": false,
          "internalType": "address",
          "name": "remover",
          "type": "address"
        },
        {
          "indexed": false,
          "internalType": "address",
          "name": "newMod",
          "type": "address"
        }
      ],
      "name": "RemoveMod",
      "type": "event"
    },
    {
      "anonymous": false,
      "inputs": [
        {
          "indexed": false,
          "internalType": "address",
          "name": "account",
          "type": "address"
        }
      ],
      "name": "Unpaused",
      "type": "event"
    },
    {
      "inputs": [
        {
          "internalType": "uint256",
          "name": "",
          "type": "uint256"
        }
      ],
      "name": "Allfiles",
      "outputs": [
        {
          "internalType": "uint256",
          "name": "fileId",
          "type": "uint256"
        },
        {
          "internalType": "string",
          "name": "fileHash",
          "type": "string"
        },
        {
          "internalType": "string",
          "name": "fileSize",
          "type": "string"
        },
        {
          "internalType": "string",
          "name": "fileType",
          "type": "string"
        },
        {
          "internalType": "string",
          "name": "fileName",
          "type": "string"
        },
        {
          "internalType": "string",
          "name": "fileDescription",
          "type": "string"
        },
        {
          "internalType": "uint256",
          "name": "uploadTime",
          "type": "uint256"
        },
        {
          "internalType": "address",
          "name": "uploader",
          "type": "address"
        },
        {
          "internalType": "bool",
          "name": "isPublic",
          "type": "bool"
        }
      ],
      "stateMutability": "view",
      "type": "function"
    },
    {
      "inputs": [
        {
          "internalType": "address",
          "name": "_addr",
          "type": "address"
        }
      ],
      "name": "addToBlackList",
      "outputs": [
        {
          "internalType": "bool",
          "name": "",
          "type": "bool"
        }
      ],
      "stateMutability": "nonpayable",
      "type": "function"
    },
    {
      "inputs": [
        {
          "internalType": "address",
          "name": "_newMod",
          "type": "address"
        }
      ],
      "name": "assignMod",
      "outputs": [],
      "stateMutability": "nonpayable",
      "type": "function"
    },
    {
      "inputs": [
        {
          "internalType": "address",
          "name": "",
          "type": "address"
        }
      ],
      "name": "blackListedAddresses",
      "outputs": [
        {
          "internalType": "bool",
          "name": "",
          "type": "bool"
        }
      ],
      "stateMutability": "view",
      "type": "function"
    },
    {
      "inputs": [
        {
          "internalType": "uint256",
          "name": "fileId",
          "type": "uint256"
        }
      ],
      "name": "clearReportedFiles",
      "outputs": [],
      "stateMutability": "nonpayable",
      "type": "function"
    },
    {
      "inputs": [],
      "name": "fetchPublicFiles",
      "outputs": [
        {
          "components": [
            {
              "internalType": "uint256",
              "name": "fileId",
              "type": "uint256"
            },
            {
              "internalType": "string",
              "name": "fileHash",
              "type": "string"
            },
            {
              "internalType": "string",
              "name": "fileSize",
              "type": "string"
            },
            {
              "internalType": "string",
              "name": "fileType",
              "type": "string"
            },
            {
              "internalType": "string",
              "name": "fileName",
              "type": "string"
            },
            {
              "internalType": "string",
              "name": "fileDescription",
              "type": "string"
            },
            {
              "internalType": "uint256",
              "name": "uploadTime",
              "type": "uint256"
            },
            {
              "internalType": "address",
              "name": "uploader",
              "type": "address"
            },
            {
              "internalType": "bool",
              "name": "isPublic",
              "type": "bool"
            }
          ],
          "internalType": "struct NestDrive.File[]",
          "name": "",
          "type": "tuple[]"
        }
      ],
      "stateMutability": "view",
      "type": "function"
    },
    {
      "inputs": [],
      "name": "fetchUserFiles",
      "outputs": [
        {
          "components": [
            {
              "internalType": "uint256",
              "name": "fileId",
              "type": "uint256"
            },
            {
              "internalType": "string",
              "name": "fileHash",
              "type": "string"
            },
            {
              "internalType": "string",
              "name": "fileSize",
              "type": "string"
            },
            {
              "internalType": "string",
              "name": "fileType",
              "type": "string"
            },
            {
              "internalType": "string",
              "name": "fileName",
              "type": "string"
            },
            {
              "internalType": "string",
              "name": "fileDescription",
              "type": "string"
            },
            {
              "internalType": "uint256",
              "name": "uploadTime",
              "type": "uint256"
            },
            {
              "internalType": "address",
              "name": "uploader",
              "type": "address"
            },
            {
              "internalType": "bool",
              "name": "isPublic",
              "type": "bool"
            }
          ],
          "internalType": "struct NestDrive.File[]",
          "name": "",
          "type": "tuple[]"
        }
      ],
      "stateMutability": "view",
      "type": "function"
    },
    {
      "inputs": [
        {
          "internalType": "uint256",
          "name": "fileId",
          "type": "uint256"
        }
      ],
      "name": "makeFilePrivate",
      "outputs": [],
      "stateMutability": "nonpayable",
      "type": "function"
    },
    {
      "inputs": [
        {
          "internalType": "uint256",
          "name": "fileId",
          "type": "uint256"
        }
      ],
      "name": "makeFilePublic",
      "outputs": [],
      "stateMutability": "nonpayable",
      "type": "function"
    },
    {
      "inputs": [
        {
          "internalType": "address",
          "name": "",
          "type": "address"
        }
      ],
      "name": "moderator",
      "outputs": [
        {
          "internalType": "bool",
          "name": "",
          "type": "bool"
        }
      ],
      "stateMutability": "view",
      "type": "function"
    },
    {
      "inputs": [],
      "name": "pause",
      "outputs": [],
      "stateMutability": "nonpayable",
      "type": "function"
    },
    {
      "inputs": [],
      "name": "paused",
      "outputs": [
        {
          "internalType": "bool",
          "name": "",
          "type": "bool"
        }
      ],
      "stateMutability": "view",
      "type": "function"
    },
    {
      "inputs": [
        {
          "internalType": "address",
          "name": "_addr",
          "type": "address"
        }
      ],
      "name": "removeFromBlackList",
      "outputs": [
        {
          "internalType": "bool",
          "name": "",
          "type": "bool"
        }
      ],
      "stateMutability": "nonpayable",
      "type": "function"
    },
    {
      "inputs": [
        {
          "internalType": "address",
          "name": "_mod",
          "type": "address"
        }
      ],
      "name": "removeMod",
      "outputs": [],
      "stateMutability": "nonpayable",
      "type": "function"
    },
    {
      "inputs": [
        {
          "internalType": "uint256",
          "name": "fileId",
          "type": "uint256"
        }
      ],
      "name": "report",
      "outputs": [],
      "stateMutability": "nonpayable",
      "type": "function"
    },
    {
      "inputs": [
        {
          "internalType": "uint256",
          "name": "",
          "type": "uint256"
        }
      ],
      "name": "reportedFiles",
      "outputs": [
        {
          "internalType": "uint256",
          "name": "",
          "type": "uint256"
        }
      ],
      "stateMutability": "view",
      "type": "function"
    },
    {
      "inputs": [],
      "name": "unpause",
      "outputs": [],
      "stateMutability": "nonpayable",
      "type": "function"
    },
    {
      "inputs": [
        {
          "internalType": "string",
          "name": "_fileHash",
          "type": "string"
        },
        {
          "internalType": "string",
          "name": "_fileSize",
          "type": "string"
        },
        {
          "internalType": "string",
          "name": "_fileType",
          "type": "string"
        },
        {
          "internalType": "string",
          "name": "_fileName",
          "type": "string"
        },
        {
          "internalType": "string",
          "name": "_fileDescription",
          "type": "string"
        },
        {
          "internalType": "bool",
          "name": "_isPublic",
          "type": "bool"
        }
      ],
      "name": "uploadFile",
      "outputs": [],
      "stateMutability": "nonpayable",
      "type": "function"
    }
  ],
  "bytecode": "0x608060405234801561001057600080fd5b5060008060006101000a81548160ff0219169083151502179055506001600360003373ffffffffffffffffffffffffffffffffffffffff1673ffffffffffffffffffffffffffffffffffffffff16815260200190815260200160002060006101000a81548160ff0219169083151502179055506130a9806100926000396000f3fe608060405234801561001057600080fd5b50600436106101155760003560e01c8063969b1cdb116100a2578063a8b23dbc11610071578063a8b23dbc146102be578063b1bed4f5146102dc578063b27e237c1461030c578063d13d9e9c14610328578063f54dc7571461034457610115565b8063969b1cdb1461021e578063972a92b91461023a5780639a66b923146102725780639b5690741461028e57610115565b80634637de3c116100e95780634637de3c1461018e5780634a49ac4c146101aa5780635c975abb146101da57806382d0ed2e146101f85780638456cb591461021457610115565b8062e17ba01461011a57806331d1f185146101365780633f4ba83a14610154578063417c73a71461015e575b600080fd5b610134600480360381019061012f91906124a3565b610374565b005b61013e610452565b60405161014b9190612777565b60405180910390f35b61015c610ab6565b005b610178600480360381019061017391906127c5565b610b54565b6040516101859190612801565b60405180910390f35b6101a860048036038101906101a391906127c5565b610c4b565b005b6101c460048036038101906101bf91906127c5565b610e47565b6040516101d19190612801565b60405180910390f35b6101e2610f3e565b6040516101ef9190612801565b60405180910390f35b610212600480360381019061020d91906124a3565b610f54565b005b61021c611163565b005b610238600480360381019061023391906124a3565b611201565b005b610254600480360381019061024f91906124a3565b61122d565b60405161026999989796959493929190612884565b60405180910390f35b61028c600480360381019061028791906124a3565b611550565b005b6102a860048036038101906102a391906124a3565b61170b565b6040516102b59190612934565b60405180910390f35b6102c661172f565b6040516102d39190612777565b60405180910390f35b6102f660048036038101906102f191906127c5565b611cd4565b6040516103039190612801565b60405180910390f35b610326600480360381019061032191906127c5565b611cf4565b005b610342600480360381019061033d9190612ab0565b611e64565b005b61035e600480360381019061035991906127c5565b6121a2565b60405161036b9190612801565b60405180910390f35b336000600360008373ffffffffffffffffffffffffffffffffffffffff1673ffffffffffffffffffffffffffffffffffffffff16815260200190815260200160002060009054906101000a900460ff16905080610406576040517f08c379a00000000000000000000000000000000000000000000000000000000081526004016103fd90612c15565b60405180910390fd5b60006004600085815260200190815260200160002060070160146101000a81548160ff02191690831515021790555061043f60026121c2565b6006600061044d9190612331565b505050565b606061045c610f3e565b1561049c576040517f08c379a000000000000000000000000000000000000000000000000000000000815260040161049390612c81565b60405180910390fd5b60001515600560003373ffffffffffffffffffffffffffffffffffffffff1673ffffffffffffffffffffffffffffffffffffffff16815260200190815260200160002060009054906101000a900460ff1615151461052f576040517f08c379a000000000000000000000000000000000000000000000000000000000815260040161052690612d13565b60405180910390fd5b600061053b60016121d8565b905060008060005b838110156105e4573373ffffffffffffffffffffffffffffffffffffffff16600460006001846105739190612d62565b815260200190815260200160002060070160009054906101000a900473ffffffffffffffffffffffffffffffffffffffff1673ffffffffffffffffffffffffffffffffffffffff1614156105d1576001836105ce9190612d62565b92505b80806105dc90612db8565b915050610543565b5060008267ffffffffffffffff81111561060157610600612959565b5b60405190808252806020026020018201604052801561063a57816020015b610627612352565b81526020019060019003908161061f5790505b50905060005b84811015610aab573373ffffffffffffffffffffffffffffffffffffffff16600460006001846106709190612d62565b815260200190815260200160002060070160009054906101000a900473ffffffffffffffffffffffffffffffffffffffff1673ffffffffffffffffffffffffffffffffffffffff161415610a98576000600460006001846106d19190612d62565b8152602001908152602001600020600001549050600060046000838152602001908152602001600020905080604051806101200160405290816000820154815260200160018201805461072390612e30565b80601f016020809104026020016040519081016040528092919081815260200182805461074f90612e30565b801561079c5780601f106107715761010080835404028352916020019161079c565b820191906000526020600020905b81548152906001019060200180831161077f57829003601f168201915b505050505081526020016002820180546107b590612e30565b80601f01602080910402602001604051908101604052809291908181526020018280546107e190612e30565b801561082e5780601f106108035761010080835404028352916020019161082e565b820191906000526020600020905b81548152906001019060200180831161081157829003601f168201915b5050505050815260200160038201805461084790612e30565b80601f016020809104026020016040519081016040528092919081815260200182805461087390612e30565b80156108c05780601f10610895576101008083540402835291602001916108c0565b820191906000526020600020905b8154815290600101906020018083116108a357829003601f168201915b505050505081526020016004820180546108d990612e30565b80601f016020809104026020016040519081016040528092919081815260200182805461090590612e30565b80156109525780601f1061092757610100808354040283529160200191610952565b820191906000526020600020905b81548152906001019060200180831161093557829003601f168201915b5050505050815260200160058201805461096b90612e30565b80601f016020809104026020016040519081016040528092919081815260200182805461099790612e30565b80156109e45780601f106109b9576101008083540402835291602001916109e4565b820191906000526020600020905b8154815290600101906020018083116109c757829003601f168201915b50505050508152602001600682015481526020016007820160009054906101000a900473ffffffffffffffffffffffffffffffffffffffff1673ffffffffffffffffffffffffffffffffffffffff1673ffffffffffffffffffffffffffffffffffffffff1681526020016007820160149054906101000a900460ff161515151581525050848681518110610a7b57610a7a612e62565b5b6020026020010181905250600185610a939190612d62565b945050505b8080610aa390612db8565b915050610640565b508094505050505090565b336000600360008373ffffffffffffffffffffffffffffffffffffffff1673ffffffffffffffffffffffffffffffffffffffff16815260200190815260200160002060009054906101000a900460ff16905080610b48576040517f08c379a0000000000000000000000000000000000000000000000000000000008152600401610b3f90612c15565b60405180910390fd5b610b506121e6565b5050565b6000336000600360008373ffffffffffffffffffffffffffffffffffffffff1673ffffffffffffffffffffffffffffffffffffffff16815260200190815260200160002060009054906101000a900460ff16905080610be8576040517f08c379a0000000000000000000000000000000000000000000000000000000008152600401610bdf90612c15565b60405180910390fd5b6001600560008673ffffffffffffffffffffffffffffffffffffffff1673ffffffffffffffffffffffffffffffffffffffff16815260200190815260200160002060006101000a81548160ff021916908315150217905550600192505050919050565b610c53610f3e565b15610c93576040517f08c379a0000000000000000000000000000000000000000000000000000000008152600401610c8a90612c81565b60405180910390fd5b336000600360008373ffffffffffffffffffffffffffffffffffffffff1673ffffffffffffffffffffffffffffffffffffffff16815260200190815260200160002060009054906101000a900460ff16905080610d25576040517f08c379a0000000000000000000000000000000000000000000000000000000008152600401610d1c90612c15565b60405180910390fd5b600360008473ffffffffffffffffffffffffffffffffffffffff1673ffffffffffffffffffffffffffffffffffffffff16815260200190815260200160002060009054906101000a900460ff16610db1576040517f08c379a0000000000000000000000000000000000000000000000000000000008152600401610da890612edd565b60405180910390fd5b6000600360008573ffffffffffffffffffffffffffffffffffffffff1673ffffffffffffffffffffffffffffffffffffffff16815260200190815260200160002060006101000a81548160ff0219169083151502179055507f21e8741435b5373014087a70641e17e7139c8f3ecffbc070c83ca921e5f06ab53384604051610e3a929190612efd565b60405180910390a1505050565b6000336000600360008373ffffffffffffffffffffffffffffffffffffffff1673ffffffffffffffffffffffffffffffffffffffff16815260200190815260200160002060009054906101000a900460ff16905080610edb576040517f08c379a0000000000000000000000000000000000000000000000000000000008152600401610ed290612c15565b60405180910390fd5b6000600560008673ffffffffffffffffffffffffffffffffffffffff1673ffffffffffffffffffffffffffffffffffffffff16815260200190815260200160002060006101000a81548160ff021916908315150217905550600192505050919050565b60008060009054906101000a900460ff16905090565b610f5c610f3e565b15610f9c576040517f08c379a0000000000000000000000000000000000000000000000000000000008152600401610f9390612c81565b60405180910390fd5b60001515600560003373ffffffffffffffffffffffffffffffffffffffff1673ffffffffffffffffffffffffffffffffffffffff16815260200190815260200160002060009054906101000a900460ff1615151461102f576040517f08c379a000000000000000000000000000000000000000000000000000000000815260040161102690612d13565b60405180910390fd5b3373ffffffffffffffffffffffffffffffffffffffff166004600083815260200190815260200160002060070160009054906101000a900473ffffffffffffffffffffffffffffffffffffffff1673ffffffffffffffffffffffffffffffffffffffff1614806110e85750600360003373ffffffffffffffffffffffffffffffffffffffff1673ffffffffffffffffffffffffffffffffffffffff16815260200190815260200160002060009054906101000a900460ff165b611127576040517f08c379a000000000000000000000000000000000000000000000000000000000815260040161111e90612f98565b60405180910390fd5b60006004600083815260200190815260200160002060070160146101000a81548160ff02191690831515021790555061116060026121c2565b50565b336000600360008373ffffffffffffffffffffffffffffffffffffffff1673ffffffffffffffffffffffffffffffffffffffff16815260200190815260200160002060009054906101000a900460ff169050806111f5576040517f08c379a00000000000000000000000000000000000000000000000000000000081526004016111ec90612c15565b60405180910390fd5b6111fd612287565b5050565b600681908060018154018082558091505060019003906000526020600020016000909190919091505550565b600460205280600052604060002060009150905080600001549080600101805461125690612e30565b80601f016020809104026020016040519081016040528092919081815260200182805461128290612e30565b80156112cf5780601f106112a4576101008083540402835291602001916112cf565b820191906000526020600020905b8154815290600101906020018083116112b257829003601f168201915b5050505050908060020180546112e490612e30565b80601f016020809104026020016040519081016040528092919081815260200182805461131090612e30565b801561135d5780601f106113325761010080835404028352916020019161135d565b820191906000526020600020905b81548152906001019060200180831161134057829003601f168201915b50505050509080600301805461137290612e30565b80601f016020809104026020016040519081016040528092919081815260200182805461139e90612e30565b80156113eb5780601f106113c0576101008083540402835291602001916113eb565b820191906000526020600020905b8154815290600101906020018083116113ce57829003601f168201915b50505050509080600401805461140090612e30565b80601f016020809104026020016040519081016040528092919081815260200182805461142c90612e30565b80156114795780601f1061144e57610100808354040283529160200191611479565b820191906000526020600020905b81548152906001019060200180831161145c57829003601f168201915b50505050509080600501805461148e90612e30565b80601f01602080910402602001604051908101604052809291908181526020018280546114ba90612e30565b80156115075780601f106114dc57610100808354040283529160200191611507565b820191906000526020600020905b8154815290600101906020018083116114ea57829003601f168201915b5050505050908060060154908060070160009054906101000a900473ffffffffffffffffffffffffffffffffffffffff16908060070160149054906101000a900460ff16905089565b611558610f3e565b15611598576040517f08c379a000000000000000000000000000000000000000000000000000000000815260040161158f90612c81565b60405180910390fd5b60001515600560003373ffffffffffffffffffffffffffffffffffffffff1673ffffffffffffffffffffffffffffffffffffffff16815260200190815260200160002060009054906101000a900460ff1615151461162b576040517f08c379a000000000000000000000000000000000000000000000000000000000815260040161162290612d13565b60405180910390fd5b3373ffffffffffffffffffffffffffffffffffffffff166004600083815260200190815260200160002060070160009054906101000a900473ffffffffffffffffffffffffffffffffffffffff1673ffffffffffffffffffffffffffffffffffffffff16146116cf576040517f08c379a00000000000000000000000000000000000000000000000000000000081526004016116c690612f98565b60405180910390fd5b60016004600083815260200190815260200160002060070160146101000a81548160ff02191690831515021790555061170860016121c2565b50565b6006818154811061171b57600080fd5b906000526020600020016000915090505481565b6060611739610f3e565b15611779576040517f08c379a000000000000000000000000000000000000000000000000000000000815260040161177090612c81565b60405180910390fd5b60001515600560003373ffffffffffffffffffffffffffffffffffffffff1673ffffffffffffffffffffffffffffffffffffffff16815260200190815260200160002060009054906101000a900460ff1615151461180c576040517f08c379a000000000000000000000000000000000000000000000000000000000815260040161180390612d13565b60405180910390fd5b600061181860016121d8565b9050600061182660026121d8565b61183060016121d8565b61183a9190612fb8565b90506000808267ffffffffffffffff81111561185957611858612959565b5b60405190808252806020026020018201604052801561189257816020015b61187f612352565b8152602001906001900390816118775790505b50905060005b84811015611cc95760011515600460006001846118b59190612d62565b815260200190815260200160002060070160149054906101000a900460ff1615151415611cb6576000600460006001846118ef9190612d62565b8152602001908152602001600020600001549050600060046000838152602001908152602001600020905080604051806101200160405290816000820154815260200160018201805461194190612e30565b80601f016020809104026020016040519081016040528092919081815260200182805461196d90612e30565b80156119ba5780601f1061198f576101008083540402835291602001916119ba565b820191906000526020600020905b81548152906001019060200180831161199d57829003601f168201915b505050505081526020016002820180546119d390612e30565b80601f01602080910402602001604051908101604052809291908181526020018280546119ff90612e30565b8015611a4c5780601f10611a2157610100808354040283529160200191611a4c565b820191906000526020600020905b815481529060010190602001808311611a2f57829003601f168201915b50505050508152602001600382018054611a6590612e30565b80601f0160208091040260200160405190810160405280929190818152602001828054611a9190612e30565b8015611ade5780601f10611ab357610100808354040283529160200191611ade565b820191906000526020600020905b815481529060010190602001808311611ac157829003601f168201915b50505050508152602001600482018054611af790612e30565b80601f0160208091040260200160405190810160405280929190818152602001828054611b2390612e30565b8015611b705780601f10611b4557610100808354040283529160200191611b70565b820191906000526020600020905b815481529060010190602001808311611b5357829003601f168201915b50505050508152602001600582018054611b8990612e30565b80601f0160208091040260200160405190810160405280929190818152602001828054611bb590612e30565b8015611c025780601f10611bd757610100808354040283529160200191611c02565b820191906000526020600020905b815481529060010190602001808311611be557829003601f168201915b50505050508152602001600682015481526020016007820160009054906101000a900473ffffffffffffffffffffffffffffffffffffffff1673ffffffffffffffffffffffffffffffffffffffff1673ffffffffffffffffffffffffffffffffffffffff1681526020016007820160149054906101000a900460ff161515151581525050848681518110611c9957611c98612e62565b5b6020026020010181905250600185611cb19190612d62565b945050505b8080611cc190612db8565b915050611898565b508094505050505090565b60036020528060005260406000206000915054906101000a900460ff1681565b611cfc610f3e565b15611d3c576040517f08c379a0000000000000000000000000000000000000000000000000000000008152600401611d3390612c81565b60405180910390fd5b336000600360008373ffffffffffffffffffffffffffffffffffffffff1673ffffffffffffffffffffffffffffffffffffffff16815260200190815260200160002060009054906101000a900460ff16905080611dce576040517f08c379a0000000000000000000000000000000000000000000000000000000008152600401611dc590612c15565b60405180910390fd5b6001600360008573ffffffffffffffffffffffffffffffffffffffff1673ffffffffffffffffffffffffffffffffffffffff16815260200190815260200160002060006101000a81548160ff0219169083151502179055507fb5dd25a9cfca5e08f42d8aa38af875754ee83968a096a48442d6af229d64de653384604051611e57929190612efd565b60405180910390a1505050565b611e6c610f3e565b15611eac576040517f08c379a0000000000000000000000000000000000000000000000000000000008152600401611ea390612c81565b60405180910390fd5b60001515600560003373ffffffffffffffffffffffffffffffffffffffff1673ffffffffffffffffffffffffffffffffffffffff16815260200190815260200160002060009054906101000a900460ff16151514611f3f576040517f08c379a0000000000000000000000000000000000000000000000000000000008152600401611f3690612d13565b60405180910390fd5b6000865111611f4d57600080fd5b6000845111611f5b57600080fd5b6000825111611f6957600080fd5b6000835111611f7757600080fd5b600073ffffffffffffffffffffffffffffffffffffffff163373ffffffffffffffffffffffffffffffffffffffff161415611fb157600080fd5b6000855111611fbf57600080fd5b611fc960016121c2565b6000611fd560016121d8565b90506040518061012001604052808281526020018881526020018781526020018681526020018581526020018481526020014281526020013373ffffffffffffffffffffffffffffffffffffffff168152602001831515815250600460008381526020019081526020016000206000820151816000015560208201518160010190805190602001906120689291906123b6565b5060408201518160020190805190602001906120859291906123b6565b5060608201518160030190805190602001906120a29291906123b6565b5060808201518160040190805190602001906120bf9291906123b6565b5060a08201518160050190805190602001906120dc9291906123b6565b5060c0820151816006015560e08201518160070160006101000a81548173ffffffffffffffffffffffffffffffffffffffff021916908373ffffffffffffffffffffffffffffffffffffffff1602179055506101008201518160070160146101000a81548160ff0219169083151502179055509050507f15685dbf79e7181ae33d4610b737556e08e88cd73cd97d994292e1699d09d0f381888888888842338a60405161219199989796959493929190612884565b60405180910390a150505050505050565b60056020528060005260406000206000915054906101000a900460ff1681565b6001816000016000828254019250508190555050565b600081600001549050919050565b6121ee610f3e565b61222d576040517f08c379a000000000000000000000000000000000000000000000000000000000815260040161222490613038565b60405180910390fd5b60008060006101000a81548160ff0219169083151502179055507f5db9ee0a495bf2e6ff9c91a7834c1ba4fdd244a5e8aa4e537bd38aeae4b073aa612270612329565b60405161227d9190613058565b60405180910390a1565b61228f610f3e565b156122cf576040517f08c379a00000000000000000000000000000000000000000000000000000000081526004016122c690612c81565b60405180910390fd5b60016000806101000a81548160ff0219169083151502179055507f62e78cea01bee320cd4e420270b5ea74000d11b0c9f74754ebdbfc544b05a258612312612329565b60405161231f9190613058565b60405180910390a1565b600033905090565b508054600082559060005260206000209081019061234f919061243c565b50565b60405180610120016040528060008152602001606081526020016060815260200160608152602001606081526020016060815260200160008152602001600073ffffffffffffffffffffffffffffffffffffffff1681526020016000151581525090565b8280546123c290612e30565b90600052602060002090601f0160209004810192826123e4576000855561242b565b82601f106123fd57805160ff191683800117855561242b565b8280016001018555821561242b579182015b8281111561242a57825182559160200191906001019061240f565b5b509050612438919061243c565b5090565b5b8082111561245557600081600090555060010161243d565b5090565b6000604051905090565b600080fd5b600080fd5b6000819050919050565b6124808161246d565b811461248b57600080fd5b50565b60008135905061249d81612477565b92915050565b6000602082840312156124b9576124b8612463565b5b60006124c78482850161248e565b91505092915050565b600081519050919050565b600082825260208201905092915050565b6000819050602082019050919050565b6125058161246d565b82525050565b600081519050919050565b600082825260208201905092915050565b60005b8381101561254557808201518184015260208101905061252a565b83811115612554576000848401525b50505050565b6000601f19601f8301169050919050565b60006125768261250b565b6125808185612516565b9350612590818560208601612527565b6125998161255a565b840191505092915050565b600073ffffffffffffffffffffffffffffffffffffffff82169050919050565b60006125cf826125a4565b9050919050565b6125df816125c4565b82525050565b60008115159050919050565b6125fa816125e5565b82525050565b60006101208301600083015161261960008601826124fc565b5060208301518482036020860152612631828261256b565b9150506040830151848203604086015261264b828261256b565b91505060608301518482036060860152612665828261256b565b9150506080830151848203608086015261267f828261256b565b91505060a083015184820360a0860152612699828261256b565b91505060c08301516126ae60c08601826124fc565b5060e08301516126c160e08601826125d6565b506101008301516126d66101008601826125f1565b508091505092915050565b60006126ed8383612600565b905092915050565b6000602082019050919050565b600061270d826124d0565b61271781856124db565b935083602082028501612729856124ec565b8060005b85811015612765578484038952815161274685826126e1565b9450612751836126f5565b925060208a0199505060018101905061272d565b50829750879550505050505092915050565b600060208201905081810360008301526127918184612702565b905092915050565b6127a2816125c4565b81146127ad57600080fd5b50565b6000813590506127bf81612799565b92915050565b6000602082840312156127db576127da612463565b5b60006127e9848285016127b0565b91505092915050565b6127fb816125e5565b82525050565b600060208201905061281660008301846127f2565b92915050565b6128258161246d565b82525050565b600082825260208201905092915050565b60006128478261250b565b612851818561282b565b9350612861818560208601612527565b61286a8161255a565b840191505092915050565b61287e816125c4565b82525050565b60006101208201905061289a600083018c61281c565b81810360208301526128ac818b61283c565b905081810360408301526128c0818a61283c565b905081810360608301526128d4818961283c565b905081810360808301526128e8818861283c565b905081810360a08301526128fc818761283c565b905061290b60c083018661281c565b61291860e0830185612875565b6129266101008301846127f2565b9a9950505050505050505050565b6000602082019050612949600083018461281c565b92915050565b600080fd5b600080fd5b7f4e487b7100000000000000000000000000000000000000000000000000000000600052604160045260246000fd5b6129918261255a565b810181811067ffffffffffffffff821117156129b0576129af612959565b5b80604052505050565b60006129c3612459565b90506129cf8282612988565b919050565b600067ffffffffffffffff8211156129ef576129ee612959565b5b6129f88261255a565b9050602081019050919050565b82818337600083830152505050565b6000612a27612a22846129d4565b6129b9565b905082815260208101848484011115612a4357612a42612954565b5b612a4e848285612a05565b509392505050565b600082601f830112612a6b57612a6a61294f565b5b8135612a7b848260208601612a14565b91505092915050565b612a8d816125e5565b8114612a9857600080fd5b50565b600081359050612aaa81612a84565b92915050565b60008060008060008060c08789031215612acd57612acc612463565b5b600087013567ffffffffffffffff811115612aeb57612aea612468565b5b612af789828a01612a56565b965050602087013567ffffffffffffffff811115612b1857612b17612468565b5b612b2489828a01612a56565b955050604087013567ffffffffffffffff811115612b4557612b44612468565b5b612b5189828a01612a56565b945050606087013567ffffffffffffffff811115612b7257612b71612468565b5b612b7e89828a01612a56565b935050608087013567ffffffffffffffff811115612b9f57612b9e612468565b5b612bab89828a01612a56565b92505060a0612bbc89828a01612a9b565b9150509295509295509295565b7f4f6e6c79204d6f64657261746f72732048617665204163636573732100000000600082015250565b6000612bff601c8361282b565b9150612c0a82612bc9565b602082019050919050565b60006020820190508181036000830152612c2e81612bf2565b9050919050565b7f5061757361626c653a2070617573656400000000000000000000000000000000600082015250565b6000612c6b60108361282b565b9150612c7682612c35565b602082019050919050565b60006020820190508181036000830152612c9a81612c5e565b9050919050565b7f416464726573732069732063757272656e746c7920426c61636b6c697374656460008201527f2e2e000000000000000000000000000000000000000000000000000000000000602082015250565b6000612cfd60228361282b565b9150612d0882612ca1565b604082019050919050565b60006020820190508181036000830152612d2c81612cf0565b9050919050565b7f4e487b7100000000000000000000000000000000000000000000000000000000600052601160045260246000fd5b6000612d6d8261246d565b9150612d788361246d565b9250827fffffffffffffffffffffffffffffffffffffffffffffffffffffffffffffffff03821115612dad57612dac612d33565b5b828201905092915050565b6000612dc38261246d565b91507fffffffffffffffffffffffffffffffffffffffffffffffffffffffffffffffff821415612df657612df5612d33565b5b600182019050919050565b7f4e487b7100000000000000000000000000000000000000000000000000000000600052602260045260246000fd5b60006002820490506001821680612e4857607f821691505b60208210811415612e5c57612e5b612e01565b5b50919050565b7f4e487b7100000000000000000000000000000000000000000000000000000000600052603260045260246000fd5b7f41646472657373206973206e6f742061206d6f64657261746f722e0000000000600082015250565b6000612ec7601b8361282b565b9150612ed282612e91565b602082019050919050565b60006020820190508181036000830152612ef681612eba565b9050919050565b6000604082019050612f126000830185612875565b612f1f6020830184612875565b9392505050565b7f796f752063616e206f6e6c79206d616e6970756c61746520796f7572206f776e60008201527f2066696c65000000000000000000000000000000000000000000000000000000602082015250565b6000612f8260258361282b565b9150612f8d82612f26565b604082019050919050565b60006020820190508181036000830152612fb181612f75565b9050919050565b6000612fc38261246d565b9150612fce8361246d565b925082821015612fe157612fe0612d33565b5b828203905092915050565b7f5061757361626c653a206e6f7420706175736564000000000000000000000000600082015250565b600061302260148361282b565b915061302d82612fec565b602082019050919050565b6000602082019050818103600083015261305181613015565b9050919050565b600060208201905061306d6000830184612875565b9291505056fea2646970667358221220a97dac2c344f912647c7c9114800d0a59ef0d6ae4b80439c33bc1c57a79edbbf64736f6c634300080a0033",
  "linkReferences": {},
  "deployedLinkReferences": {}
}