{
  "_format": "hh-sol-artifact-1",
  "contractName": "NestDrive",
  "sourceName": "contracts/NestDrive.sol",
  "abi": [
    {
      "inputs": [],
      "stateMutability": "nonpayable",
      "type": "constructor"
    },
    {
      "anonymous": false,
      "inputs": [
        {
          "indexed": false,
          "internalType": "address",
          "name": "adder",
          "type": "address"
        },
        {
          "indexed": false,
          "internalType": "address",
          "name": "newMod",
          "type": "address"
        }
      ],
      "name": "AssignMod",
      "type": "event"
    },
    {
      "anonymous": false,
      "inputs": [
        {
          "indexed": false,
          "internalType": "uint256",
          "name": "fileId",
          "type": "uint256"
        },
        {
          "indexed": false,
          "internalType": "string",
          "name": "fileHash",
          "type": "string"
        },
        {
          "indexed": false,
          "internalType": "string",
          "name": "fileSize",
          "type": "string"
        },
        {
          "indexed": false,
          "internalType": "string",
          "name": "fileType",
          "type": "string"
        },
        {
          "indexed": false,
          "internalType": "string",
          "name": "fileName",
          "type": "string"
        },
        {
          "indexed": false,
          "internalType": "string",
          "name": "fileDescription",
          "type": "string"
        },
        {
          "indexed": false,
          "internalType": "uint256",
          "name": "uploadTime",
          "type": "uint256"
        },
        {
          "indexed": false,
          "internalType": "address",
          "name": "uploader",
          "type": "address"
        },
        {
          "indexed": false,
          "internalType": "bool",
          "name": "isPublic",
          "type": "bool"
        }
      ],
      "name": "FileUploaded",
      "type": "event"
    },
    {
      "anonymous": false,
      "inputs": [
        {
          "indexed": false,
          "internalType": "address",
          "name": "account",
          "type": "address"
        }
      ],
      "name": "Paused",
      "type": "event"
    },
    {
      "anonymous": false,
      "inputs": [
        {
          "indexed": false,
          "internalType": "address",
          "name": "remover",
          "type": "address"
        },
        {
          "indexed": false,
          "internalType": "address",
          "name": "newMod",
          "type": "address"
        }
      ],
      "name": "RemoveMod",
      "type": "event"
    },
    {
      "anonymous": false,
      "inputs": [
        {
          "indexed": false,
          "internalType": "address",
          "name": "account",
          "type": "address"
        }
      ],
      "name": "Unpaused",
      "type": "event"
    },
    {
      "anonymous": false,
      "inputs": [
        {
          "indexed": false,
          "internalType": "address",
          "name": "addr",
          "type": "address"
        }
      ],
      "name": "addInBlackList",
      "type": "event"
    },
    {
      "anonymous": false,
      "inputs": [
        {
          "indexed": false,
          "internalType": "uint256",
          "name": "_itemIds",
          "type": "uint256"
        }
      ],
      "name": "madePrivate",
      "type": "event"
    },
    {
      "anonymous": false,
      "inputs": [
        {
          "indexed": false,
          "internalType": "uint256",
          "name": "_itemIds",
          "type": "uint256"
        }
      ],
      "name": "madePrivateMod",
      "type": "event"
    },
    {
      "anonymous": false,
      "inputs": [
        {
          "indexed": false,
          "internalType": "uint256",
          "name": "_itemIds",
          "type": "uint256"
        }
      ],
      "name": "madePublic",
      "type": "event"
    },
    {
      "anonymous": false,
      "inputs": [
        {
          "indexed": false,
          "internalType": "uint256",
          "name": "_itemIds",
          "type": "uint256"
        }
      ],
      "name": "newReport",
      "type": "event"
    },
    {
      "anonymous": false,
      "inputs": [
        {
          "indexed": false,
          "internalType": "address",
          "name": "addr",
          "type": "address"
        }
      ],
      "name": "remInBlackList",
      "type": "event"
    },
    {
      "inputs": [
        {
          "internalType": "uint256",
          "name": "",
          "type": "uint256"
        }
      ],
      "name": "Allfiles",
      "outputs": [
        {
          "internalType": "uint256",
          "name": "fileId",
          "type": "uint256"
        },
        {
          "internalType": "string",
          "name": "fileHash",
          "type": "string"
        },
        {
          "internalType": "string",
          "name": "fileSize",
          "type": "string"
        },
        {
          "internalType": "string",
          "name": "fileType",
          "type": "string"
        },
        {
          "internalType": "string",
          "name": "fileName",
          "type": "string"
        },
        {
          "internalType": "string",
          "name": "fileDescription",
          "type": "string"
        },
        {
          "internalType": "uint256",
          "name": "uploadTime",
          "type": "uint256"
        },
        {
          "internalType": "address",
          "name": "uploader",
          "type": "address"
        },
        {
          "internalType": "bool",
          "name": "isPublic",
          "type": "bool"
        }
      ],
      "stateMutability": "view",
      "type": "function"
    },
    {
      "inputs": [
        {
          "internalType": "address",
          "name": "_addr",
          "type": "address"
        }
      ],
      "name": "addToBlackList",
      "outputs": [
        {
          "internalType": "bool",
          "name": "",
          "type": "bool"
        }
      ],
      "stateMutability": "nonpayable",
      "type": "function"
    },
    {
      "inputs": [
        {
          "internalType": "address",
          "name": "_newMod",
          "type": "address"
        }
      ],
      "name": "assignMod",
      "outputs": [],
      "stateMutability": "nonpayable",
      "type": "function"
    },
    {
      "inputs": [
        {
          "internalType": "uint256",
          "name": "",
          "type": "uint256"
        }
      ],
      "name": "blackList",
      "outputs": [
        {
          "internalType": "address",
          "name": "",
          "type": "address"
        }
      ],
      "stateMutability": "view",
      "type": "function"
    },
    {
      "inputs": [],
      "name": "blackListArray",
      "outputs": [
        {
          "internalType": "address[]",
          "name": "",
          "type": "address[]"
        }
      ],
      "stateMutability": "view",
      "type": "function"
    },
    {
      "inputs": [
        {
          "internalType": "address",
          "name": "",
          "type": "address"
        }
      ],
      "name": "blackListedAddresses",
      "outputs": [
        {
          "internalType": "bool",
          "name": "",
          "type": "bool"
        }
      ],
      "stateMutability": "view",
      "type": "function"
    },
    {
      "inputs": [
        {
          "internalType": "address",
          "name": "_user",
          "type": "address"
        }
      ],
      "name": "checkMod",
      "outputs": [
        {
          "internalType": "bool",
          "name": "",
          "type": "bool"
        }
      ],
      "stateMutability": "view",
      "type": "function"
    },
    {
      "inputs": [
        {
          "internalType": "uint256",
          "name": "fileId",
          "type": "uint256"
        }
      ],
      "name": "clearReportedFiles",
      "outputs": [],
      "stateMutability": "nonpayable",
      "type": "function"
    },
    {
      "inputs": [],
      "name": "fetchPublicFiles",
      "outputs": [
        {
          "components": [
            {
              "internalType": "uint256",
              "name": "fileId",
              "type": "uint256"
            },
            {
              "internalType": "string",
              "name": "fileHash",
              "type": "string"
            },
            {
              "internalType": "string",
              "name": "fileSize",
              "type": "string"
            },
            {
              "internalType": "string",
              "name": "fileType",
              "type": "string"
            },
            {
              "internalType": "string",
              "name": "fileName",
              "type": "string"
            },
            {
              "internalType": "string",
              "name": "fileDescription",
              "type": "string"
            },
            {
              "internalType": "uint256",
              "name": "uploadTime",
              "type": "uint256"
            },
            {
              "internalType": "address",
              "name": "uploader",
              "type": "address"
            },
            {
              "internalType": "bool",
              "name": "isPublic",
              "type": "bool"
            }
          ],
          "internalType": "struct NestDrive.File[]",
          "name": "",
          "type": "tuple[]"
        }
      ],
      "stateMutability": "view",
      "type": "function"
    },
    {
      "inputs": [],
      "name": "fetchUserFiles",
      "outputs": [
        {
          "components": [
            {
              "internalType": "uint256",
              "name": "fileId",
              "type": "uint256"
            },
            {
              "internalType": "string",
              "name": "fileHash",
              "type": "string"
            },
            {
              "internalType": "string",
              "name": "fileSize",
              "type": "string"
            },
            {
              "internalType": "string",
              "name": "fileType",
              "type": "string"
            },
            {
              "internalType": "string",
              "name": "fileName",
              "type": "string"
            },
            {
              "internalType": "string",
              "name": "fileDescription",
              "type": "string"
            },
            {
              "internalType": "uint256",
              "name": "uploadTime",
              "type": "uint256"
            },
            {
              "internalType": "address",
              "name": "uploader",
              "type": "address"
            },
            {
              "internalType": "bool",
              "name": "isPublic",
              "type": "bool"
            }
          ],
          "internalType": "struct NestDrive.File[]",
          "name": "",
          "type": "tuple[]"
        }
      ],
      "stateMutability": "view",
      "type": "function"
    },
    {
      "inputs": [
        {
          "internalType": "uint256",
          "name": "fileId",
          "type": "uint256"
        }
      ],
      "name": "makeFilePrivate",
      "outputs": [],
      "stateMutability": "nonpayable",
      "type": "function"
    },
    {
      "inputs": [
        {
          "internalType": "uint256",
          "name": "fileId",
          "type": "uint256"
        }
      ],
      "name": "makeFilePublic",
      "outputs": [],
      "stateMutability": "nonpayable",
      "type": "function"
    },
    {
      "inputs": [
        {
          "internalType": "uint256",
          "name": "fileId",
          "type": "uint256"
        }
      ],
      "name": "makeReportedPrivate",
      "outputs": [],
      "stateMutability": "nonpayable",
      "type": "function"
    },
    {
      "inputs": [
        {
          "internalType": "address",
          "name": "",
          "type": "address"
        }
      ],
      "name": "moderator",
      "outputs": [
        {
          "internalType": "bool",
          "name": "",
          "type": "bool"
        }
      ],
      "stateMutability": "view",
      "type": "function"
    },
    {
      "inputs": [],
      "name": "pause",
      "outputs": [],
      "stateMutability": "nonpayable",
      "type": "function"
    },
    {
      "inputs": [],
      "name": "paused",
      "outputs": [
        {
          "internalType": "bool",
          "name": "",
          "type": "bool"
        }
      ],
      "stateMutability": "view",
      "type": "function"
    },
    {
      "inputs": [
        {
          "internalType": "address",
          "name": "_addr",
          "type": "address"
        }
      ],
      "name": "removeFromBlackList",
      "outputs": [
        {
          "internalType": "bool",
          "name": "",
          "type": "bool"
        }
      ],
      "stateMutability": "nonpayable",
      "type": "function"
    },
    {
      "inputs": [
        {
          "internalType": "address",
          "name": "_mod",
          "type": "address"
        }
      ],
      "name": "removeMod",
      "outputs": [],
      "stateMutability": "nonpayable",
      "type": "function"
    },
    {
      "inputs": [
        {
          "internalType": "uint256",
          "name": "fileId",
          "type": "uint256"
        }
      ],
      "name": "report",
      "outputs": [],
      "stateMutability": "nonpayable",
      "type": "function"
    },
    {
      "inputs": [
        {
          "internalType": "uint256",
          "name": "",
          "type": "uint256"
        }
      ],
      "name": "reportExist",
      "outputs": [
        {
          "internalType": "bool",
          "name": "",
          "type": "bool"
        }
      ],
      "stateMutability": "view",
      "type": "function"
    },
    {
      "inputs": [
        {
          "internalType": "uint256",
          "name": "",
          "type": "uint256"
        }
      ],
      "name": "reportedFiles",
      "outputs": [
        {
          "internalType": "uint256",
          "name": "",
          "type": "uint256"
        }
      ],
      "stateMutability": "view",
      "type": "function"
    },
    {
      "inputs": [],
      "name": "reportedListArray",
      "outputs": [
        {
          "internalType": "uint256[]",
          "name": "",
          "type": "uint256[]"
        }
      ],
      "stateMutability": "view",
      "type": "function"
    },
    {
      "inputs": [],
      "name": "unpause",
      "outputs": [],
      "stateMutability": "nonpayable",
      "type": "function"
    },
    {
      "inputs": [
        {
          "internalType": "string",
          "name": "_fileHash",
          "type": "string"
        },
        {
          "internalType": "string",
          "name": "_fileSize",
          "type": "string"
        },
        {
          "internalType": "string",
          "name": "_fileType",
          "type": "string"
        },
        {
          "internalType": "string",
          "name": "_fileName",
          "type": "string"
        },
        {
          "internalType": "string",
          "name": "_fileDescription",
          "type": "string"
        },
        {
          "internalType": "bool",
          "name": "_isPublic",
          "type": "bool"
        }
      ],
      "name": "uploadFile",
      "outputs": [],
      "stateMutability": "nonpayable",
      "type": "function"
    }
  ],
  "bytecode": "0x60806040523480156200001157600080fd5b5060008060006101000a81548160ff021916908315150217905550620000607f5438a31ca62a00b46184f3dfe39a55b6e974b6ed760c93d0214ff1d86c9eccd360001b6200012660201b60201c565b620000947f8339417f04a2bd2ab98f2d593676bb6492d4fd19bfd8b90dad58d5c4b1a3b98960001b6200012660201b60201c565b620000c87f0b4ce45f88a00d33058d41e46d70fdd995ca706eae3080b102e29f0be7f1be3260001b6200012660201b60201c565b6001600360003373ffffffffffffffffffffffffffffffffffffffff1673ffffffffffffffffffffffffffffffffffffffff16815260200190815260200160002060006101000a81548160ff02191690831515021790555062000129565b50565b61721180620001396000396000f3fe608060405234801561001057600080fd5b50600436106101575760003560e01c8063969b1cdb116100c3578063b1bed4f51161007c578063b1bed4f5146103cc578063b27e237c146103fc578063cfce5c4614610418578063d13d9e9c14610436578063d1b6961e14610452578063f54dc7571461046e57610157565b8063969b1cdb146102de578063972a92b9146102fa5780639a66b923146103325780639b5690741461034e578063a47aacec1461037e578063a8b23dbc146103ae57610157565b80635a2fd58b116101155780635a2fd58b1461021c5780635c975abb1461023a57806364f2f7a414610258578063709ec8b41461028857806382d0ed2e146102b85780638456cb59146102d457610157565b8062e17ba01461015c57806331d1f185146101785780633f4ba83a14610196578063417c73a7146101a05780634637de3c146101d05780634a49ac4c146101ec575b600080fd5b61017660048036038101906101719190616316565b61049e565b005b6101806107e4565b60405161018d91906165ea565b60405180910390f35b61019e611507565b005b6101ba60048036038101906101b59190616638565b611789565b6040516101c79190616674565b60405180910390f35b6101ea60048036038101906101e59190616638565b611c06565b005b61020660048036038101906102019190616638565b611fb2565b6040516102139190616674565b60405180910390f35b6102246125b3565b604051610231919061673e565b60405180910390f35b610242612883565b60405161024f9190616674565b60405180910390f35b610272600480360381019061026d9190616638565b612899565b60405161027f9190616674565b60405180910390f35b6102a2600480360381019061029d9190616316565b612a19565b6040516102af919061676f565b60405180910390f35b6102d260048036038101906102cd9190616316565b612a58565b005b6102dc612f36565b005b6102f860048036038101906102f39190616316565b6131b8565b005b610314600480360381019061030f9190616316565b613492565b604051610329999897969594939291906167e3565b60405180910390f35b61034c60048036038101906103479190616316565b6137b5565b005b61036860048036038101906103639190616316565b613daa565b6040516103759190616893565b60405180910390f35b61039860048036038101906103939190616316565b613dce565b6040516103a59190616674565b60405180910390f35b6103b6613dee565b6040516103c391906165ea565b60405180910390f35b6103e660048036038101906103e19190616638565b6148ed565b6040516103f39190616674565b60405180910390f35b61041660048036038101906104119190616638565b61490d565b005b610420614cb9565b60405161042d919061695d565b60405180910390f35b610450600480360381019061044b9190616ae0565b614fbf565b005b61046c60048036038101906104679190616316565b6159b1565b005b61048860048036038101906104839190616638565b616012565b6040516104959190616674565b60405180910390f35b336104cb7f45e67ef3bc2e07d279532583ac492feaa7734b8eef97327c5c6d31940d23dc7d60001b616032565b6104f77fc0f3716e4cec117efcf7cd018844957fc5132f8b89a83f3bda8da7a332f7bef960001b616032565b6105237fbb970e1ac054ca2e0e694ddb4eabb3e700850bfa4b85d7ad2f09d84499a4dcbb60001b616032565b6000600360008373ffffffffffffffffffffffffffffffffffffffff1673ffffffffffffffffffffffffffffffffffffffff16815260200190815260200160002060009054906101000a900460ff1690506105a07f9267cf38ec2425ea54489ae44b555e54be79e75400f3bb757a84bd3518c1f32260001b616032565b6105cc7f3daa41452ac269df6ec0ca76175ced690e3c51e65142ebf56071a93501df2bed60001b616032565b6105f87f89cd0008da173296b01d4f0ae5a99374731fb3e43bfe8fe2890bfd29237bdeda60001b616032565b80610638576040517f08c379a000000000000000000000000000000000000000000000000000000000815260040161062f90616c45565b60405180910390fd5b6106647fc36b82b487078f08f4a251047c2dd1a83a9dfb86e52512b8c9cc003dc023a7bb60001b616032565b6106907fb5204783c43260cc46782fc1cbc45593c62e299abecd89c09d921ebcf608bc2960001b616032565b6106bc7f81b881a0ec83207026109997c8deee22676f2770a18190e129eee70761c918db60001b616032565b6106e87f51c70a3e6fedf888ecdb8582cbc84a280e8aad6521d14f404e82134a771592fb60001b616032565b6107147fb2364d97795308acea62d555eafd3514d6529b98fe5eabed192658ae6f3044f460001b616032565b60006004600085815260200190815260200160002060070160146101000a81548160ff02191690831515021790555061076f7f05602e1b829cba36b3ae45a33326a2b2e02ccb7193c9673648e1e66370fb732060001b616032565b61079b7f94656d5ac749f35c5324c81df32f043c710eb21aee9a7f5f3aa417d8d2868f1c60001b616032565b6107a56002616035565b6107d17fd686d9ca962486f898149da1d8a7e63ca34b44f183bac7413a11782a5c2e523860001b616032565b600860006107df91906161a4565b505050565b60606107ee612883565b1561082e576040517f08c379a000000000000000000000000000000000000000000000000000000000815260040161082590616cb1565b60405180910390fd5b61085a7f65045625b1d30e941547fa7f2f4094ac426c0bc169a772c41e9e4bd7b28ee97d60001b616032565b6108867f91e612bc2399996203fcc5f7999495f4324c8756a2c83afb919655a38e19371060001b616032565b6108b27febf90055781f2e0ec42e664b29a6fe4b13d3dc1bf82e976a8a354ee17867947f60001b616032565b6108de7f42425ca950443e3dc154dfd1aa48aa0d41f13bd6ee78b85083a916df3882d7cb60001b616032565b60001515600560003373ffffffffffffffffffffffffffffffffffffffff1673ffffffffffffffffffffffffffffffffffffffff16815260200190815260200160002060009054906101000a900460ff16151514610971576040517f08c379a000000000000000000000000000000000000000000000000000000000815260040161096890616d43565b60405180910390fd5b61099d7f7565328dcea80bbb0d1ac99fa9d55cd711ad97e2d0601f0ac155a454a7dc64a260001b616032565b6109c97f1c60f3587ab42129a792e62837e2e41c8d3060dc5200688f7a04482b67998bb060001b616032565b6109f57fd41d81a6b134441ca74fdfbdab0ad9921f38ff165bb1d7dd8cacb39c438a24eb60001b616032565b610a217f8934fc2e00869ab3d97553d245f82c92adf3daba7ebcb8d85b123e4d124ee00c60001b616032565b610a4d7ff7a9e3c2aa523c9318b5a0443834478154c43ef27e842e0c52020ea7936b2b0660001b616032565b6000610a59600161604b565b9050610a877fd936db7d36f40236c41d5aa86a1eea54cdac9e7e1e76fdc223f43a67ba81df7c60001b616032565b610ab37fdd4e6a78099d06ca442449bb1fd74fa98524eec4921f40742314a48de78898e460001b616032565b6000610ae17f042ccc539b618dc8751f301aa55a67d12e125c9471abcbd7867874836168aa0b60001b616032565b610b0d7fc91a8f67a38f38b9de05078fbaf13a84dc221b6ac56174dc2efe3bd889e70cdb60001b616032565b6000610b3b7f5d5f42f5914ab0e44e7033a79135ee1b6b8cf9f6e23cd20e8b55fce0582fa69960001b616032565b610b677f5117b5ecb97d1236c819d6b6d6d9b616562b3d97153c87eb11b1b9f5d56fbdc060001b616032565b60005b83811015610d1857610b9e7ffc814ebc91d8ac3f7c8c195022347ed2f83d551198d6e72930c4060eb94c4fcb60001b616032565b610bca7f9d9cb9cbafc48c57c704c7cf34d1b80192eae6a261237583232e0cb7dacd64e160001b616032565b3373ffffffffffffffffffffffffffffffffffffffff1660046000600184610bf29190616d92565b815260200190815260200160002060070160009054906101000a900473ffffffffffffffffffffffffffffffffffffffff1673ffffffffffffffffffffffffffffffffffffffff161415610cd857610c6c7fd9f2a8293befa354e2274b8fedd94f8f88f1e31b3ef2df8d27a43addb8e2b8b960001b616032565b610c987f61821c0beee047ec101c3464cf9e822c867ba4fbef391236cd8b7e96be386d3260001b616032565b610cc47f6196980038d9061cc1b7266eae804581d4b01906f681b3e0f76b08a3bd095b3e60001b616032565b600183610cd19190616d92565b9250610d05565b610d047f48313926987ce759f1fb4fc09873c94f05022f1274f32cba9006b4c47ee9a42660001b616032565b5b8080610d1090616de8565b915050610b6a565b50610d457f64f39a9caed12e3ac558e584526ace0dbc782aa715a7f80a37f10f3c2fdec2ca60001b616032565b610d717fa7db89cee10926a66dbe55fbdb20b244e928d7fc01248baef2f433bda983d58360001b616032565b60008267ffffffffffffffff811115610d8d57610d8c616989565b5b604051908082528060200260200182016040528015610dc657816020015b610db36161c5565b815260200190600190039081610dab5790505b509050610df57f9976f651333da4942c4f41312ae77dcce9fe5fe93b1031268c2ea829663818bd60001b616032565b610e217fe2fce743910d689bced6677087c04b7149ee76e0b32f6b5c3740696ebf205af760001b616032565b60005b848110156114a457610e587f64d0936aa50ca086ecb90e3ea3da310cc9b11ff0fb06790bc6fe11a41cd3503160001b616032565b610e847fcceb0b3933c7b08eefe12ef0d55c21f56689e981a2750b7455b5ee9da7f2cf3560001b616032565b3373ffffffffffffffffffffffffffffffffffffffff1660046000600184610eac9190616d92565b815260200190815260200160002060070160009054906101000a900473ffffffffffffffffffffffffffffffffffffffff1673ffffffffffffffffffffffffffffffffffffffff16141561146457610f267f284661142fd0dc98a235b899d419d7ddd3f0737de67484552fd72a18b2e133bb60001b616032565b610f527f8ef76b58ce1f4b8936928ddd4b32e7bafd16fe62fddff082d10b3e2e4b97aee560001b616032565b610f7e7f37a3a3921f7842a7653d5e67fb2bcfd5822155142451abdc8b5b5b4d461b36be60001b616032565b600060046000600184610f919190616d92565b8152602001908152602001600020600001549050610fd17f6cfc046bcb0c0e312202636277081aaf30cb20f04d49351b2deaa21dbf98468260001b616032565b610ffd7f147c99e861a68b683bcea8c415e7295d1bbe9ad0ca849fb0c904b9da05f2267960001b616032565b60006004600083815260200190815260200160002090506110407fc0d693c0a937450e39aa96074eed8dd8f1d3ab5d11e48492c6ed84058bf285be60001b616032565b61106c7f976ee32d37ab68029fcff8058fd3b9800108245f0de5bd46bb7ba2a35c10da3760001b616032565b80604051806101200160405290816000820154815260200160018201805461109390616e60565b80601f01602080910402602001604051908101604052809291908181526020018280546110bf90616e60565b801561110c5780601f106110e15761010080835404028352916020019161110c565b820191906000526020600020905b8154815290600101906020018083116110ef57829003601f168201915b5050505050815260200160028201805461112590616e60565b80601f016020809104026020016040519081016040528092919081815260200182805461115190616e60565b801561119e5780601f106111735761010080835404028352916020019161119e565b820191906000526020600020905b81548152906001019060200180831161118157829003601f168201915b505050505081526020016003820180546111b790616e60565b80601f01602080910402602001604051908101604052809291908181526020018280546111e390616e60565b80156112305780601f1061120557610100808354040283529160200191611230565b820191906000526020600020905b81548152906001019060200180831161121357829003601f168201915b5050505050815260200160048201805461124990616e60565b80601f016020809104026020016040519081016040528092919081815260200182805461127590616e60565b80156112c25780601f10611297576101008083540402835291602001916112c2565b820191906000526020600020905b8154815290600101906020018083116112a557829003601f168201915b505050505081526020016005820180546112db90616e60565b80601f016020809104026020016040519081016040528092919081815260200182805461130790616e60565b80156113545780601f1061132957610100808354040283529160200191611354565b820191906000526020600020905b81548152906001019060200180831161133757829003601f168201915b50505050508152602001600682015481526020016007820160009054906101000a900473ffffffffffffffffffffffffffffffffffffffff1673ffffffffffffffffffffffffffffffffffffffff1673ffffffffffffffffffffffffffffffffffffffff1681526020016007820160149054906101000a900460ff1615151515815250508486815181106113eb576113ea616e92565b5b60200260200101819052506114227f71ae0a88c379b00c16c7f47940fd56bd0ca72b099e6d68e206f08ef2904e298560001b616032565b61144e7f0eb84b31480875d214f189232a774c671b492d0184207fa655baea8b6276f32660001b616032565b60018561145b9190616d92565b94505050611491565b6114907f014e1d1394115a29f61b360040b51b68cb8bea2d63569af2fc868d44d45fa9ce60001b616032565b5b808061149c90616de8565b915050610e24565b506114d17f2f843a9c786503fe9f13bd05b81078a15dbbf8307b56b608b9d11a9e1fda41da60001b616032565b6114fd7f3bcc56d73bd7d7d34b9361e97737d7dd92905eec897df2ff96f2f832f30e206c60001b616032565b8094505050505090565b336115347f45e67ef3bc2e07d279532583ac492feaa7734b8eef97327c5c6d31940d23dc7d60001b616032565b6115607fc0f3716e4cec117efcf7cd018844957fc5132f8b89a83f3bda8da7a332f7bef960001b616032565b61158c7fbb970e1ac054ca2e0e694ddb4eabb3e700850bfa4b85d7ad2f09d84499a4dcbb60001b616032565b6000600360008373ffffffffffffffffffffffffffffffffffffffff1673ffffffffffffffffffffffffffffffffffffffff16815260200190815260200160002060009054906101000a900460ff1690506116097f9267cf38ec2425ea54489ae44b555e54be79e75400f3bb757a84bd3518c1f32260001b616032565b6116357f3daa41452ac269df6ec0ca76175ced690e3c51e65142ebf56071a93501df2bed60001b616032565b6116617f89cd0008da173296b01d4f0ae5a99374731fb3e43bfe8fe2890bfd29237bdeda60001b616032565b806116a1576040517f08c379a000000000000000000000000000000000000000000000000000000000815260040161169890616c45565b60405180910390fd5b6116cd7fc36b82b487078f08f4a251047c2dd1a83a9dfb86e52512b8c9cc003dc023a7bb60001b616032565b6116f97fb5204783c43260cc46782fc1cbc45593c62e299abecd89c09d921ebcf608bc2960001b616032565b6117257f654496c096d9dc4ec5772a907ff43d6333b0ef0be20b1350b7cc0e66512e95de60001b616032565b6117517f0ac3eddf412a0c69fbffe0bd68f3f1835df557824e8c2609f5a53b0c8383b32e60001b616032565b61177d7f4fc5a16d5486188f19c04067ed744910bb953e9afcd1ee5d93d325f21c7644be60001b616032565b611785616059565b5050565b6000336117b87f45e67ef3bc2e07d279532583ac492feaa7734b8eef97327c5c6d31940d23dc7d60001b616032565b6117e47fc0f3716e4cec117efcf7cd018844957fc5132f8b89a83f3bda8da7a332f7bef960001b616032565b6118107fbb970e1ac054ca2e0e694ddb4eabb3e700850bfa4b85d7ad2f09d84499a4dcbb60001b616032565b6000600360008373ffffffffffffffffffffffffffffffffffffffff1673ffffffffffffffffffffffffffffffffffffffff16815260200190815260200160002060009054906101000a900460ff16905061188d7f9267cf38ec2425ea54489ae44b555e54be79e75400f3bb757a84bd3518c1f32260001b616032565b6118b97f3daa41452ac269df6ec0ca76175ced690e3c51e65142ebf56071a93501df2bed60001b616032565b6118e57f89cd0008da173296b01d4f0ae5a99374731fb3e43bfe8fe2890bfd29237bdeda60001b616032565b80611925576040517f08c379a000000000000000000000000000000000000000000000000000000000815260040161191c90616c45565b60405180910390fd5b6119517fc36b82b487078f08f4a251047c2dd1a83a9dfb86e52512b8c9cc003dc023a7bb60001b616032565b61197d7fb5204783c43260cc46782fc1cbc45593c62e299abecd89c09d921ebcf608bc2960001b616032565b6119a97f224b19222b528028ded6ac89ba03fb1dfa7ae8b252b497c2084f8da5dbb2e49960001b616032565b6119d57f97d02b3151bb22d9fbcab73c9d3c4c2021208549717c58967a8e30b362d9301760001b616032565b611a017f5f72c6611bf5fcd8bbe0e767c224e61319184788c46a4eaf7e8f1af92c748c7d60001b616032565b6001600560008673ffffffffffffffffffffffffffffffffffffffff1673ffffffffffffffffffffffffffffffffffffffff16815260200190815260200160002060006101000a81548160ff021916908315150217905550611a857f8aefdb4b9e2ac8e86708362ec9db6bb6115e7f8ad40035f34c165f74a045bfd860001b616032565b611ab17f54e7888af0c21bb9130b0492c22336ff5624c4026fbe6da5513849aa70dd3fa960001b616032565b6006849080600181540180825580915050600190039060005260206000200160009091909190916101000a81548173ffffffffffffffffffffffffffffffffffffffff021916908373ffffffffffffffffffffffffffffffffffffffff160217905550611b407fd2f83786915f3471bec5c0ddc438a34393dd355b6bd73ae5720da4b66e16b64860001b616032565b611b6c7f3bc05609652c9425a00c29651453836795b7044fff445f8da49e3fbf27beb31d60001b616032565b7f2baa715fcf00d01553d31801d54d8f0cdfed5dfd3de24bf24c49281cd165439784604051611b9b919061676f565b60405180910390a1611bcf7fe9fb4f23611504a56f05bdd39cc64c07340a1acb9e109542928b7ae0698be04460001b616032565b611bfb7f518d1688b5660cc9fe8b432279d88fc007dd75ab40f28ee37378688010c879c160001b616032565b600192505050919050565b611c0e612883565b15611c4e576040517f08c379a0000000000000000000000000000000000000000000000000000000008152600401611c4590616cb1565b60405180910390fd5b33611c7b7f45e67ef3bc2e07d279532583ac492feaa7734b8eef97327c5c6d31940d23dc7d60001b616032565b611ca77fc0f3716e4cec117efcf7cd018844957fc5132f8b89a83f3bda8da7a332f7bef960001b616032565b611cd37fbb970e1ac054ca2e0e694ddb4eabb3e700850bfa4b85d7ad2f09d84499a4dcbb60001b616032565b6000600360008373ffffffffffffffffffffffffffffffffffffffff1673ffffffffffffffffffffffffffffffffffffffff16815260200190815260200160002060009054906101000a900460ff169050611d507f9267cf38ec2425ea54489ae44b555e54be79e75400f3bb757a84bd3518c1f32260001b616032565b611d7c7f3daa41452ac269df6ec0ca76175ced690e3c51e65142ebf56071a93501df2bed60001b616032565b611da87f89cd0008da173296b01d4f0ae5a99374731fb3e43bfe8fe2890bfd29237bdeda60001b616032565b80611de8576040517f08c379a0000000000000000000000000000000000000000000000000000000008152600401611ddf90616c45565b60405180910390fd5b611e147fc36b82b487078f08f4a251047c2dd1a83a9dfb86e52512b8c9cc003dc023a7bb60001b616032565b611e407fb5204783c43260cc46782fc1cbc45593c62e299abecd89c09d921ebcf608bc2960001b616032565b611e6c7f7b35dc874ed499aef078d3e85ffec87037b38a8985509619192b5f227c7e344a60001b616032565b611e987f678b3af79718121fc629a9df751a05c8aec46b720aa89f865c49301a3aa8f3ea60001b616032565b611ec47f5a272c1739cf49b40eac5ba5686e3e49b5e6fcd7b954f80caedef4fb6f835e7c60001b616032565b6000600360008573ffffffffffffffffffffffffffffffffffffffff1673ffffffffffffffffffffffffffffffffffffffff16815260200190815260200160002060006101000a81548160ff021916908315150217905550611f487f7f584c87d6d14c3eb9450cbb70eacccb3720054adc48dcdfae4190e63dc65abd60001b616032565b611f747f2a0174729e62a5627bc2276a2ab94d5601018904c18a7b67cf0c4295d001d1e160001b616032565b7f21e8741435b5373014087a70641e17e7139c8f3ecffbc070c83ca921e5f06ab53384604051611fa5929190616ec1565b60405180910390a1505050565b600033611fe17f45e67ef3bc2e07d279532583ac492feaa7734b8eef97327c5c6d31940d23dc7d60001b616032565b61200d7fc0f3716e4cec117efcf7cd018844957fc5132f8b89a83f3bda8da7a332f7bef960001b616032565b6120397fbb970e1ac054ca2e0e694ddb4eabb3e700850bfa4b85d7ad2f09d84499a4dcbb60001b616032565b6000600360008373ffffffffffffffffffffffffffffffffffffffff1673ffffffffffffffffffffffffffffffffffffffff16815260200190815260200160002060009054906101000a900460ff1690506120b67f9267cf38ec2425ea54489ae44b555e54be79e75400f3bb757a84bd3518c1f32260001b616032565b6120e27f3daa41452ac269df6ec0ca76175ced690e3c51e65142ebf56071a93501df2bed60001b616032565b61210e7f89cd0008da173296b01d4f0ae5a99374731fb3e43bfe8fe2890bfd29237bdeda60001b616032565b8061214e576040517f08c379a000000000000000000000000000000000000000000000000000000000815260040161214590616c45565b60405180910390fd5b61217a7fc36b82b487078f08f4a251047c2dd1a83a9dfb86e52512b8c9cc003dc023a7bb60001b616032565b6121a67fb5204783c43260cc46782fc1cbc45593c62e299abecd89c09d921ebcf608bc2960001b616032565b6121d27f7accb01e3aedbfd4b4596801637382126d7ff10568e06616bca93949a909625760001b616032565b6121fe7f35e343ba517cd5930afb8c9421c7a1e3458949c5341808ecd1c57e13a477b3f460001b616032565b61222a7fb5a99bf136fe885a7768d0c2db12f00faf5e95588883d577efea16cb7a31b82260001b616032565b6000600760008673ffffffffffffffffffffffffffffffffffffffff1673ffffffffffffffffffffffffffffffffffffffff16815260200190815260200160002054905061229a7f1ab93a16d69bc86f1fa9c626888644136fa451a3bb0bd99f9134b799bb15458160001b616032565b6122c67f5b7b2c64d8d46beb4c1a458692c0efdb8329ae1a73cefefab10cc79598088ce060001b616032565b600660016006805490506122da9190616eea565b815481106122eb576122ea616e92565b5b9060005260206000200160009054906101000a900473ffffffffffffffffffffffffffffffffffffffff166006828154811061232a57612329616e92565b5b9060005260206000200160006101000a81548173ffffffffffffffffffffffffffffffffffffffff021916908373ffffffffffffffffffffffffffffffffffffffff16021790555061239e7f8c793538fc21e5a880b496f2de32047245868faa25dfafda67a41314d0ef3eb360001b616032565b6123ca7f91accb69d08f8579373f511f093297681813c983749c27788ad11839cb20646e60001b616032565b60068054806123dc576123db616f1e565b5b6001900381819060005260206000200160006101000a81549073ffffffffffffffffffffffffffffffffffffffff0219169055905561243d7fad5ee886f9a2137137c8c5508468d78e78b48d7cb8fc3bce5af1779b44eba40260001b616032565b6124687e9d377c7b6c369d51b72160f67d83f75fb6c3f4841f7e6e0bbed9071d54c48260001b616032565b6000600560008773ffffffffffffffffffffffffffffffffffffffff1673ffffffffffffffffffffffffffffffffffffffff16815260200190815260200160002060006101000a81548160ff0219169083151502179055506124ec7f966505976c2dbd9a8dc0b562a9f2189d923205df6f00bd918829f49a01925b3060001b616032565b6125187fc3523b8e194f15ecb5c4068b22238445cf0a3cb65f0e058182223db84dafb2c660001b616032565b7f92e933ae15bd6223e7a81ec3233d4252ded2d20b856dd551c95447ffad396df085604051612547919061676f565b60405180910390a161257b7fffe31486900fcafb662444fa0d8471e719944ea97cd63c94ff08cfc691ba2bb060001b616032565b6125a77fd1870f0084ed402be8a87327a5012b14fd26d146fc0a51b01d3ab2b82f25353160001b616032565b60019350505050919050565b6060336125e27f45e67ef3bc2e07d279532583ac492feaa7734b8eef97327c5c6d31940d23dc7d60001b616032565b61260e7fc0f3716e4cec117efcf7cd018844957fc5132f8b89a83f3bda8da7a332f7bef960001b616032565b61263a7fbb970e1ac054ca2e0e694ddb4eabb3e700850bfa4b85d7ad2f09d84499a4dcbb60001b616032565b6000600360008373ffffffffffffffffffffffffffffffffffffffff1673ffffffffffffffffffffffffffffffffffffffff16815260200190815260200160002060009054906101000a900460ff1690506126b77f9267cf38ec2425ea54489ae44b555e54be79e75400f3bb757a84bd3518c1f32260001b616032565b6126e37f3daa41452ac269df6ec0ca76175ced690e3c51e65142ebf56071a93501df2bed60001b616032565b61270f7f89cd0008da173296b01d4f0ae5a99374731fb3e43bfe8fe2890bfd29237bdeda60001b616032565b8061274f576040517f08c379a000000000000000000000000000000000000000000000000000000000815260040161274690616c45565b60405180910390fd5b61277b7fc36b82b487078f08f4a251047c2dd1a83a9dfb86e52512b8c9cc003dc023a7bb60001b616032565b6127a77fb5204783c43260cc46782fc1cbc45593c62e299abecd89c09d921ebcf608bc2960001b616032565b6127d37ff6079b0de7505e189bc421f2c655ebc78ec5dba97a4bb653a2ceb9aeb1b5def260001b616032565b6127ff7f841e4ff253aeab1143c1c1dc8ea16d4cddc1894881e3c3bf6f37a5ebcb271ce960001b616032565b61282b7f0798967bae922f0c04bd8aa9afe9a7a2ff572fd12f7d715f4289f347c11deac660001b616032565b600880548060200260200160405190810160405280929190818152602001828054801561287757602002820191906000526020600020905b815481526020019060010190808311612863575b50505050509250505090565b60008060009054906101000a900460ff16905090565b60006128a3612883565b156128e3576040517f08c379a00000000000000000000000000000000000000000000000000000000081526004016128da90616cb1565b60405180910390fd5b61290f7fc25d8c7eb44dd31a0e3ab370a85c2fe90dca81f1b8dc2796941b24ebfafbe00860001b616032565b61293b7f8d8710dcef2a7ab371fa30af925709ea7790289a737dae56ee9f6f85e2a7cf4b60001b616032565b6129677fe8f36030b7befcd9819f2be4ad0ffed6d245974b2ee8456a4b1f1aa30faf21bd60001b616032565b6000600360008473ffffffffffffffffffffffffffffffffffffffff1673ffffffffffffffffffffffffffffffffffffffff16815260200190815260200160002060009054906101000a900460ff1690506129e47fe98d8cde4ada51609b6696270241eeec3db5f0ce21ba3d081b3cb639a342b88d60001b616032565b612a107f6289fba7c7d3240274d245bf2b33f920d302bc18c9af69f89fdc416079faa34660001b616032565b80915050919050565b60068181548110612a2957600080fd5b906000526020600020016000915054906101000a900473ffffffffffffffffffffffffffffffffffffffff1681565b612a60612883565b15612aa0576040517f08c379a0000000000000000000000000000000000000000000000000000000008152600401612a9790616cb1565b60405180910390fd5b612acc7f65045625b1d30e941547fa7f2f4094ac426c0bc169a772c41e9e4bd7b28ee97d60001b616032565b612af87f91e612bc2399996203fcc5f7999495f4324c8756a2c83afb919655a38e19371060001b616032565b612b247febf90055781f2e0ec42e664b29a6fe4b13d3dc1bf82e976a8a354ee17867947f60001b616032565b612b507f42425ca950443e3dc154dfd1aa48aa0d41f13bd6ee78b85083a916df3882d7cb60001b616032565b60001515600560003373ffffffffffffffffffffffffffffffffffffffff1673ffffffffffffffffffffffffffffffffffffffff16815260200190815260200160002060009054906101000a900460ff16151514612be3576040517f08c379a0000000000000000000000000000000000000000000000000000000008152600401612bda90616d43565b60405180910390fd5b612c0f7f7565328dcea80bbb0d1ac99fa9d55cd711ad97e2d0601f0ac155a454a7dc64a260001b616032565b612c3b7f1c60f3587ab42129a792e62837e2e41c8d3060dc5200688f7a04482b67998bb060001b616032565b612c677f7614cd9e1afb886887dd5aae606dc66bdbce30671b488a404e612b15c87b0abb60001b616032565b612c937f2c5a8571e20db7a03efd25736bed06f0ce71edc079d4edcd6c99284884f42c3660001b616032565b612cbf7fc18711194be2d7398a05debe376fbee91273f2b2e9c5669c6c16b0dbe6213a7d60001b616032565b612ceb7f02bb31e7ccaaa58b5e53c6ba8b8fe7c75f44fb9da79ff3ffccc5beb3065768e460001b616032565b3373ffffffffffffffffffffffffffffffffffffffff166004600083815260200190815260200160002060070160009054906101000a900473ffffffffffffffffffffffffffffffffffffffff1673ffffffffffffffffffffffffffffffffffffffff1614612d8f576040517f08c379a0000000000000000000000000000000000000000000000000000000008152600401612d8690616fbf565b60405180910390fd5b612dbb7ff9358b3a2cbc690fbb845cc9b647338c0c70334a4395048913c999b72a09839260001b616032565b612de77fd53549c23bc9a91383208742da5334fe605412c03e48510b9a06dfbe0909eab260001b616032565b612e137f7c810f94775c139895cf81ea038c1890d10c2b2a19e826b2f882820d7adb1daa60001b616032565b60006004600083815260200190815260200160002060070160146101000a81548160ff021916908315150217905550612e6e7f6101703ea67847528526b1b1cfba725d869e9cf0614626c86ecae85846fe0f9d60001b616032565b612e9a7f2f0dfd291e3b4381f955544d6a6909388d64fa665e259f228edb57bb47854a5760001b616032565b612ea46002616035565b612ed07f8f81a885a111f42bd6deea7c739f698e5ff3b7526c6c69a316e02dcd71638a0360001b616032565b612efc7f7f7cb04bb30d6b116519fc56120894c07698af311abe629c29fbacc96e96da7060001b616032565b7f3a9eaa6e68e81601b859b65d082cbf189fb7325635f4e1fb5cb1f19dc665508f81604051612f2b9190616893565b60405180910390a150565b33612f637f45e67ef3bc2e07d279532583ac492feaa7734b8eef97327c5c6d31940d23dc7d60001b616032565b612f8f7fc0f3716e4cec117efcf7cd018844957fc5132f8b89a83f3bda8da7a332f7bef960001b616032565b612fbb7fbb970e1ac054ca2e0e694ddb4eabb3e700850bfa4b85d7ad2f09d84499a4dcbb60001b616032565b6000600360008373ffffffffffffffffffffffffffffffffffffffff1673ffffffffffffffffffffffffffffffffffffffff16815260200190815260200160002060009054906101000a900460ff1690506130387f9267cf38ec2425ea54489ae44b555e54be79e75400f3bb757a84bd3518c1f32260001b616032565b6130647f3daa41452ac269df6ec0ca76175ced690e3c51e65142ebf56071a93501df2bed60001b616032565b6130907f89cd0008da173296b01d4f0ae5a99374731fb3e43bfe8fe2890bfd29237bdeda60001b616032565b806130d0576040517f08c379a00000000000000000000000000000000000000000000000000000000081526004016130c790616c45565b60405180910390fd5b6130fc7fc36b82b487078f08f4a251047c2dd1a83a9dfb86e52512b8c9cc003dc023a7bb60001b616032565b6131287fb5204783c43260cc46782fc1cbc45593c62e299abecd89c09d921ebcf608bc2960001b616032565b6131547fc8787fd21a9aab17fb23bca6f535672108d6e4a962a34420dfadb04ad051833260001b616032565b6131807f240053d614eaa3e95c525ced132d01eb61f307da6475711dd156b9c477ab01a560001b616032565b6131ac7f88d497d41f07f825a1ba85da0ca5850850930ae01d040fc387a974e4d656cbc960001b616032565b6131b46160fa565b5050565b6131e47fb5361fa5c31a747a631b512e195f146b9eb0a21ef679ac61915879e2d8a997b660001b616032565b6132107fcc1b2e9ed5d42444c822f37525939fbc21f71de4e816a7486ec89e8a3bf4283960001b616032565b61323c7fbb91889aebf2b649e788e7d9bbdbee3c53751117f5b8f6951be36785991cf89060001b616032565b6132687f7e2721ac326fbe742d4dc9d230ba74c8e371ca86c3b05444aa50c378e40ca61d60001b616032565b60001515600a600083815260200190815260200160002060009054906101000a900460ff161515146132cf576040517f08c379a00000000000000000000000000000000000000000000000000000000081526004016132c69061702b565b60405180910390fd5b6132fb7f8271b857f5b39c8c90ee84bc9521260b661a147fc8f7a4560d4ea8875d89f02260001b616032565b6133277fe5c48b3beea2de149f9d56a3585c8db9de511afb1c778a8d3dac5844d6523bab60001b616032565b6133537f504c345eb4f38f637b4fee5c4211a12a18c5e55969bc0a3a31bfce983033ef9b60001b616032565b6001600a600083815260200190815260200160002060006101000a81548160ff0219169083151502179055506133ab7fa6e3afbf1c2f1d223a43bb7900bc355c6c212c45b2bdc31689fa25561567959e60001b616032565b6133d77f69c4c357e7665bd0aa18edb2d5e3701cc2ab591f75855429abd1593ef04febd760001b616032565b600881908060018154018082558091505060019003906000526020600020016000909190919091505561342c7fc0277ece7e1e0e7d6dfc328ad52ade950af3ec25aa1dbf81a92c89ddccab1e3460001b616032565b6134587f737f433da37e0730695346bba8711aa7277f03de82243cbcc90077ef015b520360001b616032565b7fe62739fed49de5f6dec72a75ea57f95e1f62f266372cab8e93e8fca8f5ab9504816040516134879190616893565b60405180910390a150565b60046020528060005260406000206000915090508060000154908060010180546134bb90616e60565b80601f01602080910402602001604051908101604052809291908181526020018280546134e790616e60565b80156135345780601f1061350957610100808354040283529160200191613534565b820191906000526020600020905b81548152906001019060200180831161351757829003601f168201915b50505050509080600201805461354990616e60565b80601f016020809104026020016040519081016040528092919081815260200182805461357590616e60565b80156135c25780601f10613597576101008083540402835291602001916135c2565b820191906000526020600020905b8154815290600101906020018083116135a557829003601f168201915b5050505050908060030180546135d790616e60565b80601f016020809104026020016040519081016040528092919081815260200182805461360390616e60565b80156136505780601f1061362557610100808354040283529160200191613650565b820191906000526020600020905b81548152906001019060200180831161363357829003601f168201915b50505050509080600401805461366590616e60565b80601f016020809104026020016040519081016040528092919081815260200182805461369190616e60565b80156136de5780601f106136b3576101008083540402835291602001916136de565b820191906000526020600020905b8154815290600101906020018083116136c157829003601f168201915b5050505050908060050180546136f390616e60565b80601f016020809104026020016040519081016040528092919081815260200182805461371f90616e60565b801561376c5780601f106137415761010080835404028352916020019161376c565b820191906000526020600020905b81548152906001019060200180831161374f57829003601f168201915b5050505050908060060154908060070160009054906101000a900473ffffffffffffffffffffffffffffffffffffffff16908060070160149054906101000a900460ff16905089565b6137bd612883565b156137fd576040517f08c379a00000000000000000000000000000000000000000000000000000000081526004016137f490616cb1565b60405180910390fd5b6138297f65045625b1d30e941547fa7f2f4094ac426c0bc169a772c41e9e4bd7b28ee97d60001b616032565b6138557f91e612bc2399996203fcc5f7999495f4324c8756a2c83afb919655a38e19371060001b616032565b6138817febf90055781f2e0ec42e664b29a6fe4b13d3dc1bf82e976a8a354ee17867947f60001b616032565b6138ad7f42425ca950443e3dc154dfd1aa48aa0d41f13bd6ee78b85083a916df3882d7cb60001b616032565b60001515600560003373ffffffffffffffffffffffffffffffffffffffff1673ffffffffffffffffffffffffffffffffffffffff16815260200190815260200160002060009054906101000a900460ff16151514613940576040517f08c379a000000000000000000000000000000000000000000000000000000000815260040161393790616d43565b60405180910390fd5b61396c7f7565328dcea80bbb0d1ac99fa9d55cd711ad97e2d0601f0ac155a454a7dc64a260001b616032565b6139987f1c60f3587ab42129a792e62837e2e41c8d3060dc5200688f7a04482b67998bb060001b616032565b6139c47f85a7277645b7c3abdc8ee7aa87b819f550b8bc9a63e20a2b149f634ffdc02ecf60001b616032565b6139f07f9865845697ad07c777c4afd0fcc4bb9ce1cf1e026c45549d13e209c85e639d0760001b616032565b613a1c7f2fdde0ff60e94aee2499b2e5df6622e8a1797ed658846e3f783e425d428e1f7260001b616032565b613a487f97c3e3b5274a6a2ec9e43bdd15565ff9776e2291efaf7b2180a445dc008893d460001b616032565b3373ffffffffffffffffffffffffffffffffffffffff166004600083815260200190815260200160002060070160009054906101000a900473ffffffffffffffffffffffffffffffffffffffff1673ffffffffffffffffffffffffffffffffffffffff1614613aec576040517f08c379a0000000000000000000000000000000000000000000000000000000008152600401613ae390616fbf565b60405180910390fd5b613b187f495e05cf3a1b3b93dffb03dbe91edbb99ce13293b9d2ef80329008fcbfbc2e1560001b616032565b613b447f82c24228c9d5d08c773428a66d50ecbb410342f712d7f42833b7c7db4204d2e960001b616032565b613b707f119cac4df559e4f0eb2fad085047aa9b0c103bb92e8c0837565919c5a6f9789d60001b616032565b613b9c7f233386b1bd9dc5bf016041d802629080349fdacdd391c107730ac522db66869960001b616032565b60001515600a600083815260200190815260200160002060009054906101000a900460ff16151514613c03576040517f08c379a0000000000000000000000000000000000000000000000000000000008152600401613bfa906170e3565b60405180910390fd5b613c2f7f6fabfe5cc844fd7030180d2ff226834a235c30ce1eabe4cff824827d3f61569560001b616032565b613c5b7f5b664e22bd8b1a7dc909520020e4b01bacea61df9b1010fbae99e43dff01159d60001b616032565b613c877f4da2b2854a40e76998b71a949460f12adcea5ddce3cfe192d7b93ceaadade83860001b616032565b60016004600083815260200190815260200160002060070160146101000a81548160ff021916908315150217905550613ce27f2eac185f3ae52f4de5d5b1121ae7223d2bb6dd75210bad590aae8c33569cf16260001b616032565b613d0e7fb3baf41dff4aab58a11b3982c3ac54f61d692078269e6c2fa2fc940f58cbefb560001b616032565b613d186001616035565b613d447f5c4033a631aaffcc2d1ee3c23b02b3b490b4aa06fc9a7d4c753f74516eea812060001b616032565b613d707f06925c8e497e197b59049649e56deb3842b9ab05ead7c80eeb584131e271d2e360001b616032565b7f211c9fd4b950d899ffbafc9f17e0ea27aec103b4381f4e094ba54b34af3f730481604051613d9f9190616893565b60405180910390a150565b60088181548110613dba57600080fd5b906000526020600020016000915090505481565b600a6020528060005260406000206000915054906101000a900460ff1681565b6060613df8612883565b15613e38576040517f08c379a0000000000000000000000000000000000000000000000000000000008152600401613e2f90616cb1565b60405180910390fd5b613e647f65045625b1d30e941547fa7f2f4094ac426c0bc169a772c41e9e4bd7b28ee97d60001b616032565b613e907f91e612bc2399996203fcc5f7999495f4324c8756a2c83afb919655a38e19371060001b616032565b613ebc7febf90055781f2e0ec42e664b29a6fe4b13d3dc1bf82e976a8a354ee17867947f60001b616032565b613ee87f42425ca950443e3dc154dfd1aa48aa0d41f13bd6ee78b85083a916df3882d7cb60001b616032565b60001515600560003373ffffffffffffffffffffffffffffffffffffffff1673ffffffffffffffffffffffffffffffffffffffff16815260200190815260200160002060009054906101000a900460ff16151514613f7b576040517f08c379a0000000000000000000000000000000000000000000000000000000008152600401613f7290616d43565b60405180910390fd5b613fa77f7565328dcea80bbb0d1ac99fa9d55cd711ad97e2d0601f0ac155a454a7dc64a260001b616032565b613fd37f1c60f3587ab42129a792e62837e2e41c8d3060dc5200688f7a04482b67998bb060001b616032565b613fff7f28474ae47896df015da18f23f03371b9da5d8e78d212dc11048b1a41be59d42460001b616032565b61402b7f275ec62e65e68f1c489baa951454e97fe0b176bae44f8e03e0fd4e67b24b076c60001b616032565b6140577fa55578d6f47d8016ef512037344283a72b8478128dfea820fde46663f1b0203060001b616032565b6000614063600161604b565b90506140917f55285427944472d44cb4fd956b065eeda472fab27c5142c34bd8bb0ece5cd37160001b616032565b6140bd7f0d055c1d6b6dc75c3f36d3208630c2f639a45f6c1173e2209581f0fa4750b47460001b616032565b60006140c9600261604b565b6140d3600161604b565b6140dd9190616eea565b905061410b7f7514f471a171ad47f88e64687bc59813d2de62a472cf9e5d32f10d325e88721760001b616032565b6141377fce42f6fdf2a087088dd91cc299b131f2bc47a9f4f77c63ffebc5ee23b295d64060001b616032565b60006141657fb96f4fed7c202f123988146f141e286a62ecc0f49a9d025e1e5a294a4cb48d1360001b616032565b6141917f423b33a6797799797842940f465c2928b9007054fc71518137787cf7a2b2a81060001b616032565b60008267ffffffffffffffff8111156141ad576141ac616989565b5b6040519080825280602002602001820160405280156141e657816020015b6141d36161c5565b8152602001906001900390816141cb5790505b5090506142157f5e2cc4ebc444edf54f392b966ad25fc9ef375a26398b523ad90a34dafbc1d76260001b616032565b6142417f8638113b263c0dc15b7b193fbdf8decfe9d5d0a631d7a33a63b423e45218f72f60001b616032565b60005b8481101561488a576142787f6244cc419d221e55e2dd96e42e2f9a0062a8b5d5c7908f2871aba8d1f275d02960001b616032565b6142a47f1e62dcfc13f68a425a7f5551c0a1bee97c0b7d4de03c6f5ee84ef7d0f1ebe20460001b616032565b60011515600460006001846142b99190616d92565b815260200190815260200160002060070160149054906101000a900460ff161515141561484a5761430c7fc221674f50c0b70c9b6a9d465c75d42d2e1ebe8f293a3f5b14a2432e13ff8a7260001b616032565b6143387f6746bfbfd4638329f0b64c4c21228cb3f9706436fe3e6e0a74e9bc9a33b1794c60001b616032565b6143647f7e06f3a8f258823a926b781e832d63eb158ebd8b4fae00b2c1b5c64b621241ab60001b616032565b6000600460006001846143779190616d92565b81526020019081526020016000206000015490506143b77f7b7399205b18970a165d620c36c49be2590629f72eb8ff3ca8deda111a756d0660001b616032565b6143e37fb1c28af0c0c8d2c123503b9e20c46ccc1e29b1460c3e49f7ef478f2232dc13f360001b616032565b60006004600083815260200190815260200160002090506144267f395d06ae9f73bdfc97381126a20d180b19a3416f401dc201a9a6aa83ae614c9560001b616032565b6144527fed1f8c32f7d2d3685d9228e5bd372d836425d627c00ea4cac622babdd430e34e60001b616032565b80604051806101200160405290816000820154815260200160018201805461447990616e60565b80601f01602080910402602001604051908101604052809291908181526020018280546144a590616e60565b80156144f25780601f106144c7576101008083540402835291602001916144f2565b820191906000526020600020905b8154815290600101906020018083116144d557829003601f168201915b5050505050815260200160028201805461450b90616e60565b80601f016020809104026020016040519081016040528092919081815260200182805461453790616e60565b80156145845780601f1061455957610100808354040283529160200191614584565b820191906000526020600020905b81548152906001019060200180831161456757829003601f168201915b5050505050815260200160038201805461459d90616e60565b80601f01602080910402602001604051908101604052809291908181526020018280546145c990616e60565b80156146165780601f106145eb57610100808354040283529160200191614616565b820191906000526020600020905b8154815290600101906020018083116145f957829003601f168201915b5050505050815260200160048201805461462f90616e60565b80601f016020809104026020016040519081016040528092919081815260200182805461465b90616e60565b80156146a85780601f1061467d576101008083540402835291602001916146a8565b820191906000526020600020905b81548152906001019060200180831161468b57829003601f168201915b505050505081526020016005820180546146c190616e60565b80601f01602080910402602001604051908101604052809291908181526020018280546146ed90616e60565b801561473a5780601f1061470f5761010080835404028352916020019161473a565b820191906000526020600020905b81548152906001019060200180831161471d57829003601f168201915b50505050508152602001600682015481526020016007820160009054906101000a900473ffffffffffffffffffffffffffffffffffffffff1673ffffffffffffffffffffffffffffffffffffffff1673ffffffffffffffffffffffffffffffffffffffff1681526020016007820160149054906101000a900460ff1615151515815250508486815181106147d1576147d0616e92565b5b60200260200101819052506148087fe39073a6060cfabdeb9cca8997d9c4c27761215091162681c4d8b10294df51d360001b616032565b6148347fbabeb368440f32ff2fb57578522016b94bb8de470675099c2b10030a0d5faf6b60001b616032565b6001856148419190616d92565b94505050614877565b6148767f2c87c7fdd48ed53b524860360a635645987174660dacb488066f37044e0f0dec60001b616032565b5b808061488290616de8565b915050614244565b506148b77fc8cb43b5922527f5068ca3c52eeec16ef22bbab4ff3a6c9a3901fbd0be6d510b60001b616032565b6148e37f9cf87ab3e711fd4f254bbeb547e9dd057e9d0d479b744011a08c770e844de23c60001b616032565b8094505050505090565b60036020528060005260406000206000915054906101000a900460ff1681565b614915612883565b15614955576040517f08c379a000000000000000000000000000000000000000000000000000000000815260040161494c90616cb1565b60405180910390fd5b336149827f45e67ef3bc2e07d279532583ac492feaa7734b8eef97327c5c6d31940d23dc7d60001b616032565b6149ae7fc0f3716e4cec117efcf7cd018844957fc5132f8b89a83f3bda8da7a332f7bef960001b616032565b6149da7fbb970e1ac054ca2e0e694ddb4eabb3e700850bfa4b85d7ad2f09d84499a4dcbb60001b616032565b6000600360008373ffffffffffffffffffffffffffffffffffffffff1673ffffffffffffffffffffffffffffffffffffffff16815260200190815260200160002060009054906101000a900460ff169050614a577f9267cf38ec2425ea54489ae44b555e54be79e75400f3bb757a84bd3518c1f32260001b616032565b614a837f3daa41452ac269df6ec0ca76175ced690e3c51e65142ebf56071a93501df2bed60001b616032565b614aaf7f89cd0008da173296b01d4f0ae5a99374731fb3e43bfe8fe2890bfd29237bdeda60001b616032565b80614aef576040517f08c379a0000000000000000000000000000000000000000000000000000000008152600401614ae690616c45565b60405180910390fd5b614b1b7fc36b82b487078f08f4a251047c2dd1a83a9dfb86e52512b8c9cc003dc023a7bb60001b616032565b614b477fb5204783c43260cc46782fc1cbc45593c62e299abecd89c09d921ebcf608bc2960001b616032565b614b737f33717733ca864ddff9ce1b84cca727b0f6161034d22f40580bffaee807ec12b660001b616032565b614b9f7f44747bac8f4bd6bfa1a248c8d2dbbda9cbfbef0141ce04d213aa746fd8ec336360001b616032565b614bcb7fd59ea53155e56a378277a986ce4bb1e3d39240d4bb078ad3d125b225592fb2f360001b616032565b6001600360008573ffffffffffffffffffffffffffffffffffffffff1673ffffffffffffffffffffffffffffffffffffffff16815260200190815260200160002060006101000a81548160ff021916908315150217905550614c4f7f79da4e1eab3d71473e952046671ef05b260276fb7397b6d07c2746a97d46e6cd60001b616032565b614c7b7f018038c9696cdcbbef0ea6c5d3e8ad13031b1ea602d53be315ad434ce002c88260001b616032565b7fb5dd25a9cfca5e08f42d8aa38af875754ee83968a096a48442d6af229d64de653384604051614cac929190616ec1565b60405180910390a1505050565b606033614ce87f45e67ef3bc2e07d279532583ac492feaa7734b8eef97327c5c6d31940d23dc7d60001b616032565b614d147fc0f3716e4cec117efcf7cd018844957fc5132f8b89a83f3bda8da7a332f7bef960001b616032565b614d407fbb970e1ac054ca2e0e694ddb4eabb3e700850bfa4b85d7ad2f09d84499a4dcbb60001b616032565b6000600360008373ffffffffffffffffffffffffffffffffffffffff1673ffffffffffffffffffffffffffffffffffffffff16815260200190815260200160002060009054906101000a900460ff169050614dbd7f9267cf38ec2425ea54489ae44b555e54be79e75400f3bb757a84bd3518c1f32260001b616032565b614de97f3daa41452ac269df6ec0ca76175ced690e3c51e65142ebf56071a93501df2bed60001b616032565b614e157f89cd0008da173296b01d4f0ae5a99374731fb3e43bfe8fe2890bfd29237bdeda60001b616032565b80614e55576040517f08c379a0000000000000000000000000000000000000000000000000000000008152600401614e4c90616c45565b60405180910390fd5b614e817fc36b82b487078f08f4a251047c2dd1a83a9dfb86e52512b8c9cc003dc023a7bb60001b616032565b614ead7fb5204783c43260cc46782fc1cbc45593c62e299abecd89c09d921ebcf608bc2960001b616032565b614ed97f281746a46db113ead02233571065d095dd0bc8d7a3a0d12a2babf58ee09713df60001b616032565b614f057fe14a94542475015a7ef874779961b7a601a0e681b90962bd4ee5a1f56ca802c660001b616032565b614f317f12a95ea6b277f4d9d5666c498c0cb8c34692264252e36f9dcf9e6f6959dbbf0d60001b616032565b6006805480602002602001604051908101604052809291908181526020018280548015614fb357602002820191906000526020600020905b8160009054906101000a900473ffffffffffffffffffffffffffffffffffffffff1673ffffffffffffffffffffffffffffffffffffffff1681526020019060010190808311614f69575b50505050509250505090565b614fc7612883565b15615007576040517f08c379a0000000000000000000000000000000000000000000000000000000008152600401614ffe90616cb1565b60405180910390fd5b6150337f65045625b1d30e941547fa7f2f4094ac426c0bc169a772c41e9e4bd7b28ee97d60001b616032565b61505f7f91e612bc2399996203fcc5f7999495f4324c8756a2c83afb919655a38e19371060001b616032565b61508b7febf90055781f2e0ec42e664b29a6fe4b13d3dc1bf82e976a8a354ee17867947f60001b616032565b6150b77f42425ca950443e3dc154dfd1aa48aa0d41f13bd6ee78b85083a916df3882d7cb60001b616032565b60001515600560003373ffffffffffffffffffffffffffffffffffffffff1673ffffffffffffffffffffffffffffffffffffffff16815260200190815260200160002060009054906101000a900460ff1615151461514a576040517f08c379a000000000000000000000000000000000000000000000000000000000815260040161514190616d43565b60405180910390fd5b6151767f7565328dcea80bbb0d1ac99fa9d55cd711ad97e2d0601f0ac155a454a7dc64a260001b616032565b6151a27f1c60f3587ab42129a792e62837e2e41c8d3060dc5200688f7a04482b67998bb060001b616032565b6151ce7fce82b3c6e31113cf356d2db9a46db1aab7f9753f0f5b7e2e6117e95d9ed7768760001b616032565b6151fa7f3ac71915bb08b204fd48a2501f959fd5e6a0cfa82380971dd0855bef1ea0986e60001b616032565b6152267f74899f1374ff9827d705f13250b237e0aa8b0dcb6851336d6c97e4937fa3069460001b616032565b6152527f7ce17c92cb8e79af43d8b3f9bf3d90c886865ff75aa46c03fb1278bf2d167df860001b616032565b600086511161526057600080fd5b61528c7ffee784c944f1446cfba7c1f2f5f10e4a64ae610691d75d67617afed6c681c2dc60001b616032565b6152b87f4260d5a1e855b543b675bb0a3d96c896facae47ad8af01ede5af5af1c2af428a60001b616032565b6152e47fd43764485c3fc213f523fe9f8db6150c526a0cd12a9fbcab30a3451d248e426f60001b616032565b6153107f13d68d5cd73e255e153ff1234dbfa0229fcf2163c8b6c807a2821e063c671a7960001b616032565b600084511161531e57600080fd5b61534a7fc73709c21efb7f6c058df720516fc266c9c029f32ec80337de990563232dd54060001b616032565b6153767fd37be154a6eacc8da9b1c753d84788be9e8b9b2f554de07840e9cea6cb00184360001b616032565b6153a27f844d24705f93723babba45fe50b3dc91d40a257f806689b31667752b0353148860001b616032565b6153ce7fe44bec67fab151f47b4d444d067e9a594c6034023691d0b827ef807e0568ece460001b616032565b60008251116153dc57600080fd5b6154087f27ac00f25e2dd0f36a9ccaed2660ac11070bc25c11429f9c2fd02e3b03f0ed5660001b616032565b6154347fa1c226ce45ead297ec6fe69932b2c645d5ff71e86a263401bd7348c290951c9c60001b616032565b6154607f0e3a37571f2ec4ef1617e892fb25fc70c87ab8fdcc5053517a3b2196b91315d660001b616032565b61548c7fe82f8b986a2da3909833429eb76b8c96e561cad078c102607546e775b824128c60001b616032565b600083511161549a57600080fd5b6154c67f3c769cf0cb26c126bc68d2d18d9424ae4b54b02cd842a88e7122573d27958ccf60001b616032565b6154f27f894977855bfa4be7f62df6a31621d505237ceda1c48ff9b99e88c9c1e569850e60001b616032565b61551e7fc19c8c2be580d276a71832df8e7115a6df49e1250b1eed6f41cb8131cb12c42760001b616032565b61554a7f38cd3d039cafcbf1b7d383eceec5cc3514de2d954d6d8131cc85dfb016d0372e60001b616032565b600073ffffffffffffffffffffffffffffffffffffffff163373ffffffffffffffffffffffffffffffffffffffff16141561558457600080fd5b6155b07f1f1d510c641092184cd407a36c5fc87dc14aad9d160a9dc4fe1ca1da9119ac6860001b616032565b6155dc7ff290d893bee7280b864ee854b0132132c0bad2885ede09ae70daba28c675fcdc60001b616032565b6156087f1d7d3b3e2cbd2beb50d00bb2c0131342e5adcb4c06dc71ef322588082b4289cd60001b616032565b6156347f484f9da828aa44cefba0cd9459054c8e49326548e738261a660222ab12cf996160001b616032565b600085511161564257600080fd5b61566e7f65cd5527a0315482f67c9e23f8fb46fae8c7ce1bd007acb096d25d160d912d6860001b616032565b61569a7fa039ea33883df3f4b66f07e68d5eaa3aeec992c9d1403448bd301e8b551a46fa60001b616032565b6156c67f7961f93a8af43581b34ab30323badbee580d3d46d265a94e92f176d9acb2977e60001b616032565b6156d06001616035565b6156fc7f03be282213e979d2f1fecaf966926b1a6c41cbe46161423dc64ac4921c06cd1860001b616032565b6157287f4a16a3e7b119f26cd1defae9ada9af8ef2f690839c0268b61b4ddec329bd3a9d60001b616032565b6000615734600161604b565b90506157627f32cdd4fa4520b2b2bf26e6df352de8f1a234d7d73d6ab20e7240de4156d40e5460001b616032565b61578e7fb76c09f195c4456966c18bce4a7977fb2dc7fa4866d9fb9fc922f35dd748e94b60001b616032565b6040518061012001604052808281526020018881526020018781526020018681526020018581526020018481526020014281526020013373ffffffffffffffffffffffffffffffffffffffff1681526020018315158152506004600083815260200190815260200160002060008201518160000155602082015181600101908051906020019061581f929190616229565b50604082015181600201908051906020019061583c929190616229565b506060820151816003019080519060200190615859929190616229565b506080820151816004019080519060200190615876929190616229565b5060a0820151816005019080519060200190615893929190616229565b5060c0820151816006015560e08201518160070160006101000a81548173ffffffffffffffffffffffffffffffffffffffff021916908373ffffffffffffffffffffffffffffffffffffffff1602179055506101008201518160070160146101000a81548160ff0219169083151502179055509050506159357fa4363d7f04fee19e4187fc7310b0b7fa6d9dc767209e20d6a9e29064fcba895260001b616032565b6159617f601cb3a150e42c243bcb43b91afd02238c7dea4a36d5ecea4fa935c973e8237a60001b616032565b7f15685dbf79e7181ae33d4610b737556e08e88cd73cd97d994292e1699d09d0f381888888888842338a6040516159a0999897969594939291906167e3565b60405180910390a150505050505050565b6159b9612883565b156159f9576040517f08c379a00000000000000000000000000000000000000000000000000000000081526004016159f090616cb1565b60405180910390fd5b615a257f65045625b1d30e941547fa7f2f4094ac426c0bc169a772c41e9e4bd7b28ee97d60001b616032565b615a517f91e612bc2399996203fcc5f7999495f4324c8756a2c83afb919655a38e19371060001b616032565b615a7d7febf90055781f2e0ec42e664b29a6fe4b13d3dc1bf82e976a8a354ee17867947f60001b616032565b615aa97f42425ca950443e3dc154dfd1aa48aa0d41f13bd6ee78b85083a916df3882d7cb60001b616032565b60001515600560003373ffffffffffffffffffffffffffffffffffffffff1673ffffffffffffffffffffffffffffffffffffffff16815260200190815260200160002060009054906101000a900460ff16151514615b3c576040517f08c379a0000000000000000000000000000000000000000000000000000000008152600401615b3390616d43565b60405180910390fd5b615b687f7565328dcea80bbb0d1ac99fa9d55cd711ad97e2d0601f0ac155a454a7dc64a260001b616032565b615b947f1c60f3587ab42129a792e62837e2e41c8d3060dc5200688f7a04482b67998bb060001b616032565b615bc07f91120e767a0a70c187e9bedf677a409cd30970e04739c3a4cd6415f8b018f1fa60001b616032565b615bec7feaa600accde06ba67ec32ef09e1f1cf66a0578d5719ef03e05e9d437f5b519a560001b616032565b615c187f5a584b0fadc79ad3f828135ee6a2300e6be5eb9e424a18cb9b251082d2972f6060001b616032565b615c447ffcd10c4b8c7d4a7248b637eab4c27138c37ddcc187025ff8adc26737c6162bc860001b616032565b600360003373ffffffffffffffffffffffffffffffffffffffff1673ffffffffffffffffffffffffffffffffffffffff16815260200190815260200160002060009054906101000a900460ff16615cd0576040517f08c379a0000000000000000000000000000000000000000000000000000000008152600401615cc79061714f565b60405180910390fd5b615cfc7f652e25e8aa174340635c7867d04e3e3a34705c9b82c569df0939c8e6b019c9d860001b616032565b615d287f9b87db64864465642d8a73f644393d271779f002a12444fea00ce41c0b5e944060001b616032565b615d547ff2d8efdbc89b468e6d20831cdfc5ffa7c005f6c8df15148405f28dee30129c1c60001b616032565b60006004600083815260200190815260200160002060070160146101000a81548160ff021916908315150217905550615daf7f16c513b345f6d3430aacbb69a5321908d35f14cf6462d88fbc6b0c8c7479963460001b616032565b615ddb7f0c99a481c2392895331ac3cf00b7b82d2bacf09ab2ac26352bcc28190233526160001b616032565b600060096000838152602001908152602001600020549050615e1f7f6912a8c9a76bca2241087c4bca622134bcaa5a5a79bf69f84b4e4fc72bac3ad060001b616032565b615e4b7fcfc466d423650e1a62a280492898baaa0297da8371a822ec35385626eb9f617c60001b616032565b60086001600880549050615e5f9190616eea565b81548110615e7057615e6f616e92565b5b906000526020600020015460088281548110615e8f57615e8e616e92565b5b9060005260206000200181905550615ec97f751859000ae93d804f7793c33b688409bda34f19b5b2ebe4399052861d75841e60001b616032565b615ef57feeb8894ed2ae3062716175d6404d1201d207c3b94d19fee10cf70219c6b89d2d60001b616032565b6008805480615f0757615f06616f1e565b5b60019003818190600052602060002001600090559055615f497f7770069c8898e529fc250ef7547d3ee78e0d6540ff498ba5109d356ab837c34760001b616032565b615f757fb82217b8abc3eb45a305ba859e2b28bd82e80aa7e56664e44ff8b765c97166f760001b616032565b615f7f6002616035565b615fab7ff7bd6a00aef6ced9c329a323bf2d057aa553e2003b87a9fd7512b581f7abcfa160001b616032565b615fd77fc7ded5f0fdb4711d782da091440befcce9683e408e766eb2681b6de349a4417e60001b616032565b7f5aa7628e41ea0589cf8d4c2c9c02537d47756ceb857899db726f2d9161bf8648826040516160069190616893565b60405180910390a15050565b60056020528060005260406000206000915054906101000a900460ff1681565b50565b6001816000016000828254019250508190555050565b600081600001549050919050565b616061612883565b6160a0576040517f08c379a0000000000000000000000000000000000000000000000000000000008152600401616097906171bb565b60405180910390fd5b60008060006101000a81548160ff0219169083151502179055507f5db9ee0a495bf2e6ff9c91a7834c1ba4fdd244a5e8aa4e537bd38aeae4b073aa6160e361619c565b6040516160f0919061676f565b60405180910390a1565b616102612883565b15616142576040517f08c379a000000000000000000000000000000000000000000000000000000000815260040161613990616cb1565b60405180910390fd5b60016000806101000a81548160ff0219169083151502179055507f62e78cea01bee320cd4e420270b5ea74000d11b0c9f74754ebdbfc544b05a25861618561619c565b604051616192919061676f565b60405180910390a1565b600033905090565b50805460008255906000526020600020908101906161c291906162af565b50565b60405180610120016040528060008152602001606081526020016060815260200160608152602001606081526020016060815260200160008152602001600073ffffffffffffffffffffffffffffffffffffffff1681526020016000151581525090565b82805461623590616e60565b90600052602060002090601f016020900481019282616257576000855561629e565b82601f1061627057805160ff191683800117855561629e565b8280016001018555821561629e579182015b8281111561629d578251825591602001919060010190616282565b5b5090506162ab91906162af565b5090565b5b808211156162c85760008160009055506001016162b0565b5090565b6000604051905090565b600080fd5b600080fd5b6000819050919050565b6162f3816162e0565b81146162fe57600080fd5b50565b600081359050616310816162ea565b92915050565b60006020828403121561632c5761632b6162d6565b5b600061633a84828501616301565b91505092915050565b600081519050919050565b600082825260208201905092915050565b6000819050602082019050919050565b616378816162e0565b82525050565b600081519050919050565b600082825260208201905092915050565b60005b838110156163b857808201518184015260208101905061639d565b838111156163c7576000848401525b50505050565b6000601f19601f8301169050919050565b60006163e98261637e565b6163f38185616389565b935061640381856020860161639a565b61640c816163cd565b840191505092915050565b600073ffffffffffffffffffffffffffffffffffffffff82169050919050565b600061644282616417565b9050919050565b61645281616437565b82525050565b60008115159050919050565b61646d81616458565b82525050565b60006101208301600083015161648c600086018261636f565b50602083015184820360208601526164a482826163de565b915050604083015184820360408601526164be82826163de565b915050606083015184820360608601526164d882826163de565b915050608083015184820360808601526164f282826163de565b91505060a083015184820360a086015261650c82826163de565b91505060c083015161652160c086018261636f565b5060e083015161653460e0860182616449565b50610100830151616549610100860182616464565b508091505092915050565b60006165608383616473565b905092915050565b6000602082019050919050565b600061658082616343565b61658a818561634e565b93508360208202850161659c8561635f565b8060005b858110156165d857848403895281516165b98582616554565b94506165c483616568565b925060208a019950506001810190506165a0565b50829750879550505050505092915050565b600060208201905081810360008301526166048184616575565b905092915050565b61661581616437565b811461662057600080fd5b50565b6000813590506166328161660c565b92915050565b60006020828403121561664e5761664d6162d6565b5b600061665c84828501616623565b91505092915050565b61666e81616458565b82525050565b60006020820190506166896000830184616665565b92915050565b600081519050919050565b600082825260208201905092915050565b6000819050602082019050919050565b60006166c7838361636f565b60208301905092915050565b6000602082019050919050565b60006166eb8261668f565b6166f5818561669a565b9350616700836166ab565b8060005b8381101561673157815161671888826166bb565b9750616723836166d3565b925050600181019050616704565b5085935050505092915050565b6000602082019050818103600083015261675881846166e0565b905092915050565b61676981616437565b82525050565b60006020820190506167846000830184616760565b92915050565b616793816162e0565b82525050565b600082825260208201905092915050565b60006167b58261637e565b6167bf8185616799565b93506167cf81856020860161639a565b6167d8816163cd565b840191505092915050565b6000610120820190506167f9600083018c61678a565b818103602083015261680b818b6167aa565b9050818103604083015261681f818a6167aa565b9050818103606083015261683381896167aa565b9050818103608083015261684781886167aa565b905081810360a083015261685b81876167aa565b905061686a60c083018661678a565b61687760e0830185616760565b616885610100830184616665565b9a9950505050505050505050565b60006020820190506168a8600083018461678a565b92915050565b600081519050919050565b600082825260208201905092915050565b6000819050602082019050919050565b60006168e68383616449565b60208301905092915050565b6000602082019050919050565b600061690a826168ae565b61691481856168b9565b935061691f836168ca565b8060005b8381101561695057815161693788826168da565b9750616942836168f2565b925050600181019050616923565b5085935050505092915050565b6000602082019050818103600083015261697781846168ff565b905092915050565b600080fd5b600080fd5b7f4e487b7100000000000000000000000000000000000000000000000000000000600052604160045260246000fd5b6169c1826163cd565b810181811067ffffffffffffffff821117156169e0576169df616989565b5b80604052505050565b60006169f36162cc565b90506169ff82826169b8565b919050565b600067ffffffffffffffff821115616a1f57616a1e616989565b5b616a28826163cd565b9050602081019050919050565b82818337600083830152505050565b6000616a57616a5284616a04565b6169e9565b905082815260208101848484011115616a7357616a72616984565b5b616a7e848285616a35565b509392505050565b600082601f830112616a9b57616a9a61697f565b5b8135616aab848260208601616a44565b91505092915050565b616abd81616458565b8114616ac857600080fd5b50565b600081359050616ada81616ab4565b92915050565b60008060008060008060c08789031215616afd57616afc6162d6565b5b600087013567ffffffffffffffff811115616b1b57616b1a6162db565b5b616b2789828a01616a86565b965050602087013567ffffffffffffffff811115616b4857616b476162db565b5b616b5489828a01616a86565b955050604087013567ffffffffffffffff811115616b7557616b746162db565b5b616b8189828a01616a86565b945050606087013567ffffffffffffffff811115616ba257616ba16162db565b5b616bae89828a01616a86565b935050608087013567ffffffffffffffff811115616bcf57616bce6162db565b5b616bdb89828a01616a86565b92505060a0616bec89828a01616acb565b9150509295509295509295565b7f4f6e6c79204d6f64657261746f72732048617665204163636573732100000000600082015250565b6000616c2f601c83616799565b9150616c3a82616bf9565b602082019050919050565b60006020820190508181036000830152616c5e81616c22565b9050919050565b7f5061757361626c653a2070617573656400000000000000000000000000000000600082015250565b6000616c9b601083616799565b9150616ca682616c65565b602082019050919050565b60006020820190508181036000830152616cca81616c8e565b9050919050565b7f416464726573732069732063757272656e746c7920426c61636b6c697374656460008201527f2e2e000000000000000000000000000000000000000000000000000000000000602082015250565b6000616d2d602283616799565b9150616d3882616cd1565b604082019050919050565b60006020820190508181036000830152616d5c81616d20565b9050919050565b7f4e487b7100000000000000000000000000000000000000000000000000000000600052601160045260246000fd5b6000616d9d826162e0565b9150616da8836162e0565b9250827fffffffffffffffffffffffffffffffffffffffffffffffffffffffffffffffff03821115616ddd57616ddc616d63565b5b828201905092915050565b6000616df3826162e0565b91507fffffffffffffffffffffffffffffffffffffffffffffffffffffffffffffffff821415616e2657616e25616d63565b5b600182019050919050565b7f4e487b7100000000000000000000000000000000000000000000000000000000600052602260045260246000fd5b60006002820490506001821680616e7857607f821691505b60208210811415616e8c57616e8b616e31565b5b50919050565b7f4e487b7100000000000000000000000000000000000000000000000000000000600052603260045260246000fd5b6000604082019050616ed66000830185616760565b616ee36020830184616760565b9392505050565b6000616ef5826162e0565b9150616f00836162e0565b925082821015616f1357616f12616d63565b5b828203905092915050565b7f4e487b7100000000000000000000000000000000000000000000000000000000600052603160045260246000fd5b7f796f752063616e206f6e6c79206d616e6970756c61746520796f7572206f776e60008201527f2066696c65000000000000000000000000000000000000000000000000000000602082015250565b6000616fa9602583616799565b9150616fb482616f4d565b604082019050919050565b60006020820190508181036000830152616fd881616f9c565b9050919050565b7f46696c6520686173206265656e207265706f72746564206561726c6965722e00600082015250565b6000617015601f83616799565b915061702082616fdf565b602082019050919050565b6000602082019050818103600083015261704481617008565b9050919050565b7f46696c6520686173206265656e20626c61636b6c697374656420666f7220766960008201527f6f6c6174696f6e2c20616e642063616e6e6f74206265206d616465207075626c60208201527f69632e0000000000000000000000000000000000000000000000000000000000604082015250565b60006170cd604383616799565b91506170d88261704b565b606082019050919050565b600060208201905081810360008301526170fc816170c0565b9050919050565b7f6f6e6c792061646d696e2063616e2063616c6c20746869730000000000000000600082015250565b6000617139601883616799565b915061714482617103565b602082019050919050565b600060208201905081810360008301526171688161712c565b9050919050565b7f5061757361626c653a206e6f7420706175736564000000000000000000000000600082015250565b60006171a5601483616799565b91506171b08261716f565b602082019050919050565b600060208201905081810360008301526171d481617198565b905091905056fea264697066735822122088706e1164c8c9641021128e0fcf6a407ec89f0624d976b7cfb169125ac3be4b64736f6c634300080a0033",
  "linkReferences": {},
  "deployedLinkReferences": {}
}