{
  "_format": "hh-sol-artifact-1",
  "contractName": "NESTDRIVE",
  "sourceName": "contracts/NESTDRIVE.sol",
  "abi": [
    {
      "inputs": [],
      "stateMutability": "nonpayable",
      "type": "constructor"
    },
    {
      "anonymous": false,
      "inputs": [
        {
          "indexed": false,
          "internalType": "uint256",
          "name": "fileId",
          "type": "uint256"
        },
        {
          "indexed": false,
          "internalType": "string",
          "name": "fileHash",
          "type": "string"
        },
        {
          "indexed": false,
          "internalType": "uint256",
          "name": "fileSize",
          "type": "uint256"
        },
        {
          "indexed": false,
          "internalType": "string",
          "name": "fileType",
          "type": "string"
        },
        {
          "indexed": false,
          "internalType": "string",
          "name": "fileName",
          "type": "string"
        },
        {
          "indexed": false,
          "internalType": "string",
          "name": "fileDescription",
          "type": "string"
        },
        {
          "indexed": false,
          "internalType": "uint256",
          "name": "uploadTime",
          "type": "uint256"
        },
        {
          "indexed": false,
          "internalType": "address",
          "name": "uploader",
          "type": "address"
        },
        {
          "indexed": false,
          "internalType": "bool",
          "name": "isPublic",
          "type": "bool"
        }
      ],
      "name": "FileUploaded",
      "type": "event"
    },
    {
      "inputs": [
        {
          "internalType": "uint256",
          "name": "",
          "type": "uint256"
        }
      ],
      "name": "Allfiles",
      "outputs": [
        {
          "internalType": "uint256",
          "name": "fileId",
          "type": "uint256"
        },
        {
          "internalType": "string",
          "name": "fileHash",
          "type": "string"
        },
        {
          "internalType": "uint256",
          "name": "fileSize",
          "type": "uint256"
        },
        {
          "internalType": "string",
          "name": "fileType",
          "type": "string"
        },
        {
          "internalType": "string",
          "name": "fileName",
          "type": "string"
        },
        {
          "internalType": "string",
          "name": "fileDescription",
          "type": "string"
        },
        {
          "internalType": "uint256",
          "name": "uploadTime",
          "type": "uint256"
        },
        {
          "internalType": "address",
          "name": "uploader",
          "type": "address"
        },
        {
          "internalType": "bool",
          "name": "isPublic",
          "type": "bool"
        }
      ],
      "stateMutability": "view",
      "type": "function"
    },
    {
      "inputs": [],
      "name": "fetchPublicFiles",
      "outputs": [
        {
          "components": [
            {
              "internalType": "uint256",
              "name": "fileId",
              "type": "uint256"
            },
            {
              "internalType": "string",
              "name": "fileHash",
              "type": "string"
            },
            {
              "internalType": "uint256",
              "name": "fileSize",
              "type": "uint256"
            },
            {
              "internalType": "string",
              "name": "fileType",
              "type": "string"
            },
            {
              "internalType": "string",
              "name": "fileName",
              "type": "string"
            },
            {
              "internalType": "string",
              "name": "fileDescription",
              "type": "string"
            },
            {
              "internalType": "uint256",
              "name": "uploadTime",
              "type": "uint256"
            },
            {
              "internalType": "address",
              "name": "uploader",
              "type": "address"
            },
            {
              "internalType": "bool",
              "name": "isPublic",
              "type": "bool"
            }
          ],
          "internalType": "struct NESTDRIVE.File[]",
          "name": "",
          "type": "tuple[]"
        }
      ],
      "stateMutability": "view",
      "type": "function"
    },
    {
      "inputs": [],
      "name": "fetchUserFiles",
      "outputs": [
        {
          "components": [
            {
              "internalType": "uint256",
              "name": "fileId",
              "type": "uint256"
            },
            {
              "internalType": "string",
              "name": "fileHash",
              "type": "string"
            },
            {
              "internalType": "uint256",
              "name": "fileSize",
              "type": "uint256"
            },
            {
              "internalType": "string",
              "name": "fileType",
              "type": "string"
            },
            {
              "internalType": "string",
              "name": "fileName",
              "type": "string"
            },
            {
              "internalType": "string",
              "name": "fileDescription",
              "type": "string"
            },
            {
              "internalType": "uint256",
              "name": "uploadTime",
              "type": "uint256"
            },
            {
              "internalType": "address",
              "name": "uploader",
              "type": "address"
            },
            {
              "internalType": "bool",
              "name": "isPublic",
              "type": "bool"
            }
          ],
          "internalType": "struct NESTDRIVE.File[]",
          "name": "",
          "type": "tuple[]"
        }
      ],
      "stateMutability": "view",
      "type": "function"
    },
    {
      "inputs": [
        {
          "internalType": "uint256",
          "name": "fileId",
          "type": "uint256"
        }
      ],
      "name": "makeFilePrivate",
      "outputs": [],
      "stateMutability": "nonpayable",
      "type": "function"
    },
    {
      "inputs": [
        {
          "internalType": "string",
          "name": "_fileHash",
          "type": "string"
        },
        {
          "internalType": "uint256",
          "name": "_fileSize",
          "type": "uint256"
        },
        {
          "internalType": "string",
          "name": "_fileType",
          "type": "string"
        },
        {
          "internalType": "string",
          "name": "_fileName",
          "type": "string"
        },
        {
          "internalType": "string",
          "name": "_fileDescription",
          "type": "string"
        }
      ],
      "name": "uploadFile",
      "outputs": [],
      "stateMutability": "nonpayable",
      "type": "function"
    }
  ],
  "bytecode": "0x608060405234801561001057600080fd5b50611a14806100206000396000f3fe608060405234801561001057600080fd5b50600436106100575760003560e01c806331d1f1851461005c57806382d0ed2e1461007a578063972a92b914610096578063a8b23dbc146100ce578063e82d9d33146100ec575b600080fd5b610064610108565b60405161007191906113eb565b60405180910390f35b610094600480360381019061008f919061144d565b610609565b005b6100b060048036038101906100ab919061144d565b6106e9565b6040516100c5999897969594939291906114f1565b60405180910390f35b6100d6610984565b6040516100e391906113eb565b60405180910390f35b610106600480360381019061010191906116cf565b610dc6565b005b606060006101166000611016565b905060008060005b838110156101bf573373ffffffffffffffffffffffffffffffffffffffff166002600060018461014e91906117e9565b815260200190815260200160002060070160009054906101000a900473ffffffffffffffffffffffffffffffffffffffff1673ffffffffffffffffffffffffffffffffffffffff1614156101ac576001836101a991906117e9565b92505b80806101b79061183f565b91505061011e565b5060008267ffffffffffffffff8111156101dc576101db6115a4565b5b60405190808252806020026020018201604052801561021557816020015b61020261103a565b8152602001906001900390816101fa5790505b50905060005b848110156105fe573373ffffffffffffffffffffffffffffffffffffffff166002600060018461024b91906117e9565b815260200190815260200160002060070160009054906101000a900473ffffffffffffffffffffffffffffffffffffffff1673ffffffffffffffffffffffffffffffffffffffff1614156105eb576000600260006001846102ac91906117e9565b815260200190815260200160002060000154905060006002600083815260200190815260200160002090508060405180610120016040529081600082015481526020016001820180546102fe906118b7565b80601f016020809104026020016040519081016040528092919081815260200182805461032a906118b7565b80156103775780601f1061034c57610100808354040283529160200191610377565b820191906000526020600020905b81548152906001019060200180831161035a57829003601f168201915b505050505081526020016002820154815260200160038201805461039a906118b7565b80601f01602080910402602001604051908101604052809291908181526020018280546103c6906118b7565b80156104135780601f106103e857610100808354040283529160200191610413565b820191906000526020600020905b8154815290600101906020018083116103f657829003601f168201915b5050505050815260200160048201805461042c906118b7565b80601f0160208091040260200160405190810160405280929190818152602001828054610458906118b7565b80156104a55780601f1061047a576101008083540402835291602001916104a5565b820191906000526020600020905b81548152906001019060200180831161048857829003601f168201915b505050505081526020016005820180546104be906118b7565b80601f01602080910402602001604051908101604052809291908181526020018280546104ea906118b7565b80156105375780601f1061050c57610100808354040283529160200191610537565b820191906000526020600020905b81548152906001019060200180831161051a57829003601f168201915b50505050508152602001600682015481526020016007820160009054906101000a900473ffffffffffffffffffffffffffffffffffffffff1673ffffffffffffffffffffffffffffffffffffffff1673ffffffffffffffffffffffffffffffffffffffff1681526020016007820160149054906101000a900460ff1615151515815250508486815181106105ce576105cd6118e9565b5b60200260200101819052506001856105e691906117e9565b945050505b80806105f69061183f565b91505061021b565b508094505050505090565b3373ffffffffffffffffffffffffffffffffffffffff166002600083815260200190815260200160002060070160009054906101000a900473ffffffffffffffffffffffffffffffffffffffff1673ffffffffffffffffffffffffffffffffffffffff16146106ad576040517f08c379a00000000000000000000000000000000000000000000000000000000081526004016106a49061198a565b60405180910390fd5b60006002600083815260200190815260200160002060070160146101000a81548160ff0219169083151502179055506106e66001611024565b50565b6002602052806000526040600020600091509050806000015490806001018054610712906118b7565b80601f016020809104026020016040519081016040528092919081815260200182805461073e906118b7565b801561078b5780601f106107605761010080835404028352916020019161078b565b820191906000526020600020905b81548152906001019060200180831161076e57829003601f168201915b5050505050908060020154908060030180546107a6906118b7565b80601f01602080910402602001604051908101604052809291908181526020018280546107d2906118b7565b801561081f5780601f106107f45761010080835404028352916020019161081f565b820191906000526020600020905b81548152906001019060200180831161080257829003601f168201915b505050505090806004018054610834906118b7565b80601f0160208091040260200160405190810160405280929190818152602001828054610860906118b7565b80156108ad5780601f10610882576101008083540402835291602001916108ad565b820191906000526020600020905b81548152906001019060200180831161089057829003601f168201915b5050505050908060050180546108c2906118b7565b80601f01602080910402602001604051908101604052809291908181526020018280546108ee906118b7565b801561093b5780601f106109105761010080835404028352916020019161093b565b820191906000526020600020905b81548152906001019060200180831161091e57829003601f168201915b5050505050908060060154908060070160009054906101000a900473ffffffffffffffffffffffffffffffffffffffff16908060070160149054906101000a900460ff16905089565b606060006109926000611016565b905060006109a06001611016565b6109aa6000611016565b6109b491906119aa565b90506000808267ffffffffffffffff8111156109d3576109d26115a4565b5b604051908082528060200260200182016040528015610a0c57816020015b6109f961103a565b8152602001906001900390816109f15790505b50905060005b84811015610dbb576001151560026000600184610a2f91906117e9565b815260200190815260200160002060070160149054906101000a900460ff1615151415610da857600060026000600184610a6991906117e9565b81526020019081526020016000206000015490506000600260008381526020019081526020016000209050806040518061012001604052908160008201548152602001600182018054610abb906118b7565b80601f0160208091040260200160405190810160405280929190818152602001828054610ae7906118b7565b8015610b345780601f10610b0957610100808354040283529160200191610b34565b820191906000526020600020905b815481529060010190602001808311610b1757829003601f168201915b5050505050815260200160028201548152602001600382018054610b57906118b7565b80601f0160208091040260200160405190810160405280929190818152602001828054610b83906118b7565b8015610bd05780601f10610ba557610100808354040283529160200191610bd0565b820191906000526020600020905b815481529060010190602001808311610bb357829003601f168201915b50505050508152602001600482018054610be9906118b7565b80601f0160208091040260200160405190810160405280929190818152602001828054610c15906118b7565b8015610c625780601f10610c3757610100808354040283529160200191610c62565b820191906000526020600020905b815481529060010190602001808311610c4557829003601f168201915b50505050508152602001600582018054610c7b906118b7565b80601f0160208091040260200160405190810160405280929190818152602001828054610ca7906118b7565b8015610cf45780601f10610cc957610100808354040283529160200191610cf4565b820191906000526020600020905b815481529060010190602001808311610cd757829003601f168201915b50505050508152602001600682015481526020016007820160009054906101000a900473ffffffffffffffffffffffffffffffffffffffff1673ffffffffffffffffffffffffffffffffffffffff1673ffffffffffffffffffffffffffffffffffffffff1681526020016007820160149054906101000a900460ff161515151581525050848681518110610d8b57610d8a6118e9565b5b6020026020010181905250600185610da391906117e9565b945050505b8080610db39061183f565b915050610a12565b508094505050505090565b6000855111610dd457600080fd5b6000835111610de257600080fd5b6000815111610df057600080fd5b6000825111610dfe57600080fd5b600073ffffffffffffffffffffffffffffffffffffffff163373ffffffffffffffffffffffffffffffffffffffff161415610e3857600080fd5b60008411610e4557600080fd5b610e4f6000611024565b6000610e5b6000611016565b90506040518061012001604052808281526020018781526020018681526020018581526020018481526020018381526020014281526020013373ffffffffffffffffffffffffffffffffffffffff1681526020016001151581525060026000838152602001908152602001600020600082015181600001556020820151816001019080519060200190610eef92919061109e565b50604082015181600201556060820151816003019080519060200190610f1692919061109e565b506080820151816004019080519060200190610f3392919061109e565b5060a0820151816005019080519060200190610f5092919061109e565b5060c0820151816006015560e08201518160070160006101000a81548173ffffffffffffffffffffffffffffffffffffffff021916908373ffffffffffffffffffffffffffffffffffffffff1602179055506101008201518160070160146101000a81548160ff0219169083151502179055509050507fdee90a49b13eb19542388699b9037a85c9a1b2b1b5f8cd1adcab7f0c841ec77881878787878742336001604051611006999897969594939291906114f1565b60405180910390a1505050505050565b600081600001549050919050565b6001816000016000828254019250508190555050565b60405180610120016040528060008152602001606081526020016000815260200160608152602001606081526020016060815260200160008152602001600073ffffffffffffffffffffffffffffffffffffffff1681526020016000151581525090565b8280546110aa906118b7565b90600052602060002090601f0160209004810192826110cc5760008555611113565b82601f106110e557805160ff1916838001178555611113565b82800160010185558215611113579182015b828111156111125782518255916020019190600101906110f7565b5b5090506111209190611124565b5090565b5b8082111561113d576000816000905550600101611125565b5090565b600081519050919050565b600082825260208201905092915050565b6000819050602082019050919050565b6000819050919050565b6111808161116d565b82525050565b600081519050919050565b600082825260208201905092915050565b60005b838110156111c05780820151818401526020810190506111a5565b838111156111cf576000848401525b50505050565b6000601f19601f8301169050919050565b60006111f182611186565b6111fb8185611191565b935061120b8185602086016111a2565b611214816111d5565b840191505092915050565b600073ffffffffffffffffffffffffffffffffffffffff82169050919050565b600061124a8261121f565b9050919050565b61125a8161123f565b82525050565b60008115159050919050565b61127581611260565b82525050565b6000610120830160008301516112946000860182611177565b50602083015184820360208601526112ac82826111e6565b91505060408301516112c16040860182611177565b50606083015184820360608601526112d982826111e6565b915050608083015184820360808601526112f382826111e6565b91505060a083015184820360a086015261130d82826111e6565b91505060c083015161132260c0860182611177565b5060e083015161133560e0860182611251565b5061010083015161134a61010086018261126c565b508091505092915050565b6000611361838361127b565b905092915050565b6000602082019050919050565b600061138182611141565b61138b818561114c565b93508360208202850161139d8561115d565b8060005b858110156113d957848403895281516113ba8582611355565b94506113c583611369565b925060208a019950506001810190506113a1565b50829750879550505050505092915050565b600060208201905081810360008301526114058184611376565b905092915050565b6000604051905090565b600080fd5b600080fd5b61142a8161116d565b811461143557600080fd5b50565b60008135905061144781611421565b92915050565b60006020828403121561146357611462611417565b5b600061147184828501611438565b91505092915050565b6114838161116d565b82525050565b600082825260208201905092915050565b60006114a582611186565b6114af8185611489565b93506114bf8185602086016111a2565b6114c8816111d5565b840191505092915050565b6114dc8161123f565b82525050565b6114eb81611260565b82525050565b600061012082019050611507600083018c61147a565b8181036020830152611519818b61149a565b9050611528604083018a61147a565b818103606083015261153a818961149a565b9050818103608083015261154e818861149a565b905081810360a0830152611562818761149a565b905061157160c083018661147a565b61157e60e08301856114d3565b61158c6101008301846114e2565b9a9950505050505050505050565b600080fd5b600080fd5b7f4e487b7100000000000000000000000000000000000000000000000000000000600052604160045260246000fd5b6115dc826111d5565b810181811067ffffffffffffffff821117156115fb576115fa6115a4565b5b80604052505050565b600061160e61140d565b905061161a82826115d3565b919050565b600067ffffffffffffffff82111561163a576116396115a4565b5b611643826111d5565b9050602081019050919050565b82818337600083830152505050565b600061167261166d8461161f565b611604565b90508281526020810184848401111561168e5761168d61159f565b5b611699848285611650565b509392505050565b600082601f8301126116b6576116b561159a565b5b81356116c684826020860161165f565b91505092915050565b600080600080600060a086880312156116eb576116ea611417565b5b600086013567ffffffffffffffff8111156117095761170861141c565b5b611715888289016116a1565b955050602061172688828901611438565b945050604086013567ffffffffffffffff8111156117475761174661141c565b5b611753888289016116a1565b935050606086013567ffffffffffffffff8111156117745761177361141c565b5b611780888289016116a1565b925050608086013567ffffffffffffffff8111156117a1576117a061141c565b5b6117ad888289016116a1565b9150509295509295909350565b7f4e487b7100000000000000000000000000000000000000000000000000000000600052601160045260246000fd5b60006117f48261116d565b91506117ff8361116d565b9250827fffffffffffffffffffffffffffffffffffffffffffffffffffffffffffffffff03821115611834576118336117ba565b5b828201905092915050565b600061184a8261116d565b91507fffffffffffffffffffffffffffffffffffffffffffffffffffffffffffffffff82141561187d5761187c6117ba565b5b600182019050919050565b7f4e487b7100000000000000000000000000000000000000000000000000000000600052602260045260246000fd5b600060028204905060018216806118cf57607f821691505b602082108114156118e3576118e2611888565b5b50919050565b7f4e487b7100000000000000000000000000000000000000000000000000000000600052603260045260246000fd5b7f796f752063616e206f6e6c79206d616e6970756c61746520796f7572206f776e60008201527f2066696c65000000000000000000000000000000000000000000000000000000602082015250565b6000611974602583611489565b915061197f82611918565b604082019050919050565b600060208201905081810360008301526119a381611967565b9050919050565b60006119b58261116d565b91506119c08361116d565b9250828210156119d3576119d26117ba565b5b82820390509291505056fea26469706673582212206943d51cf44dfb07040c228fe98435863066ec54a53deb5f8ad30ccb0d583d3664736f6c634300080a0033",
  "linkReferences": {},
  "deployedLinkReferences": {}
}