{
  "_format": "hh-sol-artifact-1",
  "contractName": "NestDrive",
  "sourceName": "contracts/NestDrive.sol",
  "abi": [
    {
      "inputs": [],
      "stateMutability": "nonpayable",
      "type": "constructor"
    },
    {
      "anonymous": false,
      "inputs": [
        {
          "indexed": false,
          "internalType": "address",
          "name": "adder",
          "type": "address"
        },
        {
          "indexed": false,
          "internalType": "address",
          "name": "newMod",
          "type": "address"
        }
      ],
      "name": "AssignMod",
      "type": "event"
    },
    {
      "anonymous": false,
      "inputs": [
        {
          "indexed": false,
          "internalType": "uint256",
          "name": "fileId",
          "type": "uint256"
        },
        {
          "indexed": false,
          "internalType": "string",
          "name": "fileHash",
          "type": "string"
        },
        {
          "indexed": false,
          "internalType": "string",
          "name": "fileSize",
          "type": "string"
        },
        {
          "indexed": false,
          "internalType": "string",
          "name": "fileType",
          "type": "string"
        },
        {
          "indexed": false,
          "internalType": "string",
          "name": "fileName",
          "type": "string"
        },
        {
          "indexed": false,
          "internalType": "string",
          "name": "fileDescription",
          "type": "string"
        },
        {
          "indexed": false,
          "internalType": "uint256",
          "name": "uploadTime",
          "type": "uint256"
        },
        {
          "indexed": false,
          "internalType": "address",
          "name": "uploader",
          "type": "address"
        },
        {
          "indexed": false,
          "internalType": "bool",
          "name": "isPublic",
          "type": "bool"
        }
      ],
      "name": "FileUploaded",
      "type": "event"
    },
    {
      "anonymous": false,
      "inputs": [
        {
          "indexed": false,
          "internalType": "address",
          "name": "account",
          "type": "address"
        }
      ],
      "name": "Paused",
      "type": "event"
    },
    {
      "anonymous": false,
      "inputs": [
        {
          "indexed": false,
          "internalType": "address",
          "name": "remover",
          "type": "address"
        },
        {
          "indexed": false,
          "internalType": "address",
          "name": "newMod",
          "type": "address"
        }
      ],
      "name": "RemoveMod",
      "type": "event"
    },
    {
      "anonymous": false,
      "inputs": [
        {
          "indexed": false,
          "internalType": "address",
          "name": "account",
          "type": "address"
        }
      ],
      "name": "Unpaused",
      "type": "event"
    },
    {
      "inputs": [
        {
          "internalType": "uint256",
          "name": "",
          "type": "uint256"
        }
      ],
      "name": "Allfiles",
      "outputs": [
        {
          "internalType": "uint256",
          "name": "fileId",
          "type": "uint256"
        },
        {
          "internalType": "string",
          "name": "fileHash",
          "type": "string"
        },
        {
          "internalType": "string",
          "name": "fileSize",
          "type": "string"
        },
        {
          "internalType": "string",
          "name": "fileType",
          "type": "string"
        },
        {
          "internalType": "string",
          "name": "fileName",
          "type": "string"
        },
        {
          "internalType": "string",
          "name": "fileDescription",
          "type": "string"
        },
        {
          "internalType": "uint256",
          "name": "uploadTime",
          "type": "uint256"
        },
        {
          "internalType": "address",
          "name": "uploader",
          "type": "address"
        },
        {
          "internalType": "bool",
          "name": "isPublic",
          "type": "bool"
        }
      ],
      "stateMutability": "view",
      "type": "function"
    },
    {
      "inputs": [
        {
          "internalType": "address",
          "name": "_addr",
          "type": "address"
        }
      ],
      "name": "addToBlackList",
      "outputs": [
        {
          "internalType": "bool",
          "name": "",
          "type": "bool"
        }
      ],
      "stateMutability": "nonpayable",
      "type": "function"
    },
    {
      "inputs": [
        {
          "internalType": "address",
          "name": "_newMod",
          "type": "address"
        }
      ],
      "name": "assignMod",
      "outputs": [],
      "stateMutability": "nonpayable",
      "type": "function"
    },
    {
      "inputs": [
        {
          "internalType": "address",
          "name": "",
          "type": "address"
        }
      ],
      "name": "blackListedAddresses",
      "outputs": [
        {
          "internalType": "bool",
          "name": "",
          "type": "bool"
        }
      ],
      "stateMutability": "view",
      "type": "function"
    },
    {
      "inputs": [],
      "name": "fetchPublicFiles",
      "outputs": [
        {
          "components": [
            {
              "internalType": "uint256",
              "name": "fileId",
              "type": "uint256"
            },
            {
              "internalType": "string",
              "name": "fileHash",
              "type": "string"
            },
            {
              "internalType": "string",
              "name": "fileSize",
              "type": "string"
            },
            {
              "internalType": "string",
              "name": "fileType",
              "type": "string"
            },
            {
              "internalType": "string",
              "name": "fileName",
              "type": "string"
            },
            {
              "internalType": "string",
              "name": "fileDescription",
              "type": "string"
            },
            {
              "internalType": "uint256",
              "name": "uploadTime",
              "type": "uint256"
            },
            {
              "internalType": "address",
              "name": "uploader",
              "type": "address"
            },
            {
              "internalType": "bool",
              "name": "isPublic",
              "type": "bool"
            }
          ],
          "internalType": "struct NestDrive.File[]",
          "name": "",
          "type": "tuple[]"
        }
      ],
      "stateMutability": "view",
      "type": "function"
    },
    {
      "inputs": [],
      "name": "fetchUserFiles",
      "outputs": [
        {
          "components": [
            {
              "internalType": "uint256",
              "name": "fileId",
              "type": "uint256"
            },
            {
              "internalType": "string",
              "name": "fileHash",
              "type": "string"
            },
            {
              "internalType": "string",
              "name": "fileSize",
              "type": "string"
            },
            {
              "internalType": "string",
              "name": "fileType",
              "type": "string"
            },
            {
              "internalType": "string",
              "name": "fileName",
              "type": "string"
            },
            {
              "internalType": "string",
              "name": "fileDescription",
              "type": "string"
            },
            {
              "internalType": "uint256",
              "name": "uploadTime",
              "type": "uint256"
            },
            {
              "internalType": "address",
              "name": "uploader",
              "type": "address"
            },
            {
              "internalType": "bool",
              "name": "isPublic",
              "type": "bool"
            }
          ],
          "internalType": "struct NestDrive.File[]",
          "name": "",
          "type": "tuple[]"
        }
      ],
      "stateMutability": "view",
      "type": "function"
    },
    {
      "inputs": [
        {
          "internalType": "uint256",
          "name": "fileId",
          "type": "uint256"
        }
      ],
      "name": "makeFilePrivate",
      "outputs": [],
      "stateMutability": "nonpayable",
      "type": "function"
    },
    {
      "inputs": [
        {
          "internalType": "uint256",
          "name": "fileId",
          "type": "uint256"
        }
      ],
      "name": "makeFilePublic",
      "outputs": [],
      "stateMutability": "nonpayable",
      "type": "function"
    },
    {
      "inputs": [
        {
          "internalType": "address",
          "name": "",
          "type": "address"
        }
      ],
      "name": "moderator",
      "outputs": [
        {
          "internalType": "bool",
          "name": "",
          "type": "bool"
        }
      ],
      "stateMutability": "view",
      "type": "function"
    },
    {
      "inputs": [],
      "name": "pause",
      "outputs": [],
      "stateMutability": "nonpayable",
      "type": "function"
    },
    {
      "inputs": [],
      "name": "paused",
      "outputs": [
        {
          "internalType": "bool",
          "name": "",
          "type": "bool"
        }
      ],
      "stateMutability": "view",
      "type": "function"
    },
    {
      "inputs": [
        {
          "internalType": "address",
          "name": "_addr",
          "type": "address"
        }
      ],
      "name": "removeFromBlackList",
      "outputs": [
        {
          "internalType": "bool",
          "name": "",
          "type": "bool"
        }
      ],
      "stateMutability": "nonpayable",
      "type": "function"
    },
    {
      "inputs": [
        {
          "internalType": "address",
          "name": "_mod",
          "type": "address"
        }
      ],
      "name": "removeMod",
      "outputs": [],
      "stateMutability": "nonpayable",
      "type": "function"
    },
    {
      "inputs": [],
      "name": "unpause",
      "outputs": [],
      "stateMutability": "nonpayable",
      "type": "function"
    },
    {
      "inputs": [
        {
          "internalType": "string",
          "name": "_fileHash",
          "type": "string"
        },
        {
          "internalType": "string",
          "name": "_fileSize",
          "type": "string"
        },
        {
          "internalType": "string",
          "name": "_fileType",
          "type": "string"
        },
        {
          "internalType": "string",
          "name": "_fileName",
          "type": "string"
        },
        {
          "internalType": "string",
          "name": "_fileDescription",
          "type": "string"
        }
      ],
      "name": "uploadFile",
      "outputs": [],
      "stateMutability": "nonpayable",
      "type": "function"
    }
  ],
  "bytecode": "0x608060405234801561001057600080fd5b5060008060006101000a81548160ff0219169083151502179055506001600360003373ffffffffffffffffffffffffffffffffffffffff1673ffffffffffffffffffffffffffffffffffffffff16815260200190815260200160002060006101000a81548160ff021916908315150217905550612e7a806100926000396000f3fe608060405234801561001057600080fd5b50600436106100f55760003560e01c80638456cb5911610097578063b1bed4f511610066578063b1bed4f514610254578063b27e237c14610284578063ef8b3839146102a0578063f54dc757146102bc576100f5565b80638456cb59146101d8578063972a92b9146101e25780639a66b9231461021a578063a8b23dbc14610236576100f5565b80634637de3c116100d35780634637de3c146101525780634a49ac4c1461016e5780635c975abb1461019e57806382d0ed2e146101bc576100f5565b806331d1f185146100fa5780633f4ba83a14610118578063417c73a714610122575b600080fd5b6101026102ec565b60405161010f9190612534565b60405180910390f35b610120610950565b005b61013c60048036038101906101379190612596565b6109ee565b60405161014991906125d2565b60405180910390f35b61016c60048036038101906101679190612596565b610ae5565b005b61018860048036038101906101839190612596565b610ce1565b60405161019591906125d2565b60405180910390f35b6101a6610dd8565b6040516101b391906125d2565b60405180910390f35b6101d660048036038101906101d19190612619565b610dee565b005b6101e0610ffd565b005b6101fc60048036038101906101f79190612619565b61109b565b604051610211999897969594939291906126ae565b60405180910390f35b610234600480360381019061022f9190612619565b6113be565b005b61023e611579565b60405161024b9190612534565b60405180910390f35b61026e60048036038101906102699190612596565b611b1e565b60405161027b91906125d2565b60405180910390f35b61029e60048036038101906102999190612596565b611b3e565b005b6102ba60048036038101906102b59190612893565b611cae565b005b6102d660048036038101906102d19190612596565b611fed565b6040516102e391906125d2565b60405180910390f35b60606102f6610dd8565b15610336576040517f08c379a000000000000000000000000000000000000000000000000000000000815260040161032d906129e6565b60405180910390fd5b60001515600560003373ffffffffffffffffffffffffffffffffffffffff1673ffffffffffffffffffffffffffffffffffffffff16815260200190815260200160002060009054906101000a900460ff161515146103c9576040517f08c379a00000000000000000000000000000000000000000000000000000000081526004016103c090612a78565b60405180910390fd5b60006103d5600161200d565b905060008060005b8381101561047e573373ffffffffffffffffffffffffffffffffffffffff166004600060018461040d9190612ac7565b815260200190815260200160002060070160009054906101000a900473ffffffffffffffffffffffffffffffffffffffff1673ffffffffffffffffffffffffffffffffffffffff16141561046b576001836104689190612ac7565b92505b808061047690612b1d565b9150506103dd565b5060008267ffffffffffffffff81111561049b5761049a612768565b5b6040519080825280602002602001820160405280156104d457816020015b6104c161217c565b8152602001906001900390816104b95790505b50905060005b84811015610945573373ffffffffffffffffffffffffffffffffffffffff166004600060018461050a9190612ac7565b815260200190815260200160002060070160009054906101000a900473ffffffffffffffffffffffffffffffffffffffff1673ffffffffffffffffffffffffffffffffffffffff1614156109325760006004600060018461056b9190612ac7565b815260200190815260200160002060000154905060006004600083815260200190815260200160002090508060405180610120016040529081600082015481526020016001820180546105bd90612b95565b80601f01602080910402602001604051908101604052809291908181526020018280546105e990612b95565b80156106365780601f1061060b57610100808354040283529160200191610636565b820191906000526020600020905b81548152906001019060200180831161061957829003601f168201915b5050505050815260200160028201805461064f90612b95565b80601f016020809104026020016040519081016040528092919081815260200182805461067b90612b95565b80156106c85780601f1061069d576101008083540402835291602001916106c8565b820191906000526020600020905b8154815290600101906020018083116106ab57829003601f168201915b505050505081526020016003820180546106e190612b95565b80601f016020809104026020016040519081016040528092919081815260200182805461070d90612b95565b801561075a5780601f1061072f5761010080835404028352916020019161075a565b820191906000526020600020905b81548152906001019060200180831161073d57829003601f168201915b5050505050815260200160048201805461077390612b95565b80601f016020809104026020016040519081016040528092919081815260200182805461079f90612b95565b80156107ec5780601f106107c1576101008083540402835291602001916107ec565b820191906000526020600020905b8154815290600101906020018083116107cf57829003601f168201915b5050505050815260200160058201805461080590612b95565b80601f016020809104026020016040519081016040528092919081815260200182805461083190612b95565b801561087e5780601f106108535761010080835404028352916020019161087e565b820191906000526020600020905b81548152906001019060200180831161086157829003601f168201915b50505050508152602001600682015481526020016007820160009054906101000a900473ffffffffffffffffffffffffffffffffffffffff1673ffffffffffffffffffffffffffffffffffffffff1673ffffffffffffffffffffffffffffffffffffffff1681526020016007820160149054906101000a900460ff16151515158152505084868151811061091557610914612bc7565b5b602002602001018190525060018561092d9190612ac7565b945050505b808061093d90612b1d565b9150506104da565b508094505050505090565b336000600360008373ffffffffffffffffffffffffffffffffffffffff1673ffffffffffffffffffffffffffffffffffffffff16815260200190815260200160002060009054906101000a900460ff169050806109e2576040517f08c379a00000000000000000000000000000000000000000000000000000000081526004016109d990612c42565b60405180910390fd5b6109ea61201b565b5050565b6000336000600360008373ffffffffffffffffffffffffffffffffffffffff1673ffffffffffffffffffffffffffffffffffffffff16815260200190815260200160002060009054906101000a900460ff16905080610a82576040517f08c379a0000000000000000000000000000000000000000000000000000000008152600401610a7990612c42565b60405180910390fd5b6001600560008673ffffffffffffffffffffffffffffffffffffffff1673ffffffffffffffffffffffffffffffffffffffff16815260200190815260200160002060006101000a81548160ff021916908315150217905550600192505050919050565b610aed610dd8565b15610b2d576040517f08c379a0000000000000000000000000000000000000000000000000000000008152600401610b24906129e6565b60405180910390fd5b336000600360008373ffffffffffffffffffffffffffffffffffffffff1673ffffffffffffffffffffffffffffffffffffffff16815260200190815260200160002060009054906101000a900460ff16905080610bbf576040517f08c379a0000000000000000000000000000000000000000000000000000000008152600401610bb690612c42565b60405180910390fd5b600360008473ffffffffffffffffffffffffffffffffffffffff1673ffffffffffffffffffffffffffffffffffffffff16815260200190815260200160002060009054906101000a900460ff16610c4b576040517f08c379a0000000000000000000000000000000000000000000000000000000008152600401610c4290612cae565b60405180910390fd5b6000600360008573ffffffffffffffffffffffffffffffffffffffff1673ffffffffffffffffffffffffffffffffffffffff16815260200190815260200160002060006101000a81548160ff0219169083151502179055507f21e8741435b5373014087a70641e17e7139c8f3ecffbc070c83ca921e5f06ab53384604051610cd4929190612cce565b60405180910390a1505050565b6000336000600360008373ffffffffffffffffffffffffffffffffffffffff1673ffffffffffffffffffffffffffffffffffffffff16815260200190815260200160002060009054906101000a900460ff16905080610d75576040517f08c379a0000000000000000000000000000000000000000000000000000000008152600401610d6c90612c42565b60405180910390fd5b6000600560008673ffffffffffffffffffffffffffffffffffffffff1673ffffffffffffffffffffffffffffffffffffffff16815260200190815260200160002060006101000a81548160ff021916908315150217905550600192505050919050565b60008060009054906101000a900460ff16905090565b610df6610dd8565b15610e36576040517f08c379a0000000000000000000000000000000000000000000000000000000008152600401610e2d906129e6565b60405180910390fd5b60001515600560003373ffffffffffffffffffffffffffffffffffffffff1673ffffffffffffffffffffffffffffffffffffffff16815260200190815260200160002060009054906101000a900460ff16151514610ec9576040517f08c379a0000000000000000000000000000000000000000000000000000000008152600401610ec090612a78565b60405180910390fd5b3373ffffffffffffffffffffffffffffffffffffffff166004600083815260200190815260200160002060070160009054906101000a900473ffffffffffffffffffffffffffffffffffffffff1673ffffffffffffffffffffffffffffffffffffffff161480610f825750600360003373ffffffffffffffffffffffffffffffffffffffff1673ffffffffffffffffffffffffffffffffffffffff16815260200190815260200160002060009054906101000a900460ff165b610fc1576040517f08c379a0000000000000000000000000000000000000000000000000000000008152600401610fb890612d69565b60405180910390fd5b60006004600083815260200190815260200160002060070160146101000a81548160ff021916908315150217905550610ffa60026120bc565b50565b336000600360008373ffffffffffffffffffffffffffffffffffffffff1673ffffffffffffffffffffffffffffffffffffffff16815260200190815260200160002060009054906101000a900460ff1690508061108f576040517f08c379a000000000000000000000000000000000000000000000000000000000815260040161108690612c42565b60405180910390fd5b6110976120d2565b5050565b60046020528060005260406000206000915090508060000154908060010180546110c490612b95565b80601f01602080910402602001604051908101604052809291908181526020018280546110f090612b95565b801561113d5780601f106111125761010080835404028352916020019161113d565b820191906000526020600020905b81548152906001019060200180831161112057829003601f168201915b50505050509080600201805461115290612b95565b80601f016020809104026020016040519081016040528092919081815260200182805461117e90612b95565b80156111cb5780601f106111a0576101008083540402835291602001916111cb565b820191906000526020600020905b8154815290600101906020018083116111ae57829003601f168201915b5050505050908060030180546111e090612b95565b80601f016020809104026020016040519081016040528092919081815260200182805461120c90612b95565b80156112595780601f1061122e57610100808354040283529160200191611259565b820191906000526020600020905b81548152906001019060200180831161123c57829003601f168201915b50505050509080600401805461126e90612b95565b80601f016020809104026020016040519081016040528092919081815260200182805461129a90612b95565b80156112e75780601f106112bc576101008083540402835291602001916112e7565b820191906000526020600020905b8154815290600101906020018083116112ca57829003601f168201915b5050505050908060050180546112fc90612b95565b80601f016020809104026020016040519081016040528092919081815260200182805461132890612b95565b80156113755780601f1061134a57610100808354040283529160200191611375565b820191906000526020600020905b81548152906001019060200180831161135857829003601f168201915b5050505050908060060154908060070160009054906101000a900473ffffffffffffffffffffffffffffffffffffffff16908060070160149054906101000a900460ff16905089565b6113c6610dd8565b15611406576040517f08c379a00000000000000000000000000000000000000000000000000000000081526004016113fd906129e6565b60405180910390fd5b60001515600560003373ffffffffffffffffffffffffffffffffffffffff1673ffffffffffffffffffffffffffffffffffffffff16815260200190815260200160002060009054906101000a900460ff16151514611499576040517f08c379a000000000000000000000000000000000000000000000000000000000815260040161149090612a78565b60405180910390fd5b3373ffffffffffffffffffffffffffffffffffffffff166004600083815260200190815260200160002060070160009054906101000a900473ffffffffffffffffffffffffffffffffffffffff1673ffffffffffffffffffffffffffffffffffffffff161461153d576040517f08c379a000000000000000000000000000000000000000000000000000000000815260040161153490612d69565b60405180910390fd5b60016004600083815260200190815260200160002060070160146101000a81548160ff02191690831515021790555061157660016120bc565b50565b6060611583610dd8565b156115c3576040517f08c379a00000000000000000000000000000000000000000000000000000000081526004016115ba906129e6565b60405180910390fd5b60001515600560003373ffffffffffffffffffffffffffffffffffffffff1673ffffffffffffffffffffffffffffffffffffffff16815260200190815260200160002060009054906101000a900460ff16151514611656576040517f08c379a000000000000000000000000000000000000000000000000000000000815260040161164d90612a78565b60405180910390fd5b6000611662600161200d565b90506000611670600261200d565b61167a600161200d565b6116849190612d89565b90506000808267ffffffffffffffff8111156116a3576116a2612768565b5b6040519080825280602002602001820160405280156116dc57816020015b6116c961217c565b8152602001906001900390816116c15790505b50905060005b84811015611b135760011515600460006001846116ff9190612ac7565b815260200190815260200160002060070160149054906101000a900460ff1615151415611b00576000600460006001846117399190612ac7565b8152602001908152602001600020600001549050600060046000838152602001908152602001600020905080604051806101200160405290816000820154815260200160018201805461178b90612b95565b80601f01602080910402602001604051908101604052809291908181526020018280546117b790612b95565b80156118045780601f106117d957610100808354040283529160200191611804565b820191906000526020600020905b8154815290600101906020018083116117e757829003601f168201915b5050505050815260200160028201805461181d90612b95565b80601f016020809104026020016040519081016040528092919081815260200182805461184990612b95565b80156118965780601f1061186b57610100808354040283529160200191611896565b820191906000526020600020905b81548152906001019060200180831161187957829003601f168201915b505050505081526020016003820180546118af90612b95565b80601f01602080910402602001604051908101604052809291908181526020018280546118db90612b95565b80156119285780601f106118fd57610100808354040283529160200191611928565b820191906000526020600020905b81548152906001019060200180831161190b57829003601f168201915b5050505050815260200160048201805461194190612b95565b80601f016020809104026020016040519081016040528092919081815260200182805461196d90612b95565b80156119ba5780601f1061198f576101008083540402835291602001916119ba565b820191906000526020600020905b81548152906001019060200180831161199d57829003601f168201915b505050505081526020016005820180546119d390612b95565b80601f01602080910402602001604051908101604052809291908181526020018280546119ff90612b95565b8015611a4c5780601f10611a2157610100808354040283529160200191611a4c565b820191906000526020600020905b815481529060010190602001808311611a2f57829003601f168201915b50505050508152602001600682015481526020016007820160009054906101000a900473ffffffffffffffffffffffffffffffffffffffff1673ffffffffffffffffffffffffffffffffffffffff1673ffffffffffffffffffffffffffffffffffffffff1681526020016007820160149054906101000a900460ff161515151581525050848681518110611ae357611ae2612bc7565b5b6020026020010181905250600185611afb9190612ac7565b945050505b8080611b0b90612b1d565b9150506116e2565b508094505050505090565b60036020528060005260406000206000915054906101000a900460ff1681565b611b46610dd8565b15611b86576040517f08c379a0000000000000000000000000000000000000000000000000000000008152600401611b7d906129e6565b60405180910390fd5b336000600360008373ffffffffffffffffffffffffffffffffffffffff1673ffffffffffffffffffffffffffffffffffffffff16815260200190815260200160002060009054906101000a900460ff16905080611c18576040517f08c379a0000000000000000000000000000000000000000000000000000000008152600401611c0f90612c42565b60405180910390fd5b6001600360008573ffffffffffffffffffffffffffffffffffffffff1673ffffffffffffffffffffffffffffffffffffffff16815260200190815260200160002060006101000a81548160ff0219169083151502179055507fb5dd25a9cfca5e08f42d8aa38af875754ee83968a096a48442d6af229d64de653384604051611ca1929190612cce565b60405180910390a1505050565b611cb6610dd8565b15611cf6576040517f08c379a0000000000000000000000000000000000000000000000000000000008152600401611ced906129e6565b60405180910390fd5b60001515600560003373ffffffffffffffffffffffffffffffffffffffff1673ffffffffffffffffffffffffffffffffffffffff16815260200190815260200160002060009054906101000a900460ff16151514611d89576040517f08c379a0000000000000000000000000000000000000000000000000000000008152600401611d8090612a78565b60405180910390fd5b6000855111611d9757600080fd5b6000835111611da557600080fd5b6000815111611db357600080fd5b6000825111611dc157600080fd5b600073ffffffffffffffffffffffffffffffffffffffff163373ffffffffffffffffffffffffffffffffffffffff161415611dfb57600080fd5b6000845111611e0957600080fd5b611e1360016120bc565b6000611e1f600161200d565b90506040518061012001604052808281526020018781526020018681526020018581526020018481526020018381526020014281526020013373ffffffffffffffffffffffffffffffffffffffff1681526020016001151581525060046000838152602001908152602001600020600082015181600001556020820151816001019080519060200190611eb39291906121e0565b506040820151816002019080519060200190611ed09291906121e0565b506060820151816003019080519060200190611eed9291906121e0565b506080820151816004019080519060200190611f0a9291906121e0565b5060a0820151816005019080519060200190611f279291906121e0565b5060c0820151816006015560e08201518160070160006101000a81548173ffffffffffffffffffffffffffffffffffffffff021916908373ffffffffffffffffffffffffffffffffffffffff1602179055506101008201518160070160146101000a81548160ff0219169083151502179055509050507f15685dbf79e7181ae33d4610b737556e08e88cd73cd97d994292e1699d09d0f381878787878742336001604051611fdd999897969594939291906126ae565b60405180910390a1505050505050565b60056020528060005260406000206000915054906101000a900460ff1681565b600081600001549050919050565b612023610dd8565b612062576040517f08c379a000000000000000000000000000000000000000000000000000000000815260040161205990612e09565b60405180910390fd5b60008060006101000a81548160ff0219169083151502179055507f5db9ee0a495bf2e6ff9c91a7834c1ba4fdd244a5e8aa4e537bd38aeae4b073aa6120a5612174565b6040516120b29190612e29565b60405180910390a1565b6001816000016000828254019250508190555050565b6120da610dd8565b1561211a576040517f08c379a0000000000000000000000000000000000000000000000000000000008152600401612111906129e6565b60405180910390fd5b60016000806101000a81548160ff0219169083151502179055507f62e78cea01bee320cd4e420270b5ea74000d11b0c9f74754ebdbfc544b05a25861215d612174565b60405161216a9190612e29565b60405180910390a1565b600033905090565b60405180610120016040528060008152602001606081526020016060815260200160608152602001606081526020016060815260200160008152602001600073ffffffffffffffffffffffffffffffffffffffff1681526020016000151581525090565b8280546121ec90612b95565b90600052602060002090601f01602090048101928261220e5760008555612255565b82601f1061222757805160ff1916838001178555612255565b82800160010185558215612255579182015b82811115612254578251825591602001919060010190612239565b5b5090506122629190612266565b5090565b5b8082111561227f576000816000905550600101612267565b5090565b600081519050919050565b600082825260208201905092915050565b6000819050602082019050919050565b6000819050919050565b6122c2816122af565b82525050565b600081519050919050565b600082825260208201905092915050565b60005b838110156123025780820151818401526020810190506122e7565b83811115612311576000848401525b50505050565b6000601f19601f8301169050919050565b6000612333826122c8565b61233d81856122d3565b935061234d8185602086016122e4565b61235681612317565b840191505092915050565b600073ffffffffffffffffffffffffffffffffffffffff82169050919050565b600061238c82612361565b9050919050565b61239c81612381565b82525050565b60008115159050919050565b6123b7816123a2565b82525050565b6000610120830160008301516123d660008601826122b9565b50602083015184820360208601526123ee8282612328565b915050604083015184820360408601526124088282612328565b915050606083015184820360608601526124228282612328565b9150506080830151848203608086015261243c8282612328565b91505060a083015184820360a08601526124568282612328565b91505060c083015161246b60c08601826122b9565b5060e083015161247e60e0860182612393565b506101008301516124936101008601826123ae565b508091505092915050565b60006124aa83836123bd565b905092915050565b6000602082019050919050565b60006124ca82612283565b6124d4818561228e565b9350836020820285016124e68561229f565b8060005b858110156125225784840389528151612503858261249e565b945061250e836124b2565b925060208a019950506001810190506124ea565b50829750879550505050505092915050565b6000602082019050818103600083015261254e81846124bf565b905092915050565b6000604051905090565b600080fd5b600080fd5b61257381612381565b811461257e57600080fd5b50565b6000813590506125908161256a565b92915050565b6000602082840312156125ac576125ab612560565b5b60006125ba84828501612581565b91505092915050565b6125cc816123a2565b82525050565b60006020820190506125e760008301846125c3565b92915050565b6125f6816122af565b811461260157600080fd5b50565b600081359050612613816125ed565b92915050565b60006020828403121561262f5761262e612560565b5b600061263d84828501612604565b91505092915050565b61264f816122af565b82525050565b600082825260208201905092915050565b6000612671826122c8565b61267b8185612655565b935061268b8185602086016122e4565b61269481612317565b840191505092915050565b6126a881612381565b82525050565b6000610120820190506126c4600083018c612646565b81810360208301526126d6818b612666565b905081810360408301526126ea818a612666565b905081810360608301526126fe8189612666565b905081810360808301526127128188612666565b905081810360a08301526127268187612666565b905061273560c0830186612646565b61274260e083018561269f565b6127506101008301846125c3565b9a9950505050505050505050565b600080fd5b600080fd5b7f4e487b7100000000000000000000000000000000000000000000000000000000600052604160045260246000fd5b6127a082612317565b810181811067ffffffffffffffff821117156127bf576127be612768565b5b80604052505050565b60006127d2612556565b90506127de8282612797565b919050565b600067ffffffffffffffff8211156127fe576127fd612768565b5b61280782612317565b9050602081019050919050565b82818337600083830152505050565b6000612836612831846127e3565b6127c8565b90508281526020810184848401111561285257612851612763565b5b61285d848285612814565b509392505050565b600082601f83011261287a5761287961275e565b5b813561288a848260208601612823565b91505092915050565b600080600080600060a086880312156128af576128ae612560565b5b600086013567ffffffffffffffff8111156128cd576128cc612565565b5b6128d988828901612865565b955050602086013567ffffffffffffffff8111156128fa576128f9612565565b5b61290688828901612865565b945050604086013567ffffffffffffffff81111561292757612926612565565b5b61293388828901612865565b935050606086013567ffffffffffffffff81111561295457612953612565565b5b61296088828901612865565b925050608086013567ffffffffffffffff81111561298157612980612565565b5b61298d88828901612865565b9150509295509295909350565b7f5061757361626c653a2070617573656400000000000000000000000000000000600082015250565b60006129d0601083612655565b91506129db8261299a565b602082019050919050565b600060208201905081810360008301526129ff816129c3565b9050919050565b7f416464726573732069732063757272656e746c7920426c61636b6c697374656460008201527f2e2e000000000000000000000000000000000000000000000000000000000000602082015250565b6000612a62602283612655565b9150612a6d82612a06565b604082019050919050565b60006020820190508181036000830152612a9181612a55565b9050919050565b7f4e487b7100000000000000000000000000000000000000000000000000000000600052601160045260246000fd5b6000612ad2826122af565b9150612add836122af565b9250827fffffffffffffffffffffffffffffffffffffffffffffffffffffffffffffffff03821115612b1257612b11612a98565b5b828201905092915050565b6000612b28826122af565b91507fffffffffffffffffffffffffffffffffffffffffffffffffffffffffffffffff821415612b5b57612b5a612a98565b5b600182019050919050565b7f4e487b7100000000000000000000000000000000000000000000000000000000600052602260045260246000fd5b60006002820490506001821680612bad57607f821691505b60208210811415612bc157612bc0612b66565b5b50919050565b7f4e487b7100000000000000000000000000000000000000000000000000000000600052603260045260246000fd5b7f4f6e6c79204d6f64657261746f72732048617665204163636573732100000000600082015250565b6000612c2c601c83612655565b9150612c3782612bf6565b602082019050919050565b60006020820190508181036000830152612c5b81612c1f565b9050919050565b7f41646472657373206973206e6f742061206d6f64657261746f722e0000000000600082015250565b6000612c98601b83612655565b9150612ca382612c62565b602082019050919050565b60006020820190508181036000830152612cc781612c8b565b9050919050565b6000604082019050612ce3600083018561269f565b612cf0602083018461269f565b9392505050565b7f796f752063616e206f6e6c79206d616e6970756c61746520796f7572206f776e60008201527f2066696c65000000000000000000000000000000000000000000000000000000602082015250565b6000612d53602583612655565b9150612d5e82612cf7565b604082019050919050565b60006020820190508181036000830152612d8281612d46565b9050919050565b6000612d94826122af565b9150612d9f836122af565b925082821015612db257612db1612a98565b5b828203905092915050565b7f5061757361626c653a206e6f7420706175736564000000000000000000000000600082015250565b6000612df3601483612655565b9150612dfe82612dbd565b602082019050919050565b60006020820190508181036000830152612e2281612de6565b9050919050565b6000602082019050612e3e600083018461269f565b9291505056fea264697066735822122031da40e2e11a99aeb4873a875fb9bacd3dc40c7564704c5382f62ef02ea141c164736f6c634300080a0033",
  "linkReferences": {},
  "deployedLinkReferences": {}
}