{
  "_format": "hh-sol-artifact-1",
  "contractName": "NestDrive",
  "sourceName": "contracts/NestDrive.sol",
  "abi": [
    {
      "inputs": [],
      "stateMutability": "nonpayable",
      "type": "constructor"
    },
    {
      "anonymous": false,
      "inputs": [
        {
          "indexed": false,
          "internalType": "address",
          "name": "adder",
          "type": "address"
        },
        {
          "indexed": false,
          "internalType": "address",
          "name": "newMod",
          "type": "address"
        }
      ],
      "name": "AssignMod",
      "type": "event"
    },
    {
      "anonymous": false,
      "inputs": [
        {
          "indexed": false,
          "internalType": "uint256",
          "name": "fileId",
          "type": "uint256"
        },
        {
          "indexed": false,
          "internalType": "string",
          "name": "fileHash",
          "type": "string"
        },
        {
          "indexed": false,
          "internalType": "string",
          "name": "fileSize",
          "type": "string"
        },
        {
          "indexed": false,
          "internalType": "string",
          "name": "fileType",
          "type": "string"
        },
        {
          "indexed": false,
          "internalType": "string",
          "name": "fileName",
          "type": "string"
        },
        {
          "indexed": false,
          "internalType": "string",
          "name": "fileDescription",
          "type": "string"
        },
        {
          "indexed": false,
          "internalType": "uint256",
          "name": "uploadTime",
          "type": "uint256"
        },
        {
          "indexed": false,
          "internalType": "address",
          "name": "uploader",
          "type": "address"
        },
        {
          "indexed": false,
          "internalType": "bool",
          "name": "isPublic",
          "type": "bool"
        }
      ],
      "name": "FileUploaded",
      "type": "event"
    },
    {
      "anonymous": false,
      "inputs": [
        {
          "indexed": false,
          "internalType": "address",
          "name": "account",
          "type": "address"
        }
      ],
      "name": "Paused",
      "type": "event"
    },
    {
      "anonymous": false,
      "inputs": [
        {
          "indexed": false,
          "internalType": "address",
          "name": "remover",
          "type": "address"
        },
        {
          "indexed": false,
          "internalType": "address",
          "name": "newMod",
          "type": "address"
        }
      ],
      "name": "RemoveMod",
      "type": "event"
    },
    {
      "anonymous": false,
      "inputs": [
        {
          "indexed": false,
          "internalType": "address",
          "name": "account",
          "type": "address"
        }
      ],
      "name": "Unpaused",
      "type": "event"
    },
    {
      "anonymous": false,
      "inputs": [
        {
          "indexed": false,
          "internalType": "address",
          "name": "addr",
          "type": "address"
        }
      ],
      "name": "addInBlackList",
      "type": "event"
    },
    {
      "anonymous": false,
      "inputs": [
        {
          "indexed": false,
          "internalType": "uint256",
          "name": "_itemIds",
          "type": "uint256"
        }
      ],
      "name": "madePrivate",
      "type": "event"
    },
    {
      "anonymous": false,
      "inputs": [
        {
          "indexed": false,
          "internalType": "uint256",
          "name": "_itemIds",
          "type": "uint256"
        }
      ],
      "name": "madePrivateMod",
      "type": "event"
    },
    {
      "anonymous": false,
      "inputs": [
        {
          "indexed": false,
          "internalType": "uint256",
          "name": "_itemIds",
          "type": "uint256"
        }
      ],
      "name": "madePublic",
      "type": "event"
    },
    {
      "anonymous": false,
      "inputs": [
        {
          "indexed": false,
          "internalType": "uint256",
          "name": "_itemIds",
          "type": "uint256"
        }
      ],
      "name": "newReport",
      "type": "event"
    },
    {
      "anonymous": false,
      "inputs": [
        {
          "indexed": false,
          "internalType": "address",
          "name": "addr",
          "type": "address"
        }
      ],
      "name": "remInBlackList",
      "type": "event"
    },
    {
      "inputs": [
        {
          "internalType": "uint256",
          "name": "",
          "type": "uint256"
        }
      ],
      "name": "Allfiles",
      "outputs": [
        {
          "internalType": "uint256",
          "name": "fileId",
          "type": "uint256"
        },
        {
          "internalType": "string",
          "name": "fileHash",
          "type": "string"
        },
        {
          "internalType": "string",
          "name": "fileSize",
          "type": "string"
        },
        {
          "internalType": "string",
          "name": "fileType",
          "type": "string"
        },
        {
          "internalType": "string",
          "name": "fileName",
          "type": "string"
        },
        {
          "internalType": "string",
          "name": "fileDescription",
          "type": "string"
        },
        {
          "internalType": "uint256",
          "name": "uploadTime",
          "type": "uint256"
        },
        {
          "internalType": "address",
          "name": "uploader",
          "type": "address"
        },
        {
          "internalType": "bool",
          "name": "isPublic",
          "type": "bool"
        }
      ],
      "stateMutability": "view",
      "type": "function"
    },
    {
      "inputs": [
        {
          "internalType": "address",
          "name": "_addr",
          "type": "address"
        }
      ],
      "name": "addToBlackList",
      "outputs": [
        {
          "internalType": "bool",
          "name": "",
          "type": "bool"
        }
      ],
      "stateMutability": "nonpayable",
      "type": "function"
    },
    {
      "inputs": [
        {
          "internalType": "address",
          "name": "_newMod",
          "type": "address"
        }
      ],
      "name": "assignMod",
      "outputs": [],
      "stateMutability": "nonpayable",
      "type": "function"
    },
    {
      "inputs": [
        {
          "internalType": "uint256",
          "name": "",
          "type": "uint256"
        }
      ],
      "name": "blackList",
      "outputs": [
        {
          "internalType": "address",
          "name": "",
          "type": "address"
        }
      ],
      "stateMutability": "view",
      "type": "function"
    },
    {
      "inputs": [],
      "name": "blackListArray",
      "outputs": [
        {
          "internalType": "address[]",
          "name": "",
          "type": "address[]"
        }
      ],
      "stateMutability": "view",
      "type": "function"
    },
    {
      "inputs": [
        {
          "internalType": "address",
          "name": "",
          "type": "address"
        }
      ],
      "name": "blackListedAddresses",
      "outputs": [
        {
          "internalType": "bool",
          "name": "",
          "type": "bool"
        }
      ],
      "stateMutability": "view",
      "type": "function"
    },
    {
      "inputs": [
        {
          "internalType": "address",
          "name": "_user",
          "type": "address"
        }
      ],
      "name": "checkMod",
      "outputs": [
        {
          "internalType": "bool",
          "name": "",
          "type": "bool"
        }
      ],
      "stateMutability": "view",
      "type": "function"
    },
    {
      "inputs": [
        {
          "internalType": "uint256",
          "name": "fileId",
          "type": "uint256"
        }
      ],
      "name": "clearReportedFiles",
      "outputs": [],
      "stateMutability": "nonpayable",
      "type": "function"
    },
    {
      "inputs": [],
      "name": "fetchPublicFiles",
      "outputs": [
        {
          "components": [
            {
              "internalType": "uint256",
              "name": "fileId",
              "type": "uint256"
            },
            {
              "internalType": "string",
              "name": "fileHash",
              "type": "string"
            },
            {
              "internalType": "string",
              "name": "fileSize",
              "type": "string"
            },
            {
              "internalType": "string",
              "name": "fileType",
              "type": "string"
            },
            {
              "internalType": "string",
              "name": "fileName",
              "type": "string"
            },
            {
              "internalType": "string",
              "name": "fileDescription",
              "type": "string"
            },
            {
              "internalType": "uint256",
              "name": "uploadTime",
              "type": "uint256"
            },
            {
              "internalType": "address",
              "name": "uploader",
              "type": "address"
            },
            {
              "internalType": "bool",
              "name": "isPublic",
              "type": "bool"
            }
          ],
          "internalType": "struct NestDrive.File[]",
          "name": "",
          "type": "tuple[]"
        }
      ],
      "stateMutability": "view",
      "type": "function"
    },
    {
      "inputs": [],
      "name": "fetchUserFiles",
      "outputs": [
        {
          "components": [
            {
              "internalType": "uint256",
              "name": "fileId",
              "type": "uint256"
            },
            {
              "internalType": "string",
              "name": "fileHash",
              "type": "string"
            },
            {
              "internalType": "string",
              "name": "fileSize",
              "type": "string"
            },
            {
              "internalType": "string",
              "name": "fileType",
              "type": "string"
            },
            {
              "internalType": "string",
              "name": "fileName",
              "type": "string"
            },
            {
              "internalType": "string",
              "name": "fileDescription",
              "type": "string"
            },
            {
              "internalType": "uint256",
              "name": "uploadTime",
              "type": "uint256"
            },
            {
              "internalType": "address",
              "name": "uploader",
              "type": "address"
            },
            {
              "internalType": "bool",
              "name": "isPublic",
              "type": "bool"
            }
          ],
          "internalType": "struct NestDrive.File[]",
          "name": "",
          "type": "tuple[]"
        }
      ],
      "stateMutability": "view",
      "type": "function"
    },
    {
      "inputs": [
        {
          "internalType": "uint256",
          "name": "fileId",
          "type": "uint256"
        }
      ],
      "name": "makeFilePrivate",
      "outputs": [],
      "stateMutability": "nonpayable",
      "type": "function"
    },
    {
      "inputs": [
        {
          "internalType": "uint256",
          "name": "fileId",
          "type": "uint256"
        }
      ],
      "name": "makeFilePublic",
      "outputs": [],
      "stateMutability": "nonpayable",
      "type": "function"
    },
    {
      "inputs": [
        {
          "internalType": "uint256",
          "name": "fileId",
          "type": "uint256"
        }
      ],
      "name": "makeReportedPrivate",
      "outputs": [],
      "stateMutability": "nonpayable",
      "type": "function"
    },
    {
      "inputs": [
        {
          "internalType": "address",
          "name": "",
          "type": "address"
        }
      ],
      "name": "moderator",
      "outputs": [
        {
          "internalType": "bool",
          "name": "",
          "type": "bool"
        }
      ],
      "stateMutability": "view",
      "type": "function"
    },
    {
      "inputs": [],
      "name": "pause",
      "outputs": [],
      "stateMutability": "nonpayable",
      "type": "function"
    },
    {
      "inputs": [],
      "name": "paused",
      "outputs": [
        {
          "internalType": "bool",
          "name": "",
          "type": "bool"
        }
      ],
      "stateMutability": "view",
      "type": "function"
    },
    {
      "inputs": [
        {
          "internalType": "address",
          "name": "_addr",
          "type": "address"
        }
      ],
      "name": "removeFromBlackList",
      "outputs": [
        {
          "internalType": "bool",
          "name": "",
          "type": "bool"
        }
      ],
      "stateMutability": "nonpayable",
      "type": "function"
    },
    {
      "inputs": [
        {
          "internalType": "address",
          "name": "_mod",
          "type": "address"
        }
      ],
      "name": "removeMod",
      "outputs": [],
      "stateMutability": "nonpayable",
      "type": "function"
    },
    {
      "inputs": [
        {
          "internalType": "uint256",
          "name": "fileId",
          "type": "uint256"
        }
      ],
      "name": "report",
      "outputs": [],
      "stateMutability": "nonpayable",
      "type": "function"
    },
    {
      "inputs": [
        {
          "internalType": "uint256",
          "name": "",
          "type": "uint256"
        }
      ],
      "name": "reportExist",
      "outputs": [
        {
          "internalType": "bool",
          "name": "",
          "type": "bool"
        }
      ],
      "stateMutability": "view",
      "type": "function"
    },
    {
      "inputs": [
        {
          "internalType": "uint256",
          "name": "",
          "type": "uint256"
        }
      ],
      "name": "reportedFiles",
      "outputs": [
        {
          "internalType": "uint256",
          "name": "",
          "type": "uint256"
        }
      ],
      "stateMutability": "view",
      "type": "function"
    },
    {
      "inputs": [],
      "name": "reportedListArray",
      "outputs": [
        {
          "internalType": "uint256[]",
          "name": "",
          "type": "uint256[]"
        }
      ],
      "stateMutability": "view",
      "type": "function"
    },
    {
      "inputs": [],
      "name": "unpause",
      "outputs": [],
      "stateMutability": "nonpayable",
      "type": "function"
    },
    {
      "inputs": [
        {
          "internalType": "string",
          "name": "_fileHash",
          "type": "string"
        },
        {
          "internalType": "string",
          "name": "_fileSize",
          "type": "string"
        },
        {
          "internalType": "string",
          "name": "_fileType",
          "type": "string"
        },
        {
          "internalType": "string",
          "name": "_fileName",
          "type": "string"
        },
        {
          "internalType": "string",
          "name": "_fileDescription",
          "type": "string"
        },
        {
          "internalType": "bool",
          "name": "_isPublic",
          "type": "bool"
        }
      ],
      "name": "uploadFile",
      "outputs": [],
      "stateMutability": "nonpayable",
      "type": "function"
    }
  ],
  "bytecode": "0x608060405234801561001057600080fd5b5060008060006101000a81548160ff0219169083151502179055506001600360003373ffffffffffffffffffffffffffffffffffffffff1673ffffffffffffffffffffffffffffffffffffffff16815260200190815260200160002060006101000a81548160ff021916908315150217905550613d0e806100926000396000f3fe608060405234801561001057600080fd5b50600436106101575760003560e01c8063969b1cdb116100c3578063b1bed4f51161007c578063b1bed4f5146103cc578063b27e237c146103fc578063cfce5c4614610418578063d13d9e9c14610436578063d1b6961e14610452578063f54dc7571461046e57610157565b8063969b1cdb146102de578063972a92b9146102fa5780639a66b923146103325780639b5690741461034e578063a47aacec1461037e578063a8b23dbc146103ae57610157565b80635a2fd58b116101155780635a2fd58b1461021c5780635c975abb1461023a57806364f2f7a414610258578063709ec8b41461028857806382d0ed2e146102b85780638456cb59146102d457610157565b8062e17ba01461015c57806331d1f185146101785780633f4ba83a14610196578063417c73a7146101a05780634637de3c146101d05780634a49ac4c146101ec575b600080fd5b61017660048036038101906101719190612e13565b61049e565b005b61018061057c565b60405161018d91906130e7565b60405180910390f35b61019e610be0565b005b6101ba60048036038101906101b59190613135565b610c7e565b6040516101c79190613171565b60405180910390f35b6101ea60048036038101906101e59190613135565b610e0f565b005b61020660048036038101906102019190613135565b610f7f565b6040516102139190613171565b60405180910390f35b6102246111e5565b604051610231919061323b565b60405180910390f35b6102426112d1565b60405161024f9190613171565b60405180910390f35b610272600480360381019061026d9190613135565b6112e7565b60405161027f9190613171565b60405180910390f35b6102a2600480360381019061029d9190612e13565b61138b565b6040516102af919061326c565b60405180910390f35b6102d260048036038101906102cd9190612e13565b6113ca565b005b6102dc6115bc565b005b6102f860048036038101906102f39190612e13565b61165a565b005b610314600480360381019061030f9190612e13565b611750565b604051610329999897969594939291906132e0565b60405180910390f35b61034c60048036038101906103479190612e13565b611a73565b005b61036860048036038101906103639190612e13565b611ccc565b6040516103759190613390565b60405180910390f35b61039860048036038101906103939190612e13565b611cf0565b6040516103a59190613171565b60405180910390f35b6103b6611d10565b6040516103c391906130e7565b60405180910390f35b6103e660048036038101906103e19190613135565b6122b5565b6040516103f39190613171565b60405180910390f35b61041660048036038101906104119190613135565b6122d5565b005b610420612445565b60405161042d919061345a565b60405180910390f35b610450600480360381019061044b91906135dd565b612567565b005b61046c60048036038101906104679190612e13565b6128a5565b005b61048860048036038101906104839190613135565b612b12565b6040516104959190613171565b60405180910390f35b336000600360008373ffffffffffffffffffffffffffffffffffffffff1673ffffffffffffffffffffffffffffffffffffffff16815260200190815260200160002060009054906101000a900460ff16905080610530576040517f08c379a000000000000000000000000000000000000000000000000000000000815260040161052790613742565b60405180910390fd5b60006004600085815260200190815260200160002060070160146101000a81548160ff0219169083151502179055506105696002612b32565b600860006105779190612ca1565b505050565b60606105866112d1565b156105c6576040517f08c379a00000000000000000000000000000000000000000000000000000000081526004016105bd906137ae565b60405180910390fd5b60001515600560003373ffffffffffffffffffffffffffffffffffffffff1673ffffffffffffffffffffffffffffffffffffffff16815260200190815260200160002060009054906101000a900460ff16151514610659576040517f08c379a000000000000000000000000000000000000000000000000000000000815260040161065090613840565b60405180910390fd5b60006106656001612b48565b905060008060005b8381101561070e573373ffffffffffffffffffffffffffffffffffffffff166004600060018461069d919061388f565b815260200190815260200160002060070160009054906101000a900473ffffffffffffffffffffffffffffffffffffffff1673ffffffffffffffffffffffffffffffffffffffff1614156106fb576001836106f8919061388f565b92505b8080610706906138e5565b91505061066d565b5060008267ffffffffffffffff81111561072b5761072a613486565b5b60405190808252806020026020018201604052801561076457816020015b610751612cc2565b8152602001906001900390816107495790505b50905060005b84811015610bd5573373ffffffffffffffffffffffffffffffffffffffff166004600060018461079a919061388f565b815260200190815260200160002060070160009054906101000a900473ffffffffffffffffffffffffffffffffffffffff1673ffffffffffffffffffffffffffffffffffffffff161415610bc2576000600460006001846107fb919061388f565b8152602001908152602001600020600001549050600060046000838152602001908152602001600020905080604051806101200160405290816000820154815260200160018201805461084d9061395d565b80601f01602080910402602001604051908101604052809291908181526020018280546108799061395d565b80156108c65780601f1061089b576101008083540402835291602001916108c6565b820191906000526020600020905b8154815290600101906020018083116108a957829003601f168201915b505050505081526020016002820180546108df9061395d565b80601f016020809104026020016040519081016040528092919081815260200182805461090b9061395d565b80156109585780601f1061092d57610100808354040283529160200191610958565b820191906000526020600020905b81548152906001019060200180831161093b57829003601f168201915b505050505081526020016003820180546109719061395d565b80601f016020809104026020016040519081016040528092919081815260200182805461099d9061395d565b80156109ea5780601f106109bf576101008083540402835291602001916109ea565b820191906000526020600020905b8154815290600101906020018083116109cd57829003601f168201915b50505050508152602001600482018054610a039061395d565b80601f0160208091040260200160405190810160405280929190818152602001828054610a2f9061395d565b8015610a7c5780601f10610a5157610100808354040283529160200191610a7c565b820191906000526020600020905b815481529060010190602001808311610a5f57829003601f168201915b50505050508152602001600582018054610a959061395d565b80601f0160208091040260200160405190810160405280929190818152602001828054610ac19061395d565b8015610b0e5780601f10610ae357610100808354040283529160200191610b0e565b820191906000526020600020905b815481529060010190602001808311610af157829003601f168201915b50505050508152602001600682015481526020016007820160009054906101000a900473ffffffffffffffffffffffffffffffffffffffff1673ffffffffffffffffffffffffffffffffffffffff1673ffffffffffffffffffffffffffffffffffffffff1681526020016007820160149054906101000a900460ff161515151581525050848681518110610ba557610ba461398f565b5b6020026020010181905250600185610bbd919061388f565b945050505b8080610bcd906138e5565b91505061076a565b508094505050505090565b336000600360008373ffffffffffffffffffffffffffffffffffffffff1673ffffffffffffffffffffffffffffffffffffffff16815260200190815260200160002060009054906101000a900460ff16905080610c72576040517f08c379a0000000000000000000000000000000000000000000000000000000008152600401610c6990613742565b60405180910390fd5b610c7a612b56565b5050565b6000336000600360008373ffffffffffffffffffffffffffffffffffffffff1673ffffffffffffffffffffffffffffffffffffffff16815260200190815260200160002060009054906101000a900460ff16905080610d12576040517f08c379a0000000000000000000000000000000000000000000000000000000008152600401610d0990613742565b60405180910390fd5b6001600560008673ffffffffffffffffffffffffffffffffffffffff1673ffffffffffffffffffffffffffffffffffffffff16815260200190815260200160002060006101000a81548160ff0219169083151502179055506006849080600181540180825580915050600190039060005260206000200160009091909190916101000a81548173ffffffffffffffffffffffffffffffffffffffff021916908373ffffffffffffffffffffffffffffffffffffffff1602179055507f2baa715fcf00d01553d31801d54d8f0cdfed5dfd3de24bf24c49281cd165439784604051610dfc919061326c565b60405180910390a1600192505050919050565b610e176112d1565b15610e57576040517f08c379a0000000000000000000000000000000000000000000000000000000008152600401610e4e906137ae565b60405180910390fd5b336000600360008373ffffffffffffffffffffffffffffffffffffffff1673ffffffffffffffffffffffffffffffffffffffff16815260200190815260200160002060009054906101000a900460ff16905080610ee9576040517f08c379a0000000000000000000000000000000000000000000000000000000008152600401610ee090613742565b60405180910390fd5b6000600360008573ffffffffffffffffffffffffffffffffffffffff1673ffffffffffffffffffffffffffffffffffffffff16815260200190815260200160002060006101000a81548160ff0219169083151502179055507f21e8741435b5373014087a70641e17e7139c8f3ecffbc070c83ca921e5f06ab53384604051610f729291906139be565b60405180910390a1505050565b6000336000600360008373ffffffffffffffffffffffffffffffffffffffff1673ffffffffffffffffffffffffffffffffffffffff16815260200190815260200160002060009054906101000a900460ff16905080611013576040517f08c379a000000000000000000000000000000000000000000000000000000000815260040161100a90613742565b60405180910390fd5b6000600760008673ffffffffffffffffffffffffffffffffffffffff1673ffffffffffffffffffffffffffffffffffffffff1681526020019081526020016000205490506006600160068054905061106b91906139e7565b8154811061107c5761107b61398f565b5b9060005260206000200160009054906101000a900473ffffffffffffffffffffffffffffffffffffffff16600682815481106110bb576110ba61398f565b5b9060005260206000200160006101000a81548173ffffffffffffffffffffffffffffffffffffffff021916908373ffffffffffffffffffffffffffffffffffffffff160217905550600680548061111557611114613a1b565b5b6001900381819060005260206000200160006101000a81549073ffffffffffffffffffffffffffffffffffffffff021916905590556000600560008773ffffffffffffffffffffffffffffffffffffffff1673ffffffffffffffffffffffffffffffffffffffff16815260200190815260200160002060006101000a81548160ff0219169083151502179055507f92e933ae15bd6223e7a81ec3233d4252ded2d20b856dd551c95447ffad396df0856040516111d1919061326c565b60405180910390a160019350505050919050565b6060336000600360008373ffffffffffffffffffffffffffffffffffffffff1673ffffffffffffffffffffffffffffffffffffffff16815260200190815260200160002060009054906101000a900460ff16905080611279576040517f08c379a000000000000000000000000000000000000000000000000000000000815260040161127090613742565b60405180910390fd5b60088054806020026020016040519081016040528092919081815260200182805480156112c557602002820191906000526020600020905b8154815260200190600101908083116112b1575b50505050509250505090565b60008060009054906101000a900460ff16905090565b60006112f16112d1565b15611331576040517f08c379a0000000000000000000000000000000000000000000000000000000008152600401611328906137ae565b60405180910390fd5b6000600360008473ffffffffffffffffffffffffffffffffffffffff1673ffffffffffffffffffffffffffffffffffffffff16815260200190815260200160002060009054906101000a900460ff16905080915050919050565b6006818154811061139b57600080fd5b906000526020600020016000915054906101000a900473ffffffffffffffffffffffffffffffffffffffff1681565b6113d26112d1565b15611412576040517f08c379a0000000000000000000000000000000000000000000000000000000008152600401611409906137ae565b60405180910390fd5b60001515600560003373ffffffffffffffffffffffffffffffffffffffff1673ffffffffffffffffffffffffffffffffffffffff16815260200190815260200160002060009054906101000a900460ff161515146114a5576040517f08c379a000000000000000000000000000000000000000000000000000000000815260040161149c90613840565b60405180910390fd5b3373ffffffffffffffffffffffffffffffffffffffff166004600083815260200190815260200160002060070160009054906101000a900473ffffffffffffffffffffffffffffffffffffffff1673ffffffffffffffffffffffffffffffffffffffff1614611549576040517f08c379a000000000000000000000000000000000000000000000000000000000815260040161154090613abc565b60405180910390fd5b60006004600083815260200190815260200160002060070160146101000a81548160ff0219169083151502179055506115826002612b32565b7f3a9eaa6e68e81601b859b65d082cbf189fb7325635f4e1fb5cb1f19dc665508f816040516115b19190613390565b60405180910390a150565b336000600360008373ffffffffffffffffffffffffffffffffffffffff1673ffffffffffffffffffffffffffffffffffffffff16815260200190815260200160002060009054906101000a900460ff1690508061164e576040517f08c379a000000000000000000000000000000000000000000000000000000000815260040161164590613742565b60405180910390fd5b611656612bf7565b5050565b60001515600a600083815260200190815260200160002060009054906101000a900460ff161515146116c1576040517f08c379a00000000000000000000000000000000000000000000000000000000081526004016116b890613b28565b60405180910390fd5b6001600a600083815260200190815260200160002060006101000a81548160ff02191690831515021790555060088190806001815401808255809150506001900390600052602060002001600090919091909150557fe62739fed49de5f6dec72a75ea57f95e1f62f266372cab8e93e8fca8f5ab9504816040516117459190613390565b60405180910390a150565b60046020528060005260406000206000915090508060000154908060010180546117799061395d565b80601f01602080910402602001604051908101604052809291908181526020018280546117a59061395d565b80156117f25780601f106117c7576101008083540402835291602001916117f2565b820191906000526020600020905b8154815290600101906020018083116117d557829003601f168201915b5050505050908060020180546118079061395d565b80601f01602080910402602001604051908101604052809291908181526020018280546118339061395d565b80156118805780601f1061185557610100808354040283529160200191611880565b820191906000526020600020905b81548152906001019060200180831161186357829003601f168201915b5050505050908060030180546118959061395d565b80601f01602080910402602001604051908101604052809291908181526020018280546118c19061395d565b801561190e5780601f106118e35761010080835404028352916020019161190e565b820191906000526020600020905b8154815290600101906020018083116118f157829003601f168201915b5050505050908060040180546119239061395d565b80601f016020809104026020016040519081016040528092919081815260200182805461194f9061395d565b801561199c5780601f106119715761010080835404028352916020019161199c565b820191906000526020600020905b81548152906001019060200180831161197f57829003601f168201915b5050505050908060050180546119b19061395d565b80601f01602080910402602001604051908101604052809291908181526020018280546119dd9061395d565b8015611a2a5780601f106119ff57610100808354040283529160200191611a2a565b820191906000526020600020905b815481529060010190602001808311611a0d57829003601f168201915b5050505050908060060154908060070160009054906101000a900473ffffffffffffffffffffffffffffffffffffffff16908060070160149054906101000a900460ff16905089565b611a7b6112d1565b15611abb576040517f08c379a0000000000000000000000000000000000000000000000000000000008152600401611ab2906137ae565b60405180910390fd5b60001515600560003373ffffffffffffffffffffffffffffffffffffffff1673ffffffffffffffffffffffffffffffffffffffff16815260200190815260200160002060009054906101000a900460ff16151514611b4e576040517f08c379a0000000000000000000000000000000000000000000000000000000008152600401611b4590613840565b60405180910390fd5b3373ffffffffffffffffffffffffffffffffffffffff166004600083815260200190815260200160002060070160009054906101000a900473ffffffffffffffffffffffffffffffffffffffff1673ffffffffffffffffffffffffffffffffffffffff1614611bf2576040517f08c379a0000000000000000000000000000000000000000000000000000000008152600401611be990613abc565b60405180910390fd5b60001515600a600083815260200190815260200160002060009054906101000a900460ff16151514611c59576040517f08c379a0000000000000000000000000000000000000000000000000000000008152600401611c5090613be0565b60405180910390fd5b60016004600083815260200190815260200160002060070160146101000a81548160ff021916908315150217905550611c926001612b32565b7f211c9fd4b950d899ffbafc9f17e0ea27aec103b4381f4e094ba54b34af3f730481604051611cc19190613390565b60405180910390a150565b60088181548110611cdc57600080fd5b906000526020600020016000915090505481565b600a6020528060005260406000206000915054906101000a900460ff1681565b6060611d1a6112d1565b15611d5a576040517f08c379a0000000000000000000000000000000000000000000000000000000008152600401611d51906137ae565b60405180910390fd5b60001515600560003373ffffffffffffffffffffffffffffffffffffffff1673ffffffffffffffffffffffffffffffffffffffff16815260200190815260200160002060009054906101000a900460ff16151514611ded576040517f08c379a0000000000000000000000000000000000000000000000000000000008152600401611de490613840565b60405180910390fd5b6000611df96001612b48565b90506000611e076002612b48565b611e116001612b48565b611e1b91906139e7565b90506000808267ffffffffffffffff811115611e3a57611e39613486565b5b604051908082528060200260200182016040528015611e7357816020015b611e60612cc2565b815260200190600190039081611e585790505b50905060005b848110156122aa576001151560046000600184611e96919061388f565b815260200190815260200160002060070160149054906101000a900460ff161515141561229757600060046000600184611ed0919061388f565b81526020019081526020016000206000015490506000600460008381526020019081526020016000209050806040518061012001604052908160008201548152602001600182018054611f229061395d565b80601f0160208091040260200160405190810160405280929190818152602001828054611f4e9061395d565b8015611f9b5780601f10611f7057610100808354040283529160200191611f9b565b820191906000526020600020905b815481529060010190602001808311611f7e57829003601f168201915b50505050508152602001600282018054611fb49061395d565b80601f0160208091040260200160405190810160405280929190818152602001828054611fe09061395d565b801561202d5780601f106120025761010080835404028352916020019161202d565b820191906000526020600020905b81548152906001019060200180831161201057829003601f168201915b505050505081526020016003820180546120469061395d565b80601f01602080910402602001604051908101604052809291908181526020018280546120729061395d565b80156120bf5780601f10612094576101008083540402835291602001916120bf565b820191906000526020600020905b8154815290600101906020018083116120a257829003601f168201915b505050505081526020016004820180546120d89061395d565b80601f01602080910402602001604051908101604052809291908181526020018280546121049061395d565b80156121515780601f1061212657610100808354040283529160200191612151565b820191906000526020600020905b81548152906001019060200180831161213457829003601f168201915b5050505050815260200160058201805461216a9061395d565b80601f01602080910402602001604051908101604052809291908181526020018280546121969061395d565b80156121e35780601f106121b8576101008083540402835291602001916121e3565b820191906000526020600020905b8154815290600101906020018083116121c657829003601f168201915b50505050508152602001600682015481526020016007820160009054906101000a900473ffffffffffffffffffffffffffffffffffffffff1673ffffffffffffffffffffffffffffffffffffffff1673ffffffffffffffffffffffffffffffffffffffff1681526020016007820160149054906101000a900460ff16151515158152505084868151811061227a5761227961398f565b5b6020026020010181905250600185612292919061388f565b945050505b80806122a2906138e5565b915050611e79565b508094505050505090565b60036020528060005260406000206000915054906101000a900460ff1681565b6122dd6112d1565b1561231d576040517f08c379a0000000000000000000000000000000000000000000000000000000008152600401612314906137ae565b60405180910390fd5b336000600360008373ffffffffffffffffffffffffffffffffffffffff1673ffffffffffffffffffffffffffffffffffffffff16815260200190815260200160002060009054906101000a900460ff169050806123af576040517f08c379a00000000000000000000000000000000000000000000000000000000081526004016123a690613742565b60405180910390fd5b6001600360008573ffffffffffffffffffffffffffffffffffffffff1673ffffffffffffffffffffffffffffffffffffffff16815260200190815260200160002060006101000a81548160ff0219169083151502179055507fb5dd25a9cfca5e08f42d8aa38af875754ee83968a096a48442d6af229d64de6533846040516124389291906139be565b60405180910390a1505050565b6060336000600360008373ffffffffffffffffffffffffffffffffffffffff1673ffffffffffffffffffffffffffffffffffffffff16815260200190815260200160002060009054906101000a900460ff169050806124d9576040517f08c379a00000000000000000000000000000000000000000000000000000000081526004016124d090613742565b60405180910390fd5b600680548060200260200160405190810160405280929190818152602001828054801561255b57602002820191906000526020600020905b8160009054906101000a900473ffffffffffffffffffffffffffffffffffffffff1673ffffffffffffffffffffffffffffffffffffffff1681526020019060010190808311612511575b50505050509250505090565b61256f6112d1565b156125af576040517f08c379a00000000000000000000000000000000000000000000000000000000081526004016125a6906137ae565b60405180910390fd5b60001515600560003373ffffffffffffffffffffffffffffffffffffffff1673ffffffffffffffffffffffffffffffffffffffff16815260200190815260200160002060009054906101000a900460ff16151514612642576040517f08c379a000000000000000000000000000000000000000000000000000000000815260040161263990613840565b60405180910390fd5b600086511161265057600080fd5b600084511161265e57600080fd5b600082511161266c57600080fd5b600083511161267a57600080fd5b600073ffffffffffffffffffffffffffffffffffffffff163373ffffffffffffffffffffffffffffffffffffffff1614156126b457600080fd5b60008551116126c257600080fd5b6126cc6001612b32565b60006126d86001612b48565b90506040518061012001604052808281526020018881526020018781526020018681526020018581526020018481526020014281526020013373ffffffffffffffffffffffffffffffffffffffff1681526020018315158152506004600083815260200190815260200160002060008201518160000155602082015181600101908051906020019061276b929190612d26565b506040820151816002019080519060200190612788929190612d26565b5060608201518160030190805190602001906127a5929190612d26565b5060808201518160040190805190602001906127c2929190612d26565b5060a08201518160050190805190602001906127df929190612d26565b5060c0820151816006015560e08201518160070160006101000a81548173ffffffffffffffffffffffffffffffffffffffff021916908373ffffffffffffffffffffffffffffffffffffffff1602179055506101008201518160070160146101000a81548160ff0219169083151502179055509050507f15685dbf79e7181ae33d4610b737556e08e88cd73cd97d994292e1699d09d0f381888888888842338a604051612894999897969594939291906132e0565b60405180910390a150505050505050565b6128ad6112d1565b156128ed576040517f08c379a00000000000000000000000000000000000000000000000000000000081526004016128e4906137ae565b60405180910390fd5b60001515600560003373ffffffffffffffffffffffffffffffffffffffff1673ffffffffffffffffffffffffffffffffffffffff16815260200190815260200160002060009054906101000a900460ff16151514612980576040517f08c379a000000000000000000000000000000000000000000000000000000000815260040161297790613840565b60405180910390fd5b600360003373ffffffffffffffffffffffffffffffffffffffff1673ffffffffffffffffffffffffffffffffffffffff16815260200190815260200160002060009054906101000a900460ff16612a0c576040517f08c379a0000000000000000000000000000000000000000000000000000000008152600401612a0390613c4c565b60405180910390fd5b60006004600083815260200190815260200160002060070160146101000a81548160ff02191690831515021790555060006009600083815260200190815260200160002054905060086001600880549050612a6791906139e7565b81548110612a7857612a7761398f565b5b906000526020600020015460088281548110612a9757612a9661398f565b5b90600052602060002001819055506008805480612ab757612ab6613a1b565b5b60019003818190600052602060002001600090559055612ad76002612b32565b7f5aa7628e41ea0589cf8d4c2c9c02537d47756ceb857899db726f2d9161bf864882604051612b069190613390565b60405180910390a15050565b60056020528060005260406000206000915054906101000a900460ff1681565b6001816000016000828254019250508190555050565b600081600001549050919050565b612b5e6112d1565b612b9d576040517f08c379a0000000000000000000000000000000000000000000000000000000008152600401612b9490613cb8565b60405180910390fd5b60008060006101000a81548160ff0219169083151502179055507f5db9ee0a495bf2e6ff9c91a7834c1ba4fdd244a5e8aa4e537bd38aeae4b073aa612be0612c99565b604051612bed919061326c565b60405180910390a1565b612bff6112d1565b15612c3f576040517f08c379a0000000000000000000000000000000000000000000000000000000008152600401612c36906137ae565b60405180910390fd5b60016000806101000a81548160ff0219169083151502179055507f62e78cea01bee320cd4e420270b5ea74000d11b0c9f74754ebdbfc544b05a258612c82612c99565b604051612c8f919061326c565b60405180910390a1565b600033905090565b5080546000825590600052602060002090810190612cbf9190612dac565b50565b60405180610120016040528060008152602001606081526020016060815260200160608152602001606081526020016060815260200160008152602001600073ffffffffffffffffffffffffffffffffffffffff1681526020016000151581525090565b828054612d329061395d565b90600052602060002090601f016020900481019282612d545760008555612d9b565b82601f10612d6d57805160ff1916838001178555612d9b565b82800160010185558215612d9b579182015b82811115612d9a578251825591602001919060010190612d7f565b5b509050612da89190612dac565b5090565b5b80821115612dc5576000816000905550600101612dad565b5090565b6000604051905090565b600080fd5b600080fd5b6000819050919050565b612df081612ddd565b8114612dfb57600080fd5b50565b600081359050612e0d81612de7565b92915050565b600060208284031215612e2957612e28612dd3565b5b6000612e3784828501612dfe565b91505092915050565b600081519050919050565b600082825260208201905092915050565b6000819050602082019050919050565b612e7581612ddd565b82525050565b600081519050919050565b600082825260208201905092915050565b60005b83811015612eb5578082015181840152602081019050612e9a565b83811115612ec4576000848401525b50505050565b6000601f19601f8301169050919050565b6000612ee682612e7b565b612ef08185612e86565b9350612f00818560208601612e97565b612f0981612eca565b840191505092915050565b600073ffffffffffffffffffffffffffffffffffffffff82169050919050565b6000612f3f82612f14565b9050919050565b612f4f81612f34565b82525050565b60008115159050919050565b612f6a81612f55565b82525050565b600061012083016000830151612f896000860182612e6c565b5060208301518482036020860152612fa18282612edb565b91505060408301518482036040860152612fbb8282612edb565b91505060608301518482036060860152612fd58282612edb565b91505060808301518482036080860152612fef8282612edb565b91505060a083015184820360a08601526130098282612edb565b91505060c083015161301e60c0860182612e6c565b5060e083015161303160e0860182612f46565b50610100830151613046610100860182612f61565b508091505092915050565b600061305d8383612f70565b905092915050565b6000602082019050919050565b600061307d82612e40565b6130878185612e4b565b93508360208202850161309985612e5c565b8060005b858110156130d557848403895281516130b68582613051565b94506130c183613065565b925060208a0199505060018101905061309d565b50829750879550505050505092915050565b600060208201905081810360008301526131018184613072565b905092915050565b61311281612f34565b811461311d57600080fd5b50565b60008135905061312f81613109565b92915050565b60006020828403121561314b5761314a612dd3565b5b600061315984828501613120565b91505092915050565b61316b81612f55565b82525050565b60006020820190506131866000830184613162565b92915050565b600081519050919050565b600082825260208201905092915050565b6000819050602082019050919050565b60006131c48383612e6c565b60208301905092915050565b6000602082019050919050565b60006131e88261318c565b6131f28185613197565b93506131fd836131a8565b8060005b8381101561322e57815161321588826131b8565b9750613220836131d0565b925050600181019050613201565b5085935050505092915050565b6000602082019050818103600083015261325581846131dd565b905092915050565b61326681612f34565b82525050565b6000602082019050613281600083018461325d565b92915050565b61329081612ddd565b82525050565b600082825260208201905092915050565b60006132b282612e7b565b6132bc8185613296565b93506132cc818560208601612e97565b6132d581612eca565b840191505092915050565b6000610120820190506132f6600083018c613287565b8181036020830152613308818b6132a7565b9050818103604083015261331c818a6132a7565b9050818103606083015261333081896132a7565b9050818103608083015261334481886132a7565b905081810360a083015261335881876132a7565b905061336760c0830186613287565b61337460e083018561325d565b613382610100830184613162565b9a9950505050505050505050565b60006020820190506133a56000830184613287565b92915050565b600081519050919050565b600082825260208201905092915050565b6000819050602082019050919050565b60006133e38383612f46565b60208301905092915050565b6000602082019050919050565b6000613407826133ab565b61341181856133b6565b935061341c836133c7565b8060005b8381101561344d57815161343488826133d7565b975061343f836133ef565b925050600181019050613420565b5085935050505092915050565b6000602082019050818103600083015261347481846133fc565b905092915050565b600080fd5b600080fd5b7f4e487b7100000000000000000000000000000000000000000000000000000000600052604160045260246000fd5b6134be82612eca565b810181811067ffffffffffffffff821117156134dd576134dc613486565b5b80604052505050565b60006134f0612dc9565b90506134fc82826134b5565b919050565b600067ffffffffffffffff82111561351c5761351b613486565b5b61352582612eca565b9050602081019050919050565b82818337600083830152505050565b600061355461354f84613501565b6134e6565b9050828152602081018484840111156135705761356f613481565b5b61357b848285613532565b509392505050565b600082601f8301126135985761359761347c565b5b81356135a8848260208601613541565b91505092915050565b6135ba81612f55565b81146135c557600080fd5b50565b6000813590506135d7816135b1565b92915050565b60008060008060008060c087890312156135fa576135f9612dd3565b5b600087013567ffffffffffffffff81111561361857613617612dd8565b5b61362489828a01613583565b965050602087013567ffffffffffffffff81111561364557613644612dd8565b5b61365189828a01613583565b955050604087013567ffffffffffffffff81111561367257613671612dd8565b5b61367e89828a01613583565b945050606087013567ffffffffffffffff81111561369f5761369e612dd8565b5b6136ab89828a01613583565b935050608087013567ffffffffffffffff8111156136cc576136cb612dd8565b5b6136d889828a01613583565b92505060a06136e989828a016135c8565b9150509295509295509295565b7f4f6e6c79204d6f64657261746f72732048617665204163636573732100000000600082015250565b600061372c601c83613296565b9150613737826136f6565b602082019050919050565b6000602082019050818103600083015261375b8161371f565b9050919050565b7f5061757361626c653a2070617573656400000000000000000000000000000000600082015250565b6000613798601083613296565b91506137a382613762565b602082019050919050565b600060208201905081810360008301526137c78161378b565b9050919050565b7f416464726573732069732063757272656e746c7920426c61636b6c697374656460008201527f2e2e000000000000000000000000000000000000000000000000000000000000602082015250565b600061382a602283613296565b9150613835826137ce565b604082019050919050565b600060208201905081810360008301526138598161381d565b9050919050565b7f4e487b7100000000000000000000000000000000000000000000000000000000600052601160045260246000fd5b600061389a82612ddd565b91506138a583612ddd565b9250827fffffffffffffffffffffffffffffffffffffffffffffffffffffffffffffffff038211156138da576138d9613860565b5b828201905092915050565b60006138f082612ddd565b91507fffffffffffffffffffffffffffffffffffffffffffffffffffffffffffffffff82141561392357613922613860565b5b600182019050919050565b7f4e487b7100000000000000000000000000000000000000000000000000000000600052602260045260246000fd5b6000600282049050600182168061397557607f821691505b602082108114156139895761398861392e565b5b50919050565b7f4e487b7100000000000000000000000000000000000000000000000000000000600052603260045260246000fd5b60006040820190506139d3600083018561325d565b6139e0602083018461325d565b9392505050565b60006139f282612ddd565b91506139fd83612ddd565b925082821015613a1057613a0f613860565b5b828203905092915050565b7f4e487b7100000000000000000000000000000000000000000000000000000000600052603160045260246000fd5b7f796f752063616e206f6e6c79206d616e6970756c61746520796f7572206f776e60008201527f2066696c65000000000000000000000000000000000000000000000000000000602082015250565b6000613aa6602583613296565b9150613ab182613a4a565b604082019050919050565b60006020820190508181036000830152613ad581613a99565b9050919050565b7f46696c6520686173206265656e207265706f72746564206561726c6965722e00600082015250565b6000613b12601f83613296565b9150613b1d82613adc565b602082019050919050565b60006020820190508181036000830152613b4181613b05565b9050919050565b7f46696c6520686173206265656e20626c61636b6c697374656420666f7220766960008201527f6f6c6174696f6e2c20616e642063616e6e6f74206265206d616465207075626c60208201527f69632e0000000000000000000000000000000000000000000000000000000000604082015250565b6000613bca604383613296565b9150613bd582613b48565b606082019050919050565b60006020820190508181036000830152613bf981613bbd565b9050919050565b7f6f6e6c792061646d696e2063616e2063616c6c20746869730000000000000000600082015250565b6000613c36601883613296565b9150613c4182613c00565b602082019050919050565b60006020820190508181036000830152613c6581613c29565b9050919050565b7f5061757361626c653a206e6f7420706175736564000000000000000000000000600082015250565b6000613ca2601483613296565b9150613cad82613c6c565b602082019050919050565b60006020820190508181036000830152613cd181613c95565b905091905056fea26469706673582212201707111a37aff86b575dd1ffc132195370c6d826a37e94289b9a60f605bc6ed764736f6c634300080a0033",
  "linkReferences": {},
  "deployedLinkReferences": {}
}